{
  "_format": "hh-sol-artifact-1",
  "contractName": "TimelockControllerUpgradeable",
  "sourceName": "@openzeppelin/contracts-upgradeable/governance/TimelockControllerUpgradeable.sol",
  "abi": [
    {
      "anonymous": false,
      "inputs": [
        {
          "indexed": true,
          "internalType": "bytes32",
          "name": "id",
          "type": "bytes32"
        },
        {
          "indexed": true,
          "internalType": "uint256",
          "name": "index",
          "type": "uint256"
        },
        {
          "indexed": false,
          "internalType": "address",
          "name": "target",
          "type": "address"
        },
        {
          "indexed": false,
          "internalType": "uint256",
          "name": "value",
          "type": "uint256"
        },
        {
          "indexed": false,
          "internalType": "bytes",
          "name": "data",
          "type": "bytes"
        }
      ],
      "name": "CallExecuted",
      "type": "event"
    },
    {
      "anonymous": false,
      "inputs": [
        {
          "indexed": true,
          "internalType": "bytes32",
          "name": "id",
          "type": "bytes32"
        },
        {
          "indexed": true,
          "internalType": "uint256",
          "name": "index",
          "type": "uint256"
        },
        {
          "indexed": false,
          "internalType": "address",
          "name": "target",
          "type": "address"
        },
        {
          "indexed": false,
          "internalType": "uint256",
          "name": "value",
          "type": "uint256"
        },
        {
          "indexed": false,
          "internalType": "bytes",
          "name": "data",
          "type": "bytes"
        },
        {
          "indexed": false,
          "internalType": "bytes32",
          "name": "predecessor",
          "type": "bytes32"
        },
        {
          "indexed": false,
          "internalType": "uint256",
          "name": "delay",
          "type": "uint256"
        }
      ],
      "name": "CallScheduled",
      "type": "event"
    },
    {
      "anonymous": false,
      "inputs": [
        {
          "indexed": true,
          "internalType": "bytes32",
          "name": "id",
          "type": "bytes32"
        }
      ],
      "name": "Cancelled",
      "type": "event"
    },
    {
      "anonymous": false,
      "inputs": [
        {
          "indexed": false,
          "internalType": "uint8",
          "name": "version",
          "type": "uint8"
        }
      ],
      "name": "Initialized",
      "type": "event"
    },
    {
      "anonymous": false,
      "inputs": [
        {
          "indexed": false,
          "internalType": "uint256",
          "name": "oldDuration",
          "type": "uint256"
        },
        {
          "indexed": false,
          "internalType": "uint256",
          "name": "newDuration",
          "type": "uint256"
        }
      ],
      "name": "MinDelayChange",
      "type": "event"
    },
    {
      "anonymous": false,
      "inputs": [
        {
          "indexed": true,
          "internalType": "bytes32",
          "name": "role",
          "type": "bytes32"
        },
        {
          "indexed": true,
          "internalType": "bytes32",
          "name": "previousAdminRole",
          "type": "bytes32"
        },
        {
          "indexed": true,
          "internalType": "bytes32",
          "name": "newAdminRole",
          "type": "bytes32"
        }
      ],
      "name": "RoleAdminChanged",
      "type": "event"
    },
    {
      "anonymous": false,
      "inputs": [
        {
          "indexed": true,
          "internalType": "bytes32",
          "name": "role",
          "type": "bytes32"
        },
        {
          "indexed": true,
          "internalType": "address",
          "name": "account",
          "type": "address"
        },
        {
          "indexed": true,
          "internalType": "address",
          "name": "sender",
          "type": "address"
        }
      ],
      "name": "RoleGranted",
      "type": "event"
    },
    {
      "anonymous": false,
      "inputs": [
        {
          "indexed": true,
          "internalType": "bytes32",
          "name": "role",
          "type": "bytes32"
        },
        {
          "indexed": true,
          "internalType": "address",
          "name": "account",
          "type": "address"
        },
        {
          "indexed": true,
          "internalType": "address",
          "name": "sender",
          "type": "address"
        }
      ],
      "name": "RoleRevoked",
      "type": "event"
    },
    {
      "inputs": [],
      "name": "CANCELLER_ROLE",
      "outputs": [
        {
          "internalType": "bytes32",
          "name": "",
          "type": "bytes32"
        }
      ],
      "stateMutability": "view",
      "type": "function"
    },
    {
      "inputs": [],
      "name": "DEFAULT_ADMIN_ROLE",
      "outputs": [
        {
          "internalType": "bytes32",
          "name": "",
          "type": "bytes32"
        }
      ],
      "stateMutability": "view",
      "type": "function"
    },
    {
      "inputs": [],
      "name": "EXECUTOR_ROLE",
      "outputs": [
        {
          "internalType": "bytes32",
          "name": "",
          "type": "bytes32"
        }
      ],
      "stateMutability": "view",
      "type": "function"
    },
    {
      "inputs": [],
      "name": "PROPOSER_ROLE",
      "outputs": [
        {
          "internalType": "bytes32",
          "name": "",
          "type": "bytes32"
        }
      ],
      "stateMutability": "view",
      "type": "function"
    },
    {
      "inputs": [],
      "name": "TIMELOCK_ADMIN_ROLE",
      "outputs": [
        {
          "internalType": "bytes32",
          "name": "",
          "type": "bytes32"
        }
      ],
      "stateMutability": "view",
      "type": "function"
    },
    {
      "inputs": [
        {
          "internalType": "bytes32",
          "name": "id",
          "type": "bytes32"
        }
      ],
      "name": "cancel",
      "outputs": [],
      "stateMutability": "nonpayable",
      "type": "function"
    },
    {
      "inputs": [
        {
          "internalType": "address",
          "name": "target",
          "type": "address"
        },
        {
          "internalType": "uint256",
          "name": "value",
          "type": "uint256"
        },
        {
          "internalType": "bytes",
          "name": "payload",
          "type": "bytes"
        },
        {
          "internalType": "bytes32",
          "name": "predecessor",
          "type": "bytes32"
        },
        {
          "internalType": "bytes32",
          "name": "salt",
          "type": "bytes32"
        }
      ],
      "name": "execute",
      "outputs": [],
      "stateMutability": "payable",
      "type": "function"
    },
    {
      "inputs": [
        {
          "internalType": "address[]",
          "name": "targets",
          "type": "address[]"
        },
        {
          "internalType": "uint256[]",
          "name": "values",
          "type": "uint256[]"
        },
        {
          "internalType": "bytes[]",
          "name": "payloads",
          "type": "bytes[]"
        },
        {
          "internalType": "bytes32",
          "name": "predecessor",
          "type": "bytes32"
        },
        {
          "internalType": "bytes32",
          "name": "salt",
          "type": "bytes32"
        }
      ],
      "name": "executeBatch",
      "outputs": [],
      "stateMutability": "payable",
      "type": "function"
    },
    {
      "inputs": [],
      "name": "getMinDelay",
      "outputs": [
        {
          "internalType": "uint256",
          "name": "duration",
          "type": "uint256"
        }
      ],
      "stateMutability": "view",
      "type": "function"
    },
    {
      "inputs": [
        {
          "internalType": "bytes32",
          "name": "role",
          "type": "bytes32"
        }
      ],
      "name": "getRoleAdmin",
      "outputs": [
        {
          "internalType": "bytes32",
          "name": "",
          "type": "bytes32"
        }
      ],
      "stateMutability": "view",
      "type": "function"
    },
    {
      "inputs": [
        {
          "internalType": "bytes32",
          "name": "id",
          "type": "bytes32"
        }
      ],
      "name": "getTimestamp",
      "outputs": [
        {
          "internalType": "uint256",
          "name": "timestamp",
          "type": "uint256"
        }
      ],
      "stateMutability": "view",
      "type": "function"
    },
    {
      "inputs": [
        {
          "internalType": "bytes32",
          "name": "role",
          "type": "bytes32"
        },
        {
          "internalType": "address",
          "name": "account",
          "type": "address"
        }
      ],
      "name": "grantRole",
      "outputs": [],
      "stateMutability": "nonpayable",
      "type": "function"
    },
    {
      "inputs": [
        {
          "internalType": "bytes32",
          "name": "role",
          "type": "bytes32"
        },
        {
          "internalType": "address",
          "name": "account",
          "type": "address"
        }
      ],
      "name": "hasRole",
      "outputs": [
        {
          "internalType": "bool",
          "name": "",
          "type": "bool"
        }
      ],
      "stateMutability": "view",
      "type": "function"
    },
    {
      "inputs": [
        {
          "internalType": "address",
          "name": "target",
          "type": "address"
        },
        {
          "internalType": "uint256",
          "name": "value",
          "type": "uint256"
        },
        {
          "internalType": "bytes",
          "name": "data",
          "type": "bytes"
        },
        {
          "internalType": "bytes32",
          "name": "predecessor",
          "type": "bytes32"
        },
        {
          "internalType": "bytes32",
          "name": "salt",
          "type": "bytes32"
        }
      ],
      "name": "hashOperation",
      "outputs": [
        {
          "internalType": "bytes32",
          "name": "hash",
          "type": "bytes32"
        }
      ],
      "stateMutability": "pure",
      "type": "function"
    },
    {
      "inputs": [
        {
          "internalType": "address[]",
          "name": "targets",
          "type": "address[]"
        },
        {
          "internalType": "uint256[]",
          "name": "values",
          "type": "uint256[]"
        },
        {
          "internalType": "bytes[]",
          "name": "payloads",
          "type": "bytes[]"
        },
        {
          "internalType": "bytes32",
          "name": "predecessor",
          "type": "bytes32"
        },
        {
          "internalType": "bytes32",
          "name": "salt",
          "type": "bytes32"
        }
      ],
      "name": "hashOperationBatch",
      "outputs": [
        {
          "internalType": "bytes32",
          "name": "hash",
          "type": "bytes32"
        }
      ],
      "stateMutability": "pure",
      "type": "function"
    },
    {
      "inputs": [
        {
          "internalType": "bytes32",
          "name": "id",
          "type": "bytes32"
        }
      ],
      "name": "isOperation",
      "outputs": [
        {
          "internalType": "bool",
          "name": "registered",
          "type": "bool"
        }
      ],
      "stateMutability": "view",
      "type": "function"
    },
    {
      "inputs": [
        {
          "internalType": "bytes32",
          "name": "id",
          "type": "bytes32"
        }
      ],
      "name": "isOperationDone",
      "outputs": [
        {
          "internalType": "bool",
          "name": "done",
          "type": "bool"
        }
      ],
      "stateMutability": "view",
      "type": "function"
    },
    {
      "inputs": [
        {
          "internalType": "bytes32",
          "name": "id",
          "type": "bytes32"
        }
      ],
      "name": "isOperationPending",
      "outputs": [
        {
          "internalType": "bool",
          "name": "pending",
          "type": "bool"
        }
      ],
      "stateMutability": "view",
      "type": "function"
    },
    {
      "inputs": [
        {
          "internalType": "bytes32",
          "name": "id",
          "type": "bytes32"
        }
      ],
      "name": "isOperationReady",
      "outputs": [
        {
          "internalType": "bool",
          "name": "ready",
          "type": "bool"
        }
      ],
      "stateMutability": "view",
      "type": "function"
    },
    {
      "inputs": [
        {
          "internalType": "address",
          "name": "",
          "type": "address"
        },
        {
          "internalType": "address",
          "name": "",
          "type": "address"
        },
        {
          "internalType": "uint256[]",
          "name": "",
          "type": "uint256[]"
        },
        {
          "internalType": "uint256[]",
          "name": "",
          "type": "uint256[]"
        },
        {
          "internalType": "bytes",
          "name": "",
          "type": "bytes"
        }
      ],
      "name": "onERC1155BatchReceived",
      "outputs": [
        {
          "internalType": "bytes4",
          "name": "",
          "type": "bytes4"
        }
      ],
      "stateMutability": "nonpayable",
      "type": "function"
    },
    {
      "inputs": [
        {
          "internalType": "address",
          "name": "",
          "type": "address"
        },
        {
          "internalType": "address",
          "name": "",
          "type": "address"
        },
        {
          "internalType": "uint256",
          "name": "",
          "type": "uint256"
        },
        {
          "internalType": "uint256",
          "name": "",
          "type": "uint256"
        },
        {
          "internalType": "bytes",
          "name": "",
          "type": "bytes"
        }
      ],
      "name": "onERC1155Received",
      "outputs": [
        {
          "internalType": "bytes4",
          "name": "",
          "type": "bytes4"
        }
      ],
      "stateMutability": "nonpayable",
      "type": "function"
    },
    {
      "inputs": [
        {
          "internalType": "address",
          "name": "",
          "type": "address"
        },
        {
          "internalType": "address",
          "name": "",
          "type": "address"
        },
        {
          "internalType": "uint256",
          "name": "",
          "type": "uint256"
        },
        {
          "internalType": "bytes",
          "name": "",
          "type": "bytes"
        }
      ],
      "name": "onERC721Received",
      "outputs": [
        {
          "internalType": "bytes4",
          "name": "",
          "type": "bytes4"
        }
      ],
      "stateMutability": "nonpayable",
      "type": "function"
    },
    {
      "inputs": [
        {
          "internalType": "bytes32",
          "name": "role",
          "type": "bytes32"
        },
        {
          "internalType": "address",
          "name": "account",
          "type": "address"
        }
      ],
      "name": "renounceRole",
      "outputs": [],
      "stateMutability": "nonpayable",
      "type": "function"
    },
    {
      "inputs": [
        {
          "internalType": "bytes32",
          "name": "role",
          "type": "bytes32"
        },
        {
          "internalType": "address",
          "name": "account",
          "type": "address"
        }
      ],
      "name": "revokeRole",
      "outputs": [],
      "stateMutability": "nonpayable",
      "type": "function"
    },
    {
      "inputs": [
        {
          "internalType": "address",
          "name": "target",
          "type": "address"
        },
        {
          "internalType": "uint256",
          "name": "value",
          "type": "uint256"
        },
        {
          "internalType": "bytes",
          "name": "data",
          "type": "bytes"
        },
        {
          "internalType": "bytes32",
          "name": "predecessor",
          "type": "bytes32"
        },
        {
          "internalType": "bytes32",
          "name": "salt",
          "type": "bytes32"
        },
        {
          "internalType": "uint256",
          "name": "delay",
          "type": "uint256"
        }
      ],
      "name": "schedule",
      "outputs": [],
      "stateMutability": "nonpayable",
      "type": "function"
    },
    {
      "inputs": [
        {
          "internalType": "address[]",
          "name": "targets",
          "type": "address[]"
        },
        {
          "internalType": "uint256[]",
          "name": "values",
          "type": "uint256[]"
        },
        {
          "internalType": "bytes[]",
          "name": "payloads",
          "type": "bytes[]"
        },
        {
          "internalType": "bytes32",
          "name": "predecessor",
          "type": "bytes32"
        },
        {
          "internalType": "bytes32",
          "name": "salt",
          "type": "bytes32"
        },
        {
          "internalType": "uint256",
          "name": "delay",
          "type": "uint256"
        }
      ],
      "name": "scheduleBatch",
      "outputs": [],
      "stateMutability": "nonpayable",
      "type": "function"
    },
    {
      "inputs": [
        {
          "internalType": "bytes4",
          "name": "interfaceId",
          "type": "bytes4"
        }
      ],
      "name": "supportsInterface",
      "outputs": [
        {
          "internalType": "bool",
          "name": "",
          "type": "bool"
        }
      ],
      "stateMutability": "view",
      "type": "function"
    },
    {
      "inputs": [
        {
          "internalType": "uint256",
          "name": "newDelay",
          "type": "uint256"
        }
      ],
      "name": "updateDelay",
      "outputs": [],
      "stateMutability": "nonpayable",
      "type": "function"
    },
    {
      "stateMutability": "payable",
      "type": "receive"
    }
  ],
  "bytecode": "0x608060405234801561001057600080fd5b50612105806100206000396000f3fe6080604052600436106101bb5760003560e01c80638065657f116100ec578063bc197c811161008a578063d547741f11610064578063d547741f146105d9578063e38335e5146105f9578063f23a6e611461060c578063f27a0c921461065157600080fd5b8063bc197c8114610547578063c4d252f51461058c578063d45c4435146105ac57600080fd5b806391d14854116100c657806391d1485414610498578063a217fddf146104de578063b08e51c0146104f3578063b1c5f4271461052757600080fd5b80638065657f146104245780638f2a0bb0146104445780638f61f4f51461046457600080fd5b8063248a9ca31161015957806331d507501161013357806331d50750146103a457806336568abe146103c4578063584b153e146103e457806364d623531461040457600080fd5b8063248a9ca3146103245780632ab0f529146103545780632f2ff15d1461038457600080fd5b80630d3cf6fc116101955780630d3cf6fc14610260578063134008d31461029457806313bc9f20146102a7578063150b7a02146102c757600080fd5b806301d5062a146101c757806301ffc9a7146101e957806307bd02651461021e57600080fd5b366101c257005b600080fd5b3480156101d357600080fd5b506101e76101e2366004611758565b610666565b005b3480156101f557600080fd5b506102096102043660046117cd565b6106fb565b60405190151581526020015b60405180910390f35b34801561022a57600080fd5b506102527fd8aa0f3194971a2a116679f7c2090f6939c8d4e01a2a8d7e41d55e5351469e6381565b604051908152602001610215565b34801561026c57600080fd5b506102527f5f58e3a2316349923ce3780f8d587db2d72378aed66a8261c916544fa6846ca581565b6101e76102a23660046117f7565b61073f565b3480156102b357600080fd5b506102096102c2366004611863565b610837565b3480156102d357600080fd5b5061030b6102e2366004611933565b7f150b7a0200000000000000000000000000000000000000000000000000000000949350505050565b6040516001600160e01b03199091168152602001610215565b34801561033057600080fd5b5061025261033f366004611863565b60009081526065602052604090206001015490565b34801561036057600080fd5b5061020961036f366004611863565b60009081526097602052604090205460011490565b34801561039057600080fd5b506101e761039f36600461199b565b61085d565b3480156103b057600080fd5b506102096103bf366004611863565b610887565b3480156103d057600080fd5b506101e76103df36600461199b565b6108a0565b3480156103f057600080fd5b506102096103ff366004611863565b610931565b34801561041057600080fd5b506101e761041f366004611863565b610948565b34801561043057600080fd5b5061025261043f3660046117f7565b6109fe565b34801561045057600080fd5b506101e761045f366004611a0c565b610a3d565b34801561047057600080fd5b506102527fb09aa5aeb3702cfd50b6b62bc4532604938f21248a27a1d5ca736082b6819cc181565b3480156104a457600080fd5b506102096104b336600461199b565b60009182526065602090815260408084206001600160a01b0393909316845291905290205460ff1690565b3480156104ea57600080fd5b50610252600081565b3480156104ff57600080fd5b506102527ffd643c72710c63c0180259aba6b2d05451e3591a24e58b62239378085726f78381565b34801561053357600080fd5b50610252610542366004611abe565b610c07565b34801561055357600080fd5b5061030b610562366004611be7565b7fbc197c810000000000000000000000000000000000000000000000000000000095945050505050565b34801561059857600080fd5b506101e76105a7366004611863565b610c4c565b3480156105b857600080fd5b506102526105c7366004611863565b60009081526097602052604090205490565b3480156105e557600080fd5b506101e76105f436600461199b565b610d2d565b6101e7610607366004611abe565b610d52565b34801561061857600080fd5b5061030b610627366004611c91565b7ff23a6e610000000000000000000000000000000000000000000000000000000095945050505050565b34801561065d57600080fd5b50609854610252565b7fb09aa5aeb3702cfd50b6b62bc4532604938f21248a27a1d5ca736082b6819cc161069081610f97565b60006106a08989898989896109fe565b90506106ac8184610fa4565b6000817f4cf4410cc57040e44862ef0f45f3dd5a5e02db8eb8add648d4b0e236f1d07dca8b8b8b8b8b8a6040516106e896959493929190611d1f565b60405180910390a3505050505050505050565b60006001600160e01b031982167f4e2312e00000000000000000000000000000000000000000000000000000000014806107395750610739826110b8565b92915050565b600080527f7dc9f88e569f94faad6fa0d44dd44858caf3f34f1bd1c985800aedf5793aad8b6020527fa01e231ca478cf51f663e103939e98de36fa76d3e4e0b1de673dc711acc3a01b547fd8aa0f3194971a2a116679f7c2090f6939c8d4e01a2a8d7e41d55e5351469e639060ff166107bc576107bc813361111f565b60006107cc8888888888886109fe565b90506107d8818561119f565b6107e488888888611294565b6000817fc2617efa69bab66782fa219543714338489c4e9e178271560a91b82c3f612b588a8a8a8a60405161081c9493929190611d5d565b60405180910390a361082d81611371565b5050505050505050565b6000818152609760205260408120546001811180156108565750428111155b9392505050565b60008281526065602052604090206001015461087881610f97565b61088283836113ed565b505050565b60008181526097602052604081205481905b1192915050565b6001600160a01b03811633146109235760405162461bcd60e51b815260206004820152602f60248201527f416363657373436f6e74726f6c3a2063616e206f6e6c792072656e6f756e636560448201527f20726f6c657320666f722073656c66000000000000000000000000000000000060648201526084015b60405180910390fd5b61092d828261148f565b5050565b600081815260976020526040812054600190610899565b3330146109bd5760405162461bcd60e51b815260206004820152602b60248201527f54696d656c6f636b436f6e74726f6c6c65723a2063616c6c6572206d7573742060448201527f62652074696d656c6f636b000000000000000000000000000000000000000000606482015260840161091a565b60985460408051918252602082018390527f11c24f4ead16507c69ac467fbd5e4eed5fb5c699626d2cc6d66421df253886d5910160405180910390a1609855565b6000868686868686604051602001610a1b96959493929190611d1f565b6040516020818303038152906040528051906020012090509695505050505050565b7fb09aa5aeb3702cfd50b6b62bc4532604938f21248a27a1d5ca736082b6819cc1610a6781610f97565b888714610ac25760405162461bcd60e51b815260206004820152602360248201527f54696d656c6f636b436f6e74726f6c6c65723a206c656e677468206d69736d616044820152620e8c6d60eb1b606482015260840161091a565b888514610b1d5760405162461bcd60e51b815260206004820152602360248201527f54696d656c6f636b436f6e74726f6c6c65723a206c656e677468206d69736d616044820152620e8c6d60eb1b606482015260840161091a565b6000610b2f8b8b8b8b8b8b8b8b610c07565b9050610b3b8184610fa4565b60005b8a811015610bf95780827f4cf4410cc57040e44862ef0f45f3dd5a5e02db8eb8add648d4b0e236f1d07dca8e8e85818110610b7b57610b7b611d90565b9050602002016020810190610b909190611da6565b8d8d86818110610ba257610ba2611d90565b905060200201358c8c87818110610bbb57610bbb611d90565b9050602002810190610bcd9190611dc1565b8c8b604051610be196959493929190611d1f565b60405180910390a3610bf281611e1e565b9050610b3e565b505050505050505050505050565b60008888888888888888604051602001610c28989796959493929190611ec9565b60405160208183030381529060405280519060200120905098975050505050505050565b7ffd643c72710c63c0180259aba6b2d05451e3591a24e58b62239378085726f783610c7681610f97565b610c7f82610931565b610cf15760405162461bcd60e51b815260206004820152603160248201527f54696d656c6f636b436f6e74726f6c6c65723a206f7065726174696f6e20636160448201527f6e6e6f742062652063616e63656c6c6564000000000000000000000000000000606482015260840161091a565b6000828152609760205260408082208290555183917fbaa1eb22f2a492ba1a5fea61b8df4d27c6c8b5f3971e63bb58fa14ff72eedb7091a25050565b600082815260656020526040902060010154610d4881610f97565b610882838361148f565b600080527f7dc9f88e569f94faad6fa0d44dd44858caf3f34f1bd1c985800aedf5793aad8b6020527fa01e231ca478cf51f663e103939e98de36fa76d3e4e0b1de673dc711acc3a01b547fd8aa0f3194971a2a116679f7c2090f6939c8d4e01a2a8d7e41d55e5351469e639060ff16610dcf57610dcf813361111f565b878614610e2a5760405162461bcd60e51b815260206004820152602360248201527f54696d656c6f636b436f6e74726f6c6c65723a206c656e677468206d69736d616044820152620e8c6d60eb1b606482015260840161091a565b878414610e855760405162461bcd60e51b815260206004820152602360248201527f54696d656c6f636b436f6e74726f6c6c65723a206c656e677468206d69736d616044820152620e8c6d60eb1b606482015260840161091a565b6000610e978a8a8a8a8a8a8a8a610c07565b9050610ea3818561119f565b60005b89811015610f815760008b8b83818110610ec257610ec2611d90565b9050602002016020810190610ed79190611da6565b905060008a8a84818110610eed57610eed611d90565b9050602002013590503660008a8a86818110610f0b57610f0b611d90565b9050602002810190610f1d9190611dc1565b91509150610f2d84848484611294565b84867fc2617efa69bab66782fa219543714338489c4e9e178271560a91b82c3f612b5886868686604051610f649493929190611d5d565b60405180910390a35050505080610f7a90611e1e565b9050610ea6565b50610f8b81611371565b50505050505050505050565b610fa1813361111f565b50565b610fad82610887565b156110205760405162461bcd60e51b815260206004820152602f60248201527f54696d656c6f636b436f6e74726f6c6c65723a206f7065726174696f6e20616c60448201527f7265616479207363686564756c65640000000000000000000000000000000000606482015260840161091a565b6098548110156110985760405162461bcd60e51b815260206004820152602660248201527f54696d656c6f636b436f6e74726f6c6c65723a20696e73756666696369656e7460448201527f2064656c61790000000000000000000000000000000000000000000000000000606482015260840161091a565b6110a28142611f8d565b6000928352609760205260409092209190915550565b60006001600160e01b031982167f7965db0b00000000000000000000000000000000000000000000000000000000148061073957507f01ffc9a7000000000000000000000000000000000000000000000000000000006001600160e01b0319831614610739565b60008281526065602090815260408083206001600160a01b038516845290915290205460ff1661092d5761115d816001600160a01b03166014611512565b611168836020611512565b604051602001611179929190611fd5565b60408051601f198184030181529082905262461bcd60e51b825261091a91600401612056565b6111a882610837565b6112075760405162461bcd60e51b815260206004820152602a60248201527f54696d656c6f636b436f6e74726f6c6c65723a206f7065726174696f6e206973604482015269206e6f7420726561647960b01b606482015260840161091a565b80158061122257506000818152609760205260409020546001145b61092d5760405162461bcd60e51b815260206004820152602660248201527f54696d656c6f636b436f6e74726f6c6c65723a206d697373696e67206465706560448201527f6e64656e63790000000000000000000000000000000000000000000000000000606482015260840161091a565b6000846001600160a01b03168484846040516112b1929190612089565b60006040518083038185875af1925050503d80600081146112ee576040519150601f19603f3d011682016040523d82523d6000602084013e6112f3565b606091505b505090508061136a5760405162461bcd60e51b815260206004820152603360248201527f54696d656c6f636b436f6e74726f6c6c65723a20756e6465726c79696e67207460448201527f72616e73616374696f6e20726576657274656400000000000000000000000000606482015260840161091a565b5050505050565b61137a81610837565b6113d95760405162461bcd60e51b815260206004820152602a60248201527f54696d656c6f636b436f6e74726f6c6c65723a206f7065726174696f6e206973604482015269206e6f7420726561647960b01b606482015260840161091a565b600090815260976020526040902060019055565b60008281526065602090815260408083206001600160a01b038516845290915290205460ff1661092d5760008281526065602090815260408083206001600160a01b03851684529091529020805460ff1916600117905561144b3390565b6001600160a01b0316816001600160a01b0316837f2f8788117e7eff1d82e926ec794901d17c78024a50270940304540a733656f0d60405160405180910390a45050565b60008281526065602090815260408083206001600160a01b038516845290915290205460ff161561092d5760008281526065602090815260408083206001600160a01b0385168085529252808320805460ff1916905551339285917ff6391f5c32d9c69d2a47ea670b442974b53935d1edc7fd64eb21e047a839171b9190a45050565b60606000611521836002612099565b61152c906002611f8d565b67ffffffffffffffff8111156115445761154461187c565b6040519080825280601f01601f19166020018201604052801561156e576020820181803683370190505b5090507f3000000000000000000000000000000000000000000000000000000000000000816000815181106115a5576115a5611d90565b60200101906001600160f81b031916908160001a9053507f7800000000000000000000000000000000000000000000000000000000000000816001815181106115f0576115f0611d90565b60200101906001600160f81b031916908160001a9053506000611614846002612099565b61161f906001611f8d565b90505b60018111156116a4577f303132333435363738396162636465660000000000000000000000000000000085600f166010811061166057611660611d90565b1a60f81b82828151811061167657611676611d90565b60200101906001600160f81b031916908160001a90535060049490941c9361169d816120b8565b9050611622565b5083156108565760405162461bcd60e51b815260206004820181905260248201527f537472696e67733a20686578206c656e67746820696e73756666696369656e74604482015260640161091a565b80356001600160a01b038116811461170a57600080fd5b919050565b60008083601f84011261172157600080fd5b50813567ffffffffffffffff81111561173957600080fd5b60208301915083602082850101111561175157600080fd5b9250929050565b600080600080600080600060c0888a03121561177357600080fd5b61177c886116f3565b965060208801359550604088013567ffffffffffffffff81111561179f57600080fd5b6117ab8a828b0161170f565b989b979a50986060810135976080820135975060a09091013595509350505050565b6000602082840312156117df57600080fd5b81356001600160e01b03198116811461085657600080fd5b60008060008060008060a0878903121561181057600080fd5b611819876116f3565b955060208701359450604087013567ffffffffffffffff81111561183c57600080fd5b61184889828a0161170f565b979a9699509760608101359660809091013595509350505050565b60006020828403121561187557600080fd5b5035919050565b634e487b7160e01b600052604160045260246000fd5b604051601f8201601f1916810167ffffffffffffffff811182821017156118bb576118bb61187c565b604052919050565b600082601f8301126118d457600080fd5b813567ffffffffffffffff8111156118ee576118ee61187c565b611901601f8201601f1916602001611892565b81815284602083860101111561191657600080fd5b816020850160208301376000918101602001919091529392505050565b6000806000806080858703121561194957600080fd5b611952856116f3565b9350611960602086016116f3565b925060408501359150606085013567ffffffffffffffff81111561198357600080fd5b61198f878288016118c3565b91505092959194509250565b600080604083850312156119ae57600080fd5b823591506119be602084016116f3565b90509250929050565b60008083601f8401126119d957600080fd5b50813567ffffffffffffffff8111156119f157600080fd5b6020830191508360208260051b850101111561175157600080fd5b600080600080600080600080600060c08a8c031215611a2a57600080fd5b893567ffffffffffffffff80821115611a4257600080fd5b611a4e8d838e016119c7565b909b50995060208c0135915080821115611a6757600080fd5b611a738d838e016119c7565b909950975060408c0135915080821115611a8c57600080fd5b50611a998c828d016119c7565b9a9d999c50979a969997986060880135976080810135975060a0013595509350505050565b60008060008060008060008060a0898b031215611ada57600080fd5b883567ffffffffffffffff80821115611af257600080fd5b611afe8c838d016119c7565b909a50985060208b0135915080821115611b1757600080fd5b611b238c838d016119c7565b909850965060408b0135915080821115611b3c57600080fd5b50611b498b828c016119c7565b999c989b509699959896976060870135966080013595509350505050565b600082601f830112611b7857600080fd5b8135602067ffffffffffffffff821115611b9457611b9461187c565b8160051b611ba3828201611892565b9283528481018201928281019087851115611bbd57600080fd5b83870192505b84831015611bdc57823582529183019190830190611bc3565b979650505050505050565b600080600080600060a08688031215611bff57600080fd5b611c08866116f3565b9450611c16602087016116f3565b9350604086013567ffffffffffffffff80821115611c3357600080fd5b611c3f89838a01611b67565b94506060880135915080821115611c5557600080fd5b611c6189838a01611b67565b93506080880135915080821115611c7757600080fd5b50611c84888289016118c3565b9150509295509295909350565b600080600080600060a08688031215611ca957600080fd5b611cb2866116f3565b9450611cc0602087016116f3565b93506040860135925060608601359150608086013567ffffffffffffffff811115611cea57600080fd5b611c84888289016118c3565b81835281816020850137506000828201602090810191909152601f909101601f19169091010190565b6001600160a01b038716815285602082015260a060408201526000611d4860a083018688611cf6565b60608301949094525060800152949350505050565b6001600160a01b0385168152836020820152606060408201526000611d86606083018486611cf6565b9695505050505050565b634e487b7160e01b600052603260045260246000fd5b600060208284031215611db857600080fd5b610856826116f3565b6000808335601e19843603018112611dd857600080fd5b83018035915067ffffffffffffffff821115611df357600080fd5b60200191503681900382131561175157600080fd5b634e487b7160e01b600052601160045260246000fd5b600060018201611e3057611e30611e08565b5060010190565b81835260006020808501808196508560051b810191508460005b87811015611ebc5782840389528135601e19883603018112611e7257600080fd5b8701858101903567ffffffffffffffff811115611e8e57600080fd5b803603821315611e9d57600080fd5b611ea8868284611cf6565b9a87019a9550505090840190600101611e51565b5091979650505050505050565b60a0808252810188905260008960c08301825b8b811015611f0a576001600160a01b03611ef5846116f3565b16825260209283019290910190600101611edc565b5083810360208501528881527f07ffffffffffffffffffffffffffffffffffffffffffffffffffffffffffffff891115611f4357600080fd5b8860051b9150818a602083013781810191505060208101600081526020848303016040850152611f7481888a611e37565b6060850196909652505050608001529695505050505050565b60008219821115611fa057611fa0611e08565b500190565b60005b83811015611fc0578181015183820152602001611fa8565b83811115611fcf576000848401525b50505050565b7f416363657373436f6e74726f6c3a206163636f756e742000000000000000000081526000835161200d816017850160208801611fa5565b7f206973206d697373696e6720726f6c6520000000000000000000000000000000601791840191820152835161204a816028840160208801611fa5565b01602801949350505050565b6020815260008251806020840152612075816040850160208701611fa5565b601f01601f19169190910160400192915050565b8183823760009101908152919050565b60008160001904831182151516156120b3576120b3611e08565b500290565b6000816120c7576120c7611e08565b50600019019056fea2646970667358221220c5c75ee0059c01f575d472f6c92f75fb69503e2e8285b150123e6774d173159064736f6c634300080f0033",
  "linkReferences": {},
  "deployedLinkReferences": {}
}