{
  "_format": "hh-sol-artifact-1",
  "contractName": "permissionRegistryLogic",
  "sourceName": "contracts/roleComponent/permissionReg/permissionRegistryLogic.sol",
  "abi": [
    {
      "inputs": [],
      "stateMutability": "nonpayable",
      "type": "constructor"
    },
    {
      "anonymous": false,
      "inputs": [
        {
          "indexed": false,
          "internalType": "address",
          "name": "previousAdmin",
          "type": "address"
        },
        {
          "indexed": false,
          "internalType": "address",
          "name": "newAdmin",
          "type": "address"
        }
      ],
      "name": "AdminChanged",
      "type": "event"
    },
    {
      "anonymous": false,
      "inputs": [
        {
          "indexed": true,
          "internalType": "address",
          "name": "owner",
          "type": "address"
        },
        {
          "indexed": true,
          "internalType": "address",
          "name": "approved",
          "type": "address"
        },
        {
          "indexed": true,
          "internalType": "uint256",
          "name": "tokenId",
          "type": "uint256"
        }
      ],
      "name": "Approval",
      "type": "event"
    },
    {
      "anonymous": false,
      "inputs": [
        {
          "indexed": true,
          "internalType": "address",
          "name": "owner",
          "type": "address"
        },
        {
          "indexed": true,
          "internalType": "address",
          "name": "operator",
          "type": "address"
        },
        {
          "indexed": false,
          "internalType": "bool",
          "name": "approved",
          "type": "bool"
        }
      ],
      "name": "ApprovalForAll",
      "type": "event"
    },
    {
      "anonymous": false,
      "inputs": [
        {
          "indexed": true,
          "internalType": "address",
          "name": "beacon",
          "type": "address"
        }
      ],
      "name": "BeaconUpgraded",
      "type": "event"
    },
    {
      "anonymous": false,
      "inputs": [
        {
          "indexed": false,
          "internalType": "address",
          "name": "module",
          "type": "address"
        }
      ],
      "name": "DisabledModule",
      "type": "event"
    },
    {
      "anonymous": false,
      "inputs": [
        {
          "indexed": false,
          "internalType": "address",
          "name": "module",
          "type": "address"
        }
      ],
      "name": "EnabledModule",
      "type": "event"
    },
    {
      "anonymous": false,
      "inputs": [
        {
          "indexed": true,
          "internalType": "address",
          "name": "module",
          "type": "address"
        }
      ],
      "name": "ExecutionFromModuleFailure",
      "type": "event"
    },
    {
      "anonymous": false,
      "inputs": [
        {
          "indexed": true,
          "internalType": "address",
          "name": "module",
          "type": "address"
        }
      ],
      "name": "ExecutionFromModuleSuccess",
      "type": "event"
    },
    {
      "anonymous": false,
      "inputs": [
        {
          "indexed": false,
          "internalType": "uint8",
          "name": "version",
          "type": "uint8"
        }
      ],
      "name": "Initialized",
      "type": "event"
    },
    {
      "anonymous": false,
      "inputs": [
        {
          "indexed": true,
          "internalType": "address",
          "name": "authority",
          "type": "address"
        }
      ],
      "name": "LogSetAuthority",
      "type": "event"
    },
    {
      "anonymous": false,
      "inputs": [
        {
          "indexed": true,
          "internalType": "address",
          "name": "owner",
          "type": "address"
        }
      ],
      "name": "LogSetOwner",
      "type": "event"
    },
    {
      "anonymous": false,
      "inputs": [
        {
          "indexed": true,
          "internalType": "address",
          "name": "previousOwner",
          "type": "address"
        },
        {
          "indexed": true,
          "internalType": "address",
          "name": "newOwner",
          "type": "address"
        }
      ],
      "name": "OwnershipTransferred",
      "type": "event"
    },
    {
      "anonymous": false,
      "inputs": [
        {
          "indexed": true,
          "internalType": "address",
          "name": "from",
          "type": "address"
        },
        {
          "indexed": true,
          "internalType": "address",
          "name": "to",
          "type": "address"
        },
        {
          "indexed": true,
          "internalType": "uint256",
          "name": "tokenId",
          "type": "uint256"
        }
      ],
      "name": "Transfer",
      "type": "event"
    },
    {
      "anonymous": false,
      "inputs": [
        {
          "indexed": true,
          "internalType": "address",
          "name": "implementation",
          "type": "address"
        }
      ],
      "name": "Upgraded",
      "type": "event"
    },
    {
      "inputs": [
        {
          "internalType": "address",
          "name": "to",
          "type": "address"
        },
        {
          "internalType": "uint256",
          "name": "tokenId",
          "type": "uint256"
        }
      ],
      "name": "approve",
      "outputs": [],
      "stateMutability": "nonpayable",
      "type": "function"
    },
    {
      "inputs": [],
      "name": "authority",
      "outputs": [
        {
          "internalType": "contract DSAuthority",
          "name": "",
          "type": "address"
        }
      ],
      "stateMutability": "view",
      "type": "function"
    },
    {
      "inputs": [
        {
          "internalType": "address",
          "name": "owner",
          "type": "address"
        }
      ],
      "name": "balanceOf",
      "outputs": [
        {
          "internalType": "uint256",
          "name": "",
          "type": "uint256"
        }
      ],
      "stateMutability": "view",
      "type": "function"
    },
    {
      "inputs": [
        {
          "internalType": "uint256",
          "name": "tokenId",
          "type": "uint256"
        }
      ],
      "name": "burn",
      "outputs": [],
      "stateMutability": "nonpayable",
      "type": "function"
    },
    {
      "inputs": [
        {
          "internalType": "address",
          "name": "caller",
          "type": "address"
        },
        {
          "internalType": "address",
          "name": "code",
          "type": "address"
        },
        {
          "internalType": "bytes4",
          "name": "sig",
          "type": "bytes4"
        }
      ],
      "name": "canCall",
      "outputs": [
        {
          "internalType": "bool",
          "name": "",
          "type": "bool"
        }
      ],
      "stateMutability": "view",
      "type": "function"
    },
    {
      "inputs": [
        {
          "internalType": "address",
          "name": "prevModule",
          "type": "address"
        },
        {
          "internalType": "address",
          "name": "module",
          "type": "address"
        }
      ],
      "name": "disableModule",
      "outputs": [],
      "stateMutability": "nonpayable",
      "type": "function"
    },
    {
      "inputs": [
        {
          "internalType": "address",
          "name": "module",
          "type": "address"
        }
      ],
      "name": "enableModule",
      "outputs": [],
      "stateMutability": "nonpayable",
      "type": "function"
    },
    {
      "inputs": [
        {
          "internalType": "address",
          "name": "to",
          "type": "address"
        },
        {
          "internalType": "uint256",
          "name": "value",
          "type": "uint256"
        },
        {
          "internalType": "bytes",
          "name": "data",
          "type": "bytes"
        },
        {
          "internalType": "enum Enum.Operation",
          "name": "operation",
          "type": "uint8"
        }
      ],
      "name": "execTransactionFromModule",
      "outputs": [
        {
          "internalType": "bool",
          "name": "success",
          "type": "bool"
        }
      ],
      "stateMutability": "nonpayable",
      "type": "function"
    },
    {
      "inputs": [
        {
          "internalType": "address",
          "name": "to",
          "type": "address"
        },
        {
          "internalType": "uint256",
          "name": "value",
          "type": "uint256"
        },
        {
          "internalType": "bytes",
          "name": "data",
          "type": "bytes"
        },
        {
          "internalType": "enum Enum.Operation",
          "name": "operation",
          "type": "uint8"
        }
      ],
      "name": "execTransactionFromModuleReturnData",
      "outputs": [
        {
          "internalType": "bool",
          "name": "success",
          "type": "bool"
        },
        {
          "internalType": "bytes",
          "name": "returnData",
          "type": "bytes"
        }
      ],
      "stateMutability": "nonpayable",
      "type": "function"
    },
    {
      "inputs": [
        {
          "internalType": "uint256",
          "name": "tokenId",
          "type": "uint256"
        }
      ],
      "name": "getApproved",
      "outputs": [
        {
          "internalType": "address",
          "name": "",
          "type": "address"
        }
      ],
      "stateMutability": "view",
      "type": "function"
    },
    {
      "inputs": [
        {
          "internalType": "address",
          "name": "code",
          "type": "address"
        },
        {
          "internalType": "bytes4",
          "name": "sig",
          "type": "bytes4"
        }
      ],
      "name": "getCapabilityRoles",
      "outputs": [
        {
          "internalType": "bytes32",
          "name": "",
          "type": "bytes32"
        }
      ],
      "stateMutability": "view",
      "type": "function"
    },
    {
      "inputs": [
        {
          "internalType": "address",
          "name": "start",
          "type": "address"
        },
        {
          "internalType": "uint256",
          "name": "pageSize",
          "type": "uint256"
        }
      ],
      "name": "getModulesPaginated",
      "outputs": [
        {
          "internalType": "address[]",
          "name": "array",
          "type": "address[]"
        },
        {
          "internalType": "address",
          "name": "next",
          "type": "address"
        }
      ],
      "stateMutability": "view",
      "type": "function"
    },
    {
      "inputs": [
        {
          "internalType": "address",
          "name": "owner",
          "type": "address"
        },
        {
          "internalType": "uint8",
          "name": "role",
          "type": "uint8"
        }
      ],
      "name": "getNFT",
      "outputs": [
        {
          "internalType": "string",
          "name": "",
          "type": "string"
        }
      ],
      "stateMutability": "view",
      "type": "function"
    },
    {
      "inputs": [
        {
          "internalType": "address",
          "name": "owner",
          "type": "address"
        },
        {
          "internalType": "uint8",
          "name": "role",
          "type": "uint8"
        }
      ],
      "name": "getTokenID",
      "outputs": [
        {
          "internalType": "uint256",
          "name": "tokenId",
          "type": "uint256"
        }
      ],
      "stateMutability": "view",
      "type": "function"
    },
    {
      "inputs": [
        {
          "internalType": "address",
          "name": "who",
          "type": "address"
        }
      ],
      "name": "getUserRoles",
      "outputs": [
        {
          "internalType": "bytes32",
          "name": "",
          "type": "bytes32"
        }
      ],
      "stateMutability": "view",
      "type": "function"
    },
    {
      "inputs": [
        {
          "internalType": "address",
          "name": "who",
          "type": "address"
        },
        {
          "internalType": "uint8",
          "name": "role",
          "type": "uint8"
        }
      ],
      "name": "hasUserRole",
      "outputs": [
        {
          "internalType": "bool",
          "name": "",
          "type": "bool"
        }
      ],
      "stateMutability": "view",
      "type": "function"
    },
    {
      "inputs": [
        {
          "internalType": "bytes",
          "name": "initializeParams",
          "type": "bytes"
        }
      ],
      "name": "initialize",
      "outputs": [],
      "stateMutability": "nonpayable",
      "type": "function"
    },
    {
      "inputs": [
        {
          "internalType": "address",
          "name": "owner",
          "type": "address"
        },
        {
          "internalType": "address",
          "name": "operator",
          "type": "address"
        }
      ],
      "name": "isApprovedForAll",
      "outputs": [
        {
          "internalType": "bool",
          "name": "",
          "type": "bool"
        }
      ],
      "stateMutability": "view",
      "type": "function"
    },
    {
      "inputs": [
        {
          "internalType": "address",
          "name": "code",
          "type": "address"
        },
        {
          "internalType": "bytes4",
          "name": "sig",
          "type": "bytes4"
        }
      ],
      "name": "isCapabilityPublic",
      "outputs": [
        {
          "internalType": "bool",
          "name": "",
          "type": "bool"
        }
      ],
      "stateMutability": "view",
      "type": "function"
    },
    {
      "inputs": [
        {
          "internalType": "address",
          "name": "module",
          "type": "address"
        }
      ],
      "name": "isModuleEnabled",
      "outputs": [
        {
          "internalType": "bool",
          "name": "",
          "type": "bool"
        }
      ],
      "stateMutability": "view",
      "type": "function"
    },
    {
      "inputs": [
        {
          "internalType": "address",
          "name": "who",
          "type": "address"
        }
      ],
      "name": "isUserRoot",
      "outputs": [
        {
          "internalType": "bool",
          "name": "",
          "type": "bool"
        }
      ],
      "stateMutability": "view",
      "type": "function"
    },
    {
      "inputs": [],
      "name": "name",
      "outputs": [
        {
          "internalType": "string",
          "name": "",
          "type": "string"
        }
      ],
      "stateMutability": "view",
      "type": "function"
    },
    {
      "inputs": [],
      "name": "owner",
      "outputs": [
        {
          "internalType": "address",
          "name": "",
          "type": "address"
        }
      ],
      "stateMutability": "view",
      "type": "function"
    },
    {
      "inputs": [
        {
          "internalType": "uint256",
          "name": "tokenId",
          "type": "uint256"
        }
      ],
      "name": "ownerOf",
      "outputs": [
        {
          "internalType": "address",
          "name": "",
          "type": "address"
        }
      ],
      "stateMutability": "view",
      "type": "function"
    },
    {
      "inputs": [],
      "name": "permissionRegistry",
      "outputs": [
        {
          "internalType": "address",
          "name": "",
          "type": "address"
        }
      ],
      "stateMutability": "view",
      "type": "function"
    },
    {
      "inputs": [],
      "name": "proxiableUUID",
      "outputs": [
        {
          "internalType": "bytes32",
          "name": "",
          "type": "bytes32"
        }
      ],
      "stateMutability": "view",
      "type": "function"
    },
    {
      "inputs": [],
      "name": "renounceOwnership",
      "outputs": [],
      "stateMutability": "nonpayable",
      "type": "function"
    },
    {
      "inputs": [
        {
          "internalType": "address",
          "name": "from",
          "type": "address"
        },
        {
          "internalType": "address",
          "name": "to",
          "type": "address"
        },
        {
          "internalType": "uint256",
          "name": "tokenId",
          "type": "uint256"
        }
      ],
      "name": "safeTransferFrom",
      "outputs": [],
      "stateMutability": "nonpayable",
      "type": "function"
    },
    {
      "inputs": [
        {
          "internalType": "address",
          "name": "from",
          "type": "address"
        },
        {
          "internalType": "address",
          "name": "to",
          "type": "address"
        },
        {
          "internalType": "uint256",
          "name": "tokenId",
          "type": "uint256"
        },
        {
          "internalType": "bytes",
          "name": "data",
          "type": "bytes"
        }
      ],
      "name": "safeTransferFrom",
      "outputs": [],
      "stateMutability": "nonpayable",
      "type": "function"
    },
    {
      "inputs": [
        {
          "internalType": "address",
          "name": "operator",
          "type": "address"
        },
        {
          "internalType": "bool",
          "name": "approved",
          "type": "bool"
        }
      ],
      "name": "setApprovalForAll",
      "outputs": [],
      "stateMutability": "nonpayable",
      "type": "function"
    },
    {
      "inputs": [
        {
          "internalType": "contract DSAuthority",
          "name": "authority_",
          "type": "address"
        }
      ],
      "name": "setAuthority",
      "outputs": [],
      "stateMutability": "nonpayable",
      "type": "function"
    },
    {
      "inputs": [
        {
          "internalType": "uint8",
          "name": "role",
          "type": "uint8"
        },
        {
          "internalType": "string",
          "name": "url",
          "type": "string"
        }
      ],
      "name": "setLink",
      "outputs": [],
      "stateMutability": "nonpayable",
      "type": "function"
    },
    {
      "inputs": [
        {
          "internalType": "address",
          "name": "owner_",
          "type": "address"
        }
      ],
      "name": "setOwner",
      "outputs": [],
      "stateMutability": "nonpayable",
      "type": "function"
    },
    {
      "inputs": [
        {
          "internalType": "address",
          "name": "_permissionReg",
          "type": "address"
        }
      ],
      "name": "setPermissionReg",
      "outputs": [],
      "stateMutability": "nonpayable",
      "type": "function"
    },
    {
      "inputs": [
        {
          "internalType": "address",
          "name": "code",
          "type": "address"
        },
        {
          "internalType": "bytes4",
          "name": "sig",
          "type": "bytes4"
        },
        {
          "internalType": "bool",
          "name": "enabled",
          "type": "bool"
        }
      ],
      "name": "setPublicCapability",
      "outputs": [],
      "stateMutability": "nonpayable",
      "type": "function"
    },
    {
      "inputs": [
        {
          "internalType": "uint8",
          "name": "role",
          "type": "uint8"
        },
        {
          "internalType": "address",
          "name": "code",
          "type": "address"
        },
        {
          "internalType": "bytes4",
          "name": "sig",
          "type": "bytes4"
        },
        {
          "internalType": "bool",
          "name": "enabled",
          "type": "bool"
        }
      ],
      "name": "setRoleCapability",
      "outputs": [],
      "stateMutability": "nonpayable",
      "type": "function"
    },
    {
      "inputs": [
        {
          "internalType": "address",
          "name": "who",
          "type": "address"
        },
        {
          "internalType": "bool",
          "name": "enabled",
          "type": "bool"
        }
      ],
      "name": "setRootUser",
      "outputs": [],
      "stateMutability": "nonpayable",
      "type": "function"
    },
    {
      "inputs": [
        {
          "internalType": "address",
          "name": "who",
          "type": "address"
        },
        {
          "internalType": "uint8",
          "name": "role",
          "type": "uint8"
        },
        {
          "internalType": "bool",
          "name": "enabled",
          "type": "bool"
        }
      ],
      "name": "setUserRole",
      "outputs": [],
      "stateMutability": "nonpayable",
      "type": "function"
    },
    {
      "inputs": [
        {
          "internalType": "bytes4",
          "name": "interfaceId",
          "type": "bytes4"
        }
      ],
      "name": "supportsInterface",
      "outputs": [
        {
          "internalType": "bool",
          "name": "",
          "type": "bool"
        }
      ],
      "stateMutability": "view",
      "type": "function"
    },
    {
      "inputs": [],
      "name": "symbol",
      "outputs": [
        {
          "internalType": "string",
          "name": "",
          "type": "string"
        }
      ],
      "stateMutability": "view",
      "type": "function"
    },
    {
      "inputs": [
        {
          "internalType": "uint256",
          "name": "tokenId",
          "type": "uint256"
        }
      ],
      "name": "tokenURI",
      "outputs": [
        {
          "internalType": "string",
          "name": "",
          "type": "string"
        }
      ],
      "stateMutability": "view",
      "type": "function"
    },
    {
      "inputs": [
        {
          "internalType": "address",
          "name": "from",
          "type": "address"
        },
        {
          "internalType": "address",
          "name": "to",
          "type": "address"
        },
        {
          "internalType": "uint256",
          "name": "tokenId",
          "type": "uint256"
        }
      ],
      "name": "transferFrom",
      "outputs": [],
      "stateMutability": "nonpayable",
      "type": "function"
    },
    {
      "inputs": [
        {
          "internalType": "address",
          "name": "newOwner",
          "type": "address"
        }
      ],
      "name": "transferOwnership",
      "outputs": [],
      "stateMutability": "nonpayable",
      "type": "function"
    },
    {
      "inputs": [
        {
          "internalType": "address",
          "name": "newImplementation",
          "type": "address"
        }
      ],
      "name": "upgradeTo",
      "outputs": [],
      "stateMutability": "nonpayable",
      "type": "function"
    },
    {
      "inputs": [
        {
          "internalType": "address",
          "name": "newImplementation",
          "type": "address"
        },
        {
          "internalType": "bytes",
          "name": "data",
          "type": "bytes"
        }
      ],
      "name": "upgradeToAndCall",
      "outputs": [],
      "stateMutability": "payable",
      "type": "function"
    }
  ],
  "bytecode": "0x60a0604052306080526103e8610167553480156200001c57600080fd5b50600180546001600160a01b031916339081179091556040517fce241d7ca1f669fee44b6fc00b8eba2df3bb514eed0f6f668f8f89096e81ed9490600090a2620000656200006b565b6200012d565b600654610100900460ff1615620000d85760405162461bcd60e51b815260206004820152602760248201527f496e697469616c697a61626c653a20636f6e747261637420697320696e697469604482015266616c697a696e6760c81b606482015260840160405180910390fd5b60065460ff90811610156200012b576006805460ff191660ff9081179091556040519081527f7f26b83ff96e1f2b6a682f133852f6798a09c465da95921460cefb38474024989060200160405180910390a15b565b6080516143d56200016560003960008181610f3d01528181610fc201528181611433015281816114b801526115d401526143d56000f3fe6080604052600436106102f25760003560e01c806367aff4841161018f578063b7009613116100e1578063d381ba7c1161008a578063e985e9c511610064578063e985e9c51461092d578063f2fde38b14610977578063fbf807731461099757600080fd5b8063d381ba7c146108cd578063e009cfde146108ed578063e2bab3a91461090d57600080fd5b8063c6b0263e116100bb578063c6b0263e1461085f578063c87b56dd1461087f578063cc2f84521461089f57600080fd5b8063b7009613146107ff578063b88d4fde1461081f578063bf7e214f1461083f57600080fd5b80637d40583d11610143578063a078f7371161011d578063a078f7371461079e578063a22cb465146107be578063b55a5c1c146107de57600080fd5b80637d40583d146107545780638da5cb5b1461077457806395d89b411461078957600080fd5b806370a082311161017457806370a08231146106ff578063715018a61461071f5780637a9e5e4b1461073457600080fd5b806367aff484146106bf57806369077027146106df57600080fd5b80632f47571f11610248578063468721a7116101fc57806352d1902d116101d657806352d1902d1461066a578063610b59251461067f5780636352211e1461069f57600080fd5b8063468721a7146106095780634f1ef286146106295780635229073f1461063c57600080fd5b806342842e0e1161022d57806342842e0e146105a957806342966c68146105c9578063439fab91146105e957600080fd5b80632f47571f146105375780633659cfe61461058957600080fd5b8063113c17de116102aa57806323b872dd1161028457806323b872dd146104a857806327538e90146104c85780632d9ad53d1461051757600080fd5b8063113c17de146103ec57806313af40351461040c578063181fa1c01461042c57600080fd5b806306fdde03116102db57806306fdde0314610370578063081812fc14610392578063095ea7b3146103ca57600080fd5b806301ffc9a7146102f757806306a36aee1461032c575b600080fd5b34801561030357600080fd5b50610317610312366004613916565b6109d0565b60405190151581526020015b60405180910390f35b34801561033857600080fd5b50610362610347366004613948565b6001600160a01b031660009081526003602052604090205490565b604051908152602001610323565b34801561037c57600080fd5b50610385610a6d565b60405161032391906139bd565b34801561039e57600080fd5b506103b26103ad3660046139d0565b610b00565b6040516001600160a01b039091168152602001610323565b3480156103d657600080fd5b506103ea6103e53660046139e9565b610b28565b005b3480156103f857600080fd5b506103ea610407366004613948565b610c5e565b34801561041857600080fd5b506103ea610427366004613948565b610d9c565b34801561043857600080fd5b50610362610447366004613a2b565b6040805160609390931b6bffffffffffffffffffffffff191660208085019190915260f89290921b6001600160f81b031916603484015280516015818503018152603590930181528251928201929092206000908152610169909152205490565b3480156104b457600080fd5b506103ea6104c3366004613a60565b610e81565b3480156104d457600080fd5b506103626104e3366004613aa1565b6001600160a01b03821660009081526004602090815260408083206001600160e01b03198516845290915290205492915050565b34801561052357600080fd5b50610317610532366004613948565b610efa565b34801561054357600080fd5b50610317610552366004613aa1565b6001600160a01b03821660009081526005602090815260408083206001600160e01b03198516845290915290205460ff1692915050565b34801561059557600080fd5b506103ea6105a4366004613948565b610f33565b3480156105b557600080fd5b506103ea6105c4366004613a60565b6110ae565b3480156105d557600080fd5b506103ea6105e43660046139d0565b6110c9565b3480156105f557600080fd5b506103ea610604366004613ba7565b61113e565b34801561061557600080fd5b50610317610624366004613bdc565b611290565b6103ea610637366004613c4c565b611429565b34801561064857600080fd5b5061065c610657366004613bdc565b611591565b604051610323929190613c9c565b34801561067657600080fd5b506103626115c7565b34801561068b57600080fd5b506103ea61069a366004613948565b61168c565b3480156106ab57600080fd5b506103b26106ba3660046139d0565b6117b2565b3480156106cb57600080fd5b506103ea6106da366004613cc5565b611818565b3480156106eb57600080fd5b506103ea6106fa366004613d0e565b611939565b34801561070b57600080fd5b5061036261071a366004613948565b6119f6565b34801561072b57600080fd5b506103ea611a91565b34801561074057600080fd5b506103ea61074f366004613948565b611aa5565b34801561076057600080fd5b506103ea61076f366004613d66565b611b88565b34801561078057600080fd5b506103b2611cde565b34801561079557600080fd5b50610385611cf7565b3480156107aa57600080fd5b506103176107b9366004613a2b565b611d07565b3480156107ca57600080fd5b506103ea6107d9366004613db5565b611d3e565b3480156107ea57600080fd5b50610165546103b2906001600160a01b031681565b34801561080b57600080fd5b5061031761081a366004613de3565b611d49565b34801561082b57600080fd5b506103ea61083a366004613e23565b611df2565b34801561084b57600080fd5b506000546103b2906001600160a01b031681565b34801561086b57600080fd5b506103ea61087a366004613e8f565b611e71565b34801561088b57600080fd5b5061038561089a3660046139d0565b611f4d565b3480156108ab57600080fd5b506108bf6108ba3660046139e9565b61200e565b604051610323929190613ebf565b3480156108d957600080fd5b506103ea6108e8366004613db5565b61210a565b3480156108f957600080fd5b506103ea610908366004613f1c565b6121d0565b34801561091957600080fd5b50610385610928366004613a2b565b6122f7565b34801561093957600080fd5b50610317610948366004613f1c565b6001600160a01b0391821660009081526101066020908152604080832093909416825291909152205460ff1690565b34801561098357600080fd5b506103ea610992366004613948565b61241a565b3480156109a357600080fd5b506103176109b2366004613948565b6001600160a01b031660009081526002602052604090205460ff1690565b60006001600160e01b031982167f80ac58cd000000000000000000000000000000000000000000000000000000001480610a3357506001600160e01b031982167f5b5e139f00000000000000000000000000000000000000000000000000000000145b80610a6757507f01ffc9a7000000000000000000000000000000000000000000000000000000006001600160e01b03198316145b92915050565b60606101018054610a7d90613f4a565b80601f0160208091040260200160405190810160405280929190818152602001828054610aa990613f4a565b8015610af65780601f10610acb57610100808354040283529160200191610af6565b820191906000526020600020905b815481529060010190602001808311610ad957829003601f168201915b5050505050905090565b6000610b0b826124a7565b50600090815261010560205260409020546001600160a01b031690565b6000610b33826117b2565b9050806001600160a01b0316836001600160a01b031603610bc15760405162461bcd60e51b815260206004820152602160248201527f4552433732313a20617070726f76616c20746f2063757272656e74206f776e6560448201527f720000000000000000000000000000000000000000000000000000000000000060648201526084015b60405180910390fd5b336001600160a01b0382161480610bdd5750610bdd8133610948565b610c4f5760405162461bcd60e51b815260206004820152603e60248201527f4552433732313a20617070726f76652063616c6c6572206973206e6f7420746f60448201527f6b656e206f776e6572206e6f7220617070726f76656420666f7220616c6c00006064820152608401610bb8565b610c59838361250c565b505050565b600033600114801590610c89575033600090815261016660205260409020546001600160a01b031615155b9050600081610d1a576101655460405163b700961360e01b81523360048201523060248201526000356001600160e01b03191660448201526001600160a01b039091169063b700961390606401602060405180830381865afa158015610cf3573d6000803e3d6000fd5b505050506040513d601f19601f82011682018060405250810190610d179190613f84565b90505b8180610d235750805b610d7b5760405162461bcd60e51b8152602060048201526024808201527f4e6f7420617574686f72697a656420746f2063616c6c20746869732066756e636044820152633a34b7b760e11b6064820152608401610bb8565b61016580546001600160a01b0319166001600160a01b038516179055505050565b6000610db4336000356001600160e01b03191661257b565b9050600081610de95733600114801590610de6575033600090815261016660205260409020546001600160a01b031615155b90505b8180610df25750805b610e355760405162461bcd60e51b8152602060048201526014602482015273191ccb585d5d1a0b5d5b985d5d1a1bdc9a5e995960621b6044820152606401610bb8565b600180546001600160a01b0319166001600160a01b0385169081179091556040517fce241d7ca1f669fee44b6fc00b8eba2df3bb514eed0f6f668f8f89096e81ed9490600090a2505050565b610e8c335b82612656565b610eef5760405162461bcd60e51b815260206004820152602e60248201527f4552433732313a2063616c6c6572206973206e6f7420746f6b656e206f776e6560448201526d1c881b9bdc88185c1c1c9bdd995960921b6064820152608401610bb8565b610c598383836126d6565b600060016001600160a01b03831614801590610a675750506001600160a01b039081166000908152610166602052604090205416151590565b6001600160a01b037f0000000000000000000000000000000000000000000000000000000000000000163003610fc05760405162461bcd60e51b815260206004820152602c60248201527f46756e6374696f6e206d7573742062652063616c6c6564207468726f7567682060448201526b19195b1959d85d1958d85b1b60a21b6064820152608401610bb8565b7f00000000000000000000000000000000000000000000000000000000000000006001600160a01b031661101b7f360894a13ba1a3210667c828492db98dca3e2076cc3735a920a3ca505d382bbc546001600160a01b031690565b6001600160a01b0316146110865760405162461bcd60e51b815260206004820152602c60248201527f46756e6374696f6e206d7573742062652063616c6c6564207468726f7567682060448201526b6163746976652070726f787960a01b6064820152608401610bb8565b61108f816128b1565b604080516000808252602082019092526110ab918391906128b9565b50565b610c5983838360405180602001604052806000815250611df2565b6110d233610e86565b6111355760405162461bcd60e51b815260206004820152602e60248201527f4552433732313a2063616c6c6572206973206e6f7420746f6b656e206f776e6560448201526d1c881b9bdc88185c1c1c9bdd995960921b6064820152608401610bb8565b6110ab81612a59565b600654610100900460ff161580801561115e5750600654600160ff909116105b806111785750303b158015611178575060065460ff166001145b6111ea5760405162461bcd60e51b815260206004820152602e60248201527f496e697469616c697a61626c653a20636f6e747261637420697320616c72656160448201527f647920696e697469616c697a65640000000000000000000000000000000000006064820152608401610bb8565b6006805460ff19166001179055801561120d576006805461ff0019166101001790555b600080838060200190518101906112249190613fe6565b915091506112328282612b02565b61123a612b77565b61124333612bea565b5050801561128c576006805461ff0019169055604051600181527f7f26b83ff96e1f2b6a682f133852f6798a09c465da95921460cefb3847402498906020015b60405180910390a15b5050565b600080336001148015906112bc575033600090815261016660205260409020546001600160a01b031615155b905060008161134d576101655460405163b700961360e01b81523360048201523060248201526000356001600160e01b03191660448201526001600160a01b039091169063b700961390606401602060405180830381865afa158015611326573d6000803e3d6000fd5b505050506040513d601f19601f8201168201806040525081019061134a9190613f84565b90505b81806113565750805b6113ae5760405162461bcd60e51b8152602060048201526024808201527f4e6f7420617574686f72697a656420746f2063616c6c20746869732066756e636044820152633a34b7b760e11b6064820152608401610bb8565b6113bb878787875a612d3f565b925082156113f35760405133907f6895c13664aa4f67288b25d7a21d7aaa34916e355fb9b6fae0a139a9085becb890600090a261141f565b60405133907facd2c8702804128fdb0db2bb49f6d127dd0181c13fd45dbfe16de0930e2bd37590600090a25b5050949350505050565b6001600160a01b037f00000000000000000000000000000000000000000000000000000000000000001630036114b65760405162461bcd60e51b815260206004820152602c60248201527f46756e6374696f6e206d7573742062652063616c6c6564207468726f7567682060448201526b19195b1959d85d1958d85b1b60a21b6064820152608401610bb8565b7f00000000000000000000000000000000000000000000000000000000000000006001600160a01b03166115117f360894a13ba1a3210667c828492db98dca3e2076cc3735a920a3ca505d382bbc546001600160a01b031690565b6001600160a01b03161461157c5760405162461bcd60e51b815260206004820152602c60248201527f46756e6374696f6e206d7573742062652063616c6c6564207468726f7567682060448201526b6163746976652070726f787960a01b6064820152608401610bb8565b611585826128b1565b61128c828260016128b9565b600060606115a186868686611290565b915060405160203d0181016040523d81523d6000602083013e8091505094509492505050565b6000306001600160a01b037f000000000000000000000000000000000000000000000000000000000000000016146116675760405162461bcd60e51b815260206004820152603860248201527f555550535570677261646561626c653a206d757374206e6f742062652063616c60448201527f6c6564207468726f7567682064656c656761746563616c6c00000000000000006064820152608401610bb8565b507f360894a13ba1a3210667c828492db98dca3e2076cc3735a920a3ca505d382bbc90565b6000336001148015906116b7575033600090815261016660205260409020546001600160a01b031615155b9050600081611748576101655460405163b700961360e01b81523360048201523060248201526000356001600160e01b03191660448201526001600160a01b039091169063b700961390606401602060405180830381865afa158015611721573d6000803e3d6000fd5b505050506040513d601f19601f820116820180604052508101906117459190613f84565b90505b81806117515750805b6117a95760405162461bcd60e51b8152602060048201526024808201527f4e6f7420617574686f72697a656420746f2063616c6c20746869732066756e636044820152633a34b7b760e11b6064820152608401610bb8565b610c5983612bea565b600081815261010360205260408120546001600160a01b031680610a675760405162461bcd60e51b815260206004820152601860248201527f4552433732313a20696e76616c696420746f6b656e20494400000000000000006044820152606401610bb8565b6000611830336000356001600160e01b03191661257b565b90506000816118655733600114801590611862575033600090815261016660205260409020546001600160a01b031615155b90505b818061186e5750805b6118b15760405162461bcd60e51b8152602060048201526014602482015273191ccb585d5d1a0b5d5b985d5d1a1bdc9a5e995960621b6044820152606401610bb8565b6118bc858585612d86565b6001600160a01b038516600090815260036020526040812054906118e460ff8716600261413a565b9050841561190e576001600160a01b03871660009081526003602052604090208282179055611930565b6001600160a01b03871660009081526003602052604090206000198218831690555b50505050505050565b6000611951336000356001600160e01b03191661257b565b90506000816119865733600114801590611983575033600090815261016660205260409020546001600160a01b031615155b90505b818061198f5750805b6119d25760405162461bcd60e51b8152602060048201526014602482015273191ccb585d5d1a0b5d5b985d5d1a1bdc9a5e995960621b6044820152606401610bb8565b60ff84166000908152610168602052604090206119ef8482614194565b5050505050565b60006001600160a01b038216611a745760405162461bcd60e51b815260206004820152602960248201527f4552433732313a2061646472657373207a65726f206973206e6f74206120766160448201527f6c6964206f776e657200000000000000000000000000000000000000000000006064820152608401610bb8565b506001600160a01b03166000908152610104602052604090205490565b611a99612da0565b611aa36000612dff565b565b6000611abd336000356001600160e01b03191661257b565b9050600081611af25733600114801590611aef575033600090815261016660205260409020546001600160a01b031615155b90505b8180611afb5750805b611b3e5760405162461bcd60e51b8152602060048201526014602482015273191ccb585d5d1a0b5d5b985d5d1a1bdc9a5e995960621b6044820152606401610bb8565b600080546001600160a01b0319166001600160a01b038516908117825560405190917f1abebea81bfa2637f28358c371278fb15ede7ea8dd28d2e03b112ff6d936ada491a2505050565b6000611ba0336000356001600160e01b03191661257b565b9050600081611bd55733600114801590611bd2575033600090815261016660205260409020546001600160a01b031615155b90505b8180611bde5750805b611c215760405162461bcd60e51b8152602060048201526014602482015273191ccb585d5d1a0b5d5b985d5d1a1bdc9a5e995960621b6044820152606401610bb8565b6001600160a01b03851660009081526004602090815260408083206001600160e01b03198816845290915281205490611c5e60ff8916600261413a565b90508415611c9d576001600160a01b03871660009081526004602090815260408083206001600160e01b03198a16845290915290208282179055611cd4565b6001600160a01b03871660009081526004602090815260408083206001600160e01b03198a16845290915290206000198218831690555b5050505050505050565b6000611cf2609d546001600160a01b031690565b905090565b60606101028054610a7d90613f4a565b6001600160a01b0382166000908152600360205260408120546000611d3060ff8516600261413a565b919091161515949350505050565b61128c338383612e51565b6001600160a01b03831660009081526002602052604081205460ff1680611d9d57506001600160a01b03831660009081526005602090815260408083206001600160e01b03198616845290915290205460ff165b15611daa57506001611deb565b506001600160a01b038381166000908152600360209081526040808320549386168352600482528083206001600160e01b0319861684529091529020541615155b9392505050565b611dfc3383612656565b611e5f5760405162461bcd60e51b815260206004820152602e60248201527f4552433732313a2063616c6c6572206973206e6f7420746f6b656e206f776e6560448201526d1c881b9bdc88185c1c1c9bdd995960921b6064820152608401610bb8565b611e6b84848484612f20565b50505050565b6000611e89336000356001600160e01b03191661257b565b9050600081611ebe5733600114801590611ebb575033600090815261016660205260409020546001600160a01b031615155b90505b8180611ec75750805b611f0a5760405162461bcd60e51b8152602060048201526014602482015273191ccb585d5d1a0b5d5b985d5d1a1bdc9a5e995960621b6044820152606401610bb8565b50506001600160a01b0390921660009081526005602090815260408083206001600160e01b0319909416835292905220805491151560ff19909216919091179055565b6060611f58826124a7565b6000611f666103e884614254565b60ff8116600090815261016860205260409020805491925090611f8890613f4a565b80601f0160208091040260200160405190810160405280929190818152602001828054611fb490613f4a565b80156120015780601f10611fd657610100808354040283529160200191612001565b820191906000526020600020905b815481529060010190602001808311611fe457829003601f168201915b5050505050915050919050565b606060008267ffffffffffffffff81111561202b5761202b613ada565b604051908082528060200260200182016040528015612054578160200160208202803683370190505b506001600160a01b038086166000908152610166602052604081205492945091165b6001600160a01b0381161580159061209857506001600160a01b038116600114155b80156120a357508482105b156120fc57808483815181106120bb576120bb614276565b6001600160a01b03928316602091820292909201810191909152918116600090815261016690925260409091205416816120f48161428c565b925050612076565b908352919491935090915050565b6000612122336000356001600160e01b03191661257b565b90506000816121575733600114801590612154575033600090815261016660205260409020546001600160a01b031615155b90505b81806121605750805b6121a35760405162461bcd60e51b8152602060048201526014602482015273191ccb585d5d1a0b5d5b985d5d1a1bdc9a5e995960621b6044820152606401610bb8565b50506001600160a01b03919091166000908152600260205260409020805460ff1916911515919091179055565b6000336001148015906121fb575033600090815261016660205260409020546001600160a01b031615155b905060008161228c576101655460405163b700961360e01b81523360048201523060248201526000356001600160e01b03191660448201526001600160a01b039091169063b700961390606401602060405180830381865afa158015612265573d6000803e3d6000fd5b505050506040513d601f19601f820116820180604052508101906122899190613f84565b90505b81806122955750805b6122ed5760405162461bcd60e51b8152602060048201526024808201527f4e6f7420617574686f72697a656420746f2063616c6c20746869732066756e636044820152633a34b7b760e11b6064820152608401610bb8565b611e6b8484612fa9565b604051606083811b6bffffffffffffffffffffffff1916602083015260f883901b6001600160f81b03191660348301529060009060350160408051601f198184030181529181528151602092830120600081815261016990935291205490915080156124025760ff8416600090815261016860205260409020805461237b90613f4a565b80601f01602080910402602001604051908101604052809291908181526020018280546123a790613f4a565b80156123f45780601f106123c9576101008083540402835291602001916123f4565b820191906000526020600020905b8154815290600101906020018083116123d757829003601f168201915b505050505092505050610a67565b50506040805160208101909152600081529392505050565b612422612da0565b6001600160a01b03811661249e5760405162461bcd60e51b815260206004820152602660248201527f4f776e61626c653a206e6577206f776e657220697320746865207a65726f206160448201527f64647265737300000000000000000000000000000000000000000000000000006064820152608401610bb8565b6110ab81612dff565b600081815261010360205260409020546001600160a01b03166110ab5760405162461bcd60e51b815260206004820152601860248201527f4552433732313a20696e76616c696420746f6b656e20494400000000000000006044820152606401610bb8565b60008181526101056020526040902080546001600160a01b0319166001600160a01b0384169081179091558190612542826117b2565b6001600160a01b03167f8c5be1e5ebec7d5bd14f71427d1e84f3dd0314c0f7b2291e5b200ac8c7c3b92560405160405180910390a45050565b6000306001600160a01b0384160361259557506001610a67565b6001546001600160a01b03908116908416036125b357506001610a67565b6000546001600160a01b03166125cb57506000610a67565b60005460405163b700961360e01b81526001600160a01b0385811660048301523060248301526001600160e01b0319851660448301529091169063b700961390606401602060405180830381865afa15801561262b573d6000803e3d6000fd5b505050506040513d601f19601f8201168201806040525081019061264f9190613f84565b9050610a67565b600080612662836117b2565b9050806001600160a01b0316846001600160a01b031614806126aa57506001600160a01b038082166000908152610106602090815260408083209388168352929052205460ff165b806126ce5750836001600160a01b03166126c384610b00565b6001600160a01b0316145b949350505050565b826001600160a01b03166126e9826117b2565b6001600160a01b0316146127655760405162461bcd60e51b815260206004820152602560248201527f4552433732313a207472616e736665722066726f6d20696e636f72726563742060448201527f6f776e65720000000000000000000000000000000000000000000000000000006064820152608401610bb8565b6001600160a01b0382166127e05760405162461bcd60e51b8152602060048201526024808201527f4552433732313a207472616e7366657220746f20746865207a65726f2061646460448201527f72657373000000000000000000000000000000000000000000000000000000006064820152608401610bb8565b6127eb8383836130e2565b6127f660008261250c565b6001600160a01b0383166000908152610104602052604081208054600192906128209084906142a5565b90915550506001600160a01b03821660009081526101046020526040812080546001929061284f9084906142bc565b90915550506000818152610103602052604080822080546001600160a01b0319166001600160a01b0386811691821790925591518493918716917fddf252ad1be2c89b69c2b068fc378daa952ba7f163c4a11628f55a4df523b3ef91a4505050565b6110ab612da0565b7f4910fdfa16fed3260ed0e7147f7cc6da11a60208b5b9406d12a635614ffd91435460ff16156128ec57610c5983613137565b826001600160a01b03166352d1902d6040518163ffffffff1660e01b8152600401602060405180830381865afa925050508015612946575060408051601f3d908101601f19168201909252612943918101906142d4565b60015b6129b85760405162461bcd60e51b815260206004820152602e60248201527f45524331393637557067726164653a206e657720696d706c656d656e7461746960448201527f6f6e206973206e6f7420555550530000000000000000000000000000000000006064820152608401610bb8565b7f360894a13ba1a3210667c828492db98dca3e2076cc3735a920a3ca505d382bbc8114612a4d5760405162461bcd60e51b815260206004820152602960248201527f45524331393637557067726164653a20756e737570706f727465642070726f7860448201527f6961626c655555494400000000000000000000000000000000000000000000006064820152608401610bb8565b50610c598383836131f5565b6000612a64826117b2565b9050612a72816000846130e2565b612a7d60008361250c565b6001600160a01b038116600090815261010460205260408120805460019290612aa79084906142a5565b90915550506000828152610103602052604080822080546001600160a01b0319169055518391906001600160a01b038416907fddf252ad1be2c89b69c2b068fc378daa952ba7f163c4a11628f55a4df523b3ef908390a45050565b600654610100900460ff16612b6d5760405162461bcd60e51b815260206004820152602b60248201527f496e697469616c697a61626c653a20636f6e7472616374206973206e6f74206960448201526a6e697469616c697a696e6760a81b6064820152608401610bb8565b61128c828261321a565b600654610100900460ff16612be25760405162461bcd60e51b815260206004820152602b60248201527f496e697469616c697a61626c653a20636f6e7472616374206973206e6f74206960448201526a6e697469616c697a696e6760a81b6064820152608401610bb8565b611aa36132a0565b6001600160a01b03811615801590612c0c57506001600160a01b038116600114155b612c405760405162461bcd60e51b8152602060048201526005602482015264475331303160d81b6044820152606401610bb8565b6001600160a01b03818116600090815261016660205260409020541615612ca95760405162461bcd60e51b815260206004820152600560248201527f47533130320000000000000000000000000000000000000000000000000000006044820152606401610bb8565b61016660209081527f1819cfd8522c371aa6fb78703d4b280976da6c842708fa646960821654e808d280546001600160a01b03848116600081815260408082208054949095166001600160a01b0319948516179094556001905283549091168117909255519081527fecdf3a3effea5783a3c4c2140e677577666428d44ed9d474a0b3a4c9943f8440910160405180910390a150565b60006001836001811115612d5557612d556142ed565b03612d6d576000808551602087018986f49050612d7d565b600080855160208701888a87f190505b95945050505050565b8015612d9657610c598383613364565b610c598383613460565b33612da9611cde565b6001600160a01b031614611aa35760405162461bcd60e51b815260206004820181905260248201527f4f776e61626c653a2063616c6c6572206973206e6f7420746865206f776e65726044820152606401610bb8565b609d80546001600160a01b038381166001600160a01b0319831681179093556040519116919082907f8be0079c531659141344cd1fd0a4f28419497f9722a3daafe3b4186f6b6457e090600090a35050565b816001600160a01b0316836001600160a01b031603612eb25760405162461bcd60e51b815260206004820152601960248201527f4552433732313a20617070726f766520746f2063616c6c6572000000000000006044820152606401610bb8565b6001600160a01b0383811660008181526101066020908152604080832094871680845294825291829020805460ff191686151590811790915591519182527f17307eab39ab6107e8899845ad3d59bd9653f200f220920489ca2b5937696c31910160405180910390a3505050565b612f2b8484846126d6565b612f37848484846134dd565b611e6b5760405162461bcd60e51b815260206004820152603260248201527f4552433732313a207472616e7366657220746f206e6f6e20455243373231526560448201527f63656976657220696d706c656d656e74657200000000000000000000000000006064820152608401610bb8565b6001600160a01b03811615801590612fcb57506001600160a01b038116600114155b612fff5760405162461bcd60e51b8152602060048201526005602482015264475331303160d81b6044820152606401610bb8565b6001600160a01b038281166000908152610166602052604090205481169082161461306c5760405162461bcd60e51b815260206004820152600560248201527f47533130330000000000000000000000000000000000000000000000000000006044820152606401610bb8565b6001600160a01b03818116600081815261016660209081526040808320805488871685528285208054919097166001600160a01b03199182161790965592849052825490941690915591519081527faab4fa2b463f581b2b32cb3b7e3b704b9ce37cc209b5fb4d77e593ace40542769101611283565b6130eb33610efa565b610c595760405162461bcd60e51b815260206004820152601960248201527f4e6f207065726d697373696f6e20746f207472616e73666572000000000000006044820152606401610bb8565b6001600160a01b0381163b6131b45760405162461bcd60e51b815260206004820152602d60248201527f455243313936373a206e657720696d706c656d656e746174696f6e206973206e60448201527f6f74206120636f6e7472616374000000000000000000000000000000000000006064820152608401610bb8565b7f360894a13ba1a3210667c828492db98dca3e2076cc3735a920a3ca505d382bbc80546001600160a01b0319166001600160a01b0392909216919091179055565b6131fe83613634565b60008251118061320b5750805b15610c5957611e6b8383613674565b600654610100900460ff166132855760405162461bcd60e51b815260206004820152602b60248201527f496e697469616c697a61626c653a20636f6e7472616374206973206e6f74206960448201526a6e697469616c697a696e6760a81b6064820152608401610bb8565b6101016132928382614194565b50610102610c598282614194565b60016000526101666020527f1819cfd8522c371aa6fb78703d4b280976da6c842708fa646960821654e808d2546001600160a01b0316156133235760405162461bcd60e51b815260206004820152601b60248201527f4d6f64756c657320616c726561647920696e697469616c697a656400000000006044820152606401610bb8565b600160008190526101666020527f1819cfd8522c371aa6fb78703d4b280976da6c842708fa646960821654e808d280546001600160a01b0319169091179055565b6040516bffffffffffffffffffffffff19606084901b1660208201526001600160f81b031960f883901b16603482015260009060350160408051601f1981840301815291815281516020928301206000818152610169909352912054909150156134105760405162461bcd60e51b815260206004820152601660248201527f416c726561647920686173206120726f6c65204e4654000000000000000000006044820152606401610bb8565b6000610167548360ff1661342491906142bc565b60008381526101696020526040812082905561016780549293506103e8929091906134509084906142bc565b90915550611e6b90508482613776565b6040516bffffffffffffffffffffffff19606084901b1660208201526001600160f81b031960f883901b16603482015260009060350160408051601f19818403018152918152815160209283012060008181526101699093529120549091506134c881612a59565b50600090815261016960205260408120555050565b60006001600160a01b0384163b1561362957604051630a85bd0160e11b81526001600160a01b0385169063150b7a0290613521903390899088908890600401614303565b6020604051808303816000875af192505050801561355c575060408051601f3d908101601f191682019092526135599181019061433f565b60015b61360f573d80801561358a576040519150601f19603f3d011682016040523d82523d6000602084013e61358f565b606091505b5080516000036136075760405162461bcd60e51b815260206004820152603260248201527f4552433732313a207472616e7366657220746f206e6f6e20455243373231526560448201527f63656976657220696d706c656d656e74657200000000000000000000000000006064820152608401610bb8565b805181602001fd5b6001600160e01b031916630a85bd0160e11b1490506126ce565b506001949350505050565b61363d81613137565b6040516001600160a01b038216907fbc7cd75a20ee27fd9adebab32041f755214dbc6bffa90cc0225b39da2e5c2d3b90600090a250565b60606001600160a01b0383163b6136f35760405162461bcd60e51b815260206004820152602660248201527f416464726573733a2064656c65676174652063616c6c20746f206e6f6e2d636f60448201527f6e747261637400000000000000000000000000000000000000000000000000006064820152608401610bb8565b600080846001600160a01b03168460405161370e919061435c565b600060405180830381855af49150503d8060008114613749576040519150601f19603f3d011682016040523d82523d6000602084013e61374e565b606091505b5091509150612d7d8282604051806060016040528060278152602001614379602791396138c7565b6001600160a01b0382166137cc5760405162461bcd60e51b815260206004820181905260248201527f4552433732313a206d696e7420746f20746865207a65726f20616464726573736044820152606401610bb8565b600081815261010360205260409020546001600160a01b0316156138325760405162461bcd60e51b815260206004820152601c60248201527f4552433732313a20746f6b656e20616c7265616479206d696e746564000000006044820152606401610bb8565b61383e600083836130e2565b6001600160a01b0382166000908152610104602052604081208054600192906138689084906142bc565b90915550506000818152610103602052604080822080546001600160a01b0319166001600160a01b03861690811790915590518392907fddf252ad1be2c89b69c2b068fc378daa952ba7f163c4a11628f55a4df523b3ef908290a45050565b606083156138d6575081611deb565b8251156138e65782518084602001fd5b8160405162461bcd60e51b8152600401610bb891906139bd565b6001600160e01b0319811681146110ab57600080fd5b60006020828403121561392857600080fd5b8135611deb81613900565b6001600160a01b03811681146110ab57600080fd5b60006020828403121561395a57600080fd5b8135611deb81613933565b60005b83811015613980578181015183820152602001613968565b83811115611e6b5750506000910152565b600081518084526139a9816020860160208601613965565b601f01601f19169290920160200192915050565b602081526000611deb6020830184613991565b6000602082840312156139e257600080fd5b5035919050565b600080604083850312156139fc57600080fd5b8235613a0781613933565b946020939093013593505050565b803560ff81168114613a2657600080fd5b919050565b60008060408385031215613a3e57600080fd5b8235613a4981613933565b9150613a5760208401613a15565b90509250929050565b600080600060608486031215613a7557600080fd5b8335613a8081613933565b92506020840135613a9081613933565b929592945050506040919091013590565b60008060408385031215613ab457600080fd5b8235613abf81613933565b91506020830135613acf81613900565b809150509250929050565b634e487b7160e01b600052604160045260246000fd5b604051601f8201601f1916810167ffffffffffffffff81118282101715613b1957613b19613ada565b604052919050565b600067ffffffffffffffff821115613b3b57613b3b613ada565b50601f01601f191660200190565b6000613b5c613b5784613b21565b613af0565b9050828152838383011115613b7057600080fd5b828260208301376000602084830101529392505050565b600082601f830112613b9857600080fd5b611deb83833560208501613b49565b600060208284031215613bb957600080fd5b813567ffffffffffffffff811115613bd057600080fd5b6126ce84828501613b87565b60008060008060808587031215613bf257600080fd5b8435613bfd81613933565b935060208501359250604085013567ffffffffffffffff811115613c2057600080fd5b613c2c87828801613b87565b925050606085013560028110613c4157600080fd5b939692955090935050565b60008060408385031215613c5f57600080fd5b8235613c6a81613933565b9150602083013567ffffffffffffffff811115613c8657600080fd5b613c9285828601613b87565b9150509250929050565b82151581526040602082015260006126ce6040830184613991565b80151581146110ab57600080fd5b600080600060608486031215613cda57600080fd5b8335613ce581613933565b9250613cf360208501613a15565b91506040840135613d0381613cb7565b809150509250925092565b60008060408385031215613d2157600080fd5b613d2a83613a15565b9150602083013567ffffffffffffffff811115613d4657600080fd5b8301601f81018513613d5757600080fd5b613c9285823560208401613b49565b60008060008060808587031215613d7c57600080fd5b613d8585613a15565b93506020850135613d9581613933565b92506040850135613da581613900565b91506060850135613c4181613cb7565b60008060408385031215613dc857600080fd5b8235613dd381613933565b91506020830135613acf81613cb7565b600080600060608486031215613df857600080fd5b8335613e0381613933565b92506020840135613e1381613933565b91506040840135613d0381613900565b60008060008060808587031215613e3957600080fd5b8435613e4481613933565b93506020850135613e5481613933565b925060408501359150606085013567ffffffffffffffff811115613e7757600080fd5b613e8387828801613b87565b91505092959194509250565b600080600060608486031215613ea457600080fd5b8335613eaf81613933565b92506020840135613cf381613900565b604080825283519082018190526000906020906060840190828701845b82811015613f015781516001600160a01b031684529284019290840190600101613edc565b5050506001600160a01b039490941692019190915250919050565b60008060408385031215613f2f57600080fd5b8235613f3a81613933565b91506020830135613acf81613933565b600181811c90821680613f5e57607f821691505b602082108103613f7e57634e487b7160e01b600052602260045260246000fd5b50919050565b600060208284031215613f9657600080fd5b8151611deb81613cb7565b600082601f830112613fb257600080fd5b8151613fc0613b5782613b21565b818152846020838601011115613fd557600080fd5b6126ce826020830160208701613965565b60008060408385031215613ff957600080fd5b825167ffffffffffffffff8082111561401157600080fd5b61401d86838701613fa1565b9350602085015191508082111561403357600080fd5b50613c9285828601613fa1565b634e487b7160e01b600052601160045260246000fd5b600181815b8085111561409157816000190482111561407757614077614040565b8085161561408457918102915b93841c939080029061405b565b509250929050565b6000826140a857506001610a67565b816140b557506000610a67565b81600181146140cb57600281146140d5576140f1565b6001915050610a67565b60ff8411156140e6576140e6614040565b50506001821b610a67565b5060208310610133831016604e8410600b8410161715614114575081810a610a67565b61411e8383614056565b806000190482111561413257614132614040565b029392505050565b6000611deb8383614099565b601f821115610c5957600081815260208120601f850160051c8101602086101561416d5750805b601f850160051c820191505b8181101561418c57828155600101614179565b505050505050565b815167ffffffffffffffff8111156141ae576141ae613ada565b6141c2816141bc8454613f4a565b84614146565b602080601f8311600181146141f757600084156141df5750858301515b600019600386901b1c1916600185901b17855561418c565b600085815260208120601f198616915b8281101561422657888601518255948401946001909101908401614207565b50858210156142445787850151600019600388901b60f8161c191681555b5050505050600190811b01905550565b60008261427157634e487b7160e01b600052601260045260246000fd5b500690565b634e487b7160e01b600052603260045260246000fd5b60006001820161429e5761429e614040565b5060010190565b6000828210156142b7576142b7614040565b500390565b600082198211156142cf576142cf614040565b500190565b6000602082840312156142e657600080fd5b5051919050565b634e487b7160e01b600052602160045260246000fd5b60006001600160a01b038087168352808616602084015250836040830152608060608301526143356080830184613991565b9695505050505050565b60006020828403121561435157600080fd5b8151611deb81613900565b6000825161436e818460208701613965565b919091019291505056fe416464726573733a206c6f772d6c6576656c2064656c65676174652063616c6c206661696c6564a2646970667358221220d8da89338c3226a6fc3007b5803db1ad30e7784c8a68d1a406a53de36750399364736f6c634300080f0033",
  "linkReferences": {},
  "deployedLinkReferences": {}
}