{
  "_format": "hh-sol-artifact-1",
  "contractName": "TimeLockModuleV2",
  "sourceName": "contracts/votingComponent/GovernorV2/TimeLockModuleV2.sol",
  "abi": [
    {
      "inputs": [
        {
          "internalType": "address",
          "name": "guard_",
          "type": "address"
        }
      ],
      "name": "NotIERC165Compliant",
      "type": "error"
    },
    {
      "anonymous": false,
      "inputs": [
        {
          "indexed": true,
          "internalType": "bytes32",
          "name": "id",
          "type": "bytes32"
        },
        {
          "indexed": true,
          "internalType": "uint256",
          "name": "index",
          "type": "uint256"
        },
        {
          "indexed": false,
          "internalType": "address",
          "name": "target",
          "type": "address"
        },
        {
          "indexed": false,
          "internalType": "uint256",
          "name": "value",
          "type": "uint256"
        },
        {
          "indexed": false,
          "internalType": "bytes",
          "name": "data",
          "type": "bytes"
        }
      ],
      "name": "CallExecuted",
      "type": "event"
    },
    {
      "anonymous": false,
      "inputs": [
        {
          "indexed": true,
          "internalType": "bytes32",
          "name": "id",
          "type": "bytes32"
        },
        {
          "indexed": true,
          "internalType": "uint256",
          "name": "index",
          "type": "uint256"
        },
        {
          "indexed": false,
          "internalType": "address",
          "name": "target",
          "type": "address"
        },
        {
          "indexed": false,
          "internalType": "uint256",
          "name": "value",
          "type": "uint256"
        },
        {
          "indexed": false,
          "internalType": "bytes",
          "name": "data",
          "type": "bytes"
        },
        {
          "indexed": false,
          "internalType": "bytes32",
          "name": "predecessor",
          "type": "bytes32"
        },
        {
          "indexed": false,
          "internalType": "uint256",
          "name": "delay",
          "type": "uint256"
        }
      ],
      "name": "CallScheduled",
      "type": "event"
    },
    {
      "anonymous": false,
      "inputs": [
        {
          "indexed": true,
          "internalType": "bytes32",
          "name": "id",
          "type": "bytes32"
        }
      ],
      "name": "Cancelled",
      "type": "event"
    },
    {
      "anonymous": false,
      "inputs": [
        {
          "indexed": false,
          "internalType": "address",
          "name": "guard",
          "type": "address"
        }
      ],
      "name": "ChangedGuard",
      "type": "event"
    },
    {
      "anonymous": false,
      "inputs": [
        {
          "indexed": false,
          "internalType": "address",
          "name": "avatar",
          "type": "address"
        }
      ],
      "name": "DisabledAvatar",
      "type": "event"
    },
    {
      "anonymous": false,
      "inputs": [
        {
          "indexed": false,
          "internalType": "address",
          "name": "avatar",
          "type": "address"
        }
      ],
      "name": "EnabledAvatar",
      "type": "event"
    },
    {
      "anonymous": false,
      "inputs": [
        {
          "indexed": false,
          "internalType": "uint8",
          "name": "version",
          "type": "uint8"
        }
      ],
      "name": "Initialized",
      "type": "event"
    },
    {
      "anonymous": false,
      "inputs": [
        {
          "indexed": false,
          "internalType": "uint256",
          "name": "oldDuration",
          "type": "uint256"
        },
        {
          "indexed": false,
          "internalType": "uint256",
          "name": "newDuration",
          "type": "uint256"
        }
      ],
      "name": "MinDelayChange",
      "type": "event"
    },
    {
      "anonymous": false,
      "inputs": [
        {
          "indexed": true,
          "internalType": "address",
          "name": "previousOwner",
          "type": "address"
        },
        {
          "indexed": true,
          "internalType": "address",
          "name": "newOwner",
          "type": "address"
        }
      ],
      "name": "OwnershipTransferred",
      "type": "event"
    },
    {
      "anonymous": false,
      "inputs": [
        {
          "indexed": true,
          "internalType": "bytes32",
          "name": "role",
          "type": "bytes32"
        },
        {
          "indexed": true,
          "internalType": "bytes32",
          "name": "previousAdminRole",
          "type": "bytes32"
        },
        {
          "indexed": true,
          "internalType": "bytes32",
          "name": "newAdminRole",
          "type": "bytes32"
        }
      ],
      "name": "RoleAdminChanged",
      "type": "event"
    },
    {
      "anonymous": false,
      "inputs": [
        {
          "indexed": true,
          "internalType": "bytes32",
          "name": "role",
          "type": "bytes32"
        },
        {
          "indexed": true,
          "internalType": "address",
          "name": "account",
          "type": "address"
        },
        {
          "indexed": true,
          "internalType": "address",
          "name": "sender",
          "type": "address"
        }
      ],
      "name": "RoleGranted",
      "type": "event"
    },
    {
      "anonymous": false,
      "inputs": [
        {
          "indexed": true,
          "internalType": "bytes32",
          "name": "role",
          "type": "bytes32"
        },
        {
          "indexed": true,
          "internalType": "address",
          "name": "account",
          "type": "address"
        },
        {
          "indexed": true,
          "internalType": "address",
          "name": "sender",
          "type": "address"
        }
      ],
      "name": "RoleRevoked",
      "type": "event"
    },
    {
      "anonymous": false,
      "inputs": [
        {
          "indexed": true,
          "internalType": "address",
          "name": "previousTarget",
          "type": "address"
        },
        {
          "indexed": true,
          "internalType": "address",
          "name": "newTarget",
          "type": "address"
        }
      ],
      "name": "TargetSet",
      "type": "event"
    },
    {
      "inputs": [],
      "name": "CANCELLER_ROLE",
      "outputs": [
        {
          "internalType": "bytes32",
          "name": "",
          "type": "bytes32"
        }
      ],
      "stateMutability": "view",
      "type": "function"
    },
    {
      "inputs": [],
      "name": "DEFAULT_ADMIN_ROLE",
      "outputs": [
        {
          "internalType": "bytes32",
          "name": "",
          "type": "bytes32"
        }
      ],
      "stateMutability": "view",
      "type": "function"
    },
    {
      "inputs": [],
      "name": "EXECUTOR_ROLE",
      "outputs": [
        {
          "internalType": "bytes32",
          "name": "",
          "type": "bytes32"
        }
      ],
      "stateMutability": "view",
      "type": "function"
    },
    {
      "inputs": [],
      "name": "PROPOSER_ROLE",
      "outputs": [
        {
          "internalType": "bytes32",
          "name": "",
          "type": "bytes32"
        }
      ],
      "stateMutability": "view",
      "type": "function"
    },
    {
      "inputs": [],
      "name": "TIMELOCK_ADMIN_ROLE",
      "outputs": [
        {
          "internalType": "bytes32",
          "name": "",
          "type": "bytes32"
        }
      ],
      "stateMutability": "view",
      "type": "function"
    },
    {
      "inputs": [
        {
          "internalType": "bytes32",
          "name": "id",
          "type": "bytes32"
        }
      ],
      "name": "cancel",
      "outputs": [],
      "stateMutability": "nonpayable",
      "type": "function"
    },
    {
      "inputs": [
        {
          "internalType": "address",
          "name": "preAvatar",
          "type": "address"
        },
        {
          "internalType": "address",
          "name": "avatar",
          "type": "address"
        }
      ],
      "name": "disableAvatar",
      "outputs": [],
      "stateMutability": "nonpayable",
      "type": "function"
    },
    {
      "inputs": [
        {
          "internalType": "address",
          "name": "avatar",
          "type": "address"
        }
      ],
      "name": "enableAvatar",
      "outputs": [],
      "stateMutability": "nonpayable",
      "type": "function"
    },
    {
      "inputs": [
        {
          "internalType": "address",
          "name": "target",
          "type": "address"
        },
        {
          "internalType": "uint256",
          "name": "value",
          "type": "uint256"
        },
        {
          "internalType": "bytes",
          "name": "payload",
          "type": "bytes"
        },
        {
          "internalType": "bytes32",
          "name": "predecessor",
          "type": "bytes32"
        },
        {
          "internalType": "bytes32",
          "name": "salt",
          "type": "bytes32"
        }
      ],
      "name": "execute",
      "outputs": [],
      "stateMutability": "payable",
      "type": "function"
    },
    {
      "inputs": [
        {
          "internalType": "address[]",
          "name": "targets",
          "type": "address[]"
        },
        {
          "internalType": "uint256[]",
          "name": "values",
          "type": "uint256[]"
        },
        {
          "internalType": "bytes[]",
          "name": "payloads",
          "type": "bytes[]"
        },
        {
          "internalType": "bytes32",
          "name": "predecessor",
          "type": "bytes32"
        },
        {
          "internalType": "bytes32",
          "name": "salt",
          "type": "bytes32"
        }
      ],
      "name": "executeBatch",
      "outputs": [],
      "stateMutability": "payable",
      "type": "function"
    },
    {
      "inputs": [
        {
          "internalType": "address",
          "name": "start",
          "type": "address"
        },
        {
          "internalType": "uint256",
          "name": "pageSize",
          "type": "uint256"
        }
      ],
      "name": "getAvatarsPaginated",
      "outputs": [
        {
          "internalType": "address[]",
          "name": "array",
          "type": "address[]"
        },
        {
          "internalType": "address",
          "name": "next",
          "type": "address"
        }
      ],
      "stateMutability": "view",
      "type": "function"
    },
    {
      "inputs": [],
      "name": "getGuard",
      "outputs": [
        {
          "internalType": "address",
          "name": "_guard",
          "type": "address"
        }
      ],
      "stateMutability": "view",
      "type": "function"
    },
    {
      "inputs": [],
      "name": "getMinDelay",
      "outputs": [
        {
          "internalType": "uint256",
          "name": "duration",
          "type": "uint256"
        }
      ],
      "stateMutability": "view",
      "type": "function"
    },
    {
      "inputs": [
        {
          "internalType": "bytes32",
          "name": "role",
          "type": "bytes32"
        }
      ],
      "name": "getRoleAdmin",
      "outputs": [
        {
          "internalType": "bytes32",
          "name": "",
          "type": "bytes32"
        }
      ],
      "stateMutability": "view",
      "type": "function"
    },
    {
      "inputs": [
        {
          "internalType": "bytes32",
          "name": "id",
          "type": "bytes32"
        }
      ],
      "name": "getTimestamp",
      "outputs": [
        {
          "internalType": "uint256",
          "name": "timestamp",
          "type": "uint256"
        }
      ],
      "stateMutability": "view",
      "type": "function"
    },
    {
      "inputs": [
        {
          "internalType": "bytes32",
          "name": "role",
          "type": "bytes32"
        },
        {
          "internalType": "address",
          "name": "account",
          "type": "address"
        }
      ],
      "name": "grantRole",
      "outputs": [],
      "stateMutability": "nonpayable",
      "type": "function"
    },
    {
      "inputs": [],
      "name": "guard",
      "outputs": [
        {
          "internalType": "address",
          "name": "",
          "type": "address"
        }
      ],
      "stateMutability": "view",
      "type": "function"
    },
    {
      "inputs": [
        {
          "internalType": "bytes32",
          "name": "role",
          "type": "bytes32"
        },
        {
          "internalType": "address",
          "name": "account",
          "type": "address"
        }
      ],
      "name": "hasRole",
      "outputs": [
        {
          "internalType": "bool",
          "name": "",
          "type": "bool"
        }
      ],
      "stateMutability": "view",
      "type": "function"
    },
    {
      "inputs": [
        {
          "internalType": "address",
          "name": "target",
          "type": "address"
        },
        {
          "internalType": "uint256",
          "name": "value",
          "type": "uint256"
        },
        {
          "internalType": "bytes",
          "name": "data",
          "type": "bytes"
        },
        {
          "internalType": "bytes32",
          "name": "predecessor",
          "type": "bytes32"
        },
        {
          "internalType": "bytes32",
          "name": "salt",
          "type": "bytes32"
        }
      ],
      "name": "hashOperation",
      "outputs": [
        {
          "internalType": "bytes32",
          "name": "hash",
          "type": "bytes32"
        }
      ],
      "stateMutability": "pure",
      "type": "function"
    },
    {
      "inputs": [
        {
          "internalType": "address[]",
          "name": "targets",
          "type": "address[]"
        },
        {
          "internalType": "uint256[]",
          "name": "values",
          "type": "uint256[]"
        },
        {
          "internalType": "bytes[]",
          "name": "payloads",
          "type": "bytes[]"
        },
        {
          "internalType": "bytes32",
          "name": "predecessor",
          "type": "bytes32"
        },
        {
          "internalType": "bytes32",
          "name": "salt",
          "type": "bytes32"
        }
      ],
      "name": "hashOperationBatch",
      "outputs": [
        {
          "internalType": "bytes32",
          "name": "hash",
          "type": "bytes32"
        }
      ],
      "stateMutability": "pure",
      "type": "function"
    },
    {
      "inputs": [
        {
          "internalType": "uint256",
          "name": "minDelay",
          "type": "uint256"
        },
        {
          "internalType": "address[]",
          "name": "proposers",
          "type": "address[]"
        },
        {
          "internalType": "address[]",
          "name": "executors",
          "type": "address[]"
        }
      ],
      "name": "initialize",
      "outputs": [],
      "stateMutability": "nonpayable",
      "type": "function"
    },
    {
      "inputs": [
        {
          "internalType": "address",
          "name": "avatar",
          "type": "address"
        }
      ],
      "name": "isAvatarEnabled",
      "outputs": [
        {
          "internalType": "bool",
          "name": "",
          "type": "bool"
        }
      ],
      "stateMutability": "view",
      "type": "function"
    },
    {
      "inputs": [
        {
          "internalType": "bytes32",
          "name": "id",
          "type": "bytes32"
        }
      ],
      "name": "isOperation",
      "outputs": [
        {
          "internalType": "bool",
          "name": "registered",
          "type": "bool"
        }
      ],
      "stateMutability": "view",
      "type": "function"
    },
    {
      "inputs": [
        {
          "internalType": "bytes32",
          "name": "id",
          "type": "bytes32"
        }
      ],
      "name": "isOperationDone",
      "outputs": [
        {
          "internalType": "bool",
          "name": "done",
          "type": "bool"
        }
      ],
      "stateMutability": "view",
      "type": "function"
    },
    {
      "inputs": [
        {
          "internalType": "bytes32",
          "name": "id",
          "type": "bytes32"
        }
      ],
      "name": "isOperationPending",
      "outputs": [
        {
          "internalType": "bool",
          "name": "pending",
          "type": "bool"
        }
      ],
      "stateMutability": "view",
      "type": "function"
    },
    {
      "inputs": [
        {
          "internalType": "bytes32",
          "name": "id",
          "type": "bytes32"
        }
      ],
      "name": "isOperationReady",
      "outputs": [
        {
          "internalType": "bool",
          "name": "ready",
          "type": "bool"
        }
      ],
      "stateMutability": "view",
      "type": "function"
    },
    {
      "inputs": [
        {
          "internalType": "address",
          "name": "",
          "type": "address"
        },
        {
          "internalType": "address",
          "name": "",
          "type": "address"
        },
        {
          "internalType": "uint256[]",
          "name": "",
          "type": "uint256[]"
        },
        {
          "internalType": "uint256[]",
          "name": "",
          "type": "uint256[]"
        },
        {
          "internalType": "bytes",
          "name": "",
          "type": "bytes"
        }
      ],
      "name": "onERC1155BatchReceived",
      "outputs": [
        {
          "internalType": "bytes4",
          "name": "",
          "type": "bytes4"
        }
      ],
      "stateMutability": "nonpayable",
      "type": "function"
    },
    {
      "inputs": [
        {
          "internalType": "address",
          "name": "",
          "type": "address"
        },
        {
          "internalType": "address",
          "name": "",
          "type": "address"
        },
        {
          "internalType": "uint256",
          "name": "",
          "type": "uint256"
        },
        {
          "internalType": "uint256",
          "name": "",
          "type": "uint256"
        },
        {
          "internalType": "bytes",
          "name": "",
          "type": "bytes"
        }
      ],
      "name": "onERC1155Received",
      "outputs": [
        {
          "internalType": "bytes4",
          "name": "",
          "type": "bytes4"
        }
      ],
      "stateMutability": "nonpayable",
      "type": "function"
    },
    {
      "inputs": [
        {
          "internalType": "address",
          "name": "",
          "type": "address"
        },
        {
          "internalType": "address",
          "name": "",
          "type": "address"
        },
        {
          "internalType": "uint256",
          "name": "",
          "type": "uint256"
        },
        {
          "internalType": "bytes",
          "name": "",
          "type": "bytes"
        }
      ],
      "name": "onERC721Received",
      "outputs": [
        {
          "internalType": "bytes4",
          "name": "",
          "type": "bytes4"
        }
      ],
      "stateMutability": "nonpayable",
      "type": "function"
    },
    {
      "inputs": [],
      "name": "owner",
      "outputs": [
        {
          "internalType": "address",
          "name": "",
          "type": "address"
        }
      ],
      "stateMutability": "view",
      "type": "function"
    },
    {
      "inputs": [],
      "name": "permissionRegistry",
      "outputs": [
        {
          "internalType": "address",
          "name": "",
          "type": "address"
        }
      ],
      "stateMutability": "view",
      "type": "function"
    },
    {
      "inputs": [],
      "name": "renounceOwnership",
      "outputs": [],
      "stateMutability": "nonpayable",
      "type": "function"
    },
    {
      "inputs": [
        {
          "internalType": "bytes32",
          "name": "role",
          "type": "bytes32"
        },
        {
          "internalType": "address",
          "name": "account",
          "type": "address"
        }
      ],
      "name": "renounceRole",
      "outputs": [],
      "stateMutability": "nonpayable",
      "type": "function"
    },
    {
      "inputs": [
        {
          "internalType": "bytes32",
          "name": "role",
          "type": "bytes32"
        },
        {
          "internalType": "address",
          "name": "account",
          "type": "address"
        }
      ],
      "name": "revokeRole",
      "outputs": [],
      "stateMutability": "nonpayable",
      "type": "function"
    },
    {
      "inputs": [
        {
          "internalType": "address",
          "name": "target",
          "type": "address"
        },
        {
          "internalType": "uint256",
          "name": "value",
          "type": "uint256"
        },
        {
          "internalType": "bytes",
          "name": "data",
          "type": "bytes"
        },
        {
          "internalType": "bytes32",
          "name": "predecessor",
          "type": "bytes32"
        },
        {
          "internalType": "bytes32",
          "name": "salt",
          "type": "bytes32"
        },
        {
          "internalType": "uint256",
          "name": "delay",
          "type": "uint256"
        }
      ],
      "name": "schedule",
      "outputs": [],
      "stateMutability": "nonpayable",
      "type": "function"
    },
    {
      "inputs": [
        {
          "internalType": "address[]",
          "name": "targets",
          "type": "address[]"
        },
        {
          "internalType": "uint256[]",
          "name": "values",
          "type": "uint256[]"
        },
        {
          "internalType": "bytes[]",
          "name": "payloads",
          "type": "bytes[]"
        },
        {
          "internalType": "bytes32",
          "name": "predecessor",
          "type": "bytes32"
        },
        {
          "internalType": "bytes32",
          "name": "salt",
          "type": "bytes32"
        },
        {
          "internalType": "uint256",
          "name": "delay",
          "type": "uint256"
        }
      ],
      "name": "scheduleBatch",
      "outputs": [],
      "stateMutability": "nonpayable",
      "type": "function"
    },
    {
      "inputs": [
        {
          "internalType": "address",
          "name": "_guard",
          "type": "address"
        }
      ],
      "name": "setGuard",
      "outputs": [],
      "stateMutability": "nonpayable",
      "type": "function"
    },
    {
      "inputs": [
        {
          "internalType": "address",
          "name": "_permissionReg",
          "type": "address"
        }
      ],
      "name": "setPermissionReg",
      "outputs": [],
      "stateMutability": "nonpayable",
      "type": "function"
    },
    {
      "inputs": [
        {
          "internalType": "address",
          "name": "target",
          "type": "address"
        },
        {
          "internalType": "address",
          "name": "avatar",
          "type": "address"
        }
      ],
      "name": "setTarget",
      "outputs": [],
      "stateMutability": "nonpayable",
      "type": "function"
    },
    {
      "inputs": [
        {
          "internalType": "bytes4",
          "name": "interfaceId",
          "type": "bytes4"
        }
      ],
      "name": "supportsInterface",
      "outputs": [
        {
          "internalType": "bool",
          "name": "",
          "type": "bool"
        }
      ],
      "stateMutability": "view",
      "type": "function"
    },
    {
      "inputs": [
        {
          "internalType": "address",
          "name": "newOwner",
          "type": "address"
        }
      ],
      "name": "transferOwnership",
      "outputs": [],
      "stateMutability": "nonpayable",
      "type": "function"
    },
    {
      "inputs": [
        {
          "internalType": "uint256",
          "name": "newDelay",
          "type": "uint256"
        }
      ],
      "name": "updateDelay",
      "outputs": [],
      "stateMutability": "nonpayable",
      "type": "function"
    },
    {
      "stateMutability": "payable",
      "type": "receive"
    }
  ],
  "bytecode": "0x608060405234801561001057600080fd5b50613379806100206000396000f3fe6080604052600436106102d55760003560e01c80638f2a0bb011610179578063c2e042f4116100d6578063d9c31c731161008a578063f23a6e6111610064578063f23a6e61146108f6578063f27a0c921461093b578063f2fde38b1461095057600080fd5b8063d9c31c73146108a3578063e19a9dd9146108c3578063e38335e5146108e357600080fd5b8063c9106389116100bb578063c910638914610838578063d45c443514610856578063d547741f1461088357600080fd5b8063c2e042f4146107f8578063c4d252f51461081857600080fd5b8063b1c5f4271161012d578063b55a5c1c11610112578063b55a5c1c14610765578063ba7707b214610785578063bc197c81146107b357600080fd5b8063b1c5f42714610725578063b1d49d561461074557600080fd5b806391d148541161015e57806391d1485414610696578063a217fddf146106dc578063b08e51c0146106f157600080fd5b80638f2a0bb0146106425780638f61f4f51461066257600080fd5b80632f2ff15d1161023257806364d62353116101e65780637fbc79c6116101c05780637fbc79c6146105e45780638065657f146106045780638da5cb5b1461062457600080fd5b806364d6235314610577578063715018a6146105975780637ceab3b1146105ac57600080fd5b806336568abe1161021757806336568abe146105175780633ecf06bd14610537578063584b153e1461055757600080fd5b80632f2ff15d146104d757806331d50750146104f757600080fd5b8063134008d311610289578063150b7a021161026e578063150b7a021461041a578063248a9ca3146104775780632ab0f529146104a757600080fd5b8063134008d3146103e757806313bc9f20146103fa57600080fd5b806307bd0265116102ba57806307bd0265146103385780630d3cf6fc1461037a578063113c17de146103ae57600080fd5b806301d5062a146102e157806301ffc9a71461030357600080fd5b366102dc57005b600080fd5b3480156102ed57600080fd5b506103016102fc36600461281f565b610970565b005b34801561030f57600080fd5b5061032361031e366004612894565b610a05565b60405190151581526020015b60405180910390f35b34801561034457600080fd5b5061036c7fd8aa0f3194971a2a116679f7c2090f6939c8d4e01a2a8d7e41d55e5351469e6381565b60405190815260200161032f565b34801561038657600080fd5b5061036c7f5f58e3a2316349923ce3780f8d587db2d72378aed66a8261c916544fa6846ca581565b3480156103ba57600080fd5b506103016103c93660046128be565b60fc80546001600160a01b0319166001600160a01b03831617905550565b6103016103f53660046128d9565b610a4c565b34801561040657600080fd5b50610323610415366004612945565b610b44565b34801561042657600080fd5b5061045e610435366004612a15565b7f150b7a0200000000000000000000000000000000000000000000000000000000949350505050565b6040516001600160e01b0319909116815260200161032f565b34801561048357600080fd5b5061036c610492366004612945565b60009081526065602052604090206001015490565b3480156104b357600080fd5b506103236104c2366004612945565b60009081526097602052604090205460011490565b3480156104e357600080fd5b506103016104f2366004612a7d565b610b6a565b34801561050357600080fd5b50610323610512366004612945565b610b94565b34801561052357600080fd5b50610301610532366004612a7d565b610bad565b34801561054357600080fd5b50610301610552366004612aa9565b610c3e565b34801561056357600080fd5b50610323610572366004612945565b610ca0565b34801561058357600080fd5b50610301610592366004612945565b610cb7565b3480156105a357600080fd5b50610301610d6d565b3480156105b857600080fd5b5060fb546105cc906001600160a01b031681565b6040516001600160a01b03909116815260200161032f565b3480156105f057600080fd5b506103016105ff366004612b69565b610d81565b34801561061057600080fd5b5061036c61061f3660046128d9565b610eb7565b34801561063057600080fd5b5060c9546001600160a01b03166105cc565b34801561064e57600080fd5b5061030161065d366004612c1b565b610ef6565b34801561066e57600080fd5b5061036c7fb09aa5aeb3702cfd50b6b62bc4532604938f21248a27a1d5ca736082b6819cc181565b3480156106a257600080fd5b506103236106b1366004612a7d565b60009182526065602090815260408084206001600160a01b0393909316845291905290205460ff1690565b3480156106e857600080fd5b5061036c600081565b3480156106fd57600080fd5b5061036c7ffd643c72710c63c0180259aba6b2d05451e3591a24e58b62239378085726f78381565b34801561073157600080fd5b5061036c610740366004612ccd565b6110c0565b34801561075157600080fd5b506103016107603660046128be565b611105565b34801561077157600080fd5b5060fc546105cc906001600160a01b031681565b34801561079157600080fd5b506107a56107a0366004612d76565b61110e565b60405161032f929190612da0565b3480156107bf57600080fd5b5061045e6107ce366004612e58565b7fbc197c810000000000000000000000000000000000000000000000000000000095945050505050565b34801561080457600080fd5b50610301610813366004612aa9565b611208565b34801561082457600080fd5b50610301610833366004612945565b611212565b34801561084457600080fd5b5060fb546001600160a01b03166105cc565b34801561086257600080fd5b5061036c610871366004612945565b60009081526097602052604090205490565b34801561088f57600080fd5b5061030161089e366004612a7d565b6112f3565b3480156108af57600080fd5b506103236108be3660046128be565b611318565b3480156108cf57600080fd5b506103016108de3660046128be565b611350565b6103016108f1366004612ccd565b611485565b34801561090257600080fd5b5061045e610911366004612f02565b7ff23a6e610000000000000000000000000000000000000000000000000000000095945050505050565b34801561094757600080fd5b5060985461036c565b34801561095c57600080fd5b5061030161096b3660046128be565b6116ca565b7fb09aa5aeb3702cfd50b6b62bc4532604938f21248a27a1d5ca736082b6819cc161099a81611757565b60006109aa898989898989610eb7565b90506109b68184611761565b6000817f4cf4410cc57040e44862ef0f45f3dd5a5e02db8eb8add648d4b0e236f1d07dca8b8b8b8b8b8a6040516109f296959493929190612f90565b60405180910390a3505050505050505050565b60006001600160e01b031982167f4e2312e0000000000000000000000000000000000000000000000000000000001480610a435750610a4382611875565b92915050565b50565b600080527f7dc9f88e569f94faad6fa0d44dd44858caf3f34f1bd1c985800aedf5793aad8b6020527fa01e231ca478cf51f663e103939e98de36fa76d3e4e0b1de673dc711acc3a01b547fd8aa0f3194971a2a116679f7c2090f6939c8d4e01a2a8d7e41d55e5351469e639060ff16610ac957610ac981336118c3565b6000610ad9888888888888610eb7565b9050610ae58185611943565b610af188888888611a38565b6000817fc2617efa69bab66782fa219543714338489c4e9e178271560a91b82c3f612b588a8a8a8a604051610b299493929190612fce565b60405180910390a3610b3a81611b15565b5050505050505050565b600081815260976020526040812054600181118015610b635750428111155b9392505050565b600082815260656020526040902060010154610b8581611757565b610b8f8383611b91565b505050565b60008181526097602052604081205481905b1192915050565b6001600160a01b0381163314610c305760405162461bcd60e51b815260206004820152602f60248201527f416363657373436f6e74726f6c3a2063616e206f6e6c792072656e6f756e636560448201527f20726f6c657320666f722073656c66000000000000000000000000000000000060648201526084015b60405180910390fd5b610c3a8282611c33565b5050565b6001600160a01b03808216600090815260fe602052604080822080548685166001600160a01b031982168117909255915191909316929183917f90cc2f570a6eb594b1580ea3e41247d2d73a55281889e86bd4ec2fc29c7e62d69190a3505050565b600081815260976020526040812054600190610ba6565b333014610d2c5760405162461bcd60e51b815260206004820152602b60248201527f54696d656c6f636b436f6e74726f6c6c65723a2063616c6c6572206d7573742060448201527f62652074696d656c6f636b0000000000000000000000000000000000000000006064820152608401610c27565b60985460408051918252602082018390527f11c24f4ead16507c69ac467fbd5e4eed5fb5c699626d2cc6d66421df253886d5910160405180910390a1609855565b610d75611cb6565b610d7f6000611d10565b565b600054610100900460ff1615808015610da15750600054600160ff909116105b80610dbb5750303b158015610dbb575060005460ff166001145b610e2d5760405162461bcd60e51b815260206004820152602e60248201527f496e697469616c697a61626c653a20636f6e747261637420697320616c72656160448201527f647920696e697469616c697a65640000000000000000000000000000000000006064820152608401610c27565b6000805460ff191660011790558015610e50576000805461ff0019166101001790555b610e58611d62565b610e63848484611dd5565b610e6b611e4b565b8015610eb1576000805461ff0019169055604051600181527f7f26b83ff96e1f2b6a682f133852f6798a09c465da95921460cefb38474024989060200160405180910390a15b50505050565b6000868686868686604051602001610ed496959493929190612f90565b6040516020818303038152906040528051906020012090509695505050505050565b7fb09aa5aeb3702cfd50b6b62bc4532604938f21248a27a1d5ca736082b6819cc1610f2081611757565b888714610f7b5760405162461bcd60e51b815260206004820152602360248201527f54696d656c6f636b436f6e74726f6c6c65723a206c656e677468206d69736d616044820152620e8c6d60eb1b6064820152608401610c27565b888514610fd65760405162461bcd60e51b815260206004820152602360248201527f54696d656c6f636b436f6e74726f6c6c65723a206c656e677468206d69736d616044820152620e8c6d60eb1b6064820152608401610c27565b6000610fe88b8b8b8b8b8b8b8b6110c0565b9050610ff48184611761565b60005b8a8110156110b25780827f4cf4410cc57040e44862ef0f45f3dd5a5e02db8eb8add648d4b0e236f1d07dca8e8e8581811061103457611034613001565b905060200201602081019061104991906128be565b8d8d8681811061105b5761105b613001565b905060200201358c8c8781811061107457611074613001565b90506020028101906110869190613017565b8c8b60405161109a96959493929190612f90565b60405180910390a36110ab81613074565b9050610ff7565b505050505050505050505050565b600088888888888888886040516020016110e198979695949392919061311f565b60405160208183030381529060405280519060200120905098975050505050505050565b610a4981611ebe565b606060008267ffffffffffffffff81111561112b5761112b61295e565b604051908082528060200260200182016040528015611154578160200160208202803683370190505b506001600160a01b03808616600090815260fd602052604081205492945091165b6001600160a01b0381161580159061119757506001600160a01b038116600114155b80156111a257508482105b156111fa57808483815181106111ba576111ba613001565b6001600160a01b03928316602091820292909201810191909152918116600090815260fd90925260409091205416816111f281613074565b925050611175565b908352919491935090915050565b610c3a828261201c565b7ffd643c72710c63c0180259aba6b2d05451e3591a24e58b62239378085726f78361123c81611757565b61124582610ca0565b6112b75760405162461bcd60e51b815260206004820152603160248201527f54696d656c6f636b436f6e74726f6c6c65723a206f7065726174696f6e20636160448201527f6e6e6f742062652063616e63656c6c65640000000000000000000000000000006064820152608401610c27565b6000828152609760205260408082208290555183917fbaa1eb22f2a492ba1a5fea61b8df4d27c6c8b5f3971e63bb58fa14ff72eedb7091a25050565b60008281526065602052604090206001015461130e81611757565b610b8f8383611c33565b600060016001600160a01b03831614801590610a435750506001600160a01b03908116600090815260fd602052604090205416151590565b611358611cb6565b6001600160a01b03811615611430576040516301ffc9a760e01b81527fe6d7a83a0000000000000000000000000000000000000000000000000000000060048201526001600160a01b038216906301ffc9a790602401602060405180830381865afa1580156113cb573d6000803e3d6000fd5b505050506040513d601f19601f820116820180604052508101906113ef91906131e3565b611430576040517fb16ea67e0000000000000000000000000000000000000000000000000000000081526001600160a01b0382166004820152602401610c27565b60fb80546001600160a01b0319166001600160a01b0383169081179091556040519081527f1151116914515bc0891ff9047a6cb32cf902546f83066499bcf8ba33d2353fa2906020015b60405180910390a150565b600080527f7dc9f88e569f94faad6fa0d44dd44858caf3f34f1bd1c985800aedf5793aad8b6020527fa01e231ca478cf51f663e103939e98de36fa76d3e4e0b1de673dc711acc3a01b547fd8aa0f3194971a2a116679f7c2090f6939c8d4e01a2a8d7e41d55e5351469e639060ff166115025761150281336118c3565b87861461155d5760405162461bcd60e51b815260206004820152602360248201527f54696d656c6f636b436f6e74726f6c6c65723a206c656e677468206d69736d616044820152620e8c6d60eb1b6064820152608401610c27565b8784146115b85760405162461bcd60e51b815260206004820152602360248201527f54696d656c6f636b436f6e74726f6c6c65723a206c656e677468206d69736d616044820152620e8c6d60eb1b6064820152608401610c27565b60006115ca8a8a8a8a8a8a8a8a6110c0565b90506115d68185611943565b60005b898110156116b45760008b8b838181106115f5576115f5613001565b905060200201602081019061160a91906128be565b905060008a8a8481811061162057611620613001565b9050602002013590503660008a8a8681811061163e5761163e613001565b90506020028101906116509190613017565b9150915061166084848484611a38565b84867fc2617efa69bab66782fa219543714338489c4e9e178271560a91b82c3f612b58868686866040516116979493929190612fce565b60405180910390a350505050806116ad90613074565b90506115d9565b506116be81611b15565b50505050505050505050565b6116d2611cb6565b6001600160a01b03811661174e5760405162461bcd60e51b815260206004820152602660248201527f4f776e61626c653a206e6577206f776e657220697320746865207a65726f206160448201527f64647265737300000000000000000000000000000000000000000000000000006064820152608401610c27565b610a4981611d10565b610a4981336118c3565b61176a82610b94565b156117dd5760405162461bcd60e51b815260206004820152602f60248201527f54696d656c6f636b436f6e74726f6c6c65723a206f7065726174696f6e20616c60448201527f7265616479207363686564756c656400000000000000000000000000000000006064820152608401610c27565b6098548110156118555760405162461bcd60e51b815260206004820152602660248201527f54696d656c6f636b436f6e74726f6c6c65723a20696e73756666696369656e7460448201527f2064656c617900000000000000000000000000000000000000000000000000006064820152608401610c27565b61185f8142613205565b6000928352609760205260409092209190915550565b60006001600160e01b031982167f7965db0b000000000000000000000000000000000000000000000000000000001480610a4357506301ffc9a760e01b6001600160e01b0319831614610a43565b60008281526065602090815260408083206001600160a01b038516845290915290205460ff16610c3a57611901816001600160a01b0316601461215a565b61190c83602061215a565b60405160200161191d929190613249565b60408051601f198184030181529082905262461bcd60e51b8252610c27916004016132ca565b61194c82610b44565b6119ab5760405162461bcd60e51b815260206004820152602a60248201527f54696d656c6f636b436f6e74726f6c6c65723a206f7065726174696f6e206973604482015269206e6f7420726561647960b01b6064820152608401610c27565b8015806119c657506000818152609760205260409020546001145b610c3a5760405162461bcd60e51b815260206004820152602660248201527f54696d656c6f636b436f6e74726f6c6c65723a206d697373696e67206465706560448201527f6e64656e637900000000000000000000000000000000000000000000000000006064820152608401610c27565b6000846001600160a01b0316848484604051611a559291906132fd565b60006040518083038185875af1925050503d8060008114611a92576040519150601f19603f3d011682016040523d82523d6000602084013e611a97565b606091505b5050905080611b0e5760405162461bcd60e51b815260206004820152603360248201527f54696d656c6f636b436f6e74726f6c6c65723a20756e6465726c79696e67207460448201527f72616e73616374696f6e207265766572746564000000000000000000000000006064820152608401610c27565b5050505050565b611b1e81610b44565b611b7d5760405162461bcd60e51b815260206004820152602a60248201527f54696d656c6f636b436f6e74726f6c6c65723a206f7065726174696f6e206973604482015269206e6f7420726561647960b01b6064820152608401610c27565b600090815260976020526040902060019055565b60008281526065602090815260408083206001600160a01b038516845290915290205460ff16610c3a5760008281526065602090815260408083206001600160a01b03851684529091529020805460ff19166001179055611bef3390565b6001600160a01b0316816001600160a01b0316837f2f8788117e7eff1d82e926ec794901d17c78024a50270940304540a733656f0d60405160405180910390a45050565b60008281526065602090815260408083206001600160a01b038516845290915290205460ff1615610c3a5760008281526065602090815260408083206001600160a01b0385168085529252808320805460ff1916905551339285917ff6391f5c32d9c69d2a47ea670b442974b53935d1edc7fd64eb21e047a839171b9190a45050565b60c9546001600160a01b03163314610d7f5760405162461bcd60e51b815260206004820181905260248201527f4f776e61626c653a2063616c6c6572206973206e6f7420746865206f776e65726044820152606401610c27565b60c980546001600160a01b038381166001600160a01b0319831681179093556040519116919082907f8be0079c531659141344cd1fd0a4f28419497f9722a3daafe3b4186f6b6457e090600090a35050565b600054610100900460ff16611dcd5760405162461bcd60e51b815260206004820152602b60248201527f496e697469616c697a61626c653a20636f6e7472616374206973206e6f74206960448201526a6e697469616c697a696e6760a81b6064820152608401610c27565b610d7f61233b565b600054610100900460ff16611e405760405162461bcd60e51b815260206004820152602b60248201527f496e697469616c697a61626c653a20636f6e7472616374206973206e6f74206960448201526a6e697469616c697a696e6760a81b6064820152608401610c27565b610b8f8383836123af565b600054610100900460ff16611eb65760405162461bcd60e51b815260206004820152602b60248201527f496e697469616c697a61626c653a20636f6e7472616374206973206e6f74206960448201526a6e697469616c697a696e6760a81b6064820152608401610c27565b610d7f6126a3565b6001600160a01b03811615801590611ee057506001600160a01b038116600114155b611f145760405162461bcd60e51b8152602060048201526005602482015264475331303160d81b6044820152606401610c27565b6001600160a01b03818116600090815260fd60205260409020541615611f7c5760405162461bcd60e51b815260206004820152600560248201527f47533130320000000000000000000000000000000000000000000000000000006044820152606401610c27565b60fd6020527f6443157f7701a627e53184b74fce0d403f4bf9bc1aaa0bc17c9ee17e10ec8b8f80546001600160a01b038381166000818152604081208054939094166001600160a01b0319938416179093556001909252825416179055611fe38180610c3e565b6040516001600160a01b03821681527fdc8509131aac11ac4f5b915e0b24114ac71cf7b256433834e067829bf9db3ad49060200161147a565b6001600160a01b0381161580159061203e57506001600160a01b038116600114155b6120725760405162461bcd60e51b8152602060048201526005602482015264475331303160d81b6044820152606401610c27565b6001600160a01b03828116600090815260fd60205260409020548116908216146120de5760405162461bcd60e51b815260206004820152600560248201527f47533130330000000000000000000000000000000000000000000000000000006044820152606401610c27565b6001600160a01b03818116600081815260fd60209081526040808320805488871685528285208054919097166001600160a01b03199182161790965592849052825490941690915591519081527ff958f63a03d52fa6114df75e4f1176335f2a3cef00a6f620f1fbc70ae4b2542b910160405180910390a15050565b6060600061216983600261330d565b612174906002613205565b67ffffffffffffffff81111561218c5761218c61295e565b6040519080825280601f01601f1916602001820160405280156121b6576020820181803683370190505b5090507f3000000000000000000000000000000000000000000000000000000000000000816000815181106121ed576121ed613001565b60200101906001600160f81b031916908160001a9053507f78000000000000000000000000000000000000000000000000000000000000008160018151811061223857612238613001565b60200101906001600160f81b031916908160001a905350600061225c84600261330d565b612267906001613205565b90505b60018111156122ec577f303132333435363738396162636465660000000000000000000000000000000085600f16601081106122a8576122a8613001565b1a60f81b8282815181106122be576122be613001565b60200101906001600160f81b031916908160001a90535060049490941c936122e58161332c565b905061226a565b508315610b635760405162461bcd60e51b815260206004820181905260248201527f537472696e67733a20686578206c656e67746820696e73756666696369656e746044820152606401610c27565b600054610100900460ff166123a65760405162461bcd60e51b815260206004820152602b60248201527f496e697469616c697a61626c653a20636f6e7472616374206973206e6f74206960448201526a6e697469616c697a696e6760a81b6064820152608401610c27565b610d7f33611d10565b600054610100900460ff1661241a5760405162461bcd60e51b815260206004820152602b60248201527f496e697469616c697a61626c653a20636f6e7472616374206973206e6f74206960448201526a6e697469616c697a696e6760a81b6064820152608401610c27565b6124447f5f58e3a2316349923ce3780f8d587db2d72378aed66a8261c916544fa6846ca580612765565b61248e7fb09aa5aeb3702cfd50b6b62bc4532604938f21248a27a1d5ca736082b6819cc17f5f58e3a2316349923ce3780f8d587db2d72378aed66a8261c916544fa6846ca5612765565b6124d87fd8aa0f3194971a2a116679f7c2090f6939c8d4e01a2a8d7e41d55e5351469e637f5f58e3a2316349923ce3780f8d587db2d72378aed66a8261c916544fa6846ca5612765565b6125227ffd643c72710c63c0180259aba6b2d05451e3591a24e58b62239378085726f7837f5f58e3a2316349923ce3780f8d587db2d72378aed66a8261c916544fa6846ca5612765565b61254c7f5f58e3a2316349923ce3780f8d587db2d72378aed66a8261c916544fa6846ca5336127b0565b6125767f5f58e3a2316349923ce3780f8d587db2d72378aed66a8261c916544fa6846ca5306127b0565b60005b825181101561260b576125c57fb09aa5aeb3702cfd50b6b62bc4532604938f21248a27a1d5ca736082b6819cc18483815181106125b8576125b8613001565b60200260200101516127b0565b6125fb7ffd643c72710c63c0180259aba6b2d05451e3591a24e58b62239378085726f7838483815181106125b8576125b8613001565b61260481613074565b9050612579565b5060005b815181101561265e5761264e7fd8aa0f3194971a2a116679f7c2090f6939c8d4e01a2a8d7e41d55e5351469e638383815181106125b8576125b8613001565b61265781613074565b905061260f565b5060988390556040805160008152602081018590527f11c24f4ead16507c69ac467fbd5e4eed5fb5c699626d2cc6d66421df253886d5910160405180910390a1505050565b600160005260fd6020527f6443157f7701a627e53184b74fce0d403f4bf9bc1aaa0bc17c9ee17e10ec8b8f546001600160a01b0316156127255760405162461bcd60e51b815260206004820152601b60248201527f6176617461727320616c726561647920696e697469616c697a656400000000006044820152606401610c27565b6001600081905260fd6020527f6443157f7701a627e53184b74fce0d403f4bf9bc1aaa0bc17c9ee17e10ec8b8f80546001600160a01b0319169091179055565b600082815260656020526040808220600101805490849055905190918391839186917fbd79b86ffe0ab8e8776151514217cd7cacd52c909f66475c3af44e129f0b00ff9190a4505050565b610c3a8282611b91565b80356001600160a01b03811681146127d157600080fd5b919050565b60008083601f8401126127e857600080fd5b50813567ffffffffffffffff81111561280057600080fd5b60208301915083602082850101111561281857600080fd5b9250929050565b600080600080600080600060c0888a03121561283a57600080fd5b612843886127ba565b965060208801359550604088013567ffffffffffffffff81111561286657600080fd5b6128728a828b016127d6565b989b979a50986060810135976080820135975060a09091013595509350505050565b6000602082840312156128a657600080fd5b81356001600160e01b031981168114610b6357600080fd5b6000602082840312156128d057600080fd5b610b63826127ba565b60008060008060008060a087890312156128f257600080fd5b6128fb876127ba565b955060208701359450604087013567ffffffffffffffff81111561291e57600080fd5b61292a89828a016127d6565b979a9699509760608101359660809091013595509350505050565b60006020828403121561295757600080fd5b5035919050565b634e487b7160e01b600052604160045260246000fd5b604051601f8201601f1916810167ffffffffffffffff8111828210171561299d5761299d61295e565b604052919050565b600082601f8301126129b657600080fd5b813567ffffffffffffffff8111156129d0576129d061295e565b6129e3601f8201601f1916602001612974565b8181528460208386010111156129f857600080fd5b816020850160208301376000918101602001919091529392505050565b60008060008060808587031215612a2b57600080fd5b612a34856127ba565b9350612a42602086016127ba565b925060408501359150606085013567ffffffffffffffff811115612a6557600080fd5b612a71878288016129a5565b91505092959194509250565b60008060408385031215612a9057600080fd5b82359150612aa0602084016127ba565b90509250929050565b60008060408385031215612abc57600080fd5b612ac5836127ba565b9150612aa0602084016127ba565b600067ffffffffffffffff821115612aed57612aed61295e565b5060051b60200190565b600082601f830112612b0857600080fd5b81356020612b1d612b1883612ad3565b612974565b82815260059290921b84018101918181019086841115612b3c57600080fd5b8286015b84811015612b5e57612b51816127ba565b8352918301918301612b40565b509695505050505050565b600080600060608486031215612b7e57600080fd5b83359250602084013567ffffffffffffffff80821115612b9d57600080fd5b612ba987838801612af7565b93506040860135915080821115612bbf57600080fd5b50612bcc86828701612af7565b9150509250925092565b60008083601f840112612be857600080fd5b50813567ffffffffffffffff811115612c0057600080fd5b6020830191508360208260051b850101111561281857600080fd5b600080600080600080600080600060c08a8c031215612c3957600080fd5b893567ffffffffffffffff80821115612c5157600080fd5b612c5d8d838e01612bd6565b909b50995060208c0135915080821115612c7657600080fd5b612c828d838e01612bd6565b909950975060408c0135915080821115612c9b57600080fd5b50612ca88c828d01612bd6565b9a9d999c50979a969997986060880135976080810135975060a0013595509350505050565b60008060008060008060008060a0898b031215612ce957600080fd5b883567ffffffffffffffff80821115612d0157600080fd5b612d0d8c838d01612bd6565b909a50985060208b0135915080821115612d2657600080fd5b612d328c838d01612bd6565b909850965060408b0135915080821115612d4b57600080fd5b50612d588b828c01612bd6565b999c989b509699959896976060870135966080013595509350505050565b60008060408385031215612d8957600080fd5b612d92836127ba565b946020939093013593505050565b604080825283519082018190526000906020906060840190828701845b82811015612de25781516001600160a01b031684529284019290840190600101612dbd565b5050506001600160a01b039490941692019190915250919050565b600082601f830112612e0e57600080fd5b81356020612e1e612b1883612ad3565b82815260059290921b84018101918181019086841115612e3d57600080fd5b8286015b84811015612b5e5780358352918301918301612e41565b600080600080600060a08688031215612e7057600080fd5b612e79866127ba565b9450612e87602087016127ba565b9350604086013567ffffffffffffffff80821115612ea457600080fd5b612eb089838a01612dfd565b94506060880135915080821115612ec657600080fd5b612ed289838a01612dfd565b93506080880135915080821115612ee857600080fd5b50612ef5888289016129a5565b9150509295509295909350565b600080600080600060a08688031215612f1a57600080fd5b612f23866127ba565b9450612f31602087016127ba565b93506040860135925060608601359150608086013567ffffffffffffffff811115612f5b57600080fd5b612ef5888289016129a5565b81835281816020850137506000828201602090810191909152601f909101601f19169091010190565b6001600160a01b038716815285602082015260a060408201526000612fb960a083018688612f67565b60608301949094525060800152949350505050565b6001600160a01b0385168152836020820152606060408201526000612ff7606083018486612f67565b9695505050505050565b634e487b7160e01b600052603260045260246000fd5b6000808335601e1984360301811261302e57600080fd5b83018035915067ffffffffffffffff82111561304957600080fd5b60200191503681900382131561281857600080fd5b634e487b7160e01b600052601160045260246000fd5b6000600182016130865761308661305e565b5060010190565b81835260006020808501808196508560051b810191508460005b878110156131125782840389528135601e198836030181126130c857600080fd5b8701858101903567ffffffffffffffff8111156130e457600080fd5b8036038213156130f357600080fd5b6130fe868284612f67565b9a87019a95505050908401906001016130a7565b5091979650505050505050565b60a0808252810188905260008960c08301825b8b811015613160576001600160a01b0361314b846127ba565b16825260209283019290910190600101613132565b5083810360208501528881527f07ffffffffffffffffffffffffffffffffffffffffffffffffffffffffffffff89111561319957600080fd5b8860051b9150818a6020830137818101915050602081016000815260208483030160408501526131ca81888a61308d565b6060850196909652505050608001529695505050505050565b6000602082840312156131f557600080fd5b81518015158114610b6357600080fd5b600082198211156132185761321861305e565b500190565b60005b83811015613238578181015183820152602001613220565b83811115610eb15750506000910152565b7f416363657373436f6e74726f6c3a206163636f756e742000000000000000000081526000835161328181601785016020880161321d565b7f206973206d697373696e6720726f6c652000000000000000000000000000000060179184019182015283516132be81602884016020880161321d565b01602801949350505050565b60208152600082518060208401526132e981604085016020870161321d565b601f01601f19169190910160400192915050565b8183823760009101908152919050565b60008160001904831182151516156133275761332761305e565b500290565b60008161333b5761333b61305e565b50600019019056fea2646970667358221220ee21e7a3652faa172ffa50d5e48d64c0880fc0f29c4a4bd65a54ec51cc28765f64736f6c634300080f0033",
  "linkReferences": {},
  "deployedLinkReferences": {}
}