{
  "_format": "hh-sol-artifact-1",
  "contractName": "budgetModifierLogic",
  "sourceName": "contracts/committeeComponent/budgetModifier/budgetModifierLogic.sol",
  "abi": [
    {
      "inputs": [],
      "stateMutability": "nonpayable",
      "type": "constructor"
    },
    {
      "inputs": [
        {
          "internalType": "address",
          "name": "guard_",
          "type": "address"
        }
      ],
      "name": "NotIERC165Compliant",
      "type": "error"
    },
    {
      "anonymous": false,
      "inputs": [
        {
          "indexed": false,
          "internalType": "address",
          "name": "previousAdmin",
          "type": "address"
        },
        {
          "indexed": false,
          "internalType": "address",
          "name": "newAdmin",
          "type": "address"
        }
      ],
      "name": "AdminChanged",
      "type": "event"
    },
    {
      "anonymous": false,
      "inputs": [
        {
          "indexed": true,
          "internalType": "address",
          "name": "beacon",
          "type": "address"
        }
      ],
      "name": "BeaconUpgraded",
      "type": "event"
    },
    {
      "anonymous": false,
      "inputs": [
        {
          "indexed": false,
          "internalType": "address",
          "name": "guard",
          "type": "address"
        }
      ],
      "name": "ChangedGuard",
      "type": "event"
    },
    {
      "anonymous": false,
      "inputs": [
        {
          "indexed": false,
          "internalType": "address",
          "name": "avatar",
          "type": "address"
        }
      ],
      "name": "DisabledAvatar",
      "type": "event"
    },
    {
      "anonymous": false,
      "inputs": [
        {
          "indexed": false,
          "internalType": "address",
          "name": "module",
          "type": "address"
        }
      ],
      "name": "DisabledModule",
      "type": "event"
    },
    {
      "anonymous": false,
      "inputs": [
        {
          "indexed": false,
          "internalType": "address",
          "name": "avatar",
          "type": "address"
        }
      ],
      "name": "EnabledAvatar",
      "type": "event"
    },
    {
      "anonymous": false,
      "inputs": [
        {
          "indexed": false,
          "internalType": "address",
          "name": "module",
          "type": "address"
        }
      ],
      "name": "EnabledModule",
      "type": "event"
    },
    {
      "anonymous": false,
      "inputs": [
        {
          "indexed": true,
          "internalType": "address",
          "name": "module",
          "type": "address"
        }
      ],
      "name": "ExecutionFromModuleFailure",
      "type": "event"
    },
    {
      "anonymous": false,
      "inputs": [
        {
          "indexed": true,
          "internalType": "address",
          "name": "module",
          "type": "address"
        }
      ],
      "name": "ExecutionFromModuleSuccess",
      "type": "event"
    },
    {
      "anonymous": false,
      "inputs": [
        {
          "indexed": false,
          "internalType": "uint8",
          "name": "version",
          "type": "uint8"
        }
      ],
      "name": "Initialized",
      "type": "event"
    },
    {
      "anonymous": false,
      "inputs": [
        {
          "indexed": true,
          "internalType": "address",
          "name": "previousOwner",
          "type": "address"
        },
        {
          "indexed": true,
          "internalType": "address",
          "name": "newOwner",
          "type": "address"
        }
      ],
      "name": "OwnershipTransferred",
      "type": "event"
    },
    {
      "anonymous": false,
      "inputs": [
        {
          "indexed": true,
          "internalType": "address",
          "name": "previousTarget",
          "type": "address"
        },
        {
          "indexed": true,
          "internalType": "address",
          "name": "newTarget",
          "type": "address"
        }
      ],
      "name": "TargetSet",
      "type": "event"
    },
    {
      "anonymous": false,
      "inputs": [
        {
          "indexed": true,
          "internalType": "address",
          "name": "implementation",
          "type": "address"
        }
      ],
      "name": "Upgraded",
      "type": "event"
    },
    {
      "inputs": [
        {
          "internalType": "address",
          "name": "preAvatar",
          "type": "address"
        },
        {
          "internalType": "address",
          "name": "avatar",
          "type": "address"
        }
      ],
      "name": "disableAvatar",
      "outputs": [],
      "stateMutability": "nonpayable",
      "type": "function"
    },
    {
      "inputs": [
        {
          "internalType": "address",
          "name": "prevModule",
          "type": "address"
        },
        {
          "internalType": "address",
          "name": "module",
          "type": "address"
        }
      ],
      "name": "disableModule",
      "outputs": [],
      "stateMutability": "nonpayable",
      "type": "function"
    },
    {
      "inputs": [
        {
          "internalType": "address",
          "name": "module",
          "type": "address"
        }
      ],
      "name": "disableSettingsModule",
      "outputs": [],
      "stateMutability": "nonpayable",
      "type": "function"
    },
    {
      "inputs": [
        {
          "internalType": "address",
          "name": "avatar",
          "type": "address"
        }
      ],
      "name": "enableAvatar",
      "outputs": [],
      "stateMutability": "nonpayable",
      "type": "function"
    },
    {
      "inputs": [
        {
          "internalType": "address",
          "name": "module",
          "type": "address"
        },
        {
          "internalType": "address",
          "name": "avatar",
          "type": "address"
        }
      ],
      "name": "enableModification",
      "outputs": [],
      "stateMutability": "nonpayable",
      "type": "function"
    },
    {
      "inputs": [
        {
          "internalType": "address",
          "name": "module",
          "type": "address"
        }
      ],
      "name": "enableModule",
      "outputs": [],
      "stateMutability": "nonpayable",
      "type": "function"
    },
    {
      "inputs": [
        {
          "internalType": "address",
          "name": "module",
          "type": "address"
        }
      ],
      "name": "enableSettingsModule",
      "outputs": [],
      "stateMutability": "nonpayable",
      "type": "function"
    },
    {
      "inputs": [
        {
          "internalType": "address",
          "name": "to",
          "type": "address"
        },
        {
          "internalType": "uint256",
          "name": "value",
          "type": "uint256"
        },
        {
          "internalType": "bytes",
          "name": "data",
          "type": "bytes"
        },
        {
          "internalType": "enum Enum.Operation",
          "name": "operation",
          "type": "uint8"
        }
      ],
      "name": "execTransactionFromModule",
      "outputs": [
        {
          "internalType": "bool",
          "name": "success",
          "type": "bool"
        }
      ],
      "stateMutability": "nonpayable",
      "type": "function"
    },
    {
      "inputs": [
        {
          "internalType": "address",
          "name": "to",
          "type": "address"
        },
        {
          "internalType": "uint256",
          "name": "value",
          "type": "uint256"
        },
        {
          "internalType": "bytes",
          "name": "data",
          "type": "bytes"
        },
        {
          "internalType": "enum Enum.Operation",
          "name": "operation",
          "type": "uint8"
        }
      ],
      "name": "execTransactionFromModuleReturnData",
      "outputs": [
        {
          "internalType": "bool",
          "name": "success",
          "type": "bool"
        },
        {
          "internalType": "bytes",
          "name": "returnData",
          "type": "bytes"
        }
      ],
      "stateMutability": "nonpayable",
      "type": "function"
    },
    {
      "inputs": [
        {
          "internalType": "address",
          "name": "start",
          "type": "address"
        },
        {
          "internalType": "uint256",
          "name": "pageSize",
          "type": "uint256"
        }
      ],
      "name": "getAvatarsPaginated",
      "outputs": [
        {
          "internalType": "address[]",
          "name": "array",
          "type": "address[]"
        },
        {
          "internalType": "address",
          "name": "next",
          "type": "address"
        }
      ],
      "stateMutability": "view",
      "type": "function"
    },
    {
      "inputs": [
        {
          "internalType": "address",
          "name": "module",
          "type": "address"
        }
      ],
      "name": "getBudget",
      "outputs": [
        {
          "components": [
            {
              "internalType": "uint256",
              "name": "totalAmount",
              "type": "uint256"
            },
            {
              "internalType": "uint256",
              "name": "amountUsed",
              "type": "uint256"
            },
            {
              "internalType": "uint256",
              "name": "lastReset",
              "type": "uint256"
            },
            {
              "internalType": "uint256",
              "name": "interval",
              "type": "uint256"
            },
            {
              "internalType": "bool",
              "name": "frozen",
              "type": "bool"
            }
          ],
          "internalType": "struct budgetModifierBase.budget",
          "name": "",
          "type": "tuple"
        }
      ],
      "stateMutability": "view",
      "type": "function"
    },
    {
      "inputs": [],
      "name": "getGuard",
      "outputs": [
        {
          "internalType": "address",
          "name": "_guard",
          "type": "address"
        }
      ],
      "stateMutability": "view",
      "type": "function"
    },
    {
      "inputs": [
        {
          "internalType": "address",
          "name": "start",
          "type": "address"
        },
        {
          "internalType": "uint256",
          "name": "pageSize",
          "type": "uint256"
        }
      ],
      "name": "getModulesPaginated",
      "outputs": [
        {
          "internalType": "address[]",
          "name": "array",
          "type": "address[]"
        },
        {
          "internalType": "address",
          "name": "next",
          "type": "address"
        }
      ],
      "stateMutability": "view",
      "type": "function"
    },
    {
      "inputs": [],
      "name": "guard",
      "outputs": [
        {
          "internalType": "address",
          "name": "",
          "type": "address"
        }
      ],
      "stateMutability": "view",
      "type": "function"
    },
    {
      "inputs": [
        {
          "internalType": "bytes",
          "name": "initializeParams",
          "type": "bytes"
        }
      ],
      "name": "initialize",
      "outputs": [],
      "stateMutability": "nonpayable",
      "type": "function"
    },
    {
      "inputs": [
        {
          "internalType": "address",
          "name": "avatar",
          "type": "address"
        }
      ],
      "name": "isAvatarEnabled",
      "outputs": [
        {
          "internalType": "bool",
          "name": "",
          "type": "bool"
        }
      ],
      "stateMutability": "view",
      "type": "function"
    },
    {
      "inputs": [
        {
          "internalType": "address",
          "name": "module",
          "type": "address"
        }
      ],
      "name": "isModuleEnabled",
      "outputs": [
        {
          "internalType": "bool",
          "name": "",
          "type": "bool"
        }
      ],
      "stateMutability": "view",
      "type": "function"
    },
    {
      "inputs": [
        {
          "internalType": "address",
          "name": "",
          "type": "address"
        }
      ],
      "name": "moduleToAvatar",
      "outputs": [
        {
          "internalType": "address",
          "name": "",
          "type": "address"
        }
      ],
      "stateMutability": "view",
      "type": "function"
    },
    {
      "inputs": [],
      "name": "owner",
      "outputs": [
        {
          "internalType": "address",
          "name": "",
          "type": "address"
        }
      ],
      "stateMutability": "view",
      "type": "function"
    },
    {
      "inputs": [],
      "name": "permissionRegistry",
      "outputs": [
        {
          "internalType": "address",
          "name": "",
          "type": "address"
        }
      ],
      "stateMutability": "view",
      "type": "function"
    },
    {
      "inputs": [],
      "name": "proxiableUUID",
      "outputs": [
        {
          "internalType": "bytes32",
          "name": "",
          "type": "bytes32"
        }
      ],
      "stateMutability": "view",
      "type": "function"
    },
    {
      "inputs": [],
      "name": "renounceOwnership",
      "outputs": [],
      "stateMutability": "nonpayable",
      "type": "function"
    },
    {
      "inputs": [
        {
          "internalType": "address",
          "name": "module",
          "type": "address"
        },
        {
          "internalType": "uint256",
          "name": "_totalAmount",
          "type": "uint256"
        },
        {
          "internalType": "uint256",
          "name": "_interval",
          "type": "uint256"
        }
      ],
      "name": "setBudget",
      "outputs": [],
      "stateMutability": "nonpayable",
      "type": "function"
    },
    {
      "inputs": [
        {
          "internalType": "address",
          "name": "module",
          "type": "address"
        }
      ],
      "name": "setFreeze",
      "outputs": [],
      "stateMutability": "nonpayable",
      "type": "function"
    },
    {
      "inputs": [
        {
          "internalType": "address",
          "name": "_guard",
          "type": "address"
        }
      ],
      "name": "setGuard",
      "outputs": [],
      "stateMutability": "nonpayable",
      "type": "function"
    },
    {
      "inputs": [
        {
          "internalType": "address",
          "name": "_permissionReg",
          "type": "address"
        }
      ],
      "name": "setPermissionReg",
      "outputs": [],
      "stateMutability": "nonpayable",
      "type": "function"
    },
    {
      "inputs": [
        {
          "internalType": "address",
          "name": "target",
          "type": "address"
        },
        {
          "internalType": "address",
          "name": "avatar",
          "type": "address"
        }
      ],
      "name": "setTarget",
      "outputs": [],
      "stateMutability": "nonpayable",
      "type": "function"
    },
    {
      "inputs": [
        {
          "internalType": "address",
          "name": "",
          "type": "address"
        }
      ],
      "name": "settingsModules",
      "outputs": [
        {
          "internalType": "bool",
          "name": "",
          "type": "bool"
        }
      ],
      "stateMutability": "view",
      "type": "function"
    },
    {
      "inputs": [
        {
          "internalType": "address",
          "name": "newOwner",
          "type": "address"
        }
      ],
      "name": "transferOwnership",
      "outputs": [],
      "stateMutability": "nonpayable",
      "type": "function"
    },
    {
      "inputs": [
        {
          "internalType": "address",
          "name": "newImplementation",
          "type": "address"
        }
      ],
      "name": "upgradeTo",
      "outputs": [],
      "stateMutability": "nonpayable",
      "type": "function"
    },
    {
      "inputs": [
        {
          "internalType": "address",
          "name": "newImplementation",
          "type": "address"
        },
        {
          "internalType": "bytes",
          "name": "data",
          "type": "bytes"
        }
      ],
      "name": "upgradeToAndCall",
      "outputs": [],
      "stateMutability": "payable",
      "type": "function"
    }
  ],
  "bytecode": "0x60a0604052306080523480156200001557600080fd5b506200002062000026565b620000e8565b600054610100900460ff1615620000935760405162461bcd60e51b815260206004820152602760248201527f496e697469616c697a61626c653a20636f6e747261637420697320696e697469604482015266616c697a696e6760c81b606482015260840160405180910390fd5b60005460ff9081161015620000e6576000805460ff191660ff9081179091556040519081527f7f26b83ff96e1f2b6a682f133852f6798a09c465da95921460cefb38474024989060200160405180910390a15b565b6080516137106200012060003960008181610ab701528181610b3c015281816110f10152818161117601526113be01526137106000f3fe6080604052600436106101d85760003560e01c80637ceab3b111610102578063c910638911610095578063e009cfde11610064578063e009cfde146105cd578063e19a9dd9146105ed578063e5e3ae741461060d578063f2fde38b1461063d57600080fd5b8063c91063891461054f578063cc2f84521461056d578063d9c31c731461058d578063dd16a008146105ad57600080fd5b8063b1d49d56116100d1578063b1d49d56146104c1578063b55a5c1c146104e1578063ba7707b214610501578063c2e042f41461052f57600080fd5b80637ceab3b1146104155780638da5cb5b1461044d5780639e72d6d51461046b578063acead0dc1461048b57600080fd5b80633ecf06bd1161017a5780635229073f116101495780635229073f1461038f57806352d1902d146103bd578063610b5925146103e0578063715018a61461040057600080fd5b80633ecf06bd1461031c578063439fab911461033c578063468721a71461035c5780634f1ef2861461037c57600080fd5b80632d9ad53d116101b65780632d9ad53d1461028c5780632de7ae93146102bc5780633659cfe6146102dc578063369f771b146102fc57600080fd5b8063113c17de146101dd57806319b7d7bd146101ff57806325bccea21461026c575b600080fd5b3480156101e957600080fd5b506101fd6101f83660046130dc565b61065d565b005b34801561020b57600080fd5b5061021f61021a3660046130dc565b610781565b6040516102639190600060a0820190508251825260208301516020830152604083015160408301526060830151606083015260808301511515608083015292915050565b60405180910390f35b34801561027857600080fd5b506101fd6102873660046130dc565b610812565b34801561029857600080fd5b506102ac6102a73660046130dc565b61093a565b6040519015158152602001610263565b3480156102c857600080fd5b506101fd6102d73660046130f9565b610975565b3480156102e857600080fd5b506101fd6102f73660046130dc565b610aad565b34801561030857600080fd5b506101fd6103173660046130dc565b610c28565b34801561032857600080fd5b506101fd61033736600461312e565b610d4a565b34801561034857600080fd5b506101fd61035736600461322c565b610dac565b34801561036857600080fd5b506102ac610377366004613269565b610f28565b6101fd61038a3660046132d9565b6110e7565b34801561039b57600080fd5b506103af6103aa366004613269565b61124f565b604051610263929190613381565b3480156103c957600080fd5b506103d26113b1565b604051908152602001610263565b3480156103ec57600080fd5b506101fd6103fb3660046130dc565b611476565b34801561040c57600080fd5b506101fd61159a565b34801561042157600080fd5b5060c954610435906001600160a01b031681565b6040516001600160a01b039091168152602001610263565b34801561045957600080fd5b506097546001600160a01b0316610435565b34801561047757600080fd5b506101fd6104863660046130dc565b6115ae565b34801561049757600080fd5b506104356104a63660046130dc565b60cf602052600090815260409020546001600160a01b031681565b3480156104cd57600080fd5b506101fd6104dc3660046130dc565b6116cd565b3480156104ed57600080fd5b5060ca54610435906001600160a01b031681565b34801561050d57600080fd5b5061052161051c36600461339c565b6116d6565b6040516102639291906133c8565b34801561053b57600080fd5b506101fd61054a36600461312e565b6117d0565b34801561055b57600080fd5b5060c9546001600160a01b0316610435565b34801561057957600080fd5b5061052161058836600461339c565b6117da565b34801561059957600080fd5b506102ac6105a83660046130dc565b6118c6565b3480156105b957600080fd5b506101fd6105c836600461312e565b6118fe565b3480156105d957600080fd5b506101fd6105e836600461312e565b611a47565b3480156105f957600080fd5b506101fd6106083660046130dc565b611b72565b34801561061957600080fd5b506102ac6106283660046130dc565b60ce6020526000908152604090205460ff1681565b34801561064957600080fd5b506101fd6106583660046130dc565b611cc0565b33600090815260ce602052604081205460ff16151560011490816107025760ca5460405163b700961360e01b81523360048201523060248201526000356001600160e01b03191660448201526001600160a01b039091169063b700961390606401602060405180830381865afa1580156106db573d6000803e3d6000fd5b505050506040513d601f19601f820116820180604052508101906106ff919061343a565b90505b818061070b5750805b61075c5760405162461bcd60e51b815260206004820152601e60248201527f4e6f7420617574686f726973656420746f20736574206d6f646966696572000060448201526064015b60405180910390fd5b60ca80546001600160a01b0319166001600160a01b038516179055505050565b505050565b6107b56040518060a00160405280600081526020016000815260200160008152602001600081526020016000151581525090565b506001600160a01b0316600090815260d06020908152604091829020825160a081018452815481526001820154928101929092526002810154928201929092526003820154606082015260049091015460ff161515608082015290565b33600090815260ce602052604081205460ff16151560011490816108b75760ca5460405163b700961360e01b81523360048201523060248201526000356001600160e01b03191660448201526001600160a01b039091169063b700961390606401602060405180830381865afa158015610890573d6000803e3d6000fd5b505050506040513d601f19601f820116820180604052508101906108b4919061343a565b90505b81806108c05750805b61090c5760405162461bcd60e51b815260206004820152601e60248201527f4e6f7420617574686f726973656420746f20736574206d6f64696669657200006044820152606401610753565b50506001600160a01b0316600090815260d060205260409020600401805460ff19811660ff90911615179055565b600060016001600160a01b0383161480159061096f57506001600160a01b03828116600090815260cd60205260409020541615155b92915050565b33600090815260ce602052604081205460ff1615156001149081610a1a5760ca5460405163b700961360e01b81523360048201523060248201526000356001600160e01b03191660448201526001600160a01b039091169063b700961390606401602060405180830381865afa1580156109f3573d6000803e3d6000fd5b505050506040513d601f19601f82011682018060405250810190610a17919061343a565b90505b8180610a235750805b610a6f5760405162461bcd60e51b815260206004820152601e60248201527f4e6f7420617574686f726973656420746f20736574206d6f64696669657200006044820152606401610753565b50506001600160a01b03909216600090815260d06020526040812091825560018201556003810191909155436002820155600401805460ff19169055565b6001600160a01b037f0000000000000000000000000000000000000000000000000000000000000000163003610b3a5760405162461bcd60e51b815260206004820152602c60248201527f46756e6374696f6e206d7573742062652063616c6c6564207468726f7567682060448201526b19195b1959d85d1958d85b1b60a21b6064820152608401610753565b7f00000000000000000000000000000000000000000000000000000000000000006001600160a01b0316610b957f360894a13ba1a3210667c828492db98dca3e2076cc3735a920a3ca505d382bbc546001600160a01b031690565b6001600160a01b031614610c005760405162461bcd60e51b815260206004820152602c60248201527f46756e6374696f6e206d7573742062652063616c6c6564207468726f7567682060448201526b6163746976652070726f787960a01b6064820152608401610753565b610c0981611d4d565b60408051600080825260208201909252610c2591839190611d55565b50565b33600090815260ce602052604081205460ff1615156001149081610ccd5760ca5460405163b700961360e01b81523360048201523060248201526000356001600160e01b03191660448201526001600160a01b039091169063b700961390606401602060405180830381865afa158015610ca6573d6000803e3d6000fd5b505050506040513d601f19601f82011682018060405250810190610cca919061343a565b90505b8180610cd65750805b610d225760405162461bcd60e51b815260206004820152601e60248201527f4e6f7420617574686f726973656420746f20736574206d6f64696669657200006044820152606401610753565b61077c836001600160a01b0316600090815260ce60205260409020805460ff19166001179055565b6001600160a01b03808216600090815260cc602052604080822080548685166001600160a01b031982168117909255915191909316929183917f90cc2f570a6eb594b1580ea3e41247d2d73a55281889e86bd4ec2fc29c7e62d69190a3505050565b600054610100900460ff1615808015610dcc5750600054600160ff909116105b80610de65750303b158015610de6575060005460ff166001145b610e585760405162461bcd60e51b815260206004820152602e60248201527f496e697469616c697a61626c653a20636f6e747261637420697320616c72656160448201527f647920696e697469616c697a65640000000000000000000000000000000000006064820152608401610753565b6000805460ff191660011790558015610e7b576000805461ff0019166101001790555b600082806020019051810190610e919190613455565b9050610e9b611ef5565b610ea3611f68565b610eab611fdb565b610eb48161204e565b610edc816001600160a01b0316600090815260ce60205260409020805460ff19166001179055565b508015610f24576000805461ff0019169055604051600181527f7f26b83ff96e1f2b6a682f133852f6798a09c465da95921460cefb3847402498906020015b60405180910390a15b5050565b60008033600114801590610f53575033600090815260cd60205260409020546001600160a01b031615155b9050600081610fe35760ca5460405163b700961360e01b81523360048201523060248201526000356001600160e01b03191660448201526001600160a01b039091169063b700961390606401602060405180830381865afa158015610fbc573d6000803e3d6000fd5b505050506040513d601f19601f82011682018060405250810190610fe0919061343a565b90505b8180610fec5750805b6110445760405162461bcd60e51b8152602060048201526024808201527f4e6f7420617574686f72697a656420746f2063616c6c20746869732066756e636044820152633a34b7b760e11b6064820152608401610753565b61105087878787612183565b33600090815260cf6020526040902054611079908890889088906001600160a01b03168861218e565b925082156110b15760405133907f6895c13664aa4f67288b25d7a21d7aaa34916e355fb9b6fae0a139a9085becb890600090a26110dd565b60405133907facd2c8702804128fdb0db2bb49f6d127dd0181c13fd45dbfe16de0930e2bd37590600090a25b5050949350505050565b6001600160a01b037f00000000000000000000000000000000000000000000000000000000000000001630036111745760405162461bcd60e51b815260206004820152602c60248201527f46756e6374696f6e206d7573742062652063616c6c6564207468726f7567682060448201526b19195b1959d85d1958d85b1b60a21b6064820152608401610753565b7f00000000000000000000000000000000000000000000000000000000000000006001600160a01b03166111cf7f360894a13ba1a3210667c828492db98dca3e2076cc3735a920a3ca505d382bbc546001600160a01b031690565b6001600160a01b03161461123a5760405162461bcd60e51b815260206004820152602c60248201527f46756e6374696f6e206d7573742062652063616c6c6564207468726f7567682060448201526b6163746976652070726f787960a01b6064820152608401610753565b61124382611d4d565b610f2482826001611d55565b60006060813360011480159061127c575033600090815260cd60205260409020546001600160a01b031615155b905060008161130c5760ca5460405163b700961360e01b81523360048201523060248201526000356001600160e01b03191660448201526001600160a01b039091169063b700961390606401602060405180830381865afa1580156112e5573d6000803e3d6000fd5b505050506040513d601f19601f82011682018060405250810190611309919061343a565b90505b81806113155750805b61136d5760405162461bcd60e51b8152602060048201526024808201527f4e6f7420617574686f72697a656420746f2063616c6c20746869732066756e636044820152633a34b7b760e11b6064820152608401610753565b61137988888888612183565b33600090815260cf60205260409020546113a2908990899089906001600160a01b0316896123d3565b90999098509650505050505050565b6000306001600160a01b037f000000000000000000000000000000000000000000000000000000000000000016146114515760405162461bcd60e51b815260206004820152603860248201527f555550535570677261646561626c653a206d757374206e6f742062652063616c60448201527f6c6564207468726f7567682064656c656761746563616c6c00000000000000006064820152608401610753565b507f360894a13ba1a3210667c828492db98dca3e2076cc3735a920a3ca505d382bbc90565b6000336001148015906114a0575033600090815260cd60205260409020546001600160a01b031615155b90506000816115305760ca5460405163b700961360e01b81523360048201523060248201526000356001600160e01b03191660448201526001600160a01b039091169063b700961390606401602060405180830381865afa158015611509573d6000803e3d6000fd5b505050506040513d601f19601f8201168201806040525081019061152d919061343a565b90505b81806115395750805b6115915760405162461bcd60e51b8152602060048201526024808201527f4e6f7420617574686f72697a656420746f2063616c6c20746869732066756e636044820152633a34b7b760e11b6064820152608401610753565b61077c8361204e565b6115a2612621565b6115ac600061267b565b565b33600090815260ce602052604081205460ff16151560011490816116535760ca5460405163b700961360e01b81523360048201523060248201526000356001600160e01b03191660448201526001600160a01b039091169063b700961390606401602060405180830381865afa15801561162c573d6000803e3d6000fd5b505050506040513d601f19601f82011682018060405250810190611650919061343a565b90505b818061165c5750805b6116a85760405162461bcd60e51b815260206004820152601e60248201527f4e6f7420617574686f726973656420746f20736574206d6f64696669657200006044820152606401610753565b61077c836001600160a01b0316600090815260ce60205260409020805460ff19169055565b610c25816126cd565b606060008267ffffffffffffffff8111156116f3576116f3613167565b60405190808252806020026020018201604052801561171c578160200160208202803683370190505b506001600160a01b03808616600090815260cb602052604081205492945091165b6001600160a01b0381161580159061175f57506001600160a01b038116600114155b801561176a57508482105b156117c2578084838151811061178257611782613472565b6001600160a01b03928316602091820292909201810191909152918116600090815260cb90925260409091205416816117ba8161349e565b92505061173d565b908352919491935090915050565b610f248282612813565b606060008267ffffffffffffffff8111156117f7576117f7613167565b604051908082528060200260200182016040528015611820578160200160208202803683370190505b506001600160a01b03808616600090815260cd602052604081205492945091165b6001600160a01b0381161580159061186357506001600160a01b038116600114155b801561186e57508482105b156117c2578084838151811061188657611886613472565b6001600160a01b03928316602091820292909201810191909152918116600090815260cd90925260409091205416816118be8161349e565b925050611841565b600060016001600160a01b0383161480159061096f5750506001600160a01b03908116600090815260cb602052604090205416151590565b33600090815260ce602052604081205460ff16151560011490816119a35760ca5460405163b700961360e01b81523360048201523060248201526000356001600160e01b03191660448201526001600160a01b039091169063b700961390606401602060405180830381865afa15801561197c573d6000803e3d6000fd5b505050506040513d601f19601f820116820180604052508101906119a0919061343a565b90505b81806119ac5750805b6119f85760405162461bcd60e51b815260206004820152601e60248201527f4e6f7420617574686f726973656420746f20736574206d6f64696669657200006044820152606401610753565b611a01836118c6565b611a0e57611a0e836126cd565b611a178461204e565b50506001600160a01b03918216600090815260cf6020526040902080546001600160a01b03191691909216179055565b600033600114801590611a71575033600090815260cd60205260409020546001600160a01b031615155b9050600081611b015760ca5460405163b700961360e01b81523360048201523060248201526000356001600160e01b03191660448201526001600160a01b039091169063b700961390606401602060405180830381865afa158015611ada573d6000803e3d6000fd5b505050506040513d601f19601f82011682018060405250810190611afe919061343a565b90505b8180611b0a5750805b611b625760405162461bcd60e51b8152602060048201526024808201527f4e6f7420617574686f72697a656420746f2063616c6c20746869732066756e636044820152633a34b7b760e11b6064820152608401610753565b611b6c8484612932565b50505050565b611b7a612621565b6001600160a01b03811615611c6b576040517f01ffc9a70000000000000000000000000000000000000000000000000000000081527fe6d7a83a0000000000000000000000000000000000000000000000000000000060048201526001600160a01b038216906301ffc9a790602401602060405180830381865afa158015611c06573d6000803e3d6000fd5b505050506040513d601f19601f82011682018060405250810190611c2a919061343a565b611c6b576040517fb16ea67e0000000000000000000000000000000000000000000000000000000081526001600160a01b0382166004820152602401610753565b60c980546001600160a01b0319166001600160a01b0383169081179091556040519081527f1151116914515bc0891ff9047a6cb32cf902546f83066499bcf8ba33d2353fa2906020015b60405180910390a150565b611cc8612621565b6001600160a01b038116611d445760405162461bcd60e51b815260206004820152602660248201527f4f776e61626c653a206e6577206f776e657220697320746865207a65726f206160448201527f64647265737300000000000000000000000000000000000000000000000000006064820152608401610753565b610c258161267b565b610c25612621565b7f4910fdfa16fed3260ed0e7147f7cc6da11a60208b5b9406d12a635614ffd91435460ff1615611d885761077c83612a51565b826001600160a01b03166352d1902d6040518163ffffffff1660e01b8152600401602060405180830381865afa925050508015611de2575060408051601f3d908101601f19168201909252611ddf918101906134b7565b60015b611e545760405162461bcd60e51b815260206004820152602e60248201527f45524331393637557067726164653a206e657720696d706c656d656e7461746960448201527f6f6e206973206e6f7420555550530000000000000000000000000000000000006064820152608401610753565b7f360894a13ba1a3210667c828492db98dca3e2076cc3735a920a3ca505d382bbc8114611ee95760405162461bcd60e51b815260206004820152602960248201527f45524331393637557067726164653a20756e737570706f727465642070726f7860448201527f6961626c655555494400000000000000000000000000000000000000000000006064820152608401610753565b5061077c838383612b0f565b600054610100900460ff16611f605760405162461bcd60e51b815260206004820152602b60248201527f496e697469616c697a61626c653a20636f6e7472616374206973206e6f74206960448201526a6e697469616c697a696e6760a81b6064820152608401610753565b6115ac612b34565b600054610100900460ff16611fd35760405162461bcd60e51b815260206004820152602b60248201527f496e697469616c697a61626c653a20636f6e7472616374206973206e6f74206960448201526a6e697469616c697a696e6760a81b6064820152608401610753565b6115ac612ba8565b600054610100900460ff166120465760405162461bcd60e51b815260206004820152602b60248201527f496e697469616c697a61626c653a20636f6e7472616374206973206e6f74206960448201526a6e697469616c697a696e6760a81b6064820152608401610753565b6115ac612c6a565b6001600160a01b0381161580159061207057506001600160a01b038116600114155b6120a45760405162461bcd60e51b8152602060048201526005602482015264475331303160d81b6044820152606401610753565b6001600160a01b03818116600090815260cd602052604090205416156120f45760405162461bcd60e51b815260206004820152600560248201526423a998981960d91b6044820152606401610753565b60cd60209081527f64c45f359ea2f8a06c7d9522781502fc36217a93bbdf992266ddda137e19fb1980546001600160a01b03848116600081815260408082208054949095166001600160a01b0319948516179094556001905283549091168117909255519081527fecdf3a3effea5783a3c4c2140e677577666428d44ed9d474a0b3a4c9943f84409101611cb5565b611b6c838383612d2c565b6000612199836118c6565b61220b5760405162461bcd60e51b815260206004820152602e60248201527f5472616e73616374696f6e2064657374696e6174696f6e20697320756e72656760448201527f69737465726564204176617461720000000000000000000000000000000000006064820152608401610753565b60c9546001600160a01b0316156122aa5760c9546040805180820182526002815261060f60f31b60208201529051633af85da960e11b81526001600160a01b03909216916375f0bb5291612277918a918a918a9189916000918291829182918291903390600401613508565b600060405180830381600087803b15801561229157600080fd5b505af11580156122a5573d6000803e3d6000fd5b505050505b6001600160a01b03808416600090815260cc6020526040908190205490517f468721a700000000000000000000000000000000000000000000000000000000815291169063468721a790612308908990899089908890600401613594565b6020604051808303816000875af1158015612327573d6000803e3d6000fd5b505050506040513d601f19601f8201168201806040525081019061234b919061343a565b60c9549091506001600160a01b0316156123ca5760c954604051631264e26d60e31b815261060f60f31b600482015282151560248201526001600160a01b0390911690639327136890604401600060405180830381600087803b1580156123b157600080fd5b505af11580156123c5573d6000803e3d6000fd5b505050505b95945050505050565b600060606123e0846118c6565b6124525760405162461bcd60e51b815260206004820152602e60248201527f5472616e73616374696f6e2064657374696e6174696f6e20697320756e72656760448201527f69737465726564204176617461720000000000000000000000000000000000006064820152608401610753565b60c9546001600160a01b0316156124f15760c9546040805180820182526002815261060f60f31b60208201529051633af85da960e11b81526001600160a01b03909216916375f0bb52916124be918b918b918b918a916000918291829182918291903390600401613508565b600060405180830381600087803b1580156124d857600080fd5b505af11580156124ec573d6000803e3d6000fd5b505050505b6001600160a01b03808516600090815260cc6020526040908190205490517f5229073f000000000000000000000000000000000000000000000000000000008152911690635229073f9061254f908a908a908a908990600401613594565b6000604051808303816000875af115801561256e573d6000803e3d6000fd5b505050506040513d6000823e601f3d908101601f1916820160405261259691908101906135cb565b60c95491935091506001600160a01b0316156126175760c954604051631264e26d60e31b815261060f60f31b600482015283151560248201526001600160a01b0390911690639327136890604401600060405180830381600087803b1580156125fe57600080fd5b505af1158015612612573d6000803e3d6000fd5b505050505b9550959350505050565b6097546001600160a01b031633146115ac5760405162461bcd60e51b815260206004820181905260248201527f4f776e61626c653a2063616c6c6572206973206e6f7420746865206f776e65726044820152606401610753565b609780546001600160a01b038381166001600160a01b0319831681179093556040519116919082907f8be0079c531659141344cd1fd0a4f28419497f9722a3daafe3b4186f6b6457e090600090a35050565b6001600160a01b038116158015906126ef57506001600160a01b038116600114155b6127235760405162461bcd60e51b8152602060048201526005602482015264475331303160d81b6044820152606401610753565b6001600160a01b03818116600090815260cb602052604090205416156127735760405162461bcd60e51b815260206004820152600560248201526423a998981960d91b6044820152606401610753565b60cb6020527fb3c459fcfa972435363277a54960f9947fdf75faf912b521fbcc6cd1c34ddc3380546001600160a01b038381166000818152604081208054939094166001600160a01b03199384161790935560019092528254161790556127da8180610d4a565b6040516001600160a01b03821681527fdc8509131aac11ac4f5b915e0b24114ac71cf7b256433834e067829bf9db3ad490602001611cb5565b6001600160a01b0381161580159061283557506001600160a01b038116600114155b6128695760405162461bcd60e51b8152602060048201526005602482015264475331303160d81b6044820152606401610753565b6001600160a01b03828116600090815260cb60205260409020548116908216146128bd5760405162461bcd60e51b8152602060048201526005602482015264475331303360d81b6044820152606401610753565b6001600160a01b03818116600081815260cb60209081526040808320805488871685528285208054919097166001600160a01b03199182161790965592849052825490941690915591519081527ff958f63a03d52fa6114df75e4f1176335f2a3cef00a6f620f1fbc70ae4b2542b9101610f1b565b6001600160a01b0381161580159061295457506001600160a01b038116600114155b6129885760405162461bcd60e51b8152602060048201526005602482015264475331303160d81b6044820152606401610753565b6001600160a01b03828116600090815260cd60205260409020548116908216146129dc5760405162461bcd60e51b8152602060048201526005602482015264475331303360d81b6044820152606401610753565b6001600160a01b03818116600081815260cd60209081526040808320805488871685528285208054919097166001600160a01b03199182161790965592849052825490941690915591519081527faab4fa2b463f581b2b32cb3b7e3b704b9ce37cc209b5fb4d77e593ace40542769101610f1b565b6001600160a01b0381163b612ace5760405162461bcd60e51b815260206004820152602d60248201527f455243313936373a206e657720696d706c656d656e746174696f6e206973206e60448201527f6f74206120636f6e7472616374000000000000000000000000000000000000006064820152608401610753565b7f360894a13ba1a3210667c828492db98dca3e2076cc3735a920a3ca505d382bbc80546001600160a01b0319166001600160a01b0392909216919091179055565b612b1883612f4a565b600082511180612b255750805b1561077c57611b6c8383612f8a565b600054610100900460ff16612b9f5760405162461bcd60e51b815260206004820152602b60248201527f496e697469616c697a61626c653a20636f6e7472616374206973206e6f74206960448201526a6e697469616c697a696e6760a81b6064820152608401610753565b6115ac3361267b565b600160005260cd6020527f64c45f359ea2f8a06c7d9522781502fc36217a93bbdf992266ddda137e19fb19546001600160a01b031615612c2a5760405162461bcd60e51b815260206004820152601b60248201527f4d6f64756c657320616c726561647920696e697469616c697a656400000000006044820152606401610753565b6001600081905260cd6020527f64c45f359ea2f8a06c7d9522781502fc36217a93bbdf992266ddda137e19fb1980546001600160a01b0319169091179055565b600160005260cb6020527fb3c459fcfa972435363277a54960f9947fdf75faf912b521fbcc6cd1c34ddc33546001600160a01b031615612cec5760405162461bcd60e51b815260206004820152601b60248201527f6176617461727320616c726561647920696e697469616c697a656400000000006044820152606401610753565b6001600081905260cb6020527fb3c459fcfa972435363277a54960f9947fdf75faf912b521fbcc6cd1c34ddc3380546001600160a01b0319169091179055565b6000816001811115612d4057612d406134d0565b14612d8d5760405162461bcd60e51b815260206004820152601160248201527f496e76616c6964206f7065726174696f6e0000000000000000000000000000006044820152606401610753565b81541560011480612de05760405162461bcd60e51b815260206004820152601a60248201527f496e76616c69642066756e6374696f6e207369676e61747572650000000000006044820152606401610753565b33600090815260d0602052604090206004015460ff1615612e435760405162461bcd60e51b815260206004820152601060248201527f4275646765742069732066726f7a656e000000000000000000000000000000006044820152606401610753565b33600090815260d060205260409020600381015460029091015443918291612e6b9190613655565b11158015612e8a575033600090815260d0602052604090206003015415155b15612ead5733600090815260d06020526040812060018101919091556002018190555b33600090815260d06020526040902060018101549054612ecd919061366d565b851115612f1c5760405162461bcd60e51b815260206004820152601660248201527f52657175657374206578636565647320627564676574000000000000000000006044820152606401610753565b33600090815260d0602052604081206001018054879290612f3e908490613655565b90915550505050505050565b612f5381612a51565b6040516001600160a01b038216907fbc7cd75a20ee27fd9adebab32041f755214dbc6bffa90cc0225b39da2e5c2d3b90600090a250565b60606001600160a01b0383163b6130095760405162461bcd60e51b815260206004820152602660248201527f416464726573733a2064656c65676174652063616c6c20746f206e6f6e2d636f60448201527f6e747261637400000000000000000000000000000000000000000000000000006064820152608401610753565b600080846001600160a01b0316846040516130249190613684565b600060405180830381855af49150503d806000811461305f576040519150601f19603f3d011682016040523d82523d6000602084013e613064565b606091505b50915091506123ca82826040518060600160405280602781526020016136b460279139606083156130965750816130c0565b8251156130a65782518084602001fd5b8160405162461bcd60e51b815260040161075391906136a0565b9392505050565b6001600160a01b0381168114610c2557600080fd5b6000602082840312156130ee57600080fd5b81356130c0816130c7565b60008060006060848603121561310e57600080fd5b8335613119816130c7565b95602085013595506040909401359392505050565b6000806040838503121561314157600080fd5b823561314c816130c7565b9150602083013561315c816130c7565b809150509250929050565b634e487b7160e01b600052604160045260246000fd5b604051601f8201601f1916810167ffffffffffffffff811182821017156131a6576131a6613167565b604052919050565b600067ffffffffffffffff8211156131c8576131c8613167565b50601f01601f191660200190565b600082601f8301126131e757600080fd5b81356131fa6131f5826131ae565b61317d565b81815284602083860101111561320f57600080fd5b816020850160208301376000918101602001919091529392505050565b60006020828403121561323e57600080fd5b813567ffffffffffffffff81111561325557600080fd5b613261848285016131d6565b949350505050565b6000806000806080858703121561327f57600080fd5b843561328a816130c7565b935060208501359250604085013567ffffffffffffffff8111156132ad57600080fd5b6132b9878288016131d6565b9250506060850135600281106132ce57600080fd5b939692955090935050565b600080604083850312156132ec57600080fd5b82356132f7816130c7565b9150602083013567ffffffffffffffff81111561331357600080fd5b61331f858286016131d6565b9150509250929050565b60005b8381101561334457818101518382015260200161332c565b83811115611b6c5750506000910152565b6000815180845261336d816020860160208601613329565b601f01601f19169290920160200192915050565b82151581526040602082015260006132616040830184613355565b600080604083850312156133af57600080fd5b82356133ba816130c7565b946020939093013593505050565b604080825283519082018190526000906020906060840190828701845b8281101561340a5781516001600160a01b0316845292840192908401906001016133e5565b5050506001600160a01b039490941692019190915250919050565b8051801515811461343557600080fd5b919050565b60006020828403121561344c57600080fd5b6130c082613425565b60006020828403121561346757600080fd5b81516130c0816130c7565b634e487b7160e01b600052603260045260246000fd5b634e487b7160e01b600052601160045260246000fd5b6000600182016134b0576134b0613488565b5060010190565b6000602082840312156134c957600080fd5b5051919050565b634e487b7160e01b600052602160045260246000fd5b6002811061350457634e487b7160e01b600052602160045260246000fd5b9052565b60006101606001600160a01b03808f1684528d60208501528160408501526135328285018e613355565b9150613541606085018d6134e6565b8a60808501528960a08501528860c085015280881660e08501528087166101008501528382036101208501526135778287613355565b925080851661014085015250509c9b505050505050505050505050565b6001600160a01b03851681528360208201526080604082015260006135bc6080830185613355565b90506123ca60608301846134e6565b600080604083850312156135de57600080fd5b6135e783613425565b9150602083015167ffffffffffffffff81111561360357600080fd5b8301601f8101851361361457600080fd5b80516136226131f5826131ae565b81815286602083850101111561363757600080fd5b613648826020830160208601613329565b8093505050509250929050565b6000821982111561366857613668613488565b500190565b60008282101561367f5761367f613488565b500390565b60008251613696818460208701613329565b9190910192915050565b6020815260006130c0602083018461335556fe416464726573733a206c6f772d6c6576656c2064656c65676174652063616c6c206661696c6564a26469706673582212208be9d81ae00b76b90f79f23528439aa5100c5a9f7ef5d0691002c35d61d26e1e64736f6c634300080f0033",
  "linkReferences": {},
  "deployedLinkReferences": {}
}