{
  "_format": "hh-sol-artifact-1",
  "contractName": "GovernorCoreV2",
  "sourceName": "contracts/votingComponent/GovernorV2/GovernorCoreV2.sol",
  "abi": [
    {
      "inputs": [],
      "stateMutability": "nonpayable",
      "type": "constructor"
    },
    {
      "inputs": [],
      "name": "Empty",
      "type": "error"
    },
    {
      "anonymous": false,
      "inputs": [
        {
          "indexed": false,
          "internalType": "address",
          "name": "previousAdmin",
          "type": "address"
        },
        {
          "indexed": false,
          "internalType": "address",
          "name": "newAdmin",
          "type": "address"
        }
      ],
      "name": "AdminChanged",
      "type": "event"
    },
    {
      "anonymous": false,
      "inputs": [
        {
          "indexed": true,
          "internalType": "address",
          "name": "beacon",
          "type": "address"
        }
      ],
      "name": "BeaconUpgraded",
      "type": "event"
    },
    {
      "anonymous": false,
      "inputs": [
        {
          "indexed": false,
          "internalType": "uint8",
          "name": "version",
          "type": "uint8"
        }
      ],
      "name": "Initialized",
      "type": "event"
    },
    {
      "anonymous": false,
      "inputs": [
        {
          "indexed": false,
          "internalType": "uint256",
          "name": "proposalId",
          "type": "uint256"
        }
      ],
      "name": "ProposalCanceled",
      "type": "event"
    },
    {
      "anonymous": false,
      "inputs": [
        {
          "indexed": false,
          "internalType": "uint256",
          "name": "proposalId",
          "type": "uint256"
        },
        {
          "indexed": false,
          "internalType": "address",
          "name": "proposer",
          "type": "address"
        },
        {
          "indexed": false,
          "internalType": "address[]",
          "name": "targets",
          "type": "address[]"
        },
        {
          "indexed": false,
          "internalType": "uint256[]",
          "name": "values",
          "type": "uint256[]"
        },
        {
          "indexed": false,
          "internalType": "string[]",
          "name": "signatures",
          "type": "string[]"
        },
        {
          "indexed": false,
          "internalType": "bytes[]",
          "name": "calldatas",
          "type": "bytes[]"
        },
        {
          "indexed": false,
          "internalType": "uint256",
          "name": "startBlock",
          "type": "uint256"
        },
        {
          "indexed": false,
          "internalType": "uint256",
          "name": "endBlock",
          "type": "uint256"
        },
        {
          "indexed": false,
          "internalType": "string",
          "name": "description",
          "type": "string"
        }
      ],
      "name": "ProposalCreated",
      "type": "event"
    },
    {
      "anonymous": false,
      "inputs": [
        {
          "indexed": false,
          "internalType": "uint256",
          "name": "proposalId",
          "type": "uint256"
        }
      ],
      "name": "ProposalExecuted",
      "type": "event"
    },
    {
      "anonymous": false,
      "inputs": [
        {
          "indexed": false,
          "internalType": "uint256",
          "name": "proposalId",
          "type": "uint256"
        },
        {
          "indexed": false,
          "internalType": "uint256",
          "name": "eta",
          "type": "uint256"
        }
      ],
      "name": "ProposalQueued",
      "type": "event"
    },
    {
      "anonymous": false,
      "inputs": [
        {
          "indexed": false,
          "internalType": "uint256",
          "name": "oldProposalThreshold",
          "type": "uint256"
        },
        {
          "indexed": false,
          "internalType": "uint256",
          "name": "newProposalThreshold",
          "type": "uint256"
        }
      ],
      "name": "ProposalThresholdSet",
      "type": "event"
    },
    {
      "anonymous": false,
      "inputs": [
        {
          "indexed": false,
          "internalType": "uint256",
          "name": "oldQuorumNumerator",
          "type": "uint256"
        },
        {
          "indexed": false,
          "internalType": "uint256",
          "name": "newQuorumNumerator",
          "type": "uint256"
        }
      ],
      "name": "QuorumNumeratorUpdated",
      "type": "event"
    },
    {
      "anonymous": false,
      "inputs": [
        {
          "indexed": false,
          "internalType": "address",
          "name": "oldTimelock",
          "type": "address"
        },
        {
          "indexed": false,
          "internalType": "address",
          "name": "newTimelock",
          "type": "address"
        }
      ],
      "name": "TimelockChange",
      "type": "event"
    },
    {
      "anonymous": false,
      "inputs": [
        {
          "indexed": true,
          "internalType": "address",
          "name": "implementation",
          "type": "address"
        }
      ],
      "name": "Upgraded",
      "type": "event"
    },
    {
      "anonymous": false,
      "inputs": [
        {
          "indexed": true,
          "internalType": "address",
          "name": "voter",
          "type": "address"
        },
        {
          "indexed": false,
          "internalType": "uint256",
          "name": "proposalId",
          "type": "uint256"
        },
        {
          "indexed": false,
          "internalType": "uint8",
          "name": "support",
          "type": "uint8"
        },
        {
          "indexed": false,
          "internalType": "uint256",
          "name": "weight",
          "type": "uint256"
        },
        {
          "indexed": false,
          "internalType": "string",
          "name": "reason",
          "type": "string"
        }
      ],
      "name": "VoteCast",
      "type": "event"
    },
    {
      "anonymous": false,
      "inputs": [
        {
          "indexed": true,
          "internalType": "address",
          "name": "voter",
          "type": "address"
        },
        {
          "indexed": false,
          "internalType": "uint256",
          "name": "proposalId",
          "type": "uint256"
        },
        {
          "indexed": false,
          "internalType": "uint8",
          "name": "support",
          "type": "uint8"
        },
        {
          "indexed": false,
          "internalType": "uint256",
          "name": "weight",
          "type": "uint256"
        },
        {
          "indexed": false,
          "internalType": "string",
          "name": "reason",
          "type": "string"
        },
        {
          "indexed": false,
          "internalType": "bytes",
          "name": "params",
          "type": "bytes"
        }
      ],
      "name": "VoteCastWithParams",
      "type": "event"
    },
    {
      "anonymous": false,
      "inputs": [
        {
          "indexed": false,
          "internalType": "uint256",
          "name": "oldVotingDelay",
          "type": "uint256"
        },
        {
          "indexed": false,
          "internalType": "uint256",
          "name": "newVotingDelay",
          "type": "uint256"
        }
      ],
      "name": "VotingDelaySet",
      "type": "event"
    },
    {
      "anonymous": false,
      "inputs": [
        {
          "indexed": false,
          "internalType": "uint256",
          "name": "oldVotingPeriod",
          "type": "uint256"
        },
        {
          "indexed": false,
          "internalType": "uint256",
          "name": "newVotingPeriod",
          "type": "uint256"
        }
      ],
      "name": "VotingPeriodSet",
      "type": "event"
    },
    {
      "inputs": [],
      "name": "BALLOT_TYPEHASH",
      "outputs": [
        {
          "internalType": "bytes32",
          "name": "",
          "type": "bytes32"
        }
      ],
      "stateMutability": "view",
      "type": "function"
    },
    {
      "inputs": [],
      "name": "COUNTING_MODE",
      "outputs": [
        {
          "internalType": "string",
          "name": "",
          "type": "string"
        }
      ],
      "stateMutability": "pure",
      "type": "function"
    },
    {
      "inputs": [],
      "name": "EXTENDED_BALLOT_TYPEHASH",
      "outputs": [
        {
          "internalType": "bytes32",
          "name": "",
          "type": "bytes32"
        }
      ],
      "stateMutability": "view",
      "type": "function"
    },
    {
      "inputs": [
        {
          "internalType": "uint256",
          "name": "proposalId",
          "type": "uint256"
        },
        {
          "internalType": "uint8",
          "name": "support",
          "type": "uint8"
        },
        {
          "internalType": "uint256",
          "name": "numberOfVotes",
          "type": "uint256"
        }
      ],
      "name": "castVote",
      "outputs": [
        {
          "internalType": "uint256",
          "name": "",
          "type": "uint256"
        }
      ],
      "stateMutability": "nonpayable",
      "type": "function"
    },
    {
      "inputs": [
        {
          "internalType": "uint256",
          "name": "proposalId",
          "type": "uint256"
        },
        {
          "internalType": "uint8",
          "name": "support",
          "type": "uint8"
        },
        {
          "internalType": "uint256",
          "name": "numberOfVotes",
          "type": "uint256"
        },
        {
          "internalType": "uint8",
          "name": "v",
          "type": "uint8"
        },
        {
          "internalType": "bytes32",
          "name": "r",
          "type": "bytes32"
        },
        {
          "internalType": "bytes32",
          "name": "s",
          "type": "bytes32"
        }
      ],
      "name": "castVoteBySig",
      "outputs": [
        {
          "internalType": "uint256",
          "name": "",
          "type": "uint256"
        }
      ],
      "stateMutability": "nonpayable",
      "type": "function"
    },
    {
      "inputs": [
        {
          "internalType": "uint256",
          "name": "proposalId",
          "type": "uint256"
        },
        {
          "internalType": "uint8",
          "name": "support",
          "type": "uint8"
        },
        {
          "internalType": "uint256",
          "name": "numberOfVotes",
          "type": "uint256"
        },
        {
          "internalType": "string",
          "name": "reason",
          "type": "string"
        }
      ],
      "name": "castVoteWithReason",
      "outputs": [
        {
          "internalType": "uint256",
          "name": "",
          "type": "uint256"
        }
      ],
      "stateMutability": "nonpayable",
      "type": "function"
    },
    {
      "inputs": [
        {
          "internalType": "uint256",
          "name": "proposalId",
          "type": "uint256"
        },
        {
          "internalType": "uint8",
          "name": "support",
          "type": "uint8"
        },
        {
          "internalType": "uint256",
          "name": "numberOfVotes",
          "type": "uint256"
        },
        {
          "internalType": "string",
          "name": "reason",
          "type": "string"
        },
        {
          "internalType": "bytes",
          "name": "params",
          "type": "bytes"
        }
      ],
      "name": "castVoteWithReasonAndParams",
      "outputs": [
        {
          "internalType": "uint256",
          "name": "",
          "type": "uint256"
        }
      ],
      "stateMutability": "nonpayable",
      "type": "function"
    },
    {
      "inputs": [
        {
          "internalType": "uint256",
          "name": "proposalId",
          "type": "uint256"
        },
        {
          "internalType": "uint8",
          "name": "support",
          "type": "uint8"
        },
        {
          "internalType": "uint256",
          "name": "numberOfVotes",
          "type": "uint256"
        },
        {
          "internalType": "string",
          "name": "reason",
          "type": "string"
        },
        {
          "internalType": "bytes",
          "name": "params",
          "type": "bytes"
        },
        {
          "internalType": "uint8",
          "name": "v",
          "type": "uint8"
        },
        {
          "internalType": "bytes32",
          "name": "r",
          "type": "bytes32"
        },
        {
          "internalType": "bytes32",
          "name": "s",
          "type": "bytes32"
        }
      ],
      "name": "castVoteWithReasonAndParamsBySig",
      "outputs": [
        {
          "internalType": "uint256",
          "name": "",
          "type": "uint256"
        }
      ],
      "stateMutability": "nonpayable",
      "type": "function"
    },
    {
      "inputs": [
        {
          "internalType": "address[]",
          "name": "targets",
          "type": "address[]"
        },
        {
          "internalType": "uint256[]",
          "name": "values",
          "type": "uint256[]"
        },
        {
          "internalType": "bytes[]",
          "name": "calldatas",
          "type": "bytes[]"
        },
        {
          "internalType": "bytes32",
          "name": "descriptionHash",
          "type": "bytes32"
        }
      ],
      "name": "execute",
      "outputs": [
        {
          "internalType": "uint256",
          "name": "",
          "type": "uint256"
        }
      ],
      "stateMutability": "payable",
      "type": "function"
    },
    {
      "inputs": [
        {
          "internalType": "uint256",
          "name": "proposalId",
          "type": "uint256"
        }
      ],
      "name": "getObjector",
      "outputs": [
        {
          "internalType": "address",
          "name": "",
          "type": "address"
        },
        {
          "internalType": "uint256",
          "name": "",
          "type": "uint256"
        }
      ],
      "stateMutability": "view",
      "type": "function"
    },
    {
      "inputs": [
        {
          "internalType": "uint256",
          "name": "proposalId",
          "type": "uint256"
        }
      ],
      "name": "getProposer",
      "outputs": [
        {
          "internalType": "address",
          "name": "",
          "type": "address"
        },
        {
          "internalType": "uint256",
          "name": "",
          "type": "uint256"
        }
      ],
      "stateMutability": "view",
      "type": "function"
    },
    {
      "inputs": [
        {
          "internalType": "address",
          "name": "account",
          "type": "address"
        },
        {
          "internalType": "uint256",
          "name": "blockNumber",
          "type": "uint256"
        }
      ],
      "name": "getVotes",
      "outputs": [
        {
          "internalType": "uint256",
          "name": "",
          "type": "uint256"
        }
      ],
      "stateMutability": "view",
      "type": "function"
    },
    {
      "inputs": [
        {
          "internalType": "address",
          "name": "account",
          "type": "address"
        },
        {
          "internalType": "uint256",
          "name": "blockNumber",
          "type": "uint256"
        },
        {
          "internalType": "bytes",
          "name": "params",
          "type": "bytes"
        }
      ],
      "name": "getVotesWithParams",
      "outputs": [
        {
          "internalType": "uint256",
          "name": "",
          "type": "uint256"
        }
      ],
      "stateMutability": "view",
      "type": "function"
    },
    {
      "inputs": [
        {
          "internalType": "uint256",
          "name": "proposalId",
          "type": "uint256"
        },
        {
          "internalType": "address",
          "name": "account",
          "type": "address"
        }
      ],
      "name": "hasVoted",
      "outputs": [
        {
          "internalType": "bool",
          "name": "",
          "type": "bool"
        }
      ],
      "stateMutability": "view",
      "type": "function"
    },
    {
      "inputs": [
        {
          "internalType": "address[]",
          "name": "targets",
          "type": "address[]"
        },
        {
          "internalType": "uint256[]",
          "name": "values",
          "type": "uint256[]"
        },
        {
          "internalType": "bytes[]",
          "name": "calldatas",
          "type": "bytes[]"
        },
        {
          "internalType": "bytes32",
          "name": "descriptionHash",
          "type": "bytes32"
        }
      ],
      "name": "hashProposal",
      "outputs": [
        {
          "internalType": "uint256",
          "name": "",
          "type": "uint256"
        }
      ],
      "stateMutability": "pure",
      "type": "function"
    },
    {
      "inputs": [
        {
          "internalType": "contract GovToken",
          "name": "token",
          "type": "address"
        },
        {
          "internalType": "contract TimelockControllerUpgradeable",
          "name": "_timelock",
          "type": "address"
        },
        {
          "internalType": "uint256",
          "name": "minStake",
          "type": "uint256"
        },
        {
          "internalType": "uint256",
          "name": "maxStake",
          "type": "uint256"
        }
      ],
      "name": "initialize",
      "outputs": [],
      "stateMutability": "nonpayable",
      "type": "function"
    },
    {
      "inputs": [],
      "name": "maxStake",
      "outputs": [
        {
          "internalType": "uint256",
          "name": "",
          "type": "uint256"
        }
      ],
      "stateMutability": "view",
      "type": "function"
    },
    {
      "inputs": [],
      "name": "minStake",
      "outputs": [
        {
          "internalType": "uint256",
          "name": "",
          "type": "uint256"
        }
      ],
      "stateMutability": "view",
      "type": "function"
    },
    {
      "inputs": [],
      "name": "name",
      "outputs": [
        {
          "internalType": "string",
          "name": "",
          "type": "string"
        }
      ],
      "stateMutability": "view",
      "type": "function"
    },
    {
      "inputs": [
        {
          "internalType": "uint256",
          "name": "proposalId",
          "type": "uint256"
        }
      ],
      "name": "noObjections",
      "outputs": [
        {
          "internalType": "bool",
          "name": "",
          "type": "bool"
        }
      ],
      "stateMutability": "view",
      "type": "function"
    },
    {
      "inputs": [
        {
          "internalType": "uint256",
          "name": "proposalId",
          "type": "uint256"
        },
        {
          "internalType": "uint256",
          "name": "stake",
          "type": "uint256"
        },
        {
          "internalType": "string",
          "name": "reason",
          "type": "string"
        },
        {
          "internalType": "bytes",
          "name": "params",
          "type": "bytes"
        }
      ],
      "name": "object",
      "outputs": [],
      "stateMutability": "nonpayable",
      "type": "function"
    },
    {
      "inputs": [
        {
          "internalType": "address",
          "name": "",
          "type": "address"
        },
        {
          "internalType": "address",
          "name": "",
          "type": "address"
        },
        {
          "internalType": "uint256[]",
          "name": "",
          "type": "uint256[]"
        },
        {
          "internalType": "uint256[]",
          "name": "",
          "type": "uint256[]"
        },
        {
          "internalType": "bytes",
          "name": "",
          "type": "bytes"
        }
      ],
      "name": "onERC1155BatchReceived",
      "outputs": [
        {
          "internalType": "bytes4",
          "name": "",
          "type": "bytes4"
        }
      ],
      "stateMutability": "nonpayable",
      "type": "function"
    },
    {
      "inputs": [
        {
          "internalType": "address",
          "name": "",
          "type": "address"
        },
        {
          "internalType": "address",
          "name": "",
          "type": "address"
        },
        {
          "internalType": "uint256",
          "name": "",
          "type": "uint256"
        },
        {
          "internalType": "uint256",
          "name": "",
          "type": "uint256"
        },
        {
          "internalType": "bytes",
          "name": "",
          "type": "bytes"
        }
      ],
      "name": "onERC1155Received",
      "outputs": [
        {
          "internalType": "bytes4",
          "name": "",
          "type": "bytes4"
        }
      ],
      "stateMutability": "nonpayable",
      "type": "function"
    },
    {
      "inputs": [
        {
          "internalType": "address",
          "name": "",
          "type": "address"
        },
        {
          "internalType": "address",
          "name": "",
          "type": "address"
        },
        {
          "internalType": "uint256",
          "name": "",
          "type": "uint256"
        },
        {
          "internalType": "bytes",
          "name": "",
          "type": "bytes"
        }
      ],
      "name": "onERC721Received",
      "outputs": [
        {
          "internalType": "bytes4",
          "name": "",
          "type": "bytes4"
        }
      ],
      "stateMutability": "nonpayable",
      "type": "function"
    },
    {
      "inputs": [
        {
          "internalType": "uint256",
          "name": "proposalId",
          "type": "uint256"
        }
      ],
      "name": "proposalDeadline",
      "outputs": [
        {
          "internalType": "uint256",
          "name": "",
          "type": "uint256"
        }
      ],
      "stateMutability": "view",
      "type": "function"
    },
    {
      "inputs": [
        {
          "internalType": "uint256",
          "name": "proposalId",
          "type": "uint256"
        }
      ],
      "name": "proposalEta",
      "outputs": [
        {
          "internalType": "uint256",
          "name": "",
          "type": "uint256"
        }
      ],
      "stateMutability": "view",
      "type": "function"
    },
    {
      "inputs": [
        {
          "internalType": "uint256",
          "name": "proposalId",
          "type": "uint256"
        }
      ],
      "name": "proposalSnapshot",
      "outputs": [
        {
          "internalType": "uint256",
          "name": "",
          "type": "uint256"
        }
      ],
      "stateMutability": "view",
      "type": "function"
    },
    {
      "inputs": [],
      "name": "proposalThreshold",
      "outputs": [
        {
          "internalType": "uint256",
          "name": "",
          "type": "uint256"
        }
      ],
      "stateMutability": "view",
      "type": "function"
    },
    {
      "inputs": [
        {
          "internalType": "uint256",
          "name": "proposalId",
          "type": "uint256"
        }
      ],
      "name": "proposalVotes",
      "outputs": [
        {
          "internalType": "uint256",
          "name": "againstVotes",
          "type": "uint256"
        },
        {
          "internalType": "uint256",
          "name": "forVotes",
          "type": "uint256"
        },
        {
          "internalType": "uint256",
          "name": "abstainVotes",
          "type": "uint256"
        }
      ],
      "stateMutability": "view",
      "type": "function"
    },
    {
      "inputs": [
        {
          "internalType": "address[]",
          "name": "targets",
          "type": "address[]"
        },
        {
          "internalType": "uint256[]",
          "name": "values",
          "type": "uint256[]"
        },
        {
          "internalType": "bytes[]",
          "name": "calldatas",
          "type": "bytes[]"
        },
        {
          "internalType": "string",
          "name": "description",
          "type": "string"
        },
        {
          "internalType": "uint256",
          "name": "stake",
          "type": "uint256"
        }
      ],
      "name": "propose",
      "outputs": [
        {
          "internalType": "uint256",
          "name": "",
          "type": "uint256"
        }
      ],
      "stateMutability": "nonpayable",
      "type": "function"
    },
    {
      "inputs": [],
      "name": "proxiableUUID",
      "outputs": [
        {
          "internalType": "bytes32",
          "name": "",
          "type": "bytes32"
        }
      ],
      "stateMutability": "view",
      "type": "function"
    },
    {
      "inputs": [
        {
          "internalType": "address[]",
          "name": "targets",
          "type": "address[]"
        },
        {
          "internalType": "uint256[]",
          "name": "values",
          "type": "uint256[]"
        },
        {
          "internalType": "bytes[]",
          "name": "calldatas",
          "type": "bytes[]"
        },
        {
          "internalType": "bytes32",
          "name": "descriptionHash",
          "type": "bytes32"
        }
      ],
      "name": "queue",
      "outputs": [
        {
          "internalType": "uint256",
          "name": "",
          "type": "uint256"
        }
      ],
      "stateMutability": "nonpayable",
      "type": "function"
    },
    {
      "inputs": [
        {
          "internalType": "uint256",
          "name": "blockNumber",
          "type": "uint256"
        }
      ],
      "name": "quorum",
      "outputs": [
        {
          "internalType": "uint256",
          "name": "",
          "type": "uint256"
        }
      ],
      "stateMutability": "view",
      "type": "function"
    },
    {
      "inputs": [],
      "name": "quorumDenominator",
      "outputs": [
        {
          "internalType": "uint256",
          "name": "",
          "type": "uint256"
        }
      ],
      "stateMutability": "view",
      "type": "function"
    },
    {
      "inputs": [],
      "name": "quorumNumerator",
      "outputs": [
        {
          "internalType": "uint256",
          "name": "",
          "type": "uint256"
        }
      ],
      "stateMutability": "view",
      "type": "function"
    },
    {
      "inputs": [
        {
          "internalType": "address",
          "name": "target",
          "type": "address"
        },
        {
          "internalType": "uint256",
          "name": "value",
          "type": "uint256"
        },
        {
          "internalType": "bytes",
          "name": "data",
          "type": "bytes"
        }
      ],
      "name": "relay",
      "outputs": [],
      "stateMutability": "nonpayable",
      "type": "function"
    },
    {
      "inputs": [
        {
          "internalType": "uint256",
          "name": "proposalId",
          "type": "uint256"
        }
      ],
      "name": "retrieveStake",
      "outputs": [],
      "stateMutability": "nonpayable",
      "type": "function"
    },
    {
      "inputs": [
        {
          "internalType": "uint256",
          "name": "newProposalThreshold",
          "type": "uint256"
        }
      ],
      "name": "setProposalThreshold",
      "outputs": [],
      "stateMutability": "nonpayable",
      "type": "function"
    },
    {
      "inputs": [
        {
          "internalType": "uint256",
          "name": "newVotingDelay",
          "type": "uint256"
        }
      ],
      "name": "setVotingDelay",
      "outputs": [],
      "stateMutability": "nonpayable",
      "type": "function"
    },
    {
      "inputs": [
        {
          "internalType": "uint256",
          "name": "newVotingPeriod",
          "type": "uint256"
        }
      ],
      "name": "setVotingPeriod",
      "outputs": [],
      "stateMutability": "nonpayable",
      "type": "function"
    },
    {
      "inputs": [
        {
          "internalType": "uint256",
          "name": "proposalId",
          "type": "uint256"
        }
      ],
      "name": "state",
      "outputs": [
        {
          "internalType": "enum IGovernorUpgradeable.ProposalState",
          "name": "",
          "type": "uint8"
        }
      ],
      "stateMutability": "view",
      "type": "function"
    },
    {
      "inputs": [
        {
          "internalType": "bytes4",
          "name": "interfaceId",
          "type": "bytes4"
        }
      ],
      "name": "supportsInterface",
      "outputs": [
        {
          "internalType": "bool",
          "name": "",
          "type": "bool"
        }
      ],
      "stateMutability": "view",
      "type": "function"
    },
    {
      "inputs": [],
      "name": "timelock",
      "outputs": [
        {
          "internalType": "address",
          "name": "",
          "type": "address"
        }
      ],
      "stateMutability": "view",
      "type": "function"
    },
    {
      "inputs": [],
      "name": "token",
      "outputs": [
        {
          "internalType": "contract GovToken",
          "name": "",
          "type": "address"
        }
      ],
      "stateMutability": "view",
      "type": "function"
    },
    {
      "inputs": [
        {
          "internalType": "uint256",
          "name": "newQuorumNumerator",
          "type": "uint256"
        }
      ],
      "name": "updateQuorumNumerator",
      "outputs": [],
      "stateMutability": "nonpayable",
      "type": "function"
    },
    {
      "inputs": [
        {
          "internalType": "contract TimelockControllerUpgradeable",
          "name": "newTimelock",
          "type": "address"
        }
      ],
      "name": "updateTimelock",
      "outputs": [],
      "stateMutability": "nonpayable",
      "type": "function"
    },
    {
      "inputs": [
        {
          "internalType": "address",
          "name": "newImplementation",
          "type": "address"
        }
      ],
      "name": "upgradeTo",
      "outputs": [],
      "stateMutability": "nonpayable",
      "type": "function"
    },
    {
      "inputs": [
        {
          "internalType": "address",
          "name": "newImplementation",
          "type": "address"
        },
        {
          "internalType": "bytes",
          "name": "data",
          "type": "bytes"
        }
      ],
      "name": "upgradeToAndCall",
      "outputs": [],
      "stateMutability": "payable",
      "type": "function"
    },
    {
      "inputs": [],
      "name": "version",
      "outputs": [
        {
          "internalType": "string",
          "name": "",
          "type": "string"
        }
      ],
      "stateMutability": "view",
      "type": "function"
    },
    {
      "inputs": [],
      "name": "votingDelay",
      "outputs": [
        {
          "internalType": "uint256",
          "name": "",
          "type": "uint256"
        }
      ],
      "stateMutability": "view",
      "type": "function"
    },
    {
      "inputs": [],
      "name": "votingPeriod",
      "outputs": [
        {
          "internalType": "uint256",
          "name": "",
          "type": "uint256"
        }
      ],
      "stateMutability": "view",
      "type": "function"
    },
    {
      "stateMutability": "payable",
      "type": "receive"
    }
  ],
  "bytecode": "0x60a06040523060805234801561001457600080fd5b506080516158e06200004d6000396000818161111e015281816111a3015281816112ad01528181611332015261166601526158e06000f3fe6080604052600436106103385760003560e01c80639c028176116101b0578063d17ad2d4116100ec578063ea1b28e011610095578063ece40cc11161006f578063ece40cc114610aa9578063f23a6e6114610ac9578063f8ce560a14610b0e578063fc0c546a14610b2e57600080fd5b8063ea1b28e014610a52578063eb9019d414610a69578063eb990c5914610a8957600080fd5b8063deaaa7cc116100c6578063deaaa7cc146109bb578063e14bd874146109ef578063ea0217cf14610a3257600080fd5b8063d17ad2d414610922578063d33219b414610942578063dd4e2ba51461097557600080fd5b8063b58131b011610159578063c1fe551a11610133578063c1fe551a146108a2578063c28bc2fa146108c2578063c59057e4146108e2578063ca14205b1461090257600080fd5b8063b58131b014610828578063bc197c811461083d578063c01f9e371461088257600080fd5b8063a890c9101161018a578063a890c910146107c8578063ab58fb8e146107e8578063b1be063f1461080857600080fd5b80639c02817614610760578063a56b59a814610780578063a7713a70146107b257600080fd5b80633932abb11161027f578063544ffc9c116102285780637341bf6e116102025780637341bf6e146106aa57806397c3d334146106ca5780639a802a6d146106de5780639be0ae12146106fe57600080fd5b8063544ffc9c1461060a57806354fd4d501461066057806370b0f6601461068a57600080fd5b80634f1ef286116102595780634f1ef286146105c257806351ae52e1146105d557806352d1902d146105f557600080fd5b80633932abb1146105355780633e4f49e61461054a578063438596321461057757600080fd5b8063160cbed7116102e15780632fe3e261116102bb5780632fe3e261146104ca5780633659cfe6146104fe578063375b3c0a1461051e57600080fd5b8063160cbed7146104775780632656227d146104975780632d63f693146104aa57600080fd5b806306fdde031161031257806306fdde03146103d8578063150b7a02146103fa5780631566f60d1461045757600080fd5b806301ffc9a71461036057806302a251a31461039557806306f3f9e6146103b857600080fd5b3661035b5730610346610b4f565b6001600160a01b03161461035957600080fd5b005b600080fd5b34801561036c57600080fd5b5061038061037b3660046146e8565b610b69565b60405190151581526020015b60405180910390f35b3480156103a157600080fd5b506103aa610b7a565b60405190815260200161038c565b3480156103c457600080fd5b506103596103d3366004614712565b610b86565b3480156103e457600080fd5b506103ed610c40565b60405161038c9190614783565b34801561040657600080fd5b5061043e610415366004614862565b7f150b7a0200000000000000000000000000000000000000000000000000000000949350505050565b6040516001600160e01b0319909116815260200161038c565b34801561046357600080fd5b506103aa61047236600461492d565b610cd2565b34801561048357600080fd5b506103aa610492366004614b08565b610d26565b6103aa6104a5366004614b08565b610faf565b3480156104b657600080fd5b506103aa6104c5366004614712565b6110db565b3480156104d657600080fd5b506103aa7fb3b3f3b703cd84ce352197dcff232b1b5d3cfb2025ce47cf04742d0651f1af8881565b34801561050a57600080fd5b50610359610519366004614b98565b611114565b34801561052a57600080fd5b506103aa6101615481565b34801561054157600080fd5b506103aa61128c565b34801561055657600080fd5b5061056a610565366004614712565b611298565b60405161038c9190614bcb565b34801561058357600080fd5b50610380610592366004614bf3565b6000828152610163602090815260408083206001600160a01b038516845260070190915290205460ff1692915050565b6103596105d0366004614c23565b6112a3565b3480156105e157600080fd5b506103596105f0366004614c73565b61140f565b34801561060157600080fd5b506103aa611659565b34801561061657600080fd5b50610645610625366004614712565b600090815261016360205260409020805460018201546002909201549092565b6040805193845260208401929092529082015260600161038c565b34801561066c57600080fd5b506040805180820190915260018152603160f81b60208201526103ed565b34801561069657600080fd5b506103596106a5366004614712565b61171e565b3480156106b657600080fd5b506103aa6106c5366004614cde565b6117d0565b3480156106d657600080fd5b5060646103aa565b3480156106ea57600080fd5b506103aa6106f9366004614d6a565b611827565b34801561070a57600080fd5b50610741610719366004614712565b60009081526101636020526040902060058101546006909101546001600160a01b0390911691565b604080516001600160a01b03909316835260208301919091520161038c565b34801561076c57600080fd5b506103aa61077b366004614dc3565b61183e565b34801561078c57600080fd5b5061038061079b366004614712565b600090815261016360205260409020600601541590565b3480156107be57600080fd5b506101c8546103aa565b3480156107d457600080fd5b506103596107e3366004614b98565b611869565b3480156107f457600080fd5b506103aa610803366004614712565b61191b565b34801561081457600080fd5b506103aa610823366004614df8565b6119d0565b34801561083457600080fd5b506103aa6119e9565b34801561084957600080fd5b5061043e610858366004614ead565b7fbc197c810000000000000000000000000000000000000000000000000000000095945050505050565b34801561088e57600080fd5b506103aa61089d366004614712565b6119f5565b3480156108ae57600080fd5b506103596108bd366004614712565b611a25565b3480156108ce57600080fd5b506103596108dd366004614f5b565b611b4d565b3480156108ee57600080fd5b506103aa6108fd366004614b08565b611c3f565b34801561090e57600080fd5b506103aa61091d366004614fb7565b611c79565b34801561092e57600080fd5b506103aa61093d366004615068565b611d73565b34801561094e57600080fd5b506101fa546001600160a01b03165b6040516001600160a01b03909116815260200161038c565b34801561098157600080fd5b506040805180820190915260208082527f737570706f72743d627261766f2671756f72756d3d666f722c6162737461696e908201526103ed565b3480156109c757600080fd5b506103aa7f150214d74d59b7d1e90c73fc22ef3d991dd0a76b046543d4d80ab92d2a50328f81565b3480156109fb57600080fd5b50610741610a0a366004614712565b60009081526101636020526040902060038101546004909101546001600160a01b0390911691565b348015610a3e57600080fd5b50610359610a4d366004614712565b611ddf565b348015610a5e57600080fd5b506103aa6101625481565b348015610a7557600080fd5b506103aa610a843660046150c0565b611e91565b348015610a9557600080fd5b50610359610aa43660046150ec565b611eb2565b348015610ab557600080fd5b50610359610ac4366004614712565b612047565b348015610ad557600080fd5b5061043e610ae4366004615132565b7ff23a6e610000000000000000000000000000000000000000000000000000000095945050505050565b348015610b1a57600080fd5b506103aa610b29366004614712565b6120f9565b348015610b3a57600080fd5b506101955461095d906001600160a01b031681565b6000610b646101fa546001600160a01b031690565b905090565b6000610b7482612104565b92915050565b6000610b646101305490565b610b8e610b4f565b6001600160a01b0316336001600160a01b031614610bee5760405162461bcd60e51b8152602060048201526018602482015277476f7665726e6f723a206f6e6c79476f7665726e616e636560401b60448201526064015b60405180910390fd5b30610bf7610b4f565b6001600160a01b031614610c345760008036604051610c1792919061519b565b604051809103902090505b80610c2d60ff612142565b03610c2257505b610c3d816121f2565b50565b606060fd8054610c4f906151ab565b80601f0160208091040260200160405190810160405280929190818152602001828054610c7b906151ab565b8015610cc85780601f10610c9d57610100808354040283529160200191610cc8565b820191906000526020600020905b815481529060010190602001808311610cab57829003601f168201915b5050505050905090565b600080339050610d1b8782888888888080601f0160208091040260200160405190810160405280939291908181526020018383808284376000920191909152506122d592505050565b979650505050505050565b600080610d3586868686611c3f565b90506004610d4282611298565b6007811115610d5357610d53614bb5565b14610daa5760405162461bcd60e51b815260206004820152602160248201527f476f7665726e6f723a2070726f706f73616c206e6f74207375636365737366756044820152601b60fa1b6064820152608401610be5565b6101fa54604080517ff27a0c9200000000000000000000000000000000000000000000000000000000815290516000926001600160a01b03169163f27a0c929160048083019260209291908290030181865afa158015610e0e573d6000803e3d6000fd5b505050506040513d601f19601f82011682018060405250810190610e3291906151e5565b6101fa546040517fb1c5f4270000000000000000000000000000000000000000000000000000000081529192506001600160a01b03169063b1c5f42790610e86908a908a908a906000908b906004016152c7565b602060405180830381865afa158015610ea3573d6000803e3d6000fd5b505050506040513d601f19601f82011682018060405250810190610ec791906151e5565b60008381526101fb6020526040808220929092556101fa5491517f8f2a0bb00000000000000000000000000000000000000000000000000000000081526001600160a01b0390921691638f2a0bb091610f2d918b918b918b91908b908990600401615315565b600060405180830381600087803b158015610f4757600080fd5b505af1158015610f5b573d6000803e3d6000fd5b505050507f9a2e42fd6722813d69113e7d0079d3d940171428df7373df9c7f7617cfda2892828242610f8d9190615383565b6040805192835260208301919091520160405180910390a15095945050505050565b600080610fbe86868686611c3f565b90506000610fcb82611298565b90506004816007811115610fe157610fe1614bb5565b1480610ffe57506005816007811115610ffc57610ffc614bb5565b145b6110545760405162461bcd60e51b815260206004820152602160248201527f476f7665726e6f723a2070726f706f73616c206e6f74207375636365737366756044820152601b60fa1b6064820152608401610be5565b600082815260fe602052604090819020600201805460ff19166001179055517f712ae1383f79ac853f8d882153778e0260ef8f03b504e2866e0593e04d2b291f906110a29084815260200190565b60405180910390a16110b782888888886122f9565b6110c48288888888612392565b6110d1828888888861239f565b5095945050505050565b600081815260fe6020908152604080832081519283019091525467ffffffffffffffff16908190525b67ffffffffffffffff1692915050565b6001600160a01b037f00000000000000000000000000000000000000000000000000000000000000001630036111a15760405162461bcd60e51b815260206004820152602c60248201527f46756e6374696f6e206d7573742062652063616c6c6564207468726f7567682060448201526b19195b1959d85d1958d85b1b60a21b6064820152608401610be5565b7f00000000000000000000000000000000000000000000000000000000000000006001600160a01b03166111fc7f360894a13ba1a3210667c828492db98dca3e2076cc3735a920a3ca505d382bbc546001600160a01b031690565b6001600160a01b0316146112675760405162461bcd60e51b815260206004820152602c60248201527f46756e6374696f6e206d7573742062652063616c6c6564207468726f7567682060448201526b6163746976652070726f787960a01b6064820152608401610be5565b611270816123d8565b60408051600080825260208201909252610c3d91839190612483565b6000610b6461012f5490565b6000610b7482612628565b6001600160a01b037f00000000000000000000000000000000000000000000000000000000000000001630036113305760405162461bcd60e51b815260206004820152602c60248201527f46756e6374696f6e206d7573742062652063616c6c6564207468726f7567682060448201526b19195b1959d85d1958d85b1b60a21b6064820152608401610be5565b7f00000000000000000000000000000000000000000000000000000000000000006001600160a01b031661138b7f360894a13ba1a3210667c828492db98dca3e2076cc3735a920a3ca505d382bbc546001600160a01b031690565b6001600160a01b0316146113f65760405162461bcd60e51b815260206004820152602c60248201527f46756e6374696f6e206d7573742062652063616c6c6564207468726f7567682060448201526b6163746976652070726f787960a01b6064820152608401610be5565b6113ff826123d8565b61140b82826001612483565b5050565b600084815261016360205260409020600601541561146f5760405162461bcd60e51b815260206004820152601c60248201527f50726f706f73616c20616c7265616479206f626a656374656420746f000000006044820152606401610be5565b600161147a85611298565b600781111561148b5761148b614bb5565b146114d85760405162461bcd60e51b815260206004820152601360248201527f50726f706f73616c206e6f7420616374697665000000000000000000000000006044820152606401610be5565b826114e9335b610a8460014361539b565b101580156114fe57506114fa6119e9565b8310155b6115705760405162461bcd60e51b815260206004820152603160248201527f476f7665726e6f723a2070726f706f73657220766f7465732062656c6f77207060448201527f726f706f73616c207468726573686f6c640000000000000000000000000000006064820152608401610be5565b6000848152610163602052604090206005810180546001600160a01b031916331790556006018390556115bd843360006115a9876127a7565b604080516020810190915260008152612915565b6115c8338486612aae565b600084815260fe60205260408120906115e76115e261128c565b612b32565b6115f043612b32565b6115fa91906153b2565b905060006116096115e2610b7a565b61161390836153b2565b835467ffffffffffffffff191667ffffffffffffffff8416178455905060018301805467ffffffffffffffff191667ffffffffffffffff83161790555b50505050505050565b6000306001600160a01b037f000000000000000000000000000000000000000000000000000000000000000016146116f95760405162461bcd60e51b815260206004820152603860248201527f555550535570677261646561626c653a206d757374206e6f742062652063616c60448201527f6c6564207468726f7567682064656c656761746563616c6c00000000000000006064820152608401610be5565b507f360894a13ba1a3210667c828492db98dca3e2076cc3735a920a3ca505d382bbc90565b611726610b4f565b6001600160a01b0316336001600160a01b0316146117815760405162461bcd60e51b8152602060048201526018602482015277476f7665726e6f723a206f6e6c79476f7665726e616e636560401b6044820152606401610be5565b3061178a610b4f565b6001600160a01b0316146117c757600080366040516117aa92919061519b565b604051809103902090505b806117c060ff612142565b036117b557505b610c3d81612bb6565b60008033905061181b8882898989898080601f0160208091040260200160405190810160405280939291908181526020018383808284376000920191909152508b9250612bf9915050565b98975050505050505050565b6000611834848484612ef3565b90505b9392505050565b60008033905061186085828686604051806020016040528060008152506122d5565b95945050505050565b611871610b4f565b6001600160a01b0316336001600160a01b0316146118cc5760405162461bcd60e51b8152602060048201526018602482015277476f7665726e6f723a206f6e6c79476f7665726e616e636560401b6044820152606401610be5565b306118d5610b4f565b6001600160a01b03161461191257600080366040516118f592919061519b565b604051809103902090505b8061190b60ff612142565b0361190057505b610c3d81612f83565b6101fa5460008281526101fb60205260408082205490517fd45c44350000000000000000000000000000000000000000000000000000000081526004810191909152909182916001600160a01b039091169063d45c443590602401602060405180830381865afa158015611993573d6000803e3d6000fd5b505050506040513d601f19601f820116820180604052508101906119b791906151e5565b9050806001146119c75780611837565b60009392505050565b60006119df8686868686612fee565b9695505050505050565b6000610b646101615490565b600081815260fe6020908152604080832081519283019091526001015467ffffffffffffffff1690819052611104565b6000611a30826119f5565b9050438110611a815760405162461bcd60e51b815260206004820152601460248201527f50726f706f7361207374696c6c206163746976650000000000000000000000006044820152606401610be5565b6000828152610163602052604090206003810154600482015460058301546006909301546001600160a01b0392831693919290911690611ac2848488613397565b6000868152610163602052604090206006015415158015611af757506000868152610163602052604090208054600190910154115b15611b1757611b07828288613397565b611b128285836133f1565b611b45565b6000868152610163602052604090206006015415611b4557611b3a828288613397565b611b458483856133f1565b505050505050565b611b55610b4f565b6001600160a01b0316336001600160a01b031614611bb05760405162461bcd60e51b8152602060048201526018602482015277476f7665726e6f723a206f6e6c79476f7665726e616e636560401b6044820152606401610be5565b30611bb9610b4f565b6001600160a01b031614611bf65760008036604051611bd992919061519b565b604051809103902090505b80611bef60ff612142565b03611be457505b611c388483838080601f016020809104026020016040519081016040528093929190818152602001838380828437600092019190915250889250613490915050565b5050505050565b600084848484604051602001611c5894939291906153de565b60408051601f19818403018152919052805160209091012095945050505050565b600080611d1d611d157fb3b3f3b703cd84ce352197dcff232b1b5d3cfb2025ce47cf04742d0651f1af888d8d8c8c604051611cb592919061519b565b60405180910390208b80519060200120604051602001611cfa959493929190948552602085019390935260ff9190911660408401526060830152608082015260a00190565b604051602081830303815290604052805190602001206134b6565b86868661351f565b9050611d648b828c8c8c8c8080601f0160208091040260200160405190810160405280939291908181526020018383808284376000920191909152508e9250612bf9915050565b9b9a5050505050505050505050565b604080517f150214d74d59b7d1e90c73fc22ef3d991dd0a76b046543d4d80ab92d2a50328f602082015290810187905260ff861660608201526000908190611dc190611d1590608001611cfa565b905061181b88828989604051806020016040528060008152506122d5565b611de7610b4f565b6001600160a01b0316336001600160a01b031614611e425760405162461bcd60e51b8152602060048201526018602482015277476f7665726e6f723a206f6e6c79476f7665726e616e636560401b6044820152606401610be5565b30611e4b610b4f565b6001600160a01b031614611e885760008036604051611e6b92919061519b565b604051809103902090505b80611e8160ff612142565b03611e7657505b610c3d8161353d565b60006118378383611ead60408051602081019091526000815290565b612ef3565b600054610100900460ff1615808015611ed25750600054600160ff909116105b80611eec5750303b158015611eec575060005460ff166001145b611f5e5760405162461bcd60e51b815260206004820152602e60248201527f496e697469616c697a61626c653a20636f6e747261637420697320616c72656160448201527f647920696e697469616c697a65640000000000000000000000000000000000006064820152608401610be5565b6000805460ff191660011790558015611f81576000805461ff0019166101001790555b611fbf6040518060400160405280600b81526020017f476f76656e6f72436f72650000000000000000000000000000000000000000008152506135f6565b611fcd6001600f600061367f565b611fd783836136e3565b611fe085613746565b611fea60016137a8565b611ff38461380a565b611ffb61386c565b8015611c38576000805461ff0019169055604051600181527f7f26b83ff96e1f2b6a682f133852f6798a09c465da95921460cefb38474024989060200160405180910390a15050505050565b61204f610b4f565b6001600160a01b0316336001600160a01b0316146120aa5760405162461bcd60e51b8152602060048201526018602482015277476f7665726e6f723a206f6e6c79476f7665726e616e636560401b6044820152606401610be5565b306120b3610b4f565b6001600160a01b0316146120f057600080366040516120d392919061519b565b604051809103902090505b806120e960ff612142565b036120de57505b610c3d816138c7565b6000610b748261390a565b60006001600160e01b031982167f6e665ced000000000000000000000000000000000000000000000000000000001480610b745750610b74826139ad565b600061215d8254600f81810b600160801b909204900b131590565b15612194576040517f3db2a12a00000000000000000000000000000000000000000000000000000000815260040160405180910390fd5b508054600f0b6000818152600180840160205260408220805492905583547fffffffffffffffffffffffffffffffff000000000000000000000000000000001692016fffffffffffffffffffffffffffffffff169190911790915590565b606481111561228f5760405162461bcd60e51b815260206004820152604360248201527f476f7665726e6f72566f74657351756f72756d4672616374696f6e3a2071756f60448201527f72756d4e756d657261746f72206f7665722071756f72756d44656e6f6d696e6160648201527f746f720000000000000000000000000000000000000000000000000000000000608482015260a401610be5565b6101c880549082905560408051828152602081018490527f0553476bf02ef2726e8ce5ced78d63e26e602e4a2257b1f559418e24b4633997910160405180910390a15050565b60006119df86868686866122f460408051602081019091526000815290565b612bf9565b30612302610b4f565b6001600160a01b031614611c385760005b8451811015611b4557306001600160a01b031685828151811061233857612338615429565b60200260200101516001600160a01b0316036123825761238283828151811061236357612363615429565b60200260200101518051906020012060ff613a7c90919063ffffffff16565b61238b8161543f565b9050612313565b611c388585858585613ac1565b306123a8610b4f565b6001600160a01b031614611c385760ff54600f81810b600160801b909204900b1315611c3857600060ff55611c38565b6123e0610b4f565b6001600160a01b0316336001600160a01b03161461243b5760405162461bcd60e51b8152602060048201526018602482015277476f7665726e6f723a206f6e6c79476f7665726e616e636560401b6044820152606401610be5565b30612444610b4f565b6001600160a01b031614610c3d576000803660405161246492919061519b565b604051809103902090505b8061247a60ff612142565b0361246f575050565b7f4910fdfa16fed3260ed0e7147f7cc6da11a60208b5b9406d12a635614ffd91435460ff16156124bb576124b683613b4f565b505050565b826001600160a01b03166352d1902d6040518163ffffffff1660e01b8152600401602060405180830381865afa925050508015612515575060408051601f3d908101601f19168201909252612512918101906151e5565b60015b6125875760405162461bcd60e51b815260206004820152602e60248201527f45524331393637557067726164653a206e657720696d706c656d656e7461746960448201527f6f6e206973206e6f7420555550530000000000000000000000000000000000006064820152608401610be5565b7f360894a13ba1a3210667c828492db98dca3e2076cc3735a920a3ca505d382bbc811461261c5760405162461bcd60e51b815260206004820152602960248201527f45524331393637557067726164653a20756e737570706f727465642070726f7860448201527f6961626c655555494400000000000000000000000000000000000000000000006064820152608401610be5565b506124b6838383613c0d565b60008061263483613c32565b9050600481600781111561264a5761264a614bb5565b146126555792915050565b60008381526101fb602052604090205480612671575092915050565b6101fa546040517f2ab0f529000000000000000000000000000000000000000000000000000000008152600481018390526001600160a01b0390911690632ab0f52990602401602060405180830381865afa1580156126d4573d6000803e3d6000fd5b505050506040513d601f19601f820116820180604052508101906126f89190615458565b15612707575060079392505050565b6101fa546040517f584b153e000000000000000000000000000000000000000000000000000000008152600481018390526001600160a01b039091169063584b153e90602401602060405180830381865afa15801561276a573d6000803e3d6000fd5b505050506040513d601f19601f8201168201806040525081019061278e9190615458565b1561279d575060059392505050565b5060029392505050565b6000816000036127b957506000919050565b600182608081901c156127d15760409190911b9060801c5b604081901c156127e65760209190911b9060401c5b602081901c156127fb5760109190911b9060201c5b601081901c156128105760089190911b9060101c5b600881901c156128255760049190911b9060081c5b600481901c1561283a5760029190911b9060041c5b600281901c1561284c57600182901b91505b600182858161285d5761285d61547a565b048301901c915060018285816128755761287561547a565b048301901c9150600182858161288d5761288d61547a565b048301901c915060018285816128a5576128a561547a565b048301901c915060018285816128bd576128bd61547a565b048301901c915060018285816128d5576128d561547a565b048301901c915060018285816128ed576128ed61547a565b048301901c915061290d828386816129075761290761547a565b04613d5d565b949350505050565b6000858152610163602090815260408083206001600160a01b0388168452600781019092529091205460ff16156129b45760405162461bcd60e51b815260206004820152602760248201527f476f7665726e6f72566f74696e6753696d706c653a20766f746520616c72656160448201527f64792063617374000000000000000000000000000000000000000000000000006064820152608401610be5565b6001600160a01b03851660009081526007820160205260409020805460ff1916600117905560ff8416612a0057828160000160008282546129f59190615383565b90915550611b459050565b60001960ff851601612a2057828160010160008282546129f59190615383565b60011960ff851601612a4057828160020160008282546129f59190615383565b60405162461bcd60e51b815260206004820152603560248201527f476f7665726e6f72566f74696e6753696d706c653a20696e76616c696420766160448201527f6c756520666f7220656e756d20566f74655479706500000000000000000000006064820152608401610be5565b610195546040517f8f4d8ade0000000000000000000000000000000000000000000000000000000081526001600160a01b038581166004830152602482018590526044820184905290911690638f4d8ade906064015b600060405180830381600087803b158015612b1e57600080fd5b505af1158015611650573d6000803e3d6000fd5b600067ffffffffffffffff821115612bb25760405162461bcd60e51b815260206004820152602660248201527f53616665436173743a2076616c756520646f65736e27742066697420696e203660448201527f34206269747300000000000000000000000000000000000000000000000000006064820152608401610be5565b5090565b61012f5460408051918252602082018390527fc565b045403dc03c2eea82b81a0465edad9e2e7fc4d97e11421c209da93d7a93910160405180910390a161012f55565b600086815260fe602090815260408083206101639092528220600381015460058201546006909201546001600160a01b03918216929190911690612c7f5760405162461bcd60e51b815260206004820152601c60248201527f50726f706f73616c206e6f7420796574206f626a656374656420746f000000006044820152606401610be5565b6001612c8a8b611298565b6007811115612c9b57612c9b614bb5565b14612d0e5760405162461bcd60e51b815260206004820152602360248201527f476f7665726e6f723a20766f7465206e6f742063757272656e746c792061637460448201527f69766500000000000000000000000000000000000000000000000000000000006064820152608401610be5565b336001600160a01b03831614801590612d305750336001600160a01b03821614155b612d7c5760405162461bcd60e51b815260206004820152601a60248201527f4f626a6563746f722063616e6e6f7420766f746520616761696e0000000000006044820152606401610be5565b6040805160208101909152835467ffffffffffffffff1690819052600090612da6908b9088612ef3565b90506000612db560028a615574565b905081811115612e2d5760405162461bcd60e51b815260206004820152602860248201527f496e73756666696369656e74206e756d626572206f6620676f7665726e616e6360448201527f6520746f6b656e730000000000000000000000000000000000000000000000006064820152608401610be5565b612e378b82613d73565b612e448c8c8c8c8b612915565b8651600003612e99578a6001600160a01b03167fb8e138887d0aa13bab447e82de9d5c1777041ecd21ca36ba824ff1e6c07ddda48d8c8c8c604051612e8c9493929190615583565b60405180910390a2612ee3565b8a6001600160a01b03167fe2babfbac5889a709b63bb7f598b324e08bc5a4fb9ec647fb3cbc9ec07eb87128d8c8c8c8c604051612eda9594939291906155ab565b60405180910390a25b50969a9950505050505050505050565b610195546040517f3a46b1a80000000000000000000000000000000000000000000000000000000081526001600160a01b038581166004830152602482018590526000921690633a46b1a890604401602060405180830381865afa158015612f5f573d6000803e3d6000fd5b505050506040513d601f19601f8201168201806040525081019061183491906151e5565b6101fa54604080516001600160a01b03928316815291831660208301527f08f74ea46ef7894f65eabfb5e6e695de773a000b47c529ab559178069b226401910160405180910390a16101fa80546001600160a01b0319166001600160a01b0392909216919091179055565b600081612ffa336114de565b1015801561300f575061300b6119e9565b8210155b6130815760405162461bcd60e51b815260206004820152603160248201527f476f7665726e6f723a2070726f706f73657220766f7465732062656c6f77207060448201527f726f706f73616c207468726573686f6c640000000000000000000000000000006064820152608401610be5565b60006130968787878780519060200120611c3f565b6000818152610163602052604090206003810180546001600160a01b0319163317905560040184905590506130d1813360016115a9876127a7565b6130dc338483612aae565b85518751146131375760405162461bcd60e51b815260206004820152602160248201527f476f7665726e6f723a20696e76616c69642070726f706f73616c206c656e67746044820152600d60fb1b6064820152608401610be5565b84518751146131925760405162461bcd60e51b815260206004820152602160248201527f476f7665726e6f723a20696e76616c69642070726f706f73616c206c656e67746044820152600d60fb1b6064820152608401610be5565b60008751116131e35760405162461bcd60e51b815260206004820152601860248201527f476f7665726e6f723a20656d7074792070726f706f73616c00000000000000006044820152606401610be5565b600081815260fe60209081526040918290208251918201909252815467ffffffffffffffff1690819052156132805760405162461bcd60e51b815260206004820152602160248201527f476f7665726e6f723a2070726f706f73616c20616c726561647920657869737460448201527f73000000000000000000000000000000000000000000000000000000000000006064820152608401610be5565b600061328d6115e261128c565b61329643612b32565b6132a091906153b2565b905060006132af6115e2610b7a565b6132b990836153b2565b835467ffffffffffffffff191667ffffffffffffffff8416178455905060018301805467ffffffffffffffff191667ffffffffffffffff83161790557f7d84a6263ae0d98d3329bd7b46bb4e8d6f98cd35a7adb45c274c8b7fd5ebd5e084338c8c8e5167ffffffffffffffff811115613334576133346147ab565b60405190808252806020026020018201604052801561336757816020015b60608152602001906001900390816133525790505b508d88888f604051613381999897969594939291906155e5565b60405180910390a1509198975050505050505050565b610195546040517ffc450bc10000000000000000000000000000000000000000000000000000000081526001600160a01b03858116600483015260248201859052604482018490529091169063fc450bc190606401612b04565b610195546040517f23b872dd0000000000000000000000000000000000000000000000000000000081526001600160a01b038581166004830152848116602483015260448201849052909116906323b872dd906064016020604051808303816000875af1158015613466573d6000803e3d6000fd5b505050506040513d601f19601f8201168201806040525081019061348a9190615458565b50505050565b606061183484848460405180606001604052806029815260200161585b60299139613def565b6000610b746134c3613f2c565b836040517f19010000000000000000000000000000000000000000000000000000000000006020820152602281018390526042810182905260009060620160405160208183030381529060405280519060200120905092915050565b600080600061353087878787613fa7565b915091506110d181614094565b600081116135b35760405162461bcd60e51b815260206004820152602760248201527f476f7665726e6f7253657474696e67733a20766f74696e6720706572696f642060448201527f746f6f206c6f77000000000000000000000000000000000000000000000000006064820152608401610be5565b6101305460408051918252602082018390527f7e3f7f0708a84de9203036abaa450dccc85ad5ff52f78c170f3edb55cf5e8828910160405180910390a161013055565b600054610100900460ff1661364f5760405162461bcd60e51b815260206004820152602b602482015260008051602061583b83398151915260448201526a6e697469616c697a696e6760a81b6064820152608401610be5565b613676816136716040805180820190915260018152603160f81b602082015290565b61424a565b610c3d816142bd565b600054610100900460ff166136d85760405162461bcd60e51b815260206004820152602b602482015260008051602061583b83398151915260448201526a6e697469616c697a696e6760a81b6064820152608401610be5565b6124b6838383614322565b600054610100900460ff1661373c5760405162461bcd60e51b815260206004820152602b602482015260008051602061583b83398151915260448201526a6e697469616c697a696e6760a81b6064820152608401610be5565b61140b8282614396565b600054610100900460ff1661379f5760405162461bcd60e51b815260206004820152602b602482015260008051602061583b83398151915260448201526a6e697469616c697a696e6760a81b6064820152608401610be5565b610c3d816143fc565b600054610100900460ff166138015760405162461bcd60e51b815260206004820152602b602482015260008051602061583b83398151915260448201526a6e697469616c697a696e6760a81b6064820152608401610be5565b610c3d81614478565b600054610100900460ff166138635760405162461bcd60e51b815260206004820152602b602482015260008051602061583b83398151915260448201526a6e697469616c697a696e6760a81b6064820152608401610be5565b610c3d816144d1565b600054610100900460ff166138c55760405162461bcd60e51b815260206004820152602b602482015260008051602061583b83398151915260448201526a6e697469616c697a696e6760a81b6064820152608401610be5565b565b6101315460408051918252602082018390527fccb45da8d5717e6c4544694297c4ba5cf151d455c9bb0ed4fc7a38411bc05461910160405180910390a161013155565b600060646101c854610195546040517f8e539e8c000000000000000000000000000000000000000000000000000000008152600481018690526001600160a01b0390911690638e539e8c90602401602060405180830381865afa158015613975573d6000803e3d6000fd5b505050506040513d601f19601f8201168201806040525081019061399991906151e5565b6139a391906156d7565b610b7491906156f6565b60006001600160e01b031982167f3d506c43000000000000000000000000000000000000000000000000000000001480613a1057506001600160e01b031982167f1e85d91b00000000000000000000000000000000000000000000000000000000145b80613a4457506001600160e01b031982167f4e2312e000000000000000000000000000000000000000000000000000000000145b80610b7457507f01ffc9a7000000000000000000000000000000000000000000000000000000006001600160e01b0319831614610b74565b8154600160801b90819004600f0b6000818152600180860160205260409091209390935583546fffffffffffffffffffffffffffffffff908116939091011602179055565b6101fa546040517fe38335e50000000000000000000000000000000000000000000000000000000081526001600160a01b039091169063e38335e5903490613b169088908890889060009089906004016152c7565b6000604051808303818588803b158015613b2f57600080fd5b505af1158015613b43573d6000803e3d6000fd5b50505050505050505050565b6001600160a01b0381163b613bcc5760405162461bcd60e51b815260206004820152602d60248201527f455243313936373a206e657720696d706c656d656e746174696f6e206973206e60448201527f6f74206120636f6e7472616374000000000000000000000000000000000000006064820152608401610be5565b7f360894a13ba1a3210667c828492db98dca3e2076cc3735a920a3ca505d382bbc80546001600160a01b0319166001600160a01b0392909216919091179055565b613c168361452a565b600082511180613c235750805b156124b65761348a838361456a565b600081815260fe60205260408120600281015460ff1615613c565750600792915050565b6002810154610100900460ff1615613c715750600292915050565b6000613c7c846110db565b905080600003613cce5760405162461bcd60e51b815260206004820152601d60248201527f476f7665726e6f723a20756e6b6e6f776e2070726f706f73616c2069640000006044820152606401610be5565b438110613cdf575060009392505050565b6000613cea856119f5565b9050438110613cfe57506001949350505050565b613d078561466c565b8015613d2757506000858152610163602052604090208054600190910154115b80613d42575060008581526101636020526040902060060154155b15613d5257506004949350505050565b506003949350505050565b6000818310613d6c5781611837565b5090919050565b610195546040517f9dc29fac0000000000000000000000000000000000000000000000000000000081526001600160a01b0384811660048301526024820184905290911690639dc29fac90604401600060405180830381600087803b158015613ddb57600080fd5b505af1158015611b45573d6000803e3d6000fd5b606082471015613e675760405162461bcd60e51b815260206004820152602660248201527f416464726573733a20696e73756666696369656e742062616c616e636520666f60448201527f722063616c6c00000000000000000000000000000000000000000000000000006064820152608401610be5565b6001600160a01b0385163b613ebe5760405162461bcd60e51b815260206004820152601d60248201527f416464726573733a2063616c6c20746f206e6f6e2d636f6e74726163740000006044820152606401610be5565b600080866001600160a01b03168587604051613eda9190615718565b60006040518083038185875af1925050503d8060008114613f17576040519150601f19603f3d011682016040523d82523d6000602084013e613f1c565b606091505b5091509150610d1b8282866146af565b6000610b647f8b73c3c69bb8fe3d512ecc4cf759cc79239f7b179b0ffacaa9a75d522b39400f613f5b60655490565b6066546040805160208101859052908101839052606081018290524660808201523060a082015260009060c0016040516020818303038152906040528051906020012090509392505050565b6000807f7fffffffffffffffffffffffffffffff5d576e7357a4501ddfe92f46681b20a0831115613fde575060009050600361408b565b8460ff16601b14158015613ff657508460ff16601c14155b15614007575060009050600461408b565b6040805160008082526020820180845289905260ff881692820192909252606081018690526080810185905260019060a0016020604051602081039080840390855afa15801561405b573d6000803e3d6000fd5b5050604051601f1901519150506001600160a01b0381166140845760006001925092505061408b565b9150600090505b94509492505050565b60008160048111156140a8576140a8614bb5565b036140b05750565b60018160048111156140c4576140c4614bb5565b036141115760405162461bcd60e51b815260206004820152601860248201527f45434453413a20696e76616c6964207369676e617475726500000000000000006044820152606401610be5565b600281600481111561412557614125614bb5565b036141725760405162461bcd60e51b815260206004820152601f60248201527f45434453413a20696e76616c6964207369676e6174757265206c656e677468006044820152606401610be5565b600381600481111561418657614186614bb5565b036141de5760405162461bcd60e51b815260206004820152602260248201527f45434453413a20696e76616c6964207369676e6174757265202773272076616c604482015261756560f01b6064820152608401610be5565b60048160048111156141f2576141f2614bb5565b03610c3d5760405162461bcd60e51b815260206004820152602260248201527f45434453413a20696e76616c6964207369676e6174757265202776272076616c604482015261756560f01b6064820152608401610be5565b600054610100900460ff166142a35760405162461bcd60e51b815260206004820152602b602482015260008051602061583b83398151915260448201526a6e697469616c697a696e6760a81b6064820152608401610be5565b815160209283012081519190920120606591909155606655565b600054610100900460ff166143165760405162461bcd60e51b815260206004820152602b602482015260008051602061583b83398151915260448201526a6e697469616c697a696e6760a81b6064820152608401610be5565b60fd61140b828261577a565b600054610100900460ff1661437b5760405162461bcd60e51b815260206004820152602b602482015260008051602061583b83398151915260448201526a6e697469616c697a696e6760a81b6064820152608401610be5565b61438483612bb6565b61438d8261353d565b6124b6816138c7565b600054610100900460ff166143ef5760405162461bcd60e51b815260206004820152602b602482015260008051602061583b83398151915260448201526a6e697469616c697a696e6760a81b6064820152608401610be5565b6101619190915561016255565b600054610100900460ff166144555760405162461bcd60e51b815260206004820152602b602482015260008051602061583b83398151915260448201526a6e697469616c697a696e6760a81b6064820152608401610be5565b61019580546001600160a01b0319166001600160a01b0392909216919091179055565b600054610100900460ff16610c345760405162461bcd60e51b815260206004820152602b602482015260008051602061583b83398151915260448201526a6e697469616c697a696e6760a81b6064820152608401610be5565b600054610100900460ff166119125760405162461bcd60e51b815260206004820152602b602482015260008051602061583b83398151915260448201526a6e697469616c697a696e6760a81b6064820152608401610be5565b61453381613b4f565b6040516001600160a01b038216907fbc7cd75a20ee27fd9adebab32041f755214dbc6bffa90cc0225b39da2e5c2d3b90600090a250565b60606001600160a01b0383163b6145e95760405162461bcd60e51b815260206004820152602660248201527f416464726573733a2064656c65676174652063616c6c20746f206e6f6e2d636f60448201527f6e747261637400000000000000000000000000000000000000000000000000006064820152608401610be5565b600080846001600160a01b0316846040516146049190615718565b600060405180830381855af49150503d806000811461463f576040519150601f19603f3d011682016040523d82523d6000602084013e614644565b606091505b50915091506118608282604051806060016040528060278152602001615884602791396146af565b60008181526101636020526040812060028082015460018301546146909190615383565b61469a9190615574565b6146a6610b29856110db565b11159392505050565b606083156146be575081611837565b8251156146ce5782518084602001fd5b8160405162461bcd60e51b8152600401610be59190614783565b6000602082840312156146fa57600080fd5b81356001600160e01b03198116811461183757600080fd5b60006020828403121561472457600080fd5b5035919050565b60005b8381101561474657818101518382015260200161472e565b8381111561348a5750506000910152565b6000815180845261476f81602086016020860161472b565b601f01601f19169290920160200192915050565b6020815260006118376020830184614757565b6001600160a01b0381168114610c3d57600080fd5b634e487b7160e01b600052604160045260246000fd5b604051601f8201601f1916810167ffffffffffffffff811182821017156147ea576147ea6147ab565b604052919050565b600082601f83011261480357600080fd5b813567ffffffffffffffff81111561481d5761481d6147ab565b614830601f8201601f19166020016147c1565b81815284602083860101111561484557600080fd5b816020850160208301376000918101602001919091529392505050565b6000806000806080858703121561487857600080fd5b843561488381614796565b9350602085013561489381614796565b925060408501359150606085013567ffffffffffffffff8111156148b657600080fd5b6148c2878288016147f2565b91505092959194509250565b803560ff811681146148df57600080fd5b919050565b60008083601f8401126148f657600080fd5b50813567ffffffffffffffff81111561490e57600080fd5b60208301915083602082850101111561492657600080fd5b9250929050565b60008060008060006080868803121561494557600080fd5b85359450614955602087016148ce565b935060408601359250606086013567ffffffffffffffff81111561497857600080fd5b614984888289016148e4565b969995985093965092949392505050565b600067ffffffffffffffff8211156149af576149af6147ab565b5060051b60200190565b600082601f8301126149ca57600080fd5b813560206149df6149da83614995565b6147c1565b82815260059290921b840181019181810190868411156149fe57600080fd5b8286015b84811015614a22578035614a1581614796565b8352918301918301614a02565b509695505050505050565b600082601f830112614a3e57600080fd5b81356020614a4e6149da83614995565b82815260059290921b84018101918181019086841115614a6d57600080fd5b8286015b84811015614a225780358352918301918301614a71565b600082601f830112614a9957600080fd5b81356020614aa96149da83614995565b82815260059290921b84018101918181019086841115614ac857600080fd5b8286015b84811015614a2257803567ffffffffffffffff811115614aec5760008081fd5b614afa8986838b01016147f2565b845250918301918301614acc565b60008060008060808587031215614b1e57600080fd5b843567ffffffffffffffff80821115614b3657600080fd5b614b42888389016149b9565b95506020870135915080821115614b5857600080fd5b614b6488838901614a2d565b94506040870135915080821115614b7a57600080fd5b50614b8787828801614a88565b949793965093946060013593505050565b600060208284031215614baa57600080fd5b813561183781614796565b634e487b7160e01b600052602160045260246000fd5b6020810160088310614bed57634e487b7160e01b600052602160045260246000fd5b91905290565b60008060408385031215614c0657600080fd5b823591506020830135614c1881614796565b809150509250929050565b60008060408385031215614c3657600080fd5b8235614c4181614796565b9150602083013567ffffffffffffffff811115614c5d57600080fd5b614c69858286016147f2565b9150509250929050565b60008060008060808587031215614c8957600080fd5b8435935060208501359250604085013567ffffffffffffffff80821115614caf57600080fd5b614cbb888389016147f2565b93506060870135915080821115614cd157600080fd5b506148c2878288016147f2565b60008060008060008060a08789031215614cf757600080fd5b86359550614d07602088016148ce565b945060408701359350606087013567ffffffffffffffff80821115614d2b57600080fd5b614d378a838b016148e4565b90955093506080890135915080821115614d5057600080fd5b50614d5d89828a016147f2565b9150509295509295509295565b600080600060608486031215614d7f57600080fd5b8335614d8a81614796565b925060208401359150604084013567ffffffffffffffff811115614dad57600080fd5b614db9868287016147f2565b9150509250925092565b600080600060608486031215614dd857600080fd5b83359250614de8602085016148ce565b9150604084013590509250925092565b600080600080600060a08688031215614e1057600080fd5b853567ffffffffffffffff80821115614e2857600080fd5b614e3489838a016149b9565b96506020880135915080821115614e4a57600080fd5b614e5689838a01614a2d565b95506040880135915080821115614e6c57600080fd5b614e7889838a01614a88565b94506060880135915080821115614e8e57600080fd5b50614e9b888289016147f2565b95989497509295608001359392505050565b600080600080600060a08688031215614ec557600080fd5b8535614ed081614796565b94506020860135614ee081614796565b9350604086013567ffffffffffffffff80821115614efd57600080fd5b614f0989838a01614a2d565b94506060880135915080821115614f1f57600080fd5b614f2b89838a01614a2d565b93506080880135915080821115614f4157600080fd5b50614f4e888289016147f2565b9150509295509295909350565b60008060008060608587031215614f7157600080fd5b8435614f7c81614796565b935060208501359250604085013567ffffffffffffffff811115614f9f57600080fd5b614fab878288016148e4565b95989497509550505050565b60008060008060008060008060006101008a8c031215614fd657600080fd5b89359850614fe660208b016148ce565b975060408a0135965060608a013567ffffffffffffffff8082111561500a57600080fd5b6150168d838e016148e4565b909850965060808c013591508082111561502f57600080fd5b5061503c8c828d016147f2565b94505061504b60a08b016148ce565b925060c08a0135915060e08a013590509295985092959850929598565b60008060008060008060c0878903121561508157600080fd5b86359550615091602088016148ce565b9450604087013593506150a6606088016148ce565b92506080870135915060a087013590509295509295509295565b600080604083850312156150d357600080fd5b82356150de81614796565b946020939093013593505050565b6000806000806080858703121561510257600080fd5b843561510d81614796565b9350602085013561511d81614796565b93969395505050506040820135916060013590565b600080600080600060a0868803121561514a57600080fd5b853561515581614796565b9450602086013561516581614796565b93506040860135925060608601359150608086013567ffffffffffffffff81111561518f57600080fd5b614f4e888289016147f2565b8183823760009101908152919050565b600181811c908216806151bf57607f821691505b6020821081036151df57634e487b7160e01b600052602260045260246000fd5b50919050565b6000602082840312156151f757600080fd5b5051919050565b600081518084526020808501945080840160005b838110156152375781516001600160a01b031687529582019590820190600101615212565b509495945050505050565b600081518084526020808501945080840160005b8381101561523757815187529582019590820190600101615256565b600081518084526020808501808196508360051b8101915082860160005b858110156152ba5782840389526152a8848351614757565b98850198935090840190600101615290565b5091979650505050505050565b60a0815260006152da60a08301886151fe565b82810360208401526152ec8188615242565b905082810360408401526153008187615272565b60608401959095525050608001529392505050565b60c08152600061532860c08301896151fe565b828103602084015261533a8189615242565b9050828103604084015261534e8188615272565b60608401969096525050608081019290925260a0909101529392505050565b634e487b7160e01b600052601160045260246000fd5b600082198211156153965761539661536d565b500190565b6000828210156153ad576153ad61536d565b500390565b600067ffffffffffffffff8083168185168083038211156153d5576153d561536d565b01949350505050565b6080815260006153f160808301876151fe565b82810360208401526154038187615242565b905082810360408401526154178186615272565b91505082606083015295945050505050565b634e487b7160e01b600052603260045260246000fd5b6000600182016154515761545161536d565b5060010190565b60006020828403121561546a57600080fd5b8151801515811461183757600080fd5b634e487b7160e01b600052601260045260246000fd5b600181815b808511156154cb5781600019048211156154b1576154b161536d565b808516156154be57918102915b93841c9390800290615495565b509250929050565b6000826154e257506001610b74565b816154ef57506000610b74565b8160018114615505576002811461550f5761552b565b6001915050610b74565b60ff8411156155205761552061536d565b50506001821b610b74565b5060208310610133831016604e8410600b841016171561554e575081810a610b74565b6155588383615490565b806000190482111561556c5761556c61536d565b029392505050565b600061183760ff8416836154d3565b84815260ff841660208201528260408201526080606082015260006119df6080830184614757565b85815260ff8516602082015283604082015260a0606082015260006155d360a0830185614757565b828103608084015261181b8185614757565b60006101208b835260206001600160a01b038c168185015281604085015261560f8285018c6151fe565b91508382036060850152615623828b615242565b915083820360808501528189518084528284019150828160051b850101838c0160005b8381101561567457601f19878403018552615662838351614757565b94860194925090850190600101615646565b505086810360a0880152615688818c615272565b9450505050506156a460c084018767ffffffffffffffff169052565b67ffffffffffffffff851660e08401528281036101008401526156c78185614757565b9c9b505050505050505050505050565b60008160001904831182151516156156f1576156f161536d565b500290565b60008261571357634e487b7160e01b600052601260045260246000fd5b500490565b6000825161572a81846020870161472b565b9190910192915050565b601f8211156124b657600081815260208120601f850160051c8101602086101561575b5750805b601f850160051c820191505b81811015611b4557828155600101615767565b815167ffffffffffffffff811115615794576157946147ab565b6157a8816157a284546151ab565b84615734565b602080601f8311600181146157dd57600084156157c55750858301515b600019600386901b1c1916600185901b178555611b45565b600085815260208120601f198616915b8281101561580c578886015182559484019460019091019084016157ed565b508582101561582a5787850151600019600388901b60f8161c191681555b5050505050600190811b0190555056fe496e697469616c697a61626c653a20636f6e7472616374206973206e6f742069416464726573733a206c6f772d6c6576656c2063616c6c20776974682076616c7565206661696c6564416464726573733a206c6f772d6c6576656c2064656c65676174652063616c6c206661696c6564a2646970667358221220fa33559394e99cf173dc3113d1af6c4a7d4f1c26a14b63cec76f071201e05a5764736f6c634300080f0033",
  "linkReferences": {},
  "deployedLinkReferences": {}
}