{
  "_format": "hh-sol-artifact-1",
  "contractName": "GovToken",
  "sourceName": "contracts/votingComponent/GovernorV2/GovToken.sol",
  "abi": [
    {
      "anonymous": false,
      "inputs": [
        {
          "indexed": false,
          "internalType": "address",
          "name": "previousAdmin",
          "type": "address"
        },
        {
          "indexed": false,
          "internalType": "address",
          "name": "newAdmin",
          "type": "address"
        }
      ],
      "name": "AdminChanged",
      "type": "event"
    },
    {
      "anonymous": false,
      "inputs": [
        {
          "indexed": true,
          "internalType": "address",
          "name": "owner",
          "type": "address"
        },
        {
          "indexed": true,
          "internalType": "address",
          "name": "spender",
          "type": "address"
        },
        {
          "indexed": false,
          "internalType": "uint256",
          "name": "value",
          "type": "uint256"
        }
      ],
      "name": "Approval",
      "type": "event"
    },
    {
      "anonymous": false,
      "inputs": [
        {
          "indexed": true,
          "internalType": "address",
          "name": "beacon",
          "type": "address"
        }
      ],
      "name": "BeaconUpgraded",
      "type": "event"
    },
    {
      "anonymous": false,
      "inputs": [
        {
          "indexed": true,
          "internalType": "address",
          "name": "delegator",
          "type": "address"
        },
        {
          "indexed": true,
          "internalType": "address",
          "name": "fromDelegate",
          "type": "address"
        },
        {
          "indexed": true,
          "internalType": "address",
          "name": "toDelegate",
          "type": "address"
        }
      ],
      "name": "DelegateChanged",
      "type": "event"
    },
    {
      "anonymous": false,
      "inputs": [
        {
          "indexed": true,
          "internalType": "address",
          "name": "delegate",
          "type": "address"
        },
        {
          "indexed": false,
          "internalType": "uint256",
          "name": "previousBalance",
          "type": "uint256"
        },
        {
          "indexed": false,
          "internalType": "uint256",
          "name": "newBalance",
          "type": "uint256"
        }
      ],
      "name": "DelegateVotesChanged",
      "type": "event"
    },
    {
      "anonymous": false,
      "inputs": [
        {
          "indexed": false,
          "internalType": "address",
          "name": "module",
          "type": "address"
        }
      ],
      "name": "DisabledModule",
      "type": "event"
    },
    {
      "anonymous": false,
      "inputs": [
        {
          "indexed": false,
          "internalType": "address",
          "name": "module",
          "type": "address"
        }
      ],
      "name": "EnabledModule",
      "type": "event"
    },
    {
      "anonymous": false,
      "inputs": [
        {
          "indexed": true,
          "internalType": "address",
          "name": "module",
          "type": "address"
        }
      ],
      "name": "ExecutionFromModuleFailure",
      "type": "event"
    },
    {
      "anonymous": false,
      "inputs": [
        {
          "indexed": true,
          "internalType": "address",
          "name": "module",
          "type": "address"
        }
      ],
      "name": "ExecutionFromModuleSuccess",
      "type": "event"
    },
    {
      "anonymous": false,
      "inputs": [
        {
          "indexed": false,
          "internalType": "uint8",
          "name": "version",
          "type": "uint8"
        }
      ],
      "name": "Initialized",
      "type": "event"
    },
    {
      "anonymous": false,
      "inputs": [
        {
          "indexed": true,
          "internalType": "address",
          "name": "previousOwner",
          "type": "address"
        },
        {
          "indexed": true,
          "internalType": "address",
          "name": "newOwner",
          "type": "address"
        }
      ],
      "name": "OwnershipTransferred",
      "type": "event"
    },
    {
      "anonymous": false,
      "inputs": [
        {
          "indexed": true,
          "internalType": "address",
          "name": "from",
          "type": "address"
        },
        {
          "indexed": true,
          "internalType": "address",
          "name": "to",
          "type": "address"
        },
        {
          "indexed": false,
          "internalType": "uint256",
          "name": "value",
          "type": "uint256"
        }
      ],
      "name": "Transfer",
      "type": "event"
    },
    {
      "anonymous": false,
      "inputs": [
        {
          "indexed": true,
          "internalType": "address",
          "name": "implementation",
          "type": "address"
        }
      ],
      "name": "Upgraded",
      "type": "event"
    },
    {
      "anonymous": false,
      "inputs": [
        {
          "indexed": false,
          "internalType": "address",
          "name": "",
          "type": "address"
        },
        {
          "indexed": false,
          "internalType": "uint256",
          "name": "",
          "type": "uint256"
        },
        {
          "indexed": false,
          "internalType": "uint256",
          "name": "",
          "type": "uint256"
        }
      ],
      "name": "VotesLockedChanged",
      "type": "event"
    },
    {
      "inputs": [],
      "name": "DOMAIN_SEPARATOR",
      "outputs": [
        {
          "internalType": "bytes32",
          "name": "",
          "type": "bytes32"
        }
      ],
      "stateMutability": "view",
      "type": "function"
    },
    {
      "inputs": [
        {
          "internalType": "address",
          "name": "owner",
          "type": "address"
        },
        {
          "internalType": "address",
          "name": "spender",
          "type": "address"
        }
      ],
      "name": "allowance",
      "outputs": [
        {
          "internalType": "uint256",
          "name": "",
          "type": "uint256"
        }
      ],
      "stateMutability": "view",
      "type": "function"
    },
    {
      "inputs": [
        {
          "internalType": "address",
          "name": "spender",
          "type": "address"
        },
        {
          "internalType": "uint256",
          "name": "amount",
          "type": "uint256"
        }
      ],
      "name": "approve",
      "outputs": [
        {
          "internalType": "bool",
          "name": "",
          "type": "bool"
        }
      ],
      "stateMutability": "nonpayable",
      "type": "function"
    },
    {
      "inputs": [
        {
          "internalType": "address",
          "name": "account",
          "type": "address"
        }
      ],
      "name": "balanceOf",
      "outputs": [
        {
          "internalType": "uint256",
          "name": "",
          "type": "uint256"
        }
      ],
      "stateMutability": "view",
      "type": "function"
    },
    {
      "inputs": [
        {
          "internalType": "address",
          "name": "from",
          "type": "address"
        },
        {
          "internalType": "uint256",
          "name": "amount",
          "type": "uint256"
        }
      ],
      "name": "burn",
      "outputs": [],
      "stateMutability": "nonpayable",
      "type": "function"
    },
    {
      "inputs": [
        {
          "internalType": "address",
          "name": "account",
          "type": "address"
        },
        {
          "internalType": "uint32",
          "name": "pos",
          "type": "uint32"
        }
      ],
      "name": "checkpoints",
      "outputs": [
        {
          "components": [
            {
              "internalType": "uint32",
              "name": "fromBlock",
              "type": "uint32"
            },
            {
              "internalType": "uint224",
              "name": "votes",
              "type": "uint224"
            }
          ],
          "internalType": "struct ERC20VotesUpgradeable.Checkpoint",
          "name": "",
          "type": "tuple"
        }
      ],
      "stateMutability": "view",
      "type": "function"
    },
    {
      "inputs": [],
      "name": "decimals",
      "outputs": [
        {
          "internalType": "uint8",
          "name": "",
          "type": "uint8"
        }
      ],
      "stateMutability": "view",
      "type": "function"
    },
    {
      "inputs": [
        {
          "internalType": "address",
          "name": "spender",
          "type": "address"
        },
        {
          "internalType": "uint256",
          "name": "subtractedValue",
          "type": "uint256"
        }
      ],
      "name": "decreaseAllowance",
      "outputs": [
        {
          "internalType": "bool",
          "name": "",
          "type": "bool"
        }
      ],
      "stateMutability": "nonpayable",
      "type": "function"
    },
    {
      "inputs": [
        {
          "internalType": "address",
          "name": "delegatee",
          "type": "address"
        }
      ],
      "name": "delegate",
      "outputs": [],
      "stateMutability": "nonpayable",
      "type": "function"
    },
    {
      "inputs": [
        {
          "internalType": "address",
          "name": "delegatee",
          "type": "address"
        },
        {
          "internalType": "uint256",
          "name": "nonce",
          "type": "uint256"
        },
        {
          "internalType": "uint256",
          "name": "expiry",
          "type": "uint256"
        },
        {
          "internalType": "uint8",
          "name": "v",
          "type": "uint8"
        },
        {
          "internalType": "bytes32",
          "name": "r",
          "type": "bytes32"
        },
        {
          "internalType": "bytes32",
          "name": "s",
          "type": "bytes32"
        }
      ],
      "name": "delegateBySig",
      "outputs": [],
      "stateMutability": "nonpayable",
      "type": "function"
    },
    {
      "inputs": [
        {
          "internalType": "address",
          "name": "account",
          "type": "address"
        }
      ],
      "name": "delegates",
      "outputs": [
        {
          "internalType": "address",
          "name": "",
          "type": "address"
        }
      ],
      "stateMutability": "view",
      "type": "function"
    },
    {
      "inputs": [
        {
          "internalType": "address",
          "name": "prevModule",
          "type": "address"
        },
        {
          "internalType": "address",
          "name": "module",
          "type": "address"
        }
      ],
      "name": "disableModule",
      "outputs": [],
      "stateMutability": "nonpayable",
      "type": "function"
    },
    {
      "inputs": [
        {
          "internalType": "address",
          "name": "module",
          "type": "address"
        }
      ],
      "name": "enableModule",
      "outputs": [],
      "stateMutability": "nonpayable",
      "type": "function"
    },
    {
      "inputs": [
        {
          "internalType": "address",
          "name": "to",
          "type": "address"
        },
        {
          "internalType": "uint256",
          "name": "value",
          "type": "uint256"
        },
        {
          "internalType": "bytes",
          "name": "data",
          "type": "bytes"
        },
        {
          "internalType": "enum Enum.Operation",
          "name": "operation",
          "type": "uint8"
        }
      ],
      "name": "execTransactionFromModule",
      "outputs": [
        {
          "internalType": "bool",
          "name": "success",
          "type": "bool"
        }
      ],
      "stateMutability": "nonpayable",
      "type": "function"
    },
    {
      "inputs": [
        {
          "internalType": "address",
          "name": "to",
          "type": "address"
        },
        {
          "internalType": "uint256",
          "name": "value",
          "type": "uint256"
        },
        {
          "internalType": "bytes",
          "name": "data",
          "type": "bytes"
        },
        {
          "internalType": "enum Enum.Operation",
          "name": "operation",
          "type": "uint8"
        }
      ],
      "name": "execTransactionFromModuleReturnData",
      "outputs": [
        {
          "internalType": "bool",
          "name": "success",
          "type": "bool"
        },
        {
          "internalType": "bytes",
          "name": "returnData",
          "type": "bytes"
        }
      ],
      "stateMutability": "nonpayable",
      "type": "function"
    },
    {
      "inputs": [
        {
          "internalType": "address",
          "name": "voter",
          "type": "address"
        },
        {
          "internalType": "uint256",
          "name": "amount",
          "type": "uint256"
        },
        {
          "internalType": "uint256",
          "name": "proposalId",
          "type": "uint256"
        }
      ],
      "name": "freeVotes",
      "outputs": [],
      "stateMutability": "nonpayable",
      "type": "function"
    },
    {
      "inputs": [
        {
          "internalType": "address",
          "name": "voter",
          "type": "address"
        },
        {
          "internalType": "uint256",
          "name": "proposalId",
          "type": "uint256"
        }
      ],
      "name": "getLockedVotes",
      "outputs": [
        {
          "internalType": "uint256",
          "name": "",
          "type": "uint256"
        }
      ],
      "stateMutability": "view",
      "type": "function"
    },
    {
      "inputs": [
        {
          "internalType": "address",
          "name": "start",
          "type": "address"
        },
        {
          "internalType": "uint256",
          "name": "pageSize",
          "type": "uint256"
        }
      ],
      "name": "getModulesPaginated",
      "outputs": [
        {
          "internalType": "address[]",
          "name": "array",
          "type": "address[]"
        },
        {
          "internalType": "address",
          "name": "next",
          "type": "address"
        }
      ],
      "stateMutability": "view",
      "type": "function"
    },
    {
      "inputs": [
        {
          "internalType": "uint256",
          "name": "blockNumber",
          "type": "uint256"
        }
      ],
      "name": "getPastTotalSupply",
      "outputs": [
        {
          "internalType": "uint256",
          "name": "",
          "type": "uint256"
        }
      ],
      "stateMutability": "view",
      "type": "function"
    },
    {
      "inputs": [
        {
          "internalType": "address",
          "name": "account",
          "type": "address"
        },
        {
          "internalType": "uint256",
          "name": "blockNumber",
          "type": "uint256"
        }
      ],
      "name": "getPastVotes",
      "outputs": [
        {
          "internalType": "uint256",
          "name": "",
          "type": "uint256"
        }
      ],
      "stateMutability": "view",
      "type": "function"
    },
    {
      "inputs": [
        {
          "internalType": "address",
          "name": "account",
          "type": "address"
        }
      ],
      "name": "getVotes",
      "outputs": [
        {
          "internalType": "uint256",
          "name": "",
          "type": "uint256"
        }
      ],
      "stateMutability": "view",
      "type": "function"
    },
    {
      "inputs": [
        {
          "internalType": "address",
          "name": "spender",
          "type": "address"
        },
        {
          "internalType": "uint256",
          "name": "addedValue",
          "type": "uint256"
        }
      ],
      "name": "increaseAllowance",
      "outputs": [
        {
          "internalType": "bool",
          "name": "",
          "type": "bool"
        }
      ],
      "stateMutability": "nonpayable",
      "type": "function"
    },
    {
      "inputs": [
        {
          "internalType": "string",
          "name": "name_",
          "type": "string"
        },
        {
          "internalType": "string",
          "name": "symbol_",
          "type": "string"
        }
      ],
      "name": "initialize",
      "outputs": [],
      "stateMutability": "nonpayable",
      "type": "function"
    },
    {
      "inputs": [
        {
          "internalType": "address",
          "name": "module",
          "type": "address"
        }
      ],
      "name": "isModuleEnabled",
      "outputs": [
        {
          "internalType": "bool",
          "name": "",
          "type": "bool"
        }
      ],
      "stateMutability": "view",
      "type": "function"
    },
    {
      "inputs": [
        {
          "internalType": "address",
          "name": "voter",
          "type": "address"
        },
        {
          "internalType": "uint256",
          "name": "amount",
          "type": "uint256"
        },
        {
          "internalType": "uint256",
          "name": "proposalId",
          "type": "uint256"
        }
      ],
      "name": "lockVotes",
      "outputs": [],
      "stateMutability": "nonpayable",
      "type": "function"
    },
    {
      "inputs": [
        {
          "internalType": "address",
          "name": "to",
          "type": "address"
        },
        {
          "internalType": "uint256",
          "name": "amount",
          "type": "uint256"
        }
      ],
      "name": "mint",
      "outputs": [],
      "stateMutability": "nonpayable",
      "type": "function"
    },
    {
      "inputs": [],
      "name": "name",
      "outputs": [
        {
          "internalType": "string",
          "name": "",
          "type": "string"
        }
      ],
      "stateMutability": "view",
      "type": "function"
    },
    {
      "inputs": [
        {
          "internalType": "address",
          "name": "owner",
          "type": "address"
        }
      ],
      "name": "nonces",
      "outputs": [
        {
          "internalType": "uint256",
          "name": "",
          "type": "uint256"
        }
      ],
      "stateMutability": "view",
      "type": "function"
    },
    {
      "inputs": [
        {
          "internalType": "address",
          "name": "account",
          "type": "address"
        }
      ],
      "name": "numCheckpoints",
      "outputs": [
        {
          "internalType": "uint32",
          "name": "",
          "type": "uint32"
        }
      ],
      "stateMutability": "view",
      "type": "function"
    },
    {
      "inputs": [],
      "name": "owner",
      "outputs": [
        {
          "internalType": "address",
          "name": "",
          "type": "address"
        }
      ],
      "stateMutability": "view",
      "type": "function"
    },
    {
      "inputs": [],
      "name": "permissionRegistry",
      "outputs": [
        {
          "internalType": "address",
          "name": "",
          "type": "address"
        }
      ],
      "stateMutability": "view",
      "type": "function"
    },
    {
      "inputs": [
        {
          "internalType": "address",
          "name": "owner",
          "type": "address"
        },
        {
          "internalType": "address",
          "name": "spender",
          "type": "address"
        },
        {
          "internalType": "uint256",
          "name": "value",
          "type": "uint256"
        },
        {
          "internalType": "uint256",
          "name": "deadline",
          "type": "uint256"
        },
        {
          "internalType": "uint8",
          "name": "v",
          "type": "uint8"
        },
        {
          "internalType": "bytes32",
          "name": "r",
          "type": "bytes32"
        },
        {
          "internalType": "bytes32",
          "name": "s",
          "type": "bytes32"
        }
      ],
      "name": "permit",
      "outputs": [],
      "stateMutability": "nonpayable",
      "type": "function"
    },
    {
      "inputs": [],
      "name": "proxiableUUID",
      "outputs": [
        {
          "internalType": "bytes32",
          "name": "",
          "type": "bytes32"
        }
      ],
      "stateMutability": "view",
      "type": "function"
    },
    {
      "inputs": [],
      "name": "renounceOwnership",
      "outputs": [],
      "stateMutability": "nonpayable",
      "type": "function"
    },
    {
      "inputs": [
        {
          "internalType": "address",
          "name": "_permissionReg",
          "type": "address"
        }
      ],
      "name": "setPermissionReg",
      "outputs": [],
      "stateMutability": "nonpayable",
      "type": "function"
    },
    {
      "inputs": [],
      "name": "symbol",
      "outputs": [
        {
          "internalType": "string",
          "name": "",
          "type": "string"
        }
      ],
      "stateMutability": "view",
      "type": "function"
    },
    {
      "inputs": [],
      "name": "totalSupply",
      "outputs": [
        {
          "internalType": "uint256",
          "name": "",
          "type": "uint256"
        }
      ],
      "stateMutability": "view",
      "type": "function"
    },
    {
      "inputs": [
        {
          "internalType": "address",
          "name": "",
          "type": "address"
        },
        {
          "internalType": "uint256",
          "name": "",
          "type": "uint256"
        }
      ],
      "name": "transfer",
      "outputs": [
        {
          "internalType": "bool",
          "name": "",
          "type": "bool"
        }
      ],
      "stateMutability": "pure",
      "type": "function"
    },
    {
      "inputs": [
        {
          "internalType": "address",
          "name": "from",
          "type": "address"
        },
        {
          "internalType": "address",
          "name": "to",
          "type": "address"
        },
        {
          "internalType": "uint256",
          "name": "amount",
          "type": "uint256"
        }
      ],
      "name": "transferFrom",
      "outputs": [
        {
          "internalType": "bool",
          "name": "",
          "type": "bool"
        }
      ],
      "stateMutability": "nonpayable",
      "type": "function"
    },
    {
      "inputs": [
        {
          "internalType": "address",
          "name": "newOwner",
          "type": "address"
        }
      ],
      "name": "transferOwnership",
      "outputs": [],
      "stateMutability": "nonpayable",
      "type": "function"
    },
    {
      "inputs": [
        {
          "internalType": "address",
          "name": "newImplementation",
          "type": "address"
        }
      ],
      "name": "upgradeTo",
      "outputs": [],
      "stateMutability": "nonpayable",
      "type": "function"
    },
    {
      "inputs": [
        {
          "internalType": "address",
          "name": "newImplementation",
          "type": "address"
        },
        {
          "internalType": "bytes",
          "name": "data",
          "type": "bytes"
        }
      ],
      "name": "upgradeToAndCall",
      "outputs": [],
      "stateMutability": "payable",
      "type": "function"
    }
  ],
  "bytecode": "0x60a06040523060805234801561001457600080fd5b5060805161427461004c60003960008181610b5d01528181610be2015281816111190152818161119e01526112b101526142746000f3fe6080604052600436106102d15760003560e01c806370a0823111610179578063a9059cbb116100d6578063d505accf1161008a578063f1127ed811610064578063f1127ed81461085b578063f2fde38b146108a5578063fc450bc1146108c557600080fd5b8063d505accf146107d5578063dd62ed3e146107f5578063e009cfde1461083b57600080fd5b8063b55a5c1c116100bb578063b55a5c1c14610761578063c3cda52014610787578063cc2f8452146107a757600080fd5b8063a9059cbb146106fd578063ae95379c1461071d57600080fd5b80638f4d8ade1161012d5780639ab24eb0116101125780639ab24eb01461069d5780639dc29fac146106bd578063a457c2d7146106dd57600080fd5b80638f4d8ade1461066857806395d89b411461068857600080fd5b80637ecebe001161015e5780637ecebe001461060a5780638da5cb5b1461062a5780638e539e8c1461064857600080fd5b806370a08231146105bf578063715018a6146105f557600080fd5b80633a46b1a8116102325780635229073f116101e65780635c19a95c116101c05780635c19a95c1461054a578063610b59251461056a5780636fcfff451461058a57600080fd5b80635229073f146104b657806352d1902d146104e4578063587cde1e146104f957600080fd5b8063468721a711610217578063468721a7146104635780634cd88b76146104835780634f1ef286146104a357600080fd5b80633a46b1a81461042357806340c10f191461044357600080fd5b80632d9ad53d116102895780633644e5151161026e5780633644e515146103ce5780633659cfe6146103e3578063395093511461040357600080fd5b80632d9ad53d14610392578063313ce567146103b257600080fd5b8063113c17de116102ba578063113c17de1461033157806318160ddd1461035357806323b872dd1461037257600080fd5b806306fdde03146102d6578063095ea7b314610301575b600080fd5b3480156102e257600080fd5b506102eb6108e5565b6040516102f89190613afc565b60405180910390f35b34801561030d57600080fd5b5061032161031c366004613b2b565b610977565b60405190151581526020016102f8565b34801561033d57600080fd5b5061035161034c366004613b55565b61098f565b005b34801561035f57600080fd5b506036545b6040519081526020016102f8565b34801561037e57600080fd5b5061032161038d366004613b70565b610af5565b34801561039e57600080fd5b506103216103ad366004613b55565b610b09565b3480156103be57600080fd5b50604051601281526020016102f8565b3480156103da57600080fd5b50610364610b44565b3480156103ef57600080fd5b506103516103fe366004613b55565b610b53565b34801561040f57600080fd5b5061032161041e366004613b2b565b610cc5565b34801561042f57600080fd5b5061036461043e366004613b2b565b610d04565b34801561044f57600080fd5b5061035161045e366004613b2b565b610d77565b34801561046f57600080fd5b5061032161047e366004613c4f565b610d85565b34801561048f57600080fd5b5061035161049e366004613d06565b610f20565b6103516104b1366004613d72565b61110f565b3480156104c257600080fd5b506104d66104d1366004613c4f565b61126e565b6040516102f8929190613dc0565b3480156104f057600080fd5b506103646112a4565b34801561050557600080fd5b50610532610514366004613b55565b6001600160a01b03908116600090815260cd60205260409020541690565b6040516001600160a01b0390911681526020016102f8565b34801561055657600080fd5b50610351610565366004613b55565b611369565b34801561057657600080fd5b50610351610585366004613b55565b611373565b34801561059657600080fd5b506105aa6105a5366004613b55565b61149b565b60405163ffffffff90911681526020016102f8565b3480156105cb57600080fd5b506103646105da366004613b55565b6001600160a01b031660009081526034602052604090205490565b34801561060157600080fd5b506103516114bd565b34801561061657600080fd5b50610364610625366004613b55565b6114d1565b34801561063657600080fd5b5060ff546001600160a01b0316610532565b34801561065457600080fd5b50610364610663366004613de3565b6114ef565b34801561067457600080fd5b50610351610683366004613dfc565b61154b565b34801561069457600080fd5b506102eb61164f565b3480156106a957600080fd5b506103646106b8366004613b55565b61165e565b3480156106c957600080fd5b506103516106d8366004613b2b565b6116e5565b3480156106e957600080fd5b506103216106f8366004613b2b565b6116ef565b34801561070957600080fd5b50610321610718366004613b2b565b6117a4565b34801561072957600080fd5b50610364610738366004613b2b565b6001600160a01b0391909116600090815261019560209081526040808320938352929052205490565b34801561076d57600080fd5b50600054610532906201000090046001600160a01b031681565b34801561079357600080fd5b506103516107a2366004613e40565b6117ef565b3480156107b357600080fd5b506107c76107c2366004613b2b565b611925565b6040516102f8929190613e98565b3480156107e157600080fd5b506103516107f0366004613ef5565b611a1f565b34801561080157600080fd5b50610364610810366004613f5f565b6001600160a01b03918216600090815260356020908152604080832093909416825291909152205490565b34801561084757600080fd5b50610351610856366004613f5f565b611b83565b34801561086757600080fd5b5061087b610876366004613f92565b611cb2565b60408051825163ffffffff1681526020928301516001600160e01b031692810192909252016102f8565b3480156108b157600080fd5b506103516108c0366004613b55565b611d36565b3480156108d157600080fd5b506103516108e0366004613dfc565b611dc3565b6060603780546108f490613fd2565b80601f016020809104026020016040519081016040528092919081815260200182805461092090613fd2565b801561096d5780601f106109425761010080835404028352916020019161096d565b820191906000526020600020905b81548152906001019060200180831161095057829003601f168201915b5050505050905090565b600033610985818585611e97565b5060019392505050565b6000336001148015906109b95750336000908152600160205260409020546001600160a01b031615155b9050600081610a4d576000805460405163b700961360e01b815233600482015230602482015291356001600160e01b03191660448301526201000090046001600160a01b03169063b700961390606401602060405180830381865afa158015610a26573d6000803e3d6000fd5b505050506040513d601f19601f82011682018060405250810190610a4a9190614006565b90505b8180610a565750805b610ab35760405162461bcd60e51b8152602060048201526024808201527f4e6f7420617574686f72697a656420746f2063616c6c20746869732066756e636044820152633a34b7b760e11b60648201526084015b60405180910390fd5b600080547fffffffffffffffffffff0000000000000000000000000000000000000000ffff16620100006001600160a01b03861602179055505050565b505050565b6000610985848484611fef565b9392505050565b600060016001600160a01b03831614801590610b3e57506001600160a01b038281166000908152600160205260409020541615155b92915050565b6000610b4e61220c565b905090565b6001600160a01b037f0000000000000000000000000000000000000000000000000000000000000000163003610be05760405162461bcd60e51b815260206004820152602c60248201527f46756e6374696f6e206d7573742062652063616c6c6564207468726f7567682060448201526b19195b1959d85d1958d85b1b60a21b6064820152608401610aaa565b7f00000000000000000000000000000000000000000000000000000000000000006001600160a01b0316610c3b7f360894a13ba1a3210667c828492db98dca3e2076cc3735a920a3ca505d382bbc546001600160a01b031690565b6001600160a01b031614610ca65760405162461bcd60e51b815260206004820152602c60248201527f46756e6374696f6e206d7573742062652063616c6c6564207468726f7567682060448201526b6163746976652070726f787960a01b6064820152608401610aaa565b60408051600080825260208201909252610cc291839190612287565b50565b3360008181526035602090815260408083206001600160a01b03871684529091528120549091906109859082908690610cff90879061403e565b611e97565b6000438210610d555760405162461bcd60e51b815260206004820152601f60248201527f4552433230566f7465733a20626c6f636b206e6f7420796574206d696e6564006044820152606401610aaa565b6001600160a01b038316600090815260ce60205260409020610b029083612427565b610d8182826124e4565b5050565b60008033600114801590610db05750336000908152600160205260409020546001600160a01b031615155b9050600081610e44576000805460405163b700961360e01b815233600482015230602482015291356001600160e01b03191660448301526201000090046001600160a01b03169063b700961390606401602060405180830381865afa158015610e1d573d6000803e3d6000fd5b505050506040513d601f19601f82011682018060405250810190610e419190614006565b90505b8180610e4d5750805b610ea55760405162461bcd60e51b8152602060048201526024808201527f4e6f7420617574686f72697a656420746f2063616c6c20746869732066756e636044820152633a34b7b760e11b6064820152608401610aaa565b610eb2878787875a6124ee565b92508215610eea5760405133907f6895c13664aa4f67288b25d7a21d7aaa34916e355fb9b6fae0a139a9085becb890600090a2610f16565b60405133907facd2c8702804128fdb0db2bb49f6d127dd0181c13fd45dbfe16de0930e2bd37590600090a25b5050949350505050565b600054610100900460ff1615808015610f405750600054600160ff909116105b80610f5a5750303b158015610f5a575060005460ff166001145b610fcc5760405162461bcd60e51b815260206004820152602e60248201527f496e697469616c697a61626c653a20636f6e747261637420697320616c72656160448201527f647920696e697469616c697a65640000000000000000000000000000000000006064820152608401610aaa565b6000805460ff191660011790558015610fef576000805461ff0019166101001790555b61106285858080601f01602080910402602001604051908101604052809392919081815260200183838082843760009201919091525050604080516020601f8901819004810282018101909252878152925087915086908190840183828082843760009201919091525061253592505050565b6110a185858080601f0160208091040260200160405190810160405280939291908181526020018383808284376000920191909152506125aa92505050565b6110a9612654565b6110b16126bf565b6110b9612654565b6110c1612732565b8015611108576000805461ff0019169055604051600181527f7f26b83ff96e1f2b6a682f133852f6798a09c465da95921460cefb3847402498906020015b60405180910390a15b5050505050565b6001600160a01b037f000000000000000000000000000000000000000000000000000000000000000016300361119c5760405162461bcd60e51b815260206004820152602c60248201527f46756e6374696f6e206d7573742062652063616c6c6564207468726f7567682060448201526b19195b1959d85d1958d85b1b60a21b6064820152608401610aaa565b7f00000000000000000000000000000000000000000000000000000000000000006001600160a01b03166111f77f360894a13ba1a3210667c828492db98dca3e2076cc3735a920a3ca505d382bbc546001600160a01b031690565b6001600160a01b0316146112625760405162461bcd60e51b815260206004820152602c60248201527f46756e6374696f6e206d7573742062652063616c6c6564207468726f7567682060448201526b6163746976652070726f787960a01b6064820152608401610aaa565b610d8182826001612287565b6000606061127e86868686610d85565b915060405160203d0181016040523d81523d6000602083013e8091505094509492505050565b6000306001600160a01b037f000000000000000000000000000000000000000000000000000000000000000016146113445760405162461bcd60e51b815260206004820152603860248201527f555550535570677261646561626c653a206d757374206e6f742062652063616c60448201527f6c6564207468726f7567682064656c656761746563616c6c00000000000000006064820152608401610aaa565b507f360894a13ba1a3210667c828492db98dca3e2076cc3735a920a3ca505d382bbc90565b610cc233826127a5565b60003360011480159061139d5750336000908152600160205260409020546001600160a01b031615155b9050600081611431576000805460405163b700961360e01b815233600482015230602482015291356001600160e01b03191660448301526201000090046001600160a01b03169063b700961390606401602060405180830381865afa15801561140a573d6000803e3d6000fd5b505050506040513d601f19601f8201168201806040525081019061142e9190614006565b90505b818061143a5750805b6114925760405162461bcd60e51b8152602060048201526024808201527f4e6f7420617574686f72697a656420746f2063616c6c20746869732066756e636044820152633a34b7b760e11b6064820152608401610aaa565b610af08361281f565b6001600160a01b038116600090815260ce6020526040812054610b3e90612970565b6114c56129f0565b6114cf6000612a4a565b565b6001600160a01b0381166000908152609a6020526040812054610b3e565b60004382106115405760405162461bcd60e51b815260206004820152601f60248201527f4552433230566f7465733a20626c6f636b206e6f7420796574206d696e6564006044820152606401610aaa565b610b3e60cf83612427565b6115548361165e565b8211156115a35760405162461bcd60e51b815260206004820152601460248201527f496e73756666696369656e742062616c616e63650000000000000000000000006044820152606401610aaa565b6001600160a01b038316600090815261019560209081526040808320848452909152812080548492906115d790849061403e565b90915550506001600160a01b038316600090815260ce60205260408120819061160390612a9c86612aa8565b604080516001600160a01b03891681526020810184905290810182905291935091507fe2756637b68fd43dabc347034978bf254ea9bb71319f31dc571295c540939a4d906060016110ff565b6060603880546108f490613fd2565b6001600160a01b038116600090815260ce602052604081205480156116d2576001600160a01b038316600090815260ce602052604090206116a0600183614056565b815481106116b0576116b061406d565b60009182526020909120015464010000000090046001600160e01b03166116d5565b60005b6001600160e01b03169392505050565b610d818282612c21565b3360008181526035602090815260408083206001600160a01b03871684529091528120549091908381101561178c5760405162461bcd60e51b815260206004820152602560248201527f45524332303a2064656372656173656420616c6c6f77616e63652062656c6f7760448201527f207a65726f0000000000000000000000000000000000000000000000000000006064820152608401610aaa565b6117998286868403611e97565b506001949350505050565b60405162461bcd60e51b815260206004820152601160248201527f46756e6374696f6e2064697361626c65640000000000000000000000000000006044820152600090606401610aaa565b8342111561183f5760405162461bcd60e51b815260206004820152601d60248201527f4552433230566f7465733a207369676e617475726520657870697265640000006044820152606401610aaa565b604080517fe48329057bfd03d55e49b547132e39cffd9c1820ad7b9d4c5307691425d15adf60208201526001600160a01b0388169181019190915260608101869052608081018590526000906118b9906118b19060a00160405160208183030381529060405280519060200120612c2b565b858585612c94565b90506118c481612cbc565b86146119125760405162461bcd60e51b815260206004820152601960248201527f4552433230566f7465733a20696e76616c6964206e6f6e6365000000000000006044820152606401610aaa565b61191c81886127a5565b50505050505050565b606060008267ffffffffffffffff81111561194257611942613bac565b60405190808252806020026020018201604052801561196b578160200160208202803683370190505b506001600160a01b0380861660009081526001602052604081205492945091165b6001600160a01b038116158015906119ae57506001600160a01b038116600114155b80156119b957508482105b15611a1157808483815181106119d1576119d161406d565b6001600160a01b03928316602091820292909201810191909152918116600090815260019092526040909120541681611a0981614083565b92505061198c565b908352919491935090915050565b83421115611a6f5760405162461bcd60e51b815260206004820152601d60248201527f45524332305065726d69743a206578706972656420646561646c696e650000006044820152606401610aaa565b60007f6e71edae12b1b97f4d1f60370fef10105fa2faae0126114a169c64845d6126c9888888611a9e8c612cbc565b6040805160208101969096526001600160a01b0394851690860152929091166060840152608083015260a082015260c0810186905260e0016040516020818303038152906040528051906020012090506000611af982612c2b565b90506000611b0982878787612c94565b9050896001600160a01b0316816001600160a01b031614611b6c5760405162461bcd60e51b815260206004820152601e60248201527f45524332305065726d69743a20696e76616c6964207369676e617475726500006044820152606401610aaa565b611b778a8a8a611e97565b50505050505050505050565b600033600114801590611bad5750336000908152600160205260409020546001600160a01b031615155b9050600081611c41576000805460405163b700961360e01b815233600482015230602482015291356001600160e01b03191660448301526201000090046001600160a01b03169063b700961390606401602060405180830381865afa158015611c1a573d6000803e3d6000fd5b505050506040513d601f19601f82011682018060405250810190611c3e9190614006565b90505b8180611c4a5750805b611ca25760405162461bcd60e51b8152602060048201526024808201527f4e6f7420617574686f72697a656420746f2063616c6c20746869732066756e636044820152633a34b7b760e11b6064820152608401610aaa565b611cac8484612ce4565b50505050565b60408051808201909152600080825260208201526001600160a01b038316600090815260ce60205260409020805463ffffffff8416908110611cf657611cf661406d565b60009182526020918290206040805180820190915291015463ffffffff8116825264010000000090046001600160e01b0316918101919091529392505050565b611d3e6129f0565b6001600160a01b038116611dba5760405162461bcd60e51b815260206004820152602660248201527f4f776e61626c653a206e6577206f776e657220697320746865207a65726f206160448201527f64647265737300000000000000000000000000000000000000000000000000006064820152608401610aaa565b610cc281612a4a565b6001600160a01b038316600090815261019560209081526040808320848452909152902054821115611e375760405162461bcd60e51b815260206004820152601960248201527f496e73756666696369656e74206c6f636b656420766f746573000000000000006044820152606401610aaa565b6001600160a01b03831660009081526101956020908152604080832084845290915281208054849290611e6b908490614056565b90915550506001600160a01b038316600090815260ce60205260408120819061160390612e2286612aa8565b6001600160a01b038316611f125760405162461bcd60e51b8152602060048201526024808201527f45524332303a20617070726f76652066726f6d20746865207a65726f2061646460448201527f72657373000000000000000000000000000000000000000000000000000000006064820152608401610aaa565b6001600160a01b038216611f8e5760405162461bcd60e51b815260206004820152602260248201527f45524332303a20617070726f766520746f20746865207a65726f20616464726560448201527f73730000000000000000000000000000000000000000000000000000000000006064820152608401610aaa565b6001600160a01b0383811660008181526035602090815260408083209487168084529482529182902085905590518481527f8c5be1e5ebec7d5bd14f71427d1e84f3dd0314c0f7b2291e5b200ac8c7c3b925910160405180910390a3505050565b6001600160a01b03831661206b5760405162461bcd60e51b815260206004820152602560248201527f45524332303a207472616e736665722066726f6d20746865207a65726f20616460448201527f64726573730000000000000000000000000000000000000000000000000000006064820152608401610aaa565b6001600160a01b0382166120e75760405162461bcd60e51b815260206004820152602360248201527f45524332303a207472616e7366657220746f20746865207a65726f206164647260448201527f65737300000000000000000000000000000000000000000000000000000000006064820152608401610aaa565b6001600160a01b038316600090815260346020526040902054818110156121765760405162461bcd60e51b815260206004820152602660248201527f45524332303a207472616e7366657220616d6f756e742065786365656473206260448201527f616c616e636500000000000000000000000000000000000000000000000000006064820152608401610aaa565b6001600160a01b038085166000908152603460205260408082208585039055918516815290812080548492906121ad90849061403e565b92505081905550826001600160a01b0316846001600160a01b03167fddf252ad1be2c89b69c2b068fc378daa952ba7f163c4a11628f55a4df523b3ef846040516121f991815260200190565b60405180910390a3611cac848484612e2e565b6000610b4e7f8b73c3c69bb8fe3d512ecc4cf759cc79239f7b179b0ffacaa9a75d522b39400f61223b60665490565b6067546040805160208101859052908101839052606081018290524660808201523060a082015260009060c0016040516020818303038152906040528051906020012090509392505050565b7f4910fdfa16fed3260ed0e7147f7cc6da11a60208b5b9406d12a635614ffd91435460ff16156122ba57610af083612e39565b826001600160a01b03166352d1902d6040518163ffffffff1660e01b8152600401602060405180830381865afa925050508015612314575060408051601f3d908101601f191682019092526123119181019061409c565b60015b6123865760405162461bcd60e51b815260206004820152602e60248201527f45524331393637557067726164653a206e657720696d706c656d656e7461746960448201527f6f6e206973206e6f7420555550530000000000000000000000000000000000006064820152608401610aaa565b7f360894a13ba1a3210667c828492db98dca3e2076cc3735a920a3ca505d382bbc811461241b5760405162461bcd60e51b815260206004820152602960248201527f45524331393637557067726164653a20756e737570706f727465642070726f7860448201527f6961626c655555494400000000000000000000000000000000000000000000006064820152608401610aaa565b50610af0838383612ef7565b8154600090815b8181101561248b5760006124428284612f1c565b9050848682815481106124575761245761406d565b60009182526020909120015463ffffffff16111561247757809250612485565b61248281600161403e565b91505b5061242e565b81156124cf578461249d600184614056565b815481106124ad576124ad61406d565b60009182526020909120015464010000000090046001600160e01b03166124d2565b60005b6001600160e01b031695945050505050565b610d818282612f37565b60006001836001811115612504576125046140b5565b0361251c576000808551602087018986f4905061252c565b600080855160208701888a87f190505b95945050505050565b600054610100900460ff166125a05760405162461bcd60e51b815260206004820152602b60248201527f496e697469616c697a61626c653a20636f6e7472616374206973206e6f74206960448201526a6e697469616c697a696e6760a81b6064820152608401610aaa565b610d818282612fce565b600054610100900460ff166126155760405162461bcd60e51b815260206004820152602b60248201527f496e697469616c697a61626c653a20636f6e7472616374206973206e6f74206960448201526a6e697469616c697a696e6760a81b6064820152608401610aaa565b610cc2816040518060400160405280600181526020017f3100000000000000000000000000000000000000000000000000000000000000815250613052565b600054610100900460ff166114cf5760405162461bcd60e51b815260206004820152602b60248201527f496e697469616c697a61626c653a20636f6e7472616374206973206e6f74206960448201526a6e697469616c697a696e6760a81b6064820152608401610aaa565b600054610100900460ff1661272a5760405162461bcd60e51b815260206004820152602b60248201527f496e697469616c697a61626c653a20636f6e7472616374206973206e6f74206960448201526a6e697469616c697a696e6760a81b6064820152608401610aaa565b6114cf6130d7565b600054610100900460ff1661279d5760405162461bcd60e51b815260206004820152602b60248201527f496e697469616c697a61626c653a20636f6e7472616374206973206e6f74206960448201526a6e697469616c697a696e6760a81b6064820152608401610aaa565b6114cf61314b565b6001600160a01b03828116600081815260cd6020818152604080842080546034845282862054949093528787166001600160a01b03198416811790915590519190951694919391928592917f3134e8a2e6d97e929a7e54011ea5485d7d196dd5f0ba4d4ef95803e8e3fc257f9190a4611cac82848361320d565b6001600160a01b0381161580159061284157506001600160a01b038116600114155b6128755760405162461bcd60e51b8152602060048201526005602482015264475331303160d81b6044820152606401610aaa565b6001600160a01b0381811660009081526001602052604090205416156128dd5760405162461bcd60e51b815260206004820152600560248201527f47533130320000000000000000000000000000000000000000000000000000006044820152606401610aaa565b600160208181527fcc69885fda6bcc1a4ace058b4a62bf5e179ea78fd58a1ccd71c22cc9b688792f80546001600160a01b03858116600081815260408082208054949095166001600160a01b031994851617909455959095528254168417909155519182527fecdf3a3effea5783a3c4c2140e677577666428d44ed9d474a0b3a4c9943f8440910160405180910390a150565b600063ffffffff8211156129ec5760405162461bcd60e51b815260206004820152602660248201527f53616665436173743a2076616c756520646f65736e27742066697420696e203360448201527f32206269747300000000000000000000000000000000000000000000000000006064820152608401610aaa565b5090565b60ff546001600160a01b031633146114cf5760405162461bcd60e51b815260206004820181905260248201527f4f776e61626c653a2063616c6c6572206973206e6f7420746865206f776e65726044820152606401610aaa565b60ff80546001600160a01b038381166001600160a01b0319831681179093556040519116919082907f8be0079c531659141344cd1fd0a4f28419497f9722a3daafe3b4186f6b6457e090600090a35050565b6000610b028284614056565b825460009081908015612af35785612ac1600183614056565b81548110612ad157612ad161406d565b60009182526020909120015464010000000090046001600160e01b0316612af6565b60005b6001600160e01b03169250612b0f83858763ffffffff16565b9150600081118015612b4d57504386612b29600184614056565b81548110612b3957612b3961406d565b60009182526020909120015463ffffffff16145b15612bad57612b5b8261334a565b86612b67600184614056565b81548110612b7757612b7761406d565b9060005260206000200160000160046101000a8154816001600160e01b0302191690836001600160e01b03160217905550612c18565b856040518060400160405280612bc243612970565b63ffffffff168152602001612bd68561334a565b6001600160e01b0390811690915282546001810184556000938452602093849020835194909301519091166401000000000263ffffffff909316929092179101555b50935093915050565b610d8182826133c9565b6000610b3e612c3861220c565b836040517f19010000000000000000000000000000000000000000000000000000000000006020820152602281018390526042810182905260009060620160405160208183030381529060405280519060200120905092915050565b6000806000612ca5878787876133e1565b91509150612cb2816134ce565b5095945050505050565b6001600160a01b0381166000908152609a602052604090208054600181018255905b50919050565b6001600160a01b03811615801590612d0657506001600160a01b038116600114155b612d3a5760405162461bcd60e51b8152602060048201526005602482015264475331303160d81b6044820152606401610aaa565b6001600160a01b03828116600090815260016020526040902054811690821614612da65760405162461bcd60e51b815260206004820152600560248201527f47533130330000000000000000000000000000000000000000000000000000006044820152606401610aaa565b6001600160a01b038181166000818152600160209081526040808320805488871685528285208054919097166001600160a01b03199182161790965592849052825490941690915591519081527faab4fa2b463f581b2b32cb3b7e3b704b9ce37cc209b5fb4d77e593ace4054276910160405180910390a15050565b6000610b02828461403e565b610af0838383613684565b6001600160a01b0381163b612eb65760405162461bcd60e51b815260206004820152602d60248201527f455243313936373a206e657720696d706c656d656e746174696f6e206973206e60448201527f6f74206120636f6e7472616374000000000000000000000000000000000000006064820152608401610aaa565b7f360894a13ba1a3210667c828492db98dca3e2076cc3735a920a3ca505d382bbc80546001600160a01b0319166001600160a01b0392909216919091179055565b612f00836136b6565b600082511180612f0d5750805b15610af057611cac83836136f6565b6000612f2b60028484186140cb565b610b029084841661403e565b612f4182826137f8565b6036546001600160e01b031015612fc05760405162461bcd60e51b815260206004820152603060248201527f4552433230566f7465733a20746f74616c20737570706c79207269736b73206f60448201527f766572666c6f77696e6720766f746573000000000000000000000000000000006064820152608401610aaa565b611cac60cf612e2283612aa8565b600054610100900460ff166130395760405162461bcd60e51b815260206004820152602b60248201527f496e697469616c697a61626c653a20636f6e7472616374206973206e6f74206960448201526a6e697469616c697a696e6760a81b6064820152608401610aaa565b6037613045838261413b565b506038610af0828261413b565b600054610100900460ff166130bd5760405162461bcd60e51b815260206004820152602b60248201527f496e697469616c697a61626c653a20636f6e7472616374206973206e6f74206960448201526a6e697469616c697a696e6760a81b6064820152608401610aaa565b815160209283012081519190920120606691909155606755565b600054610100900460ff166131425760405162461bcd60e51b815260206004820152602b60248201527f496e697469616c697a61626c653a20636f6e7472616374206973206e6f74206960448201526a6e697469616c697a696e6760a81b6064820152608401610aaa565b6114cf33612a4a565b600160008190526020527fcc69885fda6bcc1a4ace058b4a62bf5e179ea78fd58a1ccd71c22cc9b688792f546001600160a01b0316156131cd5760405162461bcd60e51b815260206004820152601b60248201527f4d6f64756c657320616c726561647920696e697469616c697a656400000000006044820152606401610aaa565b6001600081905260208190527fcc69885fda6bcc1a4ace058b4a62bf5e179ea78fd58a1ccd71c22cc9b688792f80546001600160a01b0319169091179055565b816001600160a01b0316836001600160a01b03161415801561322f5750600081115b15610af0576001600160a01b038316156132bd576001600160a01b038316600090815260ce60205260408120819061326a90612a9c85612aa8565b91509150846001600160a01b03167fdec2bacdd2f05b59de34da9b523dff8be42e5e38e818c82fdb0bae774387a72483836040516132b2929190918252602082015260400190565b60405180910390a250505b6001600160a01b03821615610af0576001600160a01b038216600090815260ce6020526040812081906132f390612e2285612aa8565b91509150836001600160a01b03167fdec2bacdd2f05b59de34da9b523dff8be42e5e38e818c82fdb0bae774387a724838360405161333b929190918252602082015260400190565b60405180910390a25050505050565b60006001600160e01b038211156129ec5760405162461bcd60e51b815260206004820152602760248201527f53616665436173743a2076616c756520646f65736e27742066697420696e203260448201527f32342062697473000000000000000000000000000000000000000000000000006064820152608401610aaa565b6133d382826138df565b611cac60cf612a9c83612aa8565b6000807f7fffffffffffffffffffffffffffffff5d576e7357a4501ddfe92f46681b20a083111561341857506000905060036134c5565b8460ff16601b1415801561343057508460ff16601c14155b1561344157506000905060046134c5565b6040805160008082526020820180845289905260ff881692820192909252606081018690526080810185905260019060a0016020604051602081039080840390855afa158015613495573d6000803e3d6000fd5b5050604051601f1901519150506001600160a01b0381166134be576000600192509250506134c5565b9150600090505b94509492505050565b60008160048111156134e2576134e26140b5565b036134ea5750565b60018160048111156134fe576134fe6140b5565b0361354b5760405162461bcd60e51b815260206004820152601860248201527f45434453413a20696e76616c6964207369676e617475726500000000000000006044820152606401610aaa565b600281600481111561355f5761355f6140b5565b036135ac5760405162461bcd60e51b815260206004820152601f60248201527f45434453413a20696e76616c6964207369676e6174757265206c656e677468006044820152606401610aaa565b60038160048111156135c0576135c06140b5565b036136185760405162461bcd60e51b815260206004820152602260248201527f45434453413a20696e76616c6964207369676e6174757265202773272076616c604482015261756560f01b6064820152608401610aaa565b600481600481111561362c5761362c6140b5565b03610cc25760405162461bcd60e51b815260206004820152602260248201527f45434453413a20696e76616c6964207369676e6174757265202776272076616c604482015261756560f01b6064820152608401610aaa565b6001600160a01b03838116600090815260cd6020526040808220548584168352912054610af09291821691168361320d565b6136bf81612e39565b6040516001600160a01b038216907fbc7cd75a20ee27fd9adebab32041f755214dbc6bffa90cc0225b39da2e5c2d3b90600090a250565b60606001600160a01b0383163b6137755760405162461bcd60e51b815260206004820152602660248201527f416464726573733a2064656c65676174652063616c6c20746f206e6f6e2d636f60448201527f6e747261637400000000000000000000000000000000000000000000000000006064820152608401610aaa565b600080846001600160a01b03168460405161379091906141fb565b600060405180830381855af49150503d80600081146137cb576040519150601f19603f3d011682016040523d82523d6000602084013e6137d0565b606091505b509150915061252c828260405180606001604052806027815260200161421860279139613a6b565b6001600160a01b03821661384e5760405162461bcd60e51b815260206004820152601f60248201527f45524332303a206d696e7420746f20746865207a65726f2061646472657373006044820152606401610aaa565b8060366000828254613860919061403e565b90915550506001600160a01b0382166000908152603460205260408120805483929061388d90849061403e565b90915550506040518181526001600160a01b038316906000907fddf252ad1be2c89b69c2b068fc378daa952ba7f163c4a11628f55a4df523b3ef9060200160405180910390a3610d8160008383612e2e565b6001600160a01b03821661395b5760405162461bcd60e51b815260206004820152602160248201527f45524332303a206275726e2066726f6d20746865207a65726f2061646472657360448201527f73000000000000000000000000000000000000000000000000000000000000006064820152608401610aaa565b6001600160a01b038216600090815260346020526040902054818110156139ea5760405162461bcd60e51b815260206004820152602260248201527f45524332303a206275726e20616d6f756e7420657863656564732062616c616e60448201527f63650000000000000000000000000000000000000000000000000000000000006064820152608401610aaa565b6001600160a01b0383166000908152603460205260408120838303905560368054849290613a19908490614056565b90915550506040518281526000906001600160a01b038516907fddf252ad1be2c89b69c2b068fc378daa952ba7f163c4a11628f55a4df523b3ef9060200160405180910390a3610af083600084612e2e565b60608315613a7a575081610b02565b825115613a8a5782518084602001fd5b8160405162461bcd60e51b8152600401610aaa9190613afc565b60005b83811015613abf578181015183820152602001613aa7565b83811115611cac5750506000910152565b60008151808452613ae8816020860160208601613aa4565b601f01601f19169290920160200192915050565b602081526000610b026020830184613ad0565b80356001600160a01b0381168114613b2657600080fd5b919050565b60008060408385031215613b3e57600080fd5b613b4783613b0f565b946020939093013593505050565b600060208284031215613b6757600080fd5b610b0282613b0f565b600080600060608486031215613b8557600080fd5b613b8e84613b0f565b9250613b9c60208501613b0f565b9150604084013590509250925092565b634e487b7160e01b600052604160045260246000fd5b600082601f830112613bd357600080fd5b813567ffffffffffffffff80821115613bee57613bee613bac565b604051601f8301601f19908116603f01168101908282118183101715613c1657613c16613bac565b81604052838152866020858801011115613c2f57600080fd5b836020870160208301376000602085830101528094505050505092915050565b60008060008060808587031215613c6557600080fd5b613c6e85613b0f565b935060208501359250604085013567ffffffffffffffff811115613c9157600080fd5b613c9d87828801613bc2565b925050606085013560028110613cb257600080fd5b939692955090935050565b60008083601f840112613ccf57600080fd5b50813567ffffffffffffffff811115613ce757600080fd5b602083019150836020828501011115613cff57600080fd5b9250929050565b60008060008060408587031215613d1c57600080fd5b843567ffffffffffffffff80821115613d3457600080fd5b613d4088838901613cbd565b90965094506020870135915080821115613d5957600080fd5b50613d6687828801613cbd565b95989497509550505050565b60008060408385031215613d8557600080fd5b613d8e83613b0f565b9150602083013567ffffffffffffffff811115613daa57600080fd5b613db685828601613bc2565b9150509250929050565b8215158152604060208201526000613ddb6040830184613ad0565b949350505050565b600060208284031215613df557600080fd5b5035919050565b600080600060608486031215613e1157600080fd5b613e1a84613b0f565b95602085013595506040909401359392505050565b803560ff81168114613b2657600080fd5b60008060008060008060c08789031215613e5957600080fd5b613e6287613b0f565b95506020870135945060408701359350613e7e60608801613e2f565b92506080870135915060a087013590509295509295509295565b604080825283519082018190526000906020906060840190828701845b82811015613eda5781516001600160a01b031684529284019290840190600101613eb5565b5050506001600160a01b039490941692019190915250919050565b600080600080600080600060e0888a031215613f1057600080fd5b613f1988613b0f565b9650613f2760208901613b0f565b95506040880135945060608801359350613f4360808901613e2f565b925060a0880135915060c0880135905092959891949750929550565b60008060408385031215613f7257600080fd5b613f7b83613b0f565b9150613f8960208401613b0f565b90509250929050565b60008060408385031215613fa557600080fd5b613fae83613b0f565b9150602083013563ffffffff81168114613fc757600080fd5b809150509250929050565b600181811c90821680613fe657607f821691505b602082108103612cde57634e487b7160e01b600052602260045260246000fd5b60006020828403121561401857600080fd5b81518015158114610b0257600080fd5b634e487b7160e01b600052601160045260246000fd5b6000821982111561405157614051614028565b500190565b60008282101561406857614068614028565b500390565b634e487b7160e01b600052603260045260246000fd5b60006001820161409557614095614028565b5060010190565b6000602082840312156140ae57600080fd5b5051919050565b634e487b7160e01b600052602160045260246000fd5b6000826140e857634e487b7160e01b600052601260045260246000fd5b500490565b601f821115610af057600081815260208120601f850160051c810160208610156141145750805b601f850160051c820191505b8181101561413357828155600101614120565b505050505050565b815167ffffffffffffffff81111561415557614155613bac565b614169816141638454613fd2565b846140ed565b602080601f83116001811461419e57600084156141865750858301515b600019600386901b1c1916600185901b178555614133565b600085815260208120601f198616915b828110156141cd578886015182559484019460019091019084016141ae565b50858210156141eb5787850151600019600388901b60f8161c191681555b5050505050600190811b01905550565b6000825161420d818460208701613aa4565b919091019291505056fe416464726573733a206c6f772d6c6576656c2064656c65676174652063616c6c206661696c6564a2646970667358221220a0acee7e4f27a66dfb7cd06c2bba33ae078b89e1950b84f01d11a8b32d6429b464736f6c634300080f0033",
  "linkReferences": {},
  "deployedLinkReferences": {}
}