{
  "_format": "hh-sol-artifact-1",
  "contractName": "DSAuth",
  "sourceName": "contracts/avatars/permissionReg/DAppHub/DSAuth.sol",
  "abi": [
    {
      "inputs": [],
      "stateMutability": "nonpayable",
      "type": "constructor"
    },
    {
      "anonymous": false,
      "inputs": [
        {
          "indexed": true,
          "internalType": "address",
          "name": "authority",
          "type": "address"
        }
      ],
      "name": "LogSetAuthority",
      "type": "event"
    },
    {
      "anonymous": false,
      "inputs": [
        {
          "indexed": true,
          "internalType": "address",
          "name": "owner",
          "type": "address"
        }
      ],
      "name": "LogSetOwner",
      "type": "event"
    },
    {
      "inputs": [],
      "name": "authority",
      "outputs": [
        {
          "internalType": "contract DSAuthority",
          "name": "",
          "type": "address"
        }
      ],
      "stateMutability": "view",
      "type": "function"
    },
    {
      "inputs": [],
      "name": "owner",
      "outputs": [
        {
          "internalType": "address",
          "name": "",
          "type": "address"
        }
      ],
      "stateMutability": "view",
      "type": "function"
    },
    {
      "inputs": [
        {
          "internalType": "contract DSAuthority",
          "name": "authority_",
          "type": "address"
        }
      ],
      "name": "setAuthority",
      "outputs": [],
      "stateMutability": "nonpayable",
      "type": "function"
    },
    {
      "inputs": [
        {
          "internalType": "address",
          "name": "owner_",
          "type": "address"
        }
      ],
      "name": "setOwner",
      "outputs": [],
      "stateMutability": "nonpayable",
      "type": "function"
    }
  ],
  "bytecode": "0x608060405234801561001057600080fd5b50600180546001600160a01b031916339081179091556040517fce241d7ca1f669fee44b6fc00b8eba2df3bb514eed0f6f668f8f89096e81ed9490600090a26103fc8061005e6000396000f3fe608060405234801561001057600080fd5b506004361061004c5760003560e01c806313af4035146100515780637a9e5e4b146100665780638da5cb5b14610079578063bf7e214f146100a2575b600080fd5b61006461005f366004610380565b6100b5565b005b610064610074366004610380565b61018b565b6001546001600160a01b03165b6040516001600160a01b03909116815260200160405180910390f35b600054610086906001600160a01b031681565b6100e3336000357fffffffff000000000000000000000000000000000000000000000000000000001661025a565b6101345760405162461bcd60e51b815260206004820152601460248201527f64732d617574682d756e617574686f72697a656400000000000000000000000060448201526064015b60405180910390fd5b6001805473ffffffffffffffffffffffffffffffffffffffff19166001600160a01b0383169081179091556040517fce241d7ca1f669fee44b6fc00b8eba2df3bb514eed0f6f668f8f89096e81ed9490600090a250565b6101b9336000357fffffffff000000000000000000000000000000000000000000000000000000001661025a565b6102055760405162461bcd60e51b815260206004820152601460248201527f64732d617574682d756e617574686f72697a6564000000000000000000000000604482015260640161012b565b6000805473ffffffffffffffffffffffffffffffffffffffff19166001600160a01b038316908117825560405190917f1abebea81bfa2637f28358c371278fb15ede7ea8dd28d2e03b112ff6d936ada491a250565b6000306001600160a01b0384160361027457506001610362565b6001546001600160a01b039081169084160361029257506001610362565b6000546001600160a01b03166102aa57506000610362565b6000546040517fb70096130000000000000000000000000000000000000000000000000000000081526001600160a01b0385811660048301523060248301527fffffffff00000000000000000000000000000000000000000000000000000000851660448301529091169063b700961390606401602060405180830381865afa15801561033b573d6000803e3d6000fd5b505050506040513d601f19601f8201168201806040525081019061035f91906103a4565b90505b92915050565b6001600160a01b038116811461037d57600080fd5b50565b60006020828403121561039257600080fd5b813561039d81610368565b9392505050565b6000602082840312156103b657600080fd5b8151801515811461039d57600080fdfea2646970667358221220f685ff22b7997b215ea91185f3e2792ca24f53897d628ac3618470406a5b60a064736f6c634300080f0033",
  "linkReferences": {},
  "deployedLinkReferences": {}
}