{
  "_format": "hh-sol-artifact-1",
  "contractName": "wrapperFactoryBase",
  "sourceName": "contracts/avatars/wrapperFactory/wrapperFactoryBase.sol",
  "abi": [
    {
      "anonymous": false,
      "inputs": [
        {
          "indexed": false,
          "internalType": "address",
          "name": "module",
          "type": "address"
        }
      ],
      "name": "DisabledModule",
      "type": "event"
    },
    {
      "anonymous": false,
      "inputs": [
        {
          "indexed": false,
          "internalType": "address",
          "name": "module",
          "type": "address"
        }
      ],
      "name": "EnabledModule",
      "type": "event"
    },
    {
      "anonymous": false,
      "inputs": [
        {
          "indexed": true,
          "internalType": "address",
          "name": "module",
          "type": "address"
        }
      ],
      "name": "ExecutionFromModuleFailure",
      "type": "event"
    },
    {
      "anonymous": false,
      "inputs": [
        {
          "indexed": true,
          "internalType": "address",
          "name": "module",
          "type": "address"
        }
      ],
      "name": "ExecutionFromModuleSuccess",
      "type": "event"
    },
    {
      "anonymous": false,
      "inputs": [
        {
          "indexed": false,
          "internalType": "uint8",
          "name": "version",
          "type": "uint8"
        }
      ],
      "name": "Initialized",
      "type": "event"
    },
    {
      "anonymous": false,
      "inputs": [
        {
          "indexed": false,
          "internalType": "contract springProxy",
          "name": "proxy",
          "type": "address"
        },
        {
          "indexed": false,
          "internalType": "address",
          "name": "singleton",
          "type": "address"
        }
      ],
      "name": "ProxyCreation",
      "type": "event"
    },
    {
      "anonymous": false,
      "inputs": [
        {
          "indexed": false,
          "internalType": "address",
          "name": "safeWrapper",
          "type": "address"
        },
        {
          "indexed": false,
          "internalType": "address",
          "name": "safe",
          "type": "address"
        }
      ],
      "name": "createdSafeWrapper",
      "type": "event"
    },
    {
      "inputs": [
        {
          "internalType": "address",
          "name": "module",
          "type": "address"
        },
        {
          "internalType": "address",
          "name": "avatar",
          "type": "address"
        },
        {
          "internalType": "uint256",
          "name": "budget",
          "type": "uint256"
        },
        {
          "internalType": "uint256",
          "name": "interval",
          "type": "uint256"
        },
        {
          "internalType": "address",
          "name": "mod",
          "type": "address"
        },
        {
          "internalType": "uint256",
          "name": "saltNonce",
          "type": "uint256"
        },
        {
          "internalType": "address[]",
          "name": "owners",
          "type": "address[]"
        },
        {
          "internalType": "uint8",
          "name": "threshold",
          "type": "uint8"
        },
        {
          "internalType": "string",
          "name": "name",
          "type": "string"
        },
        {
          "internalType": "string",
          "name": "sector",
          "type": "string"
        }
      ],
      "name": "createSafeWrapperWithBudget",
      "outputs": [],
      "stateMutability": "nonpayable",
      "type": "function"
    },
    {
      "inputs": [
        {
          "internalType": "address",
          "name": "_context",
          "type": "address"
        }
      ],
      "name": "delegateSetup",
      "outputs": [],
      "stateMutability": "nonpayable",
      "type": "function"
    },
    {
      "inputs": [
        {
          "internalType": "address",
          "name": "prevModule",
          "type": "address"
        },
        {
          "internalType": "address",
          "name": "module",
          "type": "address"
        }
      ],
      "name": "disableModule",
      "outputs": [],
      "stateMutability": "nonpayable",
      "type": "function"
    },
    {
      "inputs": [
        {
          "internalType": "address",
          "name": "module",
          "type": "address"
        }
      ],
      "name": "enableModule",
      "outputs": [],
      "stateMutability": "nonpayable",
      "type": "function"
    },
    {
      "inputs": [
        {
          "internalType": "address",
          "name": "to",
          "type": "address"
        },
        {
          "internalType": "uint256",
          "name": "value",
          "type": "uint256"
        },
        {
          "internalType": "bytes",
          "name": "data",
          "type": "bytes"
        },
        {
          "internalType": "enum Enum.Operation",
          "name": "operation",
          "type": "uint8"
        }
      ],
      "name": "execTransactionFromModule",
      "outputs": [
        {
          "internalType": "bool",
          "name": "success",
          "type": "bool"
        }
      ],
      "stateMutability": "nonpayable",
      "type": "function"
    },
    {
      "inputs": [
        {
          "internalType": "address",
          "name": "to",
          "type": "address"
        },
        {
          "internalType": "uint256",
          "name": "value",
          "type": "uint256"
        },
        {
          "internalType": "bytes",
          "name": "data",
          "type": "bytes"
        },
        {
          "internalType": "enum Enum.Operation",
          "name": "operation",
          "type": "uint8"
        }
      ],
      "name": "execTransactionFromModuleReturnData",
      "outputs": [
        {
          "internalType": "bool",
          "name": "success",
          "type": "bool"
        },
        {
          "internalType": "bytes",
          "name": "returnData",
          "type": "bytes"
        }
      ],
      "stateMutability": "nonpayable",
      "type": "function"
    },
    {
      "inputs": [
        {
          "internalType": "address",
          "name": "start",
          "type": "address"
        },
        {
          "internalType": "uint256",
          "name": "pageSize",
          "type": "uint256"
        }
      ],
      "name": "getModulesPaginated",
      "outputs": [
        {
          "internalType": "address[]",
          "name": "array",
          "type": "address[]"
        },
        {
          "internalType": "address",
          "name": "next",
          "type": "address"
        }
      ],
      "stateMutability": "view",
      "type": "function"
    },
    {
      "inputs": [
        {
          "internalType": "bytes",
          "name": "initializeParams",
          "type": "bytes"
        }
      ],
      "name": "initialize",
      "outputs": [],
      "stateMutability": "nonpayable",
      "type": "function"
    },
    {
      "inputs": [
        {
          "internalType": "address",
          "name": "module",
          "type": "address"
        }
      ],
      "name": "isModuleEnabled",
      "outputs": [
        {
          "internalType": "bool",
          "name": "",
          "type": "bool"
        }
      ],
      "stateMutability": "view",
      "type": "function"
    },
    {
      "inputs": [],
      "name": "permissionRegistry",
      "outputs": [
        {
          "internalType": "address",
          "name": "",
          "type": "address"
        }
      ],
      "stateMutability": "view",
      "type": "function"
    },
    {
      "inputs": [],
      "name": "proxyCreationCode",
      "outputs": [
        {
          "internalType": "bytes",
          "name": "",
          "type": "bytes"
        }
      ],
      "stateMutability": "pure",
      "type": "function"
    },
    {
      "inputs": [],
      "name": "proxyRuntimeCode",
      "outputs": [
        {
          "internalType": "bytes",
          "name": "",
          "type": "bytes"
        }
      ],
      "stateMutability": "pure",
      "type": "function"
    },
    {
      "inputs": [
        {
          "internalType": "address",
          "name": "_permissionReg",
          "type": "address"
        }
      ],
      "name": "setPermissionReg",
      "outputs": [],
      "stateMutability": "nonpayable",
      "type": "function"
    }
  ],
  "bytecode": "0x60c06040526002608090815261060f60f31b60a052600390620000239082620000dd565b503480156200003157600080fd5b50620001a9565b634e487b7160e01b600052604160045260246000fd5b600181811c908216806200006357607f821691505b6020821081036200008457634e487b7160e01b600052602260045260246000fd5b50919050565b601f821115620000d857600081815260208120601f850160051c81016020861015620000b35750805b601f850160051c820191505b81811015620000d457828155600101620000bf565b5050505b505050565b81516001600160401b03811115620000f957620000f962000038565b62000111816200010a84546200004e565b846200008a565b602080601f831160018114620001495760008415620001305750858301515b600019600386901b1c1916600185901b178555620000d4565b600085815260208120601f198616915b828110156200017a5788860151825594840194600190910190840162000159565b5085821015620001995787850151600019600388901b60f8161c191681555b5050505050600190811b01905550565b612a3d80620001b96000396000f3fe60806040523480156200001157600080fd5b5060043610620000f15760003560e01c806353e5d9351162000097578063addacc0f116200006e578063addacc0f14620001ee578063b55a5c1c14620001f8578063cc2f8452146200022b578063e009cfde146200025257600080fd5b806353e5d93514620001a7578063610b592514620001c057806374d4f6d014620001d757600080fd5b8063439fab9111620000cc578063439fab911462000152578063468721a714620001695780635229073f146200018057600080fd5b8063113c17de14620000f65780631a6e8601146200010f5780632d9ad53d1462000126575b600080fd5b6200010d6200010736600462001a40565b62000269565b005b6200010d6200012036600462001b73565b620003d6565b6200013d6200013736600462001a40565b62000521565b60405190151581526020015b60405180910390f35b6200010d6200016336600462001c7b565b6200055d565b6200013d6200017a36600462001cbc565b62000702565b620001976200019136600462001cbc565b620008a9565b6040516200014992919062001d83565b620001b1620008e1565b60405162000149919062001da0565b6200010d620001d136600462001a40565b6200090d565b6200010d620001e836600462001a40565b62000a3f565b620001b162000a9d565b60005462000212906201000090046001600160a01b031681565b6040516001600160a01b03909116815260200162000149565b620002426200023c36600462001db5565b62000ab1565b6040516200014992919062001de4565b6200010d6200026336600462001e43565b62000bb8565b600033600114801590620002945750336000908152600160205260409020546001600160a01b031615155b90506000816200032c576000805460405163b700961360e01b815233600482015230602482015291356001600160e01b03191660448301526201000090046001600160a01b03169063b700961390606401602060405180830381865afa15801562000303573d6000803e3d6000fd5b505050506040513d601f19601f8201168201806040525081019062000329919062001e81565b90505b8180620003365750805b620003945760405162461bcd60e51b8152602060048201526024808201527f4e6f7420617574686f72697a656420746f2063616c6c20746869732066756e636044820152633a34b7b760e11b60648201526084015b60405180910390fd5b600080547fffffffffffffffffffff0000000000000000000000000000000000000000ffff16620100006001600160a01b03861602179055505050565b505050565b600033600114801590620004015750336000908152600160205260409020546001600160a01b031615155b905060008162000499576000805460405163b700961360e01b815233600482015230602482015291356001600160e01b03191660448301526201000090046001600160a01b03169063b700961390606401602060405180830381865afa15801562000470573d6000803e3d6000fd5b505050506040513d601f19601f8201168201806040525081019062000496919062001e81565b90505b8180620004a35750805b620004fd5760405162461bcd60e51b8152602060048201526024808201527f4e6f7420617574686f72697a656420746f2063616c6c20746869732066756e636044820152633a34b7b760e11b60648201526084016200038b565b620005128d8d8d8d8d8d8d8d8d8d8d62000cf1565b50505050505050505050505050565b600060016001600160a01b038316148015906200055757506001600160a01b038281166000908152600160205260409020541615155b92915050565b600054610100900460ff16158080156200057e5750600054600160ff909116105b806200059a5750303b1580156200059a575060005460ff166001145b6200060e5760405162461bcd60e51b815260206004820152602e60248201527f496e697469616c697a61626c653a20636f6e747261637420697320616c72656160448201527f647920696e697469616c697a656400000000000000000000000000000000000060648201526084016200038b565b6000805460ff19166001179055801562000632576000805461ff0019166101001790555b600080600080858060200190518101906200064e919062001ea5565b93509350935093506200066062000e34565b6200066b8162000ebf565b50600480546001600160a01b0394851673ffffffffffffffffffffffffffffffffffffffff19918216179091556005805493851693821693909317909255600680549190931691161790558015620006fe576000805461ff0019169055604051600181527f7f26b83ff96e1f2b6a682f133852f6798a09c465da95921460cefb3847402498906020015b60405180910390a15b5050565b600080336001148015906200072e5750336000908152600160205260409020546001600160a01b031615155b9050600081620007c6576000805460405163b700961360e01b815233600482015230602482015291356001600160e01b03191660448301526201000090046001600160a01b03169063b700961390606401602060405180830381865afa1580156200079d573d6000803e3d6000fd5b505050506040513d601f19601f82011682018060405250810190620007c3919062001e81565b90505b8180620007d05750805b6200082a5760405162461bcd60e51b8152602060048201526024808201527f4e6f7420617574686f72697a656420746f2063616c6c20746869732066756e636044820152633a34b7b760e11b60648201526084016200038b565b62000839878787875a62001022565b92508215620008735760405133907f6895c13664aa4f67288b25d7a21d7aaa34916e355fb9b6fae0a139a9085becb890600090a26200089f565b60405133907facd2c8702804128fdb0db2bb49f6d127dd0181c13fd45dbfe16de0930e2bd37590600090a25b5050949350505050565b60006060620008bb8686868662000702565b915060405160203d0181016040523d81523d6000602083013e8091505094509492505050565b606060405180602001620008f590620019f9565b601f1982820381018352601f90910116604052919050565b600033600114801590620009385750336000908152600160205260409020546001600160a01b031615155b9050600081620009d0576000805460405163b700961360e01b815233600482015230602482015291356001600160e01b03191660448301526201000090046001600160a01b03169063b700961390606401602060405180830381865afa158015620009a7573d6000803e3d6000fd5b505050506040513d601f19601f82011682018060405250810190620009cd919062001e81565b90505b8180620009da5750805b62000a345760405162461bcd60e51b8152602060048201526024808201527f4e6f7420617574686f72697a656420746f2063616c6c20746869732066756e636044820152633a34b7b760e11b60648201526084016200038b565b620003d18362000ebf565b60405163610b592560e01b81526001600160a01b0382166004820152309063610b592590602401600060405180830381600087803b15801562000a8157600080fd5b505af115801562000a96573d6000803e3d6000fd5b5050505050565b606060405180602001620008f59062001a07565b606060008267ffffffffffffffff81111562000ad15762000ad162001ac8565b60405190808252806020026020018201604052801562000afb578160200160208202803683370190505b506001600160a01b0380861660009081526001602052604081205492945091165b6001600160a01b0381161580159062000b3f57506001600160a01b038116600114155b801562000b4b57508482105b1562000baa578084838151811062000b675762000b6762001f02565b6001600160a01b0392831660209182029290920181019190915291811660009081526001909252604090912054168162000ba18162001f18565b92505062000b1c565b908352919491935090915050565b60003360011480159062000be35750336000908152600160205260409020546001600160a01b031615155b905060008162000c7b576000805460405163b700961360e01b815233600482015230602482015291356001600160e01b03191660448301526201000090046001600160a01b03169063b700961390606401602060405180830381865afa15801562000c52573d6000803e3d6000fd5b505050506040513d601f19601f8201168201806040525081019062000c78919062001e81565b90505b818062000c855750805b62000cdf5760405162461bcd60e51b8152602060048201526024808201527f4e6f7420617574686f72697a656420746f2063616c6c20746869732066756e636044820152633a34b7b760e11b60648201526084016200038b565b62000ceb84846200106e565b50505050565b600062000d048787878760ff16620011b8565b9050600080828e868660405160200162000d22949392919062001f40565b604051602081830303815290604052905060007f439fab91f8ccf5be59586b9cf7bb7786c67a661a95ce1cfc146c1ed62922ae268260405160240162000d69919062001da0565b60408051601f198184030181529190526020810180516001600160e01b03166001600160e01b03199093169290921790915260045490915062000db6906001600160a01b03168262001335565b9250505062000dc989828e8e8e62001429565b62000dd6818a8e62001532565b62000de281836200162b565b604080516001600160a01b038084168252841660208201527f5681e4c78660d55bb53914589851145ee27800664310b24d132344dc164c0359910160405180910390a150505050505050505050505050565b600054610100900460ff1662000eb35760405162461bcd60e51b815260206004820152602b60248201527f496e697469616c697a61626c653a20636f6e7472616374206973206e6f74206960448201527f6e697469616c697a696e6700000000000000000000000000000000000000000060648201526084016200038b565b62000ebd620018ab565b565b6001600160a01b0381161580159062000ee257506001600160a01b038116600114155b62000f185760405162461bcd60e51b8152602060048201526005602482015264475331303160d81b60448201526064016200038b565b6001600160a01b03818116600090815260016020526040902054161562000f825760405162461bcd60e51b815260206004820152600560248201527f475331303200000000000000000000000000000000000000000000000000000060448201526064016200038b565b600160208181527fcc69885fda6bcc1a4ace058b4a62bf5e179ea78fd58a1ccd71c22cc9b688792f80546001600160a01b038581166000818152604080822080549490951673ffffffffffffffffffffffffffffffffffffffff1994851617909455959095528254168417909155519182527fecdf3a3effea5783a3c4c2140e677577666428d44ed9d474a0b3a4c9943f8440910160405180910390a150565b600060018360018111156200103b576200103b62001f82565b0362001055576000808551602087018986f4905062001065565b600080855160208701888a87f190505b95945050505050565b6001600160a01b038116158015906200109157506001600160a01b038116600114155b620010c75760405162461bcd60e51b8152602060048201526005602482015264475331303160d81b60448201526064016200038b565b6001600160a01b03828116600090815260016020526040902054811690821614620011355760405162461bcd60e51b815260206004820152600560248201527f475331303300000000000000000000000000000000000000000000000000000060448201526064016200038b565b6001600160a01b0381811660008181526001602090815260408083208054888716855282852080549190971673ffffffffffffffffffffffffffffffffffffffff199182161790965592849052825490941690915591519081527faab4fa2b463f581b2b32cb3b7e3b704b9ce37cc209b5fb4d77e593ace40542769101620006f5565b60408051306024808301829052835180840382018152604490930184526020830180516001600160e01b03167f74d4f6d00000000000000000000000000000000000000000000000000000000017905260025493516000946060937fb63e800d34f56a9238e5b86a8547a23865164bec371bede606e899182da118bf936200125b938b938b938b9390928a926001600160a01b03169182918d9183910162001f98565b60408051601f198184030181529181526020820180516001600160e01b03166001600160e01b03199094169390931790925260055460065492517f1688f0b90000000000000000000000000000000000000000000000000000000081529193506001600160a01b0390811692631688f0b992620012e492919091169085908c9060040162002062565b6020604051808303816000875af115801562001304573d6000803e3d6000fd5b505050506040513d601f19601f820116820180604052508101906200132a919062002096565b979650505050505050565b6000826040516200134690620019f9565b6001600160a01b039091168152602001604051809103906000f08015801562001373573d6000803e3d6000fd5b5090506000819050620013bc6040518060400160405280600f81526020017f50726f787920416464726573733a200000000000000000000000000000000000815250826200197c565b825115620013df5760008060008551602087016000875af103620013df57600080fd5b604080516001600160a01b038085168252861660208201527f4f51faf6c4561ff95f067657e43439f0f856d97c04d9ec9070a6199ad418e235910160405180910390a15092915050565b6040517fdd16a0080000000000000000000000000000000000000000000000000000000081526001600160a01b038581166004830152848116602483015286169063dd16a00890604401600060405180830381600087803b1580156200148e57600080fd5b505af1158015620014a3573d6000803e3d6000fd5b50506040517f2de7ae930000000000000000000000000000000000000000000000000000000081526001600160a01b038781166004830152602482018690526044820185905288169250632de7ae939150606401600060405180830381600087803b1580156200151257600080fd5b505af115801562001527573d6000803e3d6000fd5b505050505050505050565b6040517fb1d49d560000000000000000000000000000000000000000000000000000000081526001600160a01b03828116600483015284169063b1d49d5690602401600060405180830381600087803b1580156200158f57600080fd5b505af1158015620015a4573d6000803e3d6000fd5b50506040517f3ecf06bd0000000000000000000000000000000000000000000000000000000081526001600160a01b038581166004830152848116602483015286169250633ecf06bd9150604401600060405180830381600087803b1580156200160d57600080fd5b505af115801562001622573d6000803e3d6000fd5b50505050505050565b6040516001600160a01b038316602482015260009060440160408051601f198184030181529181526020820180516001600160e01b031663610b592560e01b1790525163468721a760e01b81529091506000906001600160a01b0384169063468721a790620016a5908690859087908290600401620020b6565b6020604051808303816000875af1158015620016c5573d6000803e3d6000fd5b505050506040513d601f19601f82011682018060405250810190620016eb919062001e81565b905080620017625760405162461bcd60e51b815260206004820152602860248201527f4d6f64756c6520636f756c64206e6f74206265207375636365737366756c6c7960448201527f20656e61626c656400000000000000000000000000000000000000000000000060648201526084016200038b565b505060405130602482015260009060440160408051601f198184030181529181526020820180516001600160e01b03167fa95f5246000000000000000000000000000000000000000000000000000000001790525163468721a760e01b81529091506000906001600160a01b0384169063468721a790620017ee908690859087908290600401620020b6565b6020604051808303816000875af11580156200180e573d6000803e3d6000fd5b505050506040513d601f19601f8201168201806040525081019062001834919062001e81565b90508062000ceb5760405162461bcd60e51b815260206004820152603460248201527f466163746f727920636f756c64206e6f74206265207375636365737366756c6c60448201527f792064697361626c6564206173206d6f64756c6500000000000000000000000060648201526084016200038b565b600160008190526020527fcc69885fda6bcc1a4ace058b4a62bf5e179ea78fd58a1ccd71c22cc9b688792f546001600160a01b0316156200192f5760405162461bcd60e51b815260206004820152601b60248201527f4d6f64756c657320616c726561647920696e697469616c697a6564000000000060448201526064016200038b565b6001600081905260208190527fcc69885fda6bcc1a4ace058b4a62bf5e179ea78fd58a1ccd71c22cc9b688792f805473ffffffffffffffffffffffffffffffffffffffff19169091179055565b620006fe82826040516024016200199592919062002110565b60408051601f198184030181529190526020810180516001600160e01b03167f319af3330000000000000000000000000000000000000000000000000000000017905280516a636f6e736f6c652e6c6f67602083016000808483855afa5050505050565b610601806200213e83390190565b6102c9806200273f83390190565b6001600160a01b038116811462001a2b57600080fd5b50565b803562001a3b8162001a15565b919050565b60006020828403121562001a5357600080fd5b813562001a608162001a15565b9392505050565b60008083601f84011262001a7a57600080fd5b50813567ffffffffffffffff81111562001a9357600080fd5b6020830191508360208260051b850101111562001aaf57600080fd5b9250929050565b803560ff8116811462001a3b57600080fd5b634e487b7160e01b600052604160045260246000fd5b600082601f83011262001af057600080fd5b813567ffffffffffffffff8082111562001b0e5762001b0e62001ac8565b604051601f8301601f19908116603f0116810190828211818310171562001b395762001b3962001ac8565b8160405283815286602085880101111562001b5357600080fd5b836020870160208301376000602085830101528094505050505092915050565b60008060008060008060008060008060006101408c8e03121562001b9657600080fd5b62001ba18c62001a2e565b9a5062001bb160208d0162001a2e565b995060408c0135985060608c0135975062001bcf60808d0162001a2e565b965060a08c0135955067ffffffffffffffff8060c08e0135111562001bf357600080fd5b62001c058e60c08f01358f0162001a67565b909650945062001c1860e08e0162001ab6565b9350806101008e0135111562001c2d57600080fd5b62001c408e6101008f01358f0162001ade565b9250806101208e0135111562001c5557600080fd5b5062001c698d6101208e01358e0162001ade565b90509295989b509295989b9093969950565b60006020828403121562001c8e57600080fd5b813567ffffffffffffffff81111562001ca657600080fd5b62001cb48482850162001ade565b949350505050565b6000806000806080858703121562001cd357600080fd5b843562001ce08162001a15565b935060208501359250604085013567ffffffffffffffff81111562001d0457600080fd5b62001d128782880162001ade565b92505060608501356002811062001d2857600080fd5b939692955090935050565b6000815180845260005b8181101562001d5b5760208185018101518683018201520162001d3d565b8181111562001d6e576000602083870101525b50601f01601f19169290920160200192915050565b821515815260406020820152600062001cb4604083018462001d33565b60208152600062001a60602083018462001d33565b6000806040838503121562001dc957600080fd5b823562001dd68162001a15565b946020939093013593505050565b604080825283519082018190526000906020906060840190828701845b8281101562001e285781516001600160a01b03168452928401929084019060010162001e01565b5050506001600160a01b039490941692019190915250919050565b6000806040838503121562001e5757600080fd5b823562001e648162001a15565b9150602083013562001e768162001a15565b809150509250929050565b60006020828403121562001e9457600080fd5b8151801515811462001a6057600080fd5b6000806000806080858703121562001ebc57600080fd5b845162001ec98162001a15565b602086015190945062001edc8162001a15565b604086015190935062001eef8162001a15565b606086015190925062001d288162001a15565b634e487b7160e01b600052603260045260246000fd5b60006001820162001f3957634e487b7160e01b600052601160045260246000fd5b5060010190565b60006001600160a01b0380871683528086166020840152506080604083015262001f6e608083018562001d33565b82810360608401526200132a818562001d33565b634e487b7160e01b600052602160045260246000fd5b6101008082528101899052600061012082018b825b8c81101562001fe257813562001fc38162001a15565b6001600160a01b03168352602092830192919091019060010162001fad565b505089602084015262002000604084018a6001600160a01b03169052565b828103606084015262002014818962001d33565b9150506200202d60808301876001600160a01b03169052565b6001600160a01b03851660a083015260ff841660c08301526001600160a01b03831660e08301529a9950505050505050505050565b6001600160a01b038416815260606020820152600062002086606083018562001d33565b9050826040830152949350505050565b600060208284031215620020a957600080fd5b815162001a608162001a15565b6001600160a01b0385168152836020820152608060408201526000620020e0608083018562001d33565b9050600283106200210157634e487b7160e01b600052602160045260246000fd5b82606083015295945050505050565b60408152600062002125604083018562001d33565b90506001600160a01b0383166020830152939250505056fe608060405234801561001057600080fd5b5060405161060138038061060183398101604081905261002f9161024d565b6100786040518060400160405280601981526020017f696d706c656d656e746174696f6e20696e2070726f78793a20000000000000008152508261008760201b6100291760201c565b610081816100d4565b50610307565b6100d0828260405160240161009d9291906102ca565b60408051601f198184030181529190526020810180516001600160e01b0390811663319af33360e01b179091526101d016565b5050565b6100ff6040518060600160405280602281526020016105df602291396101f160201b6100a01760201c565b6101128161023b60201b6101141760201c565b6101785760405162461bcd60e51b815260206004820152602d60248201527f455243313936373a206e657720696d706c656d656e746174696f6e206973206e60448201526c1bdd08184818dbdb9d1c9858dd609a1b606482015260840160405180910390fd5b806101af7f360894a13ba1a3210667c828492db98dca3e2076cc3735a920a3ca505d382bbc60001b61024a60201b6101301760201c565b80546001600160a01b0319166001600160a01b039290921691909117905550565b80516a636f6e736f6c652e6c6f67602083016000808483855afa5050505050565b6102388160405160240161020591906102f4565b60408051601f198184030181529190526020810180516001600160e01b0390811663104c13eb60e21b179091526101d016565b50565b6001600160a01b03163b151590565b90565b60006020828403121561025f57600080fd5b81516001600160a01b038116811461027657600080fd5b9392505050565b6000815180845260005b818110156102a357602081850181015186830182015201610287565b818111156102b5576000602083870101525b50601f01601f19169290920160200192915050565b6040815260006102dd604083018561027d565b905060018060a01b03831660208301529392505050565b602081526000610276602083018461027d565b6102c9806103166000396000f3fe60806040523661001357610011610017565b005b6100115b610027610022610133565b6101af565b565b61009c828260405160240161003f929190610241565b60408051601f198184030181529190526020810180517bffffffffffffffffffffffffffffffffffffffffffffffffffffffff167f319af333000000000000000000000000000000000000000000000000000000001790526101d3565b5050565b610111816040516024016100b49190610279565b60408051601f198184030181529190526020810180517bffffffffffffffffffffffffffffffffffffffffffffffffffffffff167f41304fac000000000000000000000000000000000000000000000000000000001790526101d3565b50565b73ffffffffffffffffffffffffffffffffffffffff163b151590565b90565b60006101736040518060400160405280601e81526020017f63616c6c656420696d706c656d656e746174696f6e20696e2070726f787900008152506100a0565b507f360894a13ba1a3210667c828492db98dca3e2076cc3735a920a3ca505d382bbc5473ffffffffffffffffffffffffffffffffffffffff1690565b3660008037600080366000845af43d6000803e8080156101ce573d6000f35b3d6000fd5b80516a636f6e736f6c652e6c6f67602083016000808483855afa5050505050565b6000815180845260005b8181101561021a576020818501810151868301820152016101fe565b8181111561022c576000602083870101525b50601f01601f19169290920160200192915050565b60408152600061025460408301856101f4565b905073ffffffffffffffffffffffffffffffffffffffff831660208301529392505050565b60208152600061028c60208301846101f4565b939250505056fea2646970667358221220203844e3a2ec12ab56717c86b31bb169827cfdeb47f41640ae2bcd40c50d50df64736f6c634300080f003363616c6c65642073657420696d706c656d656e746174696f6e20696e2070726f787960806040523661001357610011610017565b005b6100115b610027610022610133565b6101af565b565b61009c828260405160240161003f929190610241565b60408051601f198184030181529190526020810180517bffffffffffffffffffffffffffffffffffffffffffffffffffffffff167f319af333000000000000000000000000000000000000000000000000000000001790526101d3565b5050565b610111816040516024016100b49190610279565b60408051601f198184030181529190526020810180517bffffffffffffffffffffffffffffffffffffffffffffffffffffffff167f41304fac000000000000000000000000000000000000000000000000000000001790526101d3565b50565b73ffffffffffffffffffffffffffffffffffffffff163b151590565b90565b60006101736040518060400160405280601e81526020017f63616c6c656420696d706c656d656e746174696f6e20696e2070726f787900008152506100a0565b507f360894a13ba1a3210667c828492db98dca3e2076cc3735a920a3ca505d382bbc5473ffffffffffffffffffffffffffffffffffffffff1690565b3660008037600080366000845af43d6000803e8080156101ce573d6000f35b3d6000fd5b80516a636f6e736f6c652e6c6f67602083016000808483855afa5050505050565b6000815180845260005b8181101561021a576020818501810151868301820152016101fe565b8181111561022c576000602083870101525b50601f01601f19169290920160200192915050565b60408152600061025460408301856101f4565b905073ffffffffffffffffffffffffffffffffffffffff831660208301529392505050565b60208152600061028c60208301846101f4565b939250505056fea2646970667358221220203844e3a2ec12ab56717c86b31bb169827cfdeb47f41640ae2bcd40c50d50df64736f6c634300080f0033a2646970667358221220ea66524ef1f176e0ff08bb5e200c1acaabdf009bb8266586c6f687e57aa777b764736f6c634300080f0033",
  "linkReferences": {},
  "deployedLinkReferences": {}
}