{
  "_format": "hh-sol-artifact-1",
  "contractName": "budgetModifier",
  "sourceName": "contracts/modifiers/budgetModifier.sol",
  "abi": [
    {
      "inputs": [
        {
          "internalType": "address",
          "name": "module",
          "type": "address"
        }
      ],
      "stateMutability": "nonpayable",
      "type": "constructor"
    },
    {
      "inputs": [
        {
          "internalType": "address",
          "name": "guard_",
          "type": "address"
        }
      ],
      "name": "NotIERC165Compliant",
      "type": "error"
    },
    {
      "anonymous": false,
      "inputs": [
        {
          "indexed": false,
          "internalType": "address",
          "name": "guard",
          "type": "address"
        }
      ],
      "name": "ChangedGuard",
      "type": "event"
    },
    {
      "anonymous": false,
      "inputs": [
        {
          "indexed": false,
          "internalType": "address",
          "name": "avatar",
          "type": "address"
        }
      ],
      "name": "DisabledAvatar",
      "type": "event"
    },
    {
      "anonymous": false,
      "inputs": [
        {
          "indexed": false,
          "internalType": "address",
          "name": "module",
          "type": "address"
        }
      ],
      "name": "DisabledModule",
      "type": "event"
    },
    {
      "anonymous": false,
      "inputs": [
        {
          "indexed": false,
          "internalType": "address",
          "name": "avatar",
          "type": "address"
        }
      ],
      "name": "EnabledAvatar",
      "type": "event"
    },
    {
      "anonymous": false,
      "inputs": [
        {
          "indexed": false,
          "internalType": "address",
          "name": "module",
          "type": "address"
        }
      ],
      "name": "EnabledModule",
      "type": "event"
    },
    {
      "anonymous": false,
      "inputs": [
        {
          "indexed": true,
          "internalType": "address",
          "name": "module",
          "type": "address"
        }
      ],
      "name": "ExecutionFromModuleFailure",
      "type": "event"
    },
    {
      "anonymous": false,
      "inputs": [
        {
          "indexed": true,
          "internalType": "address",
          "name": "module",
          "type": "address"
        }
      ],
      "name": "ExecutionFromModuleSuccess",
      "type": "event"
    },
    {
      "anonymous": false,
      "inputs": [
        {
          "indexed": false,
          "internalType": "uint8",
          "name": "version",
          "type": "uint8"
        }
      ],
      "name": "Initialized",
      "type": "event"
    },
    {
      "anonymous": false,
      "inputs": [
        {
          "indexed": true,
          "internalType": "address",
          "name": "previousOwner",
          "type": "address"
        },
        {
          "indexed": true,
          "internalType": "address",
          "name": "newOwner",
          "type": "address"
        }
      ],
      "name": "OwnershipTransferred",
      "type": "event"
    },
    {
      "anonymous": false,
      "inputs": [
        {
          "indexed": true,
          "internalType": "address",
          "name": "previousTarget",
          "type": "address"
        },
        {
          "indexed": true,
          "internalType": "address",
          "name": "newTarget",
          "type": "address"
        }
      ],
      "name": "TargetSet",
      "type": "event"
    },
    {
      "inputs": [
        {
          "internalType": "address",
          "name": "preAvatar",
          "type": "address"
        },
        {
          "internalType": "address",
          "name": "avatar",
          "type": "address"
        }
      ],
      "name": "disableAvatar",
      "outputs": [],
      "stateMutability": "nonpayable",
      "type": "function"
    },
    {
      "inputs": [
        {
          "internalType": "address",
          "name": "prevModule",
          "type": "address"
        },
        {
          "internalType": "address",
          "name": "module",
          "type": "address"
        }
      ],
      "name": "disableModule",
      "outputs": [],
      "stateMutability": "nonpayable",
      "type": "function"
    },
    {
      "inputs": [
        {
          "internalType": "address",
          "name": "module",
          "type": "address"
        }
      ],
      "name": "disableSettingsModule",
      "outputs": [],
      "stateMutability": "nonpayable",
      "type": "function"
    },
    {
      "inputs": [
        {
          "internalType": "address",
          "name": "avatar",
          "type": "address"
        }
      ],
      "name": "enableAvatar",
      "outputs": [],
      "stateMutability": "nonpayable",
      "type": "function"
    },
    {
      "inputs": [
        {
          "internalType": "address",
          "name": "module",
          "type": "address"
        },
        {
          "internalType": "address",
          "name": "avatar",
          "type": "address"
        }
      ],
      "name": "enableModification",
      "outputs": [],
      "stateMutability": "nonpayable",
      "type": "function"
    },
    {
      "inputs": [
        {
          "internalType": "address",
          "name": "module",
          "type": "address"
        }
      ],
      "name": "enableModule",
      "outputs": [],
      "stateMutability": "nonpayable",
      "type": "function"
    },
    {
      "inputs": [
        {
          "internalType": "address",
          "name": "module",
          "type": "address"
        }
      ],
      "name": "enableSettingsModule",
      "outputs": [],
      "stateMutability": "nonpayable",
      "type": "function"
    },
    {
      "inputs": [
        {
          "internalType": "address",
          "name": "to",
          "type": "address"
        },
        {
          "internalType": "uint256",
          "name": "value",
          "type": "uint256"
        },
        {
          "internalType": "bytes",
          "name": "data",
          "type": "bytes"
        },
        {
          "internalType": "enum Enum.Operation",
          "name": "operation",
          "type": "uint8"
        }
      ],
      "name": "execTransactionFromModule",
      "outputs": [
        {
          "internalType": "bool",
          "name": "success",
          "type": "bool"
        }
      ],
      "stateMutability": "nonpayable",
      "type": "function"
    },
    {
      "inputs": [
        {
          "internalType": "address",
          "name": "to",
          "type": "address"
        },
        {
          "internalType": "uint256",
          "name": "value",
          "type": "uint256"
        },
        {
          "internalType": "bytes",
          "name": "data",
          "type": "bytes"
        },
        {
          "internalType": "enum Enum.Operation",
          "name": "operation",
          "type": "uint8"
        }
      ],
      "name": "execTransactionFromModuleReturnData",
      "outputs": [
        {
          "internalType": "bool",
          "name": "success",
          "type": "bool"
        },
        {
          "internalType": "bytes",
          "name": "returnData",
          "type": "bytes"
        }
      ],
      "stateMutability": "nonpayable",
      "type": "function"
    },
    {
      "inputs": [
        {
          "internalType": "address",
          "name": "start",
          "type": "address"
        },
        {
          "internalType": "uint256",
          "name": "pageSize",
          "type": "uint256"
        }
      ],
      "name": "getAvatarsPaginated",
      "outputs": [
        {
          "internalType": "address[]",
          "name": "array",
          "type": "address[]"
        },
        {
          "internalType": "address",
          "name": "next",
          "type": "address"
        }
      ],
      "stateMutability": "view",
      "type": "function"
    },
    {
      "inputs": [
        {
          "internalType": "address",
          "name": "module",
          "type": "address"
        }
      ],
      "name": "getBudget",
      "outputs": [
        {
          "components": [
            {
              "internalType": "uint256",
              "name": "totalAmount",
              "type": "uint256"
            },
            {
              "internalType": "uint256",
              "name": "amountUsed",
              "type": "uint256"
            },
            {
              "internalType": "uint256",
              "name": "lastReset",
              "type": "uint256"
            },
            {
              "internalType": "uint256",
              "name": "interval",
              "type": "uint256"
            },
            {
              "internalType": "bool",
              "name": "frozen",
              "type": "bool"
            }
          ],
          "internalType": "struct budgetModifierBase.budget",
          "name": "",
          "type": "tuple"
        }
      ],
      "stateMutability": "view",
      "type": "function"
    },
    {
      "inputs": [],
      "name": "getGuard",
      "outputs": [
        {
          "internalType": "address",
          "name": "_guard",
          "type": "address"
        }
      ],
      "stateMutability": "view",
      "type": "function"
    },
    {
      "inputs": [
        {
          "internalType": "address",
          "name": "start",
          "type": "address"
        },
        {
          "internalType": "uint256",
          "name": "pageSize",
          "type": "uint256"
        }
      ],
      "name": "getModulesPaginated",
      "outputs": [
        {
          "internalType": "address[]",
          "name": "array",
          "type": "address[]"
        },
        {
          "internalType": "address",
          "name": "next",
          "type": "address"
        }
      ],
      "stateMutability": "view",
      "type": "function"
    },
    {
      "inputs": [],
      "name": "guard",
      "outputs": [
        {
          "internalType": "address",
          "name": "",
          "type": "address"
        }
      ],
      "stateMutability": "view",
      "type": "function"
    },
    {
      "inputs": [
        {
          "internalType": "bytes",
          "name": "initializeParams",
          "type": "bytes"
        }
      ],
      "name": "initialize",
      "outputs": [],
      "stateMutability": "nonpayable",
      "type": "function"
    },
    {
      "inputs": [
        {
          "internalType": "address",
          "name": "avatar",
          "type": "address"
        }
      ],
      "name": "isAvatarEnabled",
      "outputs": [
        {
          "internalType": "bool",
          "name": "",
          "type": "bool"
        }
      ],
      "stateMutability": "view",
      "type": "function"
    },
    {
      "inputs": [
        {
          "internalType": "address",
          "name": "module",
          "type": "address"
        }
      ],
      "name": "isModuleEnabled",
      "outputs": [
        {
          "internalType": "bool",
          "name": "",
          "type": "bool"
        }
      ],
      "stateMutability": "view",
      "type": "function"
    },
    {
      "inputs": [
        {
          "internalType": "address",
          "name": "",
          "type": "address"
        }
      ],
      "name": "moduleToAvatar",
      "outputs": [
        {
          "internalType": "address",
          "name": "",
          "type": "address"
        }
      ],
      "stateMutability": "view",
      "type": "function"
    },
    {
      "inputs": [],
      "name": "owner",
      "outputs": [
        {
          "internalType": "address",
          "name": "",
          "type": "address"
        }
      ],
      "stateMutability": "view",
      "type": "function"
    },
    {
      "inputs": [],
      "name": "permissionRegistry",
      "outputs": [
        {
          "internalType": "address",
          "name": "",
          "type": "address"
        }
      ],
      "stateMutability": "view",
      "type": "function"
    },
    {
      "inputs": [],
      "name": "renounceOwnership",
      "outputs": [],
      "stateMutability": "nonpayable",
      "type": "function"
    },
    {
      "inputs": [
        {
          "internalType": "address",
          "name": "module",
          "type": "address"
        },
        {
          "internalType": "uint256",
          "name": "_totalAmount",
          "type": "uint256"
        },
        {
          "internalType": "uint256",
          "name": "_interval",
          "type": "uint256"
        }
      ],
      "name": "setBudget",
      "outputs": [],
      "stateMutability": "nonpayable",
      "type": "function"
    },
    {
      "inputs": [
        {
          "internalType": "address",
          "name": "module",
          "type": "address"
        }
      ],
      "name": "setFreeze",
      "outputs": [],
      "stateMutability": "nonpayable",
      "type": "function"
    },
    {
      "inputs": [
        {
          "internalType": "address",
          "name": "_guard",
          "type": "address"
        }
      ],
      "name": "setGuard",
      "outputs": [],
      "stateMutability": "nonpayable",
      "type": "function"
    },
    {
      "inputs": [
        {
          "internalType": "address",
          "name": "_permissionReg",
          "type": "address"
        }
      ],
      "name": "setPermissionReg",
      "outputs": [],
      "stateMutability": "nonpayable",
      "type": "function"
    },
    {
      "inputs": [
        {
          "internalType": "address",
          "name": "target",
          "type": "address"
        },
        {
          "internalType": "address",
          "name": "avatar",
          "type": "address"
        }
      ],
      "name": "setTarget",
      "outputs": [],
      "stateMutability": "nonpayable",
      "type": "function"
    },
    {
      "inputs": [
        {
          "internalType": "address",
          "name": "",
          "type": "address"
        }
      ],
      "name": "settingsModules",
      "outputs": [
        {
          "internalType": "bool",
          "name": "",
          "type": "bool"
        }
      ],
      "stateMutability": "view",
      "type": "function"
    },
    {
      "inputs": [
        {
          "internalType": "address",
          "name": "newOwner",
          "type": "address"
        }
      ],
      "name": "transferOwnership",
      "outputs": [],
      "stateMutability": "nonpayable",
      "type": "function"
    }
  ],
  "bytecode": "0x60806040523480156200001157600080fd5b506040516200340b3803806200340b8339810160408190526200003491620006b0565b604080516001600160a01b03831660208201526000910160408051601f198184030181529190529050620000688162000070565b5050620006d7565b600054610100900460ff1615808015620000915750600054600160ff909116105b80620000c15750620000ae306200020660201b620017d21760201c565b158015620000c1575060005460ff166001145b6200012a5760405162461bcd60e51b815260206004820152602e60248201527f496e697469616c697a61626c653a20636f6e747261637420697320616c72656160448201526d191e481a5b9a5d1a585b1a5e995960921b60648201526084015b60405180910390fd5b6000805460ff1916600117905580156200014e576000805461ff0019166101001790555b600082806020019051810190620001669190620006b0565b90506200017262000215565b6200017c6200027d565b62000186620002e3565b620001918162000349565b620001ba816001600160a01b03166000908152606a60205260409020805460ff19166001179055565b50801562000202576000805461ff0019169055604051600181527f7f26b83ff96e1f2b6a682f133852f6798a09c465da95921460cefb38474024989060200160405180910390a15b5050565b6001600160a01b03163b151590565b600054610100900460ff16620002715760405162461bcd60e51b815260206004820152602b6024820152600080516020620033cb83398151915260448201526a6e697469616c697a696e6760a81b606482015260840162000121565b6200027b62000478565b565b600054610100900460ff16620002d95760405162461bcd60e51b815260206004820152602b6024820152600080516020620033cb83398151915260448201526a6e697469616c697a696e6760a81b606482015260840162000121565b6200027b620004df565b600054610100900460ff166200033f5760405162461bcd60e51b815260206004820152602b6024820152600080516020620033cb83398151915260448201526a6e697469616c697a696e6760a81b606482015260840162000121565b6200027b62000581565b6001600160a01b038116158015906200036c57506001600160a01b038116600114155b620003a25760405162461bcd60e51b8152602060048201526005602482015264475331303160d81b604482015260640162000121565b6001600160a01b038181166000908152606960205260409020541615620003f45760405162461bcd60e51b815260206004820152600560248201526423a998981960d91b604482015260640162000121565b60696020908152600080516020620033eb83398151915280546001600160a01b03848116600081815260408082208054949095166001600160a01b0319948516179094556001905283549091168117909255519081527fecdf3a3effea5783a3c4c2140e677577666428d44ed9d474a0b3a4c9943f8440910160405180910390a150565b600054610100900460ff16620004d45760405162461bcd60e51b815260206004820152602b6024820152600080516020620033cb83398151915260448201526a6e697469616c697a696e6760a81b606482015260840162000121565b6200027b3362000645565b60016000526069602052600080516020620033eb833981519152546001600160a01b031615620005525760405162461bcd60e51b815260206004820152601b60248201527f4d6f64756c657320616c726561647920696e697469616c697a65640000000000604482015260640162000121565b600160008190526069602052600080516020620033eb83398151915280546001600160a01b0319169091179055565b600160005260676020527f6bee784efeb983674392298ab585b22866bedf00ebb0eea949d1e66f3f50e71d546001600160a01b031615620006055760405162461bcd60e51b815260206004820152601b60248201527f6176617461727320616c726561647920696e697469616c697a65640000000000604482015260640162000121565b6001600081905260676020527f6bee784efeb983674392298ab585b22866bedf00ebb0eea949d1e66f3f50e71d80546001600160a01b0319169091179055565b603380546001600160a01b038381166001600160a01b0319831681179093556040519116919082907f8be0079c531659141344cd1fd0a4f28419497f9722a3daafe3b4186f6b6457e090600090a35050565b6001600160a01b0381168114620006ad57600080fd5b50565b600060208284031215620006c357600080fd5b8151620006d08162000697565b9392505050565b612ce480620006e76000396000f3fe608060405234801561001057600080fd5b50600436106101c45760003560e01c80639e72d6d5116100f9578063cc2f845211610097578063e009cfde11610071578063e009cfde1461042b578063e19a9dd91461043e578063e5e3ae7414610451578063f2fde38b1461047457600080fd5b8063cc2f8452146103f2578063d9c31c7314610405578063dd16a0081461041857600080fd5b8063b55a5c1c116100d3578063b55a5c1c1461039a578063ba7707b2146103ad578063c2e042f4146103ce578063c9106389146103e157600080fd5b80639e72d6d51461034b578063acead0dc1461035e578063b1d49d561461038757600080fd5b8063439fab9111610166578063610b592511610140578063610b5925146102f4578063715018a6146103075780637ceab3b11461030f5780638da5cb5b1461033a57600080fd5b8063439fab91146102ad578063468721a7146102c05780635229073f146102d357600080fd5b80632d9ad53d116101a25780632d9ad53d146102515780632de7ae9314610274578063369f771b146102875780633ecf06bd1461029a57600080fd5b8063113c17de146101c957806319b7d7bd146101de57806325bccea21461023e575b600080fd5b6101dc6101d7366004612768565b610487565b005b6101f16101ec366004612768565b6105ab565b6040516102359190600060a0820190508251825260208301516020830152604083015160408301526060830151606083015260808301511515608083015292915050565b60405180910390f35b6101dc61024c366004612768565b61063c565b61026461025f366004612768565b610764565b6040519015158152602001610235565b6101dc61028236600461278c565b61079f565b6101dc610295366004612768565b6108d7565b6101dc6102a83660046127c1565b6109f9565b6101dc6102bb3660046128bf565b610a5b565b6102646102ce3660046128fc565b610bd7565b6102e66102e13660046128fc565b610d96565b6040516102359291906129c4565b6101dc610302366004612768565b610ef8565b6101dc61101c565b606554610322906001600160a01b031681565b6040516001600160a01b039091168152602001610235565b6033546001600160a01b0316610322565b6101dc610359366004612768565b611030565b61032261036c366004612768565b606b602052600090815260409020546001600160a01b031681565b6101dc610395366004612768565b61114f565b606654610322906001600160a01b031681565b6103c06103bb3660046129df565b61115b565b604051610235929190612a0b565b6101dc6103dc3660046127c1565b611255565b6065546001600160a01b0316610322565b6103c06104003660046129df565b61125f565b610264610413366004612768565b61134b565b6101dc6104263660046127c1565b611383565b6101dc6104393660046127c1565b6114cc565b6101dc61044c366004612768565b6115f7565b61026461045f366004612768565b606a6020526000908152604090205460ff1681565b6101dc610482366004612768565b611745565b336000908152606a602052604081205460ff161515600114908161052c5760665460405163b700961360e01b81523360048201523060248201526000356001600160e01b03191660448201526001600160a01b039091169063b700961390606401602060405180830381865afa158015610505573d6000803e3d6000fd5b505050506040513d601f19601f820116820180604052508101906105299190612a7d565b90505b81806105355750805b6105865760405162461bcd60e51b815260206004820152601e60248201527f4e6f7420617574686f726973656420746f20736574206d6f646966696572000060448201526064015b60405180910390fd5b606680546001600160a01b0319166001600160a01b038516179055505050565b505050565b6105df6040518060a00160405280600081526020016000815260200160008152602001600081526020016000151581525090565b506001600160a01b03166000908152606c6020908152604091829020825160a081018452815481526001820154928101929092526002810154928201929092526003820154606082015260049091015460ff161515608082015290565b336000908152606a602052604081205460ff16151560011490816106e15760665460405163b700961360e01b81523360048201523060248201526000356001600160e01b03191660448201526001600160a01b039091169063b700961390606401602060405180830381865afa1580156106ba573d6000803e3d6000fd5b505050506040513d601f19601f820116820180604052508101906106de9190612a7d565b90505b81806106ea5750805b6107365760405162461bcd60e51b815260206004820152601e60248201527f4e6f7420617574686f726973656420746f20736574206d6f6469666965720000604482015260640161057d565b50506001600160a01b03166000908152606c60205260409020600401805460ff19811660ff90911615179055565b600060016001600160a01b0383161480159061079957506001600160a01b038281166000908152606960205260409020541615155b92915050565b336000908152606a602052604081205460ff16151560011490816108445760665460405163b700961360e01b81523360048201523060248201526000356001600160e01b03191660448201526001600160a01b039091169063b700961390606401602060405180830381865afa15801561081d573d6000803e3d6000fd5b505050506040513d601f19601f820116820180604052508101906108419190612a7d565b90505b818061084d5750805b6108995760405162461bcd60e51b815260206004820152601e60248201527f4e6f7420617574686f726973656420746f20736574206d6f6469666965720000604482015260640161057d565b50506001600160a01b039092166000908152606c6020526040812091825560018201556003810191909155436002820155600401805460ff19169055565b336000908152606a602052604081205460ff161515600114908161097c5760665460405163b700961360e01b81523360048201523060248201526000356001600160e01b03191660448201526001600160a01b039091169063b700961390606401602060405180830381865afa158015610955573d6000803e3d6000fd5b505050506040513d601f19601f820116820180604052508101906109799190612a7d565b90505b81806109855750805b6109d15760405162461bcd60e51b815260206004820152601e60248201527f4e6f7420617574686f726973656420746f20736574206d6f6469666965720000604482015260640161057d565b6105a6836001600160a01b03166000908152606a60205260409020805460ff19166001179055565b6001600160a01b0380821660009081526068602052604080822080548685166001600160a01b031982168117909255915191909316929183917f90cc2f570a6eb594b1580ea3e41247d2d73a55281889e86bd4ec2fc29c7e62d69190a3505050565b600054610100900460ff1615808015610a7b5750600054600160ff909116105b80610a955750303b158015610a95575060005460ff166001145b610b075760405162461bcd60e51b815260206004820152602e60248201527f496e697469616c697a61626c653a20636f6e747261637420697320616c72656160448201527f647920696e697469616c697a6564000000000000000000000000000000000000606482015260840161057d565b6000805460ff191660011790558015610b2a576000805461ff0019166101001790555b600082806020019051810190610b409190612a98565b9050610b4a6117e1565b610b52611854565b610b5a6118c7565b610b638161193a565b610b8b816001600160a01b03166000908152606a60205260409020805460ff19166001179055565b508015610bd3576000805461ff0019169055604051600181527f7f26b83ff96e1f2b6a682f133852f6798a09c465da95921460cefb3847402498906020015b60405180910390a15b5050565b60008033600114801590610c025750336000908152606960205260409020546001600160a01b031615155b9050600081610c925760665460405163b700961360e01b81523360048201523060248201526000356001600160e01b03191660448201526001600160a01b039091169063b700961390606401602060405180830381865afa158015610c6b573d6000803e3d6000fd5b505050506040513d601f19601f82011682018060405250810190610c8f9190612a7d565b90505b8180610c9b5750805b610cf35760405162461bcd60e51b8152602060048201526024808201527f4e6f7420617574686f72697a656420746f2063616c6c20746869732066756e636044820152633a34b7b760e11b606482015260840161057d565b610cff87878787611a6f565b336000908152606b6020526040902054610d28908890889088906001600160a01b031688611a7a565b92508215610d605760405133907f6895c13664aa4f67288b25d7a21d7aaa34916e355fb9b6fae0a139a9085becb890600090a2610d8c565b60405133907facd2c8702804128fdb0db2bb49f6d127dd0181c13fd45dbfe16de0930e2bd37590600090a25b5050949350505050565b600060608133600114801590610dc35750336000908152606960205260409020546001600160a01b031615155b9050600081610e535760665460405163b700961360e01b81523360048201523060248201526000356001600160e01b03191660448201526001600160a01b039091169063b700961390606401602060405180830381865afa158015610e2c573d6000803e3d6000fd5b505050506040513d601f19601f82011682018060405250810190610e509190612a7d565b90505b8180610e5c5750805b610eb45760405162461bcd60e51b8152602060048201526024808201527f4e6f7420617574686f72697a656420746f2063616c6c20746869732066756e636044820152633a34b7b760e11b606482015260840161057d565b610ec088888888611a6f565b336000908152606b6020526040902054610ee9908990899089906001600160a01b031689611cbf565b90999098509650505050505050565b600033600114801590610f225750336000908152606960205260409020546001600160a01b031615155b9050600081610fb25760665460405163b700961360e01b81523360048201523060248201526000356001600160e01b03191660448201526001600160a01b039091169063b700961390606401602060405180830381865afa158015610f8b573d6000803e3d6000fd5b505050506040513d601f19601f82011682018060405250810190610faf9190612a7d565b90505b8180610fbb5750805b6110135760405162461bcd60e51b8152602060048201526024808201527f4e6f7420617574686f72697a656420746f2063616c6c20746869732066756e636044820152633a34b7b760e11b606482015260840161057d565b6105a68361193a565b611024611f0d565b61102e6000611f67565b565b336000908152606a602052604081205460ff16151560011490816110d55760665460405163b700961360e01b81523360048201523060248201526000356001600160e01b03191660448201526001600160a01b039091169063b700961390606401602060405180830381865afa1580156110ae573d6000803e3d6000fd5b505050506040513d601f19601f820116820180604052508101906110d29190612a7d565b90505b81806110de5750805b61112a5760405162461bcd60e51b815260206004820152601e60248201527f4e6f7420617574686f726973656420746f20736574206d6f6469666965720000604482015260640161057d565b6105a6836001600160a01b03166000908152606a60205260409020805460ff19169055565b61115881611fb9565b50565b606060008267ffffffffffffffff811115611178576111786127fa565b6040519080825280602002602001820160405280156111a1578160200160208202803683370190505b506001600160a01b0380861660009081526067602052604081205492945091165b6001600160a01b038116158015906111e457506001600160a01b038116600114155b80156111ef57508482105b15611247578084838151811061120757611207612ab5565b6001600160a01b0392831660209182029290920181019190915291811660009081526067909252604090912054168161123f81612ae1565b9250506111c2565b908352919491935090915050565b610bd382826120ff565b606060008267ffffffffffffffff81111561127c5761127c6127fa565b6040519080825280602002602001820160405280156112a5578160200160208202803683370190505b506001600160a01b0380861660009081526069602052604081205492945091165b6001600160a01b038116158015906112e857506001600160a01b038116600114155b80156112f357508482105b15611247578084838151811061130b5761130b612ab5565b6001600160a01b0392831660209182029290920181019190915291811660009081526069909252604090912054168161134381612ae1565b9250506112c6565b600060016001600160a01b038316148015906107995750506001600160a01b0390811660009081526067602052604090205416151590565b336000908152606a602052604081205460ff16151560011490816114285760665460405163b700961360e01b81523360048201523060248201526000356001600160e01b03191660448201526001600160a01b039091169063b700961390606401602060405180830381865afa158015611401573d6000803e3d6000fd5b505050506040513d601f19601f820116820180604052508101906114259190612a7d565b90505b81806114315750805b61147d5760405162461bcd60e51b815260206004820152601e60248201527f4e6f7420617574686f726973656420746f20736574206d6f6469666965720000604482015260640161057d565b6114868361134b565b6114935761149383611fb9565b61149c8461193a565b50506001600160a01b039182166000908152606b6020526040902080546001600160a01b03191691909216179055565b6000336001148015906114f65750336000908152606960205260409020546001600160a01b031615155b90506000816115865760665460405163b700961360e01b81523360048201523060248201526000356001600160e01b03191660448201526001600160a01b039091169063b700961390606401602060405180830381865afa15801561155f573d6000803e3d6000fd5b505050506040513d601f19601f820116820180604052508101906115839190612a7d565b90505b818061158f5750805b6115e75760405162461bcd60e51b8152602060048201526024808201527f4e6f7420617574686f72697a656420746f2063616c6c20746869732066756e636044820152633a34b7b760e11b606482015260840161057d565b6115f1848461221e565b50505050565b6115ff611f0d565b6001600160a01b038116156116f0576040517f01ffc9a70000000000000000000000000000000000000000000000000000000081527fe6d7a83a0000000000000000000000000000000000000000000000000000000060048201526001600160a01b038216906301ffc9a790602401602060405180830381865afa15801561168b573d6000803e3d6000fd5b505050506040513d601f19601f820116820180604052508101906116af9190612a7d565b6116f0576040517fb16ea67e0000000000000000000000000000000000000000000000000000000081526001600160a01b038216600482015260240161057d565b606580546001600160a01b0319166001600160a01b0383169081179091556040519081527f1151116914515bc0891ff9047a6cb32cf902546f83066499bcf8ba33d2353fa2906020015b60405180910390a150565b61174d611f0d565b6001600160a01b0381166117c95760405162461bcd60e51b815260206004820152602660248201527f4f776e61626c653a206e6577206f776e657220697320746865207a65726f206160448201527f6464726573730000000000000000000000000000000000000000000000000000606482015260840161057d565b61115881611f67565b6001600160a01b03163b151590565b600054610100900460ff1661184c5760405162461bcd60e51b815260206004820152602b60248201527f496e697469616c697a61626c653a20636f6e7472616374206973206e6f74206960448201526a6e697469616c697a696e6760a81b606482015260840161057d565b61102e61233d565b600054610100900460ff166118bf5760405162461bcd60e51b815260206004820152602b60248201527f496e697469616c697a61626c653a20636f6e7472616374206973206e6f74206960448201526a6e697469616c697a696e6760a81b606482015260840161057d565b61102e6123b1565b600054610100900460ff166119325760405162461bcd60e51b815260206004820152602b60248201527f496e697469616c697a61626c653a20636f6e7472616374206973206e6f74206960448201526a6e697469616c697a696e6760a81b606482015260840161057d565b61102e612473565b6001600160a01b0381161580159061195c57506001600160a01b038116600114155b6119905760405162461bcd60e51b8152602060048201526005602482015264475331303160d81b604482015260640161057d565b6001600160a01b0381811660009081526069602052604090205416156119e05760405162461bcd60e51b815260206004820152600560248201526423a998981960d91b604482015260640161057d565b606960209081527fc073f36c05b6a60b24c30a48974b549770d8fa354751fb3170c9dfd8ca536add80546001600160a01b03848116600081815260408082208054949095166001600160a01b0319948516179094556001905283549091168117909255519081527fecdf3a3effea5783a3c4c2140e677577666428d44ed9d474a0b3a4c9943f8440910161173a565b6115f1838383612535565b6000611a858361134b565b611af75760405162461bcd60e51b815260206004820152602e60248201527f5472616e73616374696f6e2064657374696e6174696f6e20697320756e72656760448201527f6973746572656420417661746172000000000000000000000000000000000000606482015260840161057d565b6065546001600160a01b031615611b96576065546040805180820182526002815261060f60f31b60208201529051633af85da960e11b81526001600160a01b03909216916375f0bb5291611b63918a918a918a9189916000918291829182918291903390600401612b32565b600060405180830381600087803b158015611b7d57600080fd5b505af1158015611b91573d6000803e3d6000fd5b505050505b6001600160a01b03808416600090815260686020526040908190205490517f468721a700000000000000000000000000000000000000000000000000000000815291169063468721a790611bf4908990899089908890600401612bbe565b6020604051808303816000875af1158015611c13573d6000803e3d6000fd5b505050506040513d601f19601f82011682018060405250810190611c379190612a7d565b6065549091506001600160a01b031615611cb657606554604051631264e26d60e31b815261060f60f31b600482015282151560248201526001600160a01b0390911690639327136890604401600060405180830381600087803b158015611c9d57600080fd5b505af1158015611cb1573d6000803e3d6000fd5b505050505b95945050505050565b60006060611ccc8461134b565b611d3e5760405162461bcd60e51b815260206004820152602e60248201527f5472616e73616374696f6e2064657374696e6174696f6e20697320756e72656760448201527f6973746572656420417661746172000000000000000000000000000000000000606482015260840161057d565b6065546001600160a01b031615611ddd576065546040805180820182526002815261060f60f31b60208201529051633af85da960e11b81526001600160a01b03909216916375f0bb5291611daa918b918b918b918a916000918291829182918291903390600401612b32565b600060405180830381600087803b158015611dc457600080fd5b505af1158015611dd8573d6000803e3d6000fd5b505050505b6001600160a01b03808516600090815260686020526040908190205490517f5229073f000000000000000000000000000000000000000000000000000000008152911690635229073f90611e3b908a908a908a908990600401612bbe565b6000604051808303816000875af1158015611e5a573d6000803e3d6000fd5b505050506040513d6000823e601f3d908101601f19168201604052611e829190810190612bf5565b60655491935091506001600160a01b031615611f0357606554604051631264e26d60e31b815261060f60f31b600482015283151560248201526001600160a01b0390911690639327136890604401600060405180830381600087803b158015611eea57600080fd5b505af1158015611efe573d6000803e3d6000fd5b505050505b9550959350505050565b6033546001600160a01b0316331461102e5760405162461bcd60e51b815260206004820181905260248201527f4f776e61626c653a2063616c6c6572206973206e6f7420746865206f776e6572604482015260640161057d565b603380546001600160a01b038381166001600160a01b0319831681179093556040519116919082907f8be0079c531659141344cd1fd0a4f28419497f9722a3daafe3b4186f6b6457e090600090a35050565b6001600160a01b03811615801590611fdb57506001600160a01b038116600114155b61200f5760405162461bcd60e51b8152602060048201526005602482015264475331303160d81b604482015260640161057d565b6001600160a01b03818116600090815260676020526040902054161561205f5760405162461bcd60e51b815260206004820152600560248201526423a998981960d91b604482015260640161057d565b60676020527f6bee784efeb983674392298ab585b22866bedf00ebb0eea949d1e66f3f50e71d80546001600160a01b038381166000818152604081208054939094166001600160a01b03199384161790935560019092528254161790556120c681806109f9565b6040516001600160a01b03821681527fdc8509131aac11ac4f5b915e0b24114ac71cf7b256433834e067829bf9db3ad49060200161173a565b6001600160a01b0381161580159061212157506001600160a01b038116600114155b6121555760405162461bcd60e51b8152602060048201526005602482015264475331303160d81b604482015260640161057d565b6001600160a01b038281166000908152606760205260409020548116908216146121a95760405162461bcd60e51b8152602060048201526005602482015264475331303360d81b604482015260640161057d565b6001600160a01b038181166000818152606760209081526040808320805488871685528285208054919097166001600160a01b03199182161790965592849052825490941690915591519081527ff958f63a03d52fa6114df75e4f1176335f2a3cef00a6f620f1fbc70ae4b2542b9101610bca565b6001600160a01b0381161580159061224057506001600160a01b038116600114155b6122745760405162461bcd60e51b8152602060048201526005602482015264475331303160d81b604482015260640161057d565b6001600160a01b038281166000908152606960205260409020548116908216146122c85760405162461bcd60e51b8152602060048201526005602482015264475331303360d81b604482015260640161057d565b6001600160a01b038181166000818152606960209081526040808320805488871685528285208054919097166001600160a01b03199182161790965592849052825490941690915591519081527faab4fa2b463f581b2b32cb3b7e3b704b9ce37cc209b5fb4d77e593ace40542769101610bca565b600054610100900460ff166123a85760405162461bcd60e51b815260206004820152602b60248201527f496e697469616c697a61626c653a20636f6e7472616374206973206e6f74206960448201526a6e697469616c697a696e6760a81b606482015260840161057d565b61102e33611f67565b600160005260696020527fc073f36c05b6a60b24c30a48974b549770d8fa354751fb3170c9dfd8ca536add546001600160a01b0316156124335760405162461bcd60e51b815260206004820152601b60248201527f4d6f64756c657320616c726561647920696e697469616c697a65640000000000604482015260640161057d565b6001600081905260696020527fc073f36c05b6a60b24c30a48974b549770d8fa354751fb3170c9dfd8ca536add80546001600160a01b0319169091179055565b600160005260676020527f6bee784efeb983674392298ab585b22866bedf00ebb0eea949d1e66f3f50e71d546001600160a01b0316156124f55760405162461bcd60e51b815260206004820152601b60248201527f6176617461727320616c726561647920696e697469616c697a65640000000000604482015260640161057d565b6001600081905260676020527f6bee784efeb983674392298ab585b22866bedf00ebb0eea949d1e66f3f50e71d80546001600160a01b0319169091179055565b600081600181111561254957612549612afa565b146125965760405162461bcd60e51b815260206004820152601160248201527f496e76616c6964206f7065726174696f6e000000000000000000000000000000604482015260640161057d565b815415600114806125e95760405162461bcd60e51b815260206004820152601a60248201527f496e76616c69642066756e6374696f6e207369676e6174757265000000000000604482015260640161057d565b336000908152606c602052604090206004015460ff161561264c5760405162461bcd60e51b815260206004820152601060248201527f4275646765742069732066726f7a656e00000000000000000000000000000000604482015260640161057d565b336000908152606c602052604090206003810154600290910154439182916126749190612c7f565b111580156126935750336000908152606c602052604090206003015415155b156126b657336000908152606c6020526040812060018101919091556002018190555b336000908152606c60205260409020600181015490546126d69190612c97565b8511156127255760405162461bcd60e51b815260206004820152601660248201527f5265717565737420657863656564732062756467657400000000000000000000604482015260640161057d565b336000908152606c602052604081206001018054879290612747908490612c7f565b90915550505050505050565b6001600160a01b038116811461115857600080fd5b60006020828403121561277a57600080fd5b813561278581612753565b9392505050565b6000806000606084860312156127a157600080fd5b83356127ac81612753565b95602085013595506040909401359392505050565b600080604083850312156127d457600080fd5b82356127df81612753565b915060208301356127ef81612753565b809150509250929050565b634e487b7160e01b600052604160045260246000fd5b604051601f8201601f1916810167ffffffffffffffff81118282101715612839576128396127fa565b604052919050565b600067ffffffffffffffff82111561285b5761285b6127fa565b50601f01601f191660200190565b600082601f83011261287a57600080fd5b813561288d61288882612841565b612810565b8181528460208386010111156128a257600080fd5b816020850160208301376000918101602001919091529392505050565b6000602082840312156128d157600080fd5b813567ffffffffffffffff8111156128e857600080fd5b6128f484828501612869565b949350505050565b6000806000806080858703121561291257600080fd5b843561291d81612753565b935060208501359250604085013567ffffffffffffffff81111561294057600080fd5b61294c87828801612869565b92505060608501356002811061296157600080fd5b939692955090935050565b60005b8381101561298757818101518382015260200161296f565b838111156115f15750506000910152565b600081518084526129b081602086016020860161296c565b601f01601f19169290920160200192915050565b82151581526040602082015260006128f46040830184612998565b600080604083850312156129f257600080fd5b82356129fd81612753565b946020939093013593505050565b604080825283519082018190526000906020906060840190828701845b82811015612a4d5781516001600160a01b031684529284019290840190600101612a28565b5050506001600160a01b039490941692019190915250919050565b80518015158114612a7857600080fd5b919050565b600060208284031215612a8f57600080fd5b61278582612a68565b600060208284031215612aaa57600080fd5b815161278581612753565b634e487b7160e01b600052603260045260246000fd5b634e487b7160e01b600052601160045260246000fd5b600060018201612af357612af3612acb565b5060010190565b634e487b7160e01b600052602160045260246000fd5b60028110612b2e57634e487b7160e01b600052602160045260246000fd5b9052565b60006101606001600160a01b03808f1684528d6020850152816040850152612b5c8285018e612998565b9150612b6b606085018d612b10565b8a60808501528960a08501528860c085015280881660e0850152808716610100850152838203610120850152612ba18287612998565b925080851661014085015250509c9b505050505050505050505050565b6001600160a01b0385168152836020820152608060408201526000612be66080830185612998565b9050611cb66060830184612b10565b60008060408385031215612c0857600080fd5b612c1183612a68565b9150602083015167ffffffffffffffff811115612c2d57600080fd5b8301601f81018513612c3e57600080fd5b8051612c4c61288882612841565b818152866020838501011115612c6157600080fd5b612c7282602083016020860161296c565b8093505050509250929050565b60008219821115612c9257612c92612acb565b500190565b600082821015612ca957612ca9612acb565b50039056fea2646970667358221220e57d14d1b7139cc60fecd3e93e310b3cb6ec348f4f3796883834f3888bdadb5364736f6c634300080f0033496e697469616c697a61626c653a20636f6e7472616374206973206e6f742069c073f36c05b6a60b24c30a48974b549770d8fa354751fb3170c9dfd8ca536add",
  "linkReferences": {},
  "deployedLinkReferences": {}
}