{
  "_format": "hh-sol-artifact-1",
  "contractName": "dummyModule",
  "sourceName": "contracts/mockContracts/dummyModule.sol",
  "abi": [
    {
      "inputs": [
        {
          "internalType": "address",
          "name": "to",
          "type": "address"
        },
        {
          "internalType": "uint256",
          "name": "value",
          "type": "uint256"
        },
        {
          "internalType": "bytes",
          "name": "data",
          "type": "bytes"
        },
        {
          "internalType": "address",
          "name": "avatar",
          "type": "address"
        },
        {
          "internalType": "uint8",
          "name": "operation",
          "type": "uint8"
        }
      ],
      "name": "exec",
      "outputs": [
        {
          "internalType": "bool",
          "name": "success",
          "type": "bool"
        }
      ],
      "stateMutability": "nonpayable",
      "type": "function"
    }
  ],
  "bytecode": "0x608060405234801561001057600080fd5b5061034f806100206000396000f3fe608060405234801561001057600080fd5b506004361061002b5760003560e01c806336f6a23914610030575b600080fd5b61004361003e36600461014b565b610057565b604051901515815260200160405180910390f35b60008273ffffffffffffffffffffffffffffffffffffffff1663468721a78787878660ff16600181111561008d5761008d610238565b6040518563ffffffff1660e01b81526004016100ac9493929190610270565b6020604051808303816000875af11580156100cb573d6000803e3d6000fd5b505050506040513d601f19601f820116820180604052508101906100ef91906102f0565b90505b95945050505050565b803573ffffffffffffffffffffffffffffffffffffffff8116811461011f57600080fd5b919050565b634e487b7160e01b600052604160045260246000fd5b803560ff8116811461011f57600080fd5b600080600080600060a0868803121561016357600080fd5b61016c866100fb565b945060208601359350604086013567ffffffffffffffff8082111561019057600080fd5b818801915088601f8301126101a457600080fd5b8135818111156101b6576101b6610124565b604051601f8201601f19908116603f011681019083821181831017156101de576101de610124565b816040528281528b60208487010111156101f757600080fd5b82602086016020830137600060208483010152809750505050505061021e606087016100fb565b915061022c6080870161013a565b90509295509295909350565b634e487b7160e01b600052602160045260246000fd5b6002811061026c57634e487b7160e01b600052602160045260246000fd5b9052565b73ffffffffffffffffffffffffffffffffffffffff8516815260006020858184015260806040840152845180608085015260005b818110156102c05786810183015185820160a0015282016102a4565b818111156102d257600060a083870101525b50601f01601f1916830160a00191506100f29050606083018461024e565b60006020828403121561030257600080fd5b8151801515811461031257600080fd5b939250505056fea26469706673582212208dc20a82961f61348b457e89c946eea802e86c4db3cb1f0681459494b890d1a964736f6c634300080f0033",
  "linkReferences": {},
  "deployedLinkReferences": {}
}