{
  "_format": "hh-sol-artifact-1",
  "contractName": "FallbackManager",
  "sourceName": "@gnosis.pm/safe-contracts/contracts/base/FallbackManager.sol",
  "abi": [
    {
      "anonymous": false,
      "inputs": [
        {
          "indexed": false,
          "internalType": "address",
          "name": "handler",
          "type": "address"
        }
      ],
      "name": "ChangedFallbackHandler",
      "type": "event"
    },
    {
      "stateMutability": "nonpayable",
      "type": "fallback"
    },
    {
      "inputs": [
        {
          "internalType": "address",
          "name": "handler",
          "type": "address"
        }
      ],
      "name": "setFallbackHandler",
      "outputs": [],
      "stateMutability": "nonpayable",
      "type": "function"
    }
  ],
  "bytecode": "0x608060405234801561001057600080fd5b506101f7806100206000396000f3fe608060405234801561001057600080fd5b506004361061002b5760003560e01c8063f08a032314610084575b7f6c9a6c4a39284e37ed1cf53d337577d14212a4870fb976a4366c693b939918d580548061005557005b36600080373360601b365260008060143601600080855af190503d6000803e8061007e573d6000fd5b503d6000f35b610097610092366004610184565b610099565b005b6100a1610115565b6100c9817f6c9a6c4a39284e37ed1cf53d337577d14212a4870fb976a4366c693b939918d555565b60405173ffffffffffffffffffffffffffffffffffffffff821681527f5ac6c46c93c8d0e53714ba3b53db3e7c046da994313d7ed0d192028bc7c228b09060200160405180910390a150565b333014610182576040517f08c379a000000000000000000000000000000000000000000000000000000000815260206004820152600560248201527f4753303331000000000000000000000000000000000000000000000000000000604482015260640160405180910390fd5b565b60006020828403121561019657600080fd5b813573ffffffffffffffffffffffffffffffffffffffff811681146101ba57600080fd5b939250505056fea2646970667358221220ad0718d37946389d45a3ebf699b6f20cae543bda805b0cc75b9b81bdc932feff64736f6c634300080f0033",
  "linkReferences": {},
  "deployedLinkReferences": {}
}