{
  "_format": "hh-sol-artifact-1",
  "contractName": "dummyBridge",
  "sourceName": "contracts/mockContracts/dummyBridge.sol",
  "abi": [
    {
      "inputs": [],
      "name": "messageSender",
      "outputs": [
        {
          "internalType": "address",
          "name": "",
          "type": "address"
        }
      ],
      "stateMutability": "view",
      "type": "function"
    },
    {
      "inputs": [
        {
          "internalType": "address payable",
          "name": "_contract",
          "type": "address"
        },
        {
          "internalType": "bytes",
          "name": "_data",
          "type": "bytes"
        },
        {
          "internalType": "uint256",
          "name": "_gas",
          "type": "uint256"
        }
      ],
      "name": "requireToPassMessage",
      "outputs": [
        {
          "internalType": "bytes32",
          "name": "",
          "type": "bytes32"
        }
      ],
      "stateMutability": "nonpayable",
      "type": "function"
    }
  ],
  "bytecode": "0x608060405234801561001057600080fd5b506105c1806100206000396000f3fe608060405234801561001057600080fd5b50600436106100365760003560e01c8063d67bdd251461003b578063dc8601b31461004e575b600080fd5b6040513381526020015b60405180910390f35b61006161005c3660046102d9565b61006f565b604051908152602001610045565b60006100af6040518060400160405280600481526020017f686572650000000000000000000000000000000000000000000000000000000081525061017c565b6000808080806100c2886004818c610362565b8101906100cf91906103b3565b945094509450945094506100e88585848460ff166101f0565b8973ffffffffffffffffffffffffffffffffffffffff16636f021f52868686868660ff16600181111561011d5761011d6104a0565b6040518663ffffffff1660e01b815260040161013d959493929190610503565b600060405180830381600087803b15801561015757600080fd5b505af115801561016b573d6000803e3d6000fd5b505050505050505050949350505050565b6101ed816040516024016101909190610571565b60408051601f198184030181529190526020810180517bffffffffffffffffffffffffffffffffffffffffffffffffffffffff167f41304fac0000000000000000000000000000000000000000000000000000000017905261028f565b50565b60405173ffffffffffffffffffffffffffffffffffffffff80861660248301526044820185905283166064820152608481018290526102899060a40160408051601f198184030181529190526020810180517bffffffffffffffffffffffffffffffffffffffffffffffffffffffff167fa5d987680000000000000000000000000000000000000000000000000000000017905261028f565b50505050565b80516a636f6e736f6c652e6c6f67602083016000808483855afa5050505050565b803573ffffffffffffffffffffffffffffffffffffffff811681146102d457600080fd5b919050565b600080600080606085870312156102ef57600080fd5b6102f8856102b0565b9350602085013567ffffffffffffffff8082111561031557600080fd5b818701915087601f83011261032957600080fd5b81358181111561033857600080fd5b88602082850101111561034a57600080fd5b95986020929092019750949560400135945092505050565b6000808585111561037257600080fd5b8386111561037f57600080fd5b5050820193919092039150565b634e487b7160e01b600052604160045260246000fd5b803560ff811681146102d457600080fd5b600080600080600060a086880312156103cb57600080fd5b6103d4866102b0565b945060208601359350604086013567ffffffffffffffff808211156103f857600080fd5b818801915088601f83011261040c57600080fd5b81358181111561041e5761041e61038c565b604051601f8201601f19908116603f011681019083821181831017156104465761044661038c565b816040528281528b602084870101111561045f57600080fd5b826020860160208301376000602084830101528097505050505050610486606087016102b0565b9150610494608087016103a2565b90509295509295909350565b634e487b7160e01b600052602160045260246000fd5b6000815180845260005b818110156104dc576020818501810151868301820152016104c0565b818111156104ee576000602083870101525b50601f01601f19169290920160200192915050565b600073ffffffffffffffffffffffffffffffffffffffff808816835286602084015260a0604084015261053960a08401876104b6565b908516606084015290506002831061056157634e487b7160e01b600052602160045260246000fd5b8260808301529695505050505050565b60208152600061058460208301846104b6565b939250505056fea26469706673582212207d2e6a2b90b0807d9e97ffad773ae799000076cd6608f32592d2774ca44eea5064736f6c634300080f0033",
  "linkReferences": {},
  "deployedLinkReferences": {}
}