{
  "_format": "hh-sol-artifact-1",
  "contractName": "springFactory",
  "sourceName": "contracts/proxyContracts/factory/springFactory.sol",
  "abi": [
    {
      "anonymous": false,
      "inputs": [
        {
          "indexed": false,
          "internalType": "contract springProxy",
          "name": "proxy",
          "type": "address"
        },
        {
          "indexed": false,
          "internalType": "address",
          "name": "singleton",
          "type": "address"
        }
      ],
      "name": "ProxyCreation",
      "type": "event"
    },
    {
      "inputs": [],
      "name": "proxyCreationCode",
      "outputs": [
        {
          "internalType": "bytes",
          "name": "",
          "type": "bytes"
        }
      ],
      "stateMutability": "pure",
      "type": "function"
    },
    {
      "inputs": [],
      "name": "proxyRuntimeCode",
      "outputs": [
        {
          "internalType": "bytes",
          "name": "",
          "type": "bytes"
        }
      ],
      "stateMutability": "pure",
      "type": "function"
    }
  ],
  "bytecode": "0x608060405234801561001057600080fd5b50610a0c806100206000396000f3fe608060405234801561001057600080fd5b50600436106100365760003560e01c806353e5d9351461003b578063addacc0f14610059575b600080fd5b610043610061565b60405161005091906100b7565b60405180910390f35b61004361008b565b6060604051806020016100739061009d565b601f1982820381018352601f90910116604052919050565b606060405180602001610073906100aa565b6106018061010d83390190565b6102c98061070e83390190565b600060208083528351808285015260005b818110156100e4578581018301518582016040015282016100c8565b818111156100f6576000604083870101525b50601f01601f191692909201604001939250505056fe608060405234801561001057600080fd5b5060405161060138038061060183398101604081905261002f9161024d565b6100786040518060400160405280601981526020017f696d706c656d656e746174696f6e20696e2070726f78793a20000000000000008152508261008760201b6100291760201c565b610081816100d4565b50610307565b6100d0828260405160240161009d9291906102ca565b60408051601f198184030181529190526020810180516001600160e01b0390811663319af33360e01b179091526101d016565b5050565b6100ff6040518060600160405280602281526020016105df602291396101f160201b6100a01760201c565b6101128161023b60201b6101141760201c565b6101785760405162461bcd60e51b815260206004820152602d60248201527f455243313936373a206e657720696d706c656d656e746174696f6e206973206e60448201526c1bdd08184818dbdb9d1c9858dd609a1b606482015260840160405180910390fd5b806101af7f360894a13ba1a3210667c828492db98dca3e2076cc3735a920a3ca505d382bbc60001b61024a60201b6101301760201c565b80546001600160a01b0319166001600160a01b039290921691909117905550565b80516a636f6e736f6c652e6c6f67602083016000808483855afa5050505050565b6102388160405160240161020591906102f4565b60408051601f198184030181529190526020810180516001600160e01b0390811663104c13eb60e21b179091526101d016565b50565b6001600160a01b03163b151590565b90565b60006020828403121561025f57600080fd5b81516001600160a01b038116811461027657600080fd5b9392505050565b6000815180845260005b818110156102a357602081850181015186830182015201610287565b818111156102b5576000602083870101525b50601f01601f19169290920160200192915050565b6040815260006102dd604083018561027d565b905060018060a01b03831660208301529392505050565b602081526000610276602083018461027d565b6102c9806103166000396000f3fe60806040523661001357610011610017565b005b6100115b610027610022610133565b6101af565b565b61009c828260405160240161003f929190610241565b60408051601f198184030181529190526020810180517bffffffffffffffffffffffffffffffffffffffffffffffffffffffff167f319af333000000000000000000000000000000000000000000000000000000001790526101d3565b5050565b610111816040516024016100b49190610279565b60408051601f198184030181529190526020810180517bffffffffffffffffffffffffffffffffffffffffffffffffffffffff167f41304fac000000000000000000000000000000000000000000000000000000001790526101d3565b50565b73ffffffffffffffffffffffffffffffffffffffff163b151590565b90565b60006101736040518060400160405280601e81526020017f63616c6c656420696d706c656d656e746174696f6e20696e2070726f787900008152506100a0565b507f360894a13ba1a3210667c828492db98dca3e2076cc3735a920a3ca505d382bbc5473ffffffffffffffffffffffffffffffffffffffff1690565b3660008037600080366000845af43d6000803e8080156101ce573d6000f35b3d6000fd5b80516a636f6e736f6c652e6c6f67602083016000808483855afa5050505050565b6000815180845260005b8181101561021a576020818501810151868301820152016101fe565b8181111561022c576000602083870101525b50601f01601f19169290920160200192915050565b60408152600061025460408301856101f4565b905073ffffffffffffffffffffffffffffffffffffffff831660208301529392505050565b60208152600061028c60208301846101f4565b939250505056fea2646970667358221220203844e3a2ec12ab56717c86b31bb169827cfdeb47f41640ae2bcd40c50d50df64736f6c634300080f003363616c6c65642073657420696d706c656d656e746174696f6e20696e2070726f787960806040523661001357610011610017565b005b6100115b610027610022610133565b6101af565b565b61009c828260405160240161003f929190610241565b60408051601f198184030181529190526020810180517bffffffffffffffffffffffffffffffffffffffffffffffffffffffff167f319af333000000000000000000000000000000000000000000000000000000001790526101d3565b5050565b610111816040516024016100b49190610279565b60408051601f198184030181529190526020810180517bffffffffffffffffffffffffffffffffffffffffffffffffffffffff167f41304fac000000000000000000000000000000000000000000000000000000001790526101d3565b50565b73ffffffffffffffffffffffffffffffffffffffff163b151590565b90565b60006101736040518060400160405280601e81526020017f63616c6c656420696d706c656d656e746174696f6e20696e2070726f787900008152506100a0565b507f360894a13ba1a3210667c828492db98dca3e2076cc3735a920a3ca505d382bbc5473ffffffffffffffffffffffffffffffffffffffff1690565b3660008037600080366000845af43d6000803e8080156101ce573d6000f35b3d6000fd5b80516a636f6e736f6c652e6c6f67602083016000808483855afa5050505050565b6000815180845260005b8181101561021a576020818501810151868301820152016101fe565b8181111561022c576000602083870101525b50601f01601f19169290920160200192915050565b60408152600061025460408301856101f4565b905073ffffffffffffffffffffffffffffffffffffffff831660208301529392505050565b60208152600061028c60208301846101f4565b939250505056fea2646970667358221220203844e3a2ec12ab56717c86b31bb169827cfdeb47f41640ae2bcd40c50d50df64736f6c634300080f0033a26469706673582212204a4d429023853a72a2f908f1c1220bd1becf380d99c7623eee53077c5c7d724464736f6c634300080f0033",
  "linkReferences": {},
  "deployedLinkReferences": {}
}