{
  "_format": "hh-sol-artifact-1",
  "contractName": "safeWrapper",
  "sourceName": "contracts/committeeComponent/safeWrapper/safeWrapper.sol",
  "abi": [
    {
      "inputs": [
        {
          "internalType": "address",
          "name": "newSafe",
          "type": "address"
        },
        {
          "internalType": "address",
          "name": "initialModule",
          "type": "address"
        },
        {
          "internalType": "string",
          "name": "_name",
          "type": "string"
        },
        {
          "internalType": "string",
          "name": "_sector",
          "type": "string"
        }
      ],
      "stateMutability": "nonpayable",
      "type": "constructor"
    },
    {
      "inputs": [
        {
          "internalType": "address",
          "name": "guard_",
          "type": "address"
        }
      ],
      "name": "NotIERC165Compliant",
      "type": "error"
    },
    {
      "anonymous": false,
      "inputs": [
        {
          "indexed": false,
          "internalType": "address",
          "name": "guard",
          "type": "address"
        }
      ],
      "name": "ChangedGuard",
      "type": "event"
    },
    {
      "anonymous": false,
      "inputs": [
        {
          "indexed": false,
          "internalType": "address",
          "name": "avatar",
          "type": "address"
        }
      ],
      "name": "DisabledAvatar",
      "type": "event"
    },
    {
      "anonymous": false,
      "inputs": [
        {
          "indexed": false,
          "internalType": "address",
          "name": "module",
          "type": "address"
        }
      ],
      "name": "DisabledModule",
      "type": "event"
    },
    {
      "anonymous": false,
      "inputs": [
        {
          "indexed": false,
          "internalType": "address",
          "name": "avatar",
          "type": "address"
        }
      ],
      "name": "EnabledAvatar",
      "type": "event"
    },
    {
      "anonymous": false,
      "inputs": [
        {
          "indexed": false,
          "internalType": "address",
          "name": "module",
          "type": "address"
        }
      ],
      "name": "EnabledModule",
      "type": "event"
    },
    {
      "anonymous": false,
      "inputs": [
        {
          "indexed": true,
          "internalType": "address",
          "name": "module",
          "type": "address"
        }
      ],
      "name": "ExecutionFromModuleFailure",
      "type": "event"
    },
    {
      "anonymous": false,
      "inputs": [
        {
          "indexed": true,
          "internalType": "address",
          "name": "module",
          "type": "address"
        }
      ],
      "name": "ExecutionFromModuleSuccess",
      "type": "event"
    },
    {
      "anonymous": false,
      "inputs": [
        {
          "indexed": false,
          "internalType": "uint8",
          "name": "version",
          "type": "uint8"
        }
      ],
      "name": "Initialized",
      "type": "event"
    },
    {
      "anonymous": false,
      "inputs": [
        {
          "indexed": true,
          "internalType": "address",
          "name": "previousOwner",
          "type": "address"
        },
        {
          "indexed": true,
          "internalType": "address",
          "name": "newOwner",
          "type": "address"
        }
      ],
      "name": "OwnershipTransferred",
      "type": "event"
    },
    {
      "anonymous": false,
      "inputs": [
        {
          "indexed": false,
          "internalType": "address",
          "name": "newSafe",
          "type": "address"
        }
      ],
      "name": "SafeSucessfullyRegistered",
      "type": "event"
    },
    {
      "anonymous": false,
      "inputs": [
        {
          "indexed": true,
          "internalType": "address",
          "name": "previousTarget",
          "type": "address"
        },
        {
          "indexed": true,
          "internalType": "address",
          "name": "newTarget",
          "type": "address"
        }
      ],
      "name": "TargetSet",
      "type": "event"
    },
    {
      "inputs": [
        {
          "internalType": "address",
          "name": "owner",
          "type": "address"
        },
        {
          "internalType": "uint256",
          "name": "threshold",
          "type": "uint256"
        }
      ],
      "name": "addOwner",
      "outputs": [],
      "stateMutability": "nonpayable",
      "type": "function"
    },
    {
      "inputs": [
        {
          "internalType": "address",
          "name": "preAvatar",
          "type": "address"
        },
        {
          "internalType": "address",
          "name": "avatar",
          "type": "address"
        }
      ],
      "name": "disableAvatar",
      "outputs": [],
      "stateMutability": "nonpayable",
      "type": "function"
    },
    {
      "inputs": [
        {
          "internalType": "address",
          "name": "prevModule",
          "type": "address"
        },
        {
          "internalType": "address",
          "name": "module",
          "type": "address"
        }
      ],
      "name": "disableModule",
      "outputs": [],
      "stateMutability": "nonpayable",
      "type": "function"
    },
    {
      "inputs": [
        {
          "internalType": "address",
          "name": "avatar",
          "type": "address"
        }
      ],
      "name": "enableAvatar",
      "outputs": [],
      "stateMutability": "nonpayable",
      "type": "function"
    },
    {
      "inputs": [
        {
          "internalType": "address",
          "name": "module",
          "type": "address"
        }
      ],
      "name": "enableModule",
      "outputs": [],
      "stateMutability": "nonpayable",
      "type": "function"
    },
    {
      "inputs": [
        {
          "internalType": "address",
          "name": "to",
          "type": "address"
        },
        {
          "internalType": "uint256",
          "name": "value",
          "type": "uint256"
        },
        {
          "internalType": "bytes",
          "name": "data",
          "type": "bytes"
        },
        {
          "internalType": "enum Enum.Operation",
          "name": "operation",
          "type": "uint8"
        }
      ],
      "name": "execTransactionFromModule",
      "outputs": [
        {
          "internalType": "bool",
          "name": "success",
          "type": "bool"
        }
      ],
      "stateMutability": "nonpayable",
      "type": "function"
    },
    {
      "inputs": [
        {
          "internalType": "address",
          "name": "to",
          "type": "address"
        },
        {
          "internalType": "uint256",
          "name": "value",
          "type": "uint256"
        },
        {
          "internalType": "bytes",
          "name": "data",
          "type": "bytes"
        },
        {
          "internalType": "enum Enum.Operation",
          "name": "operation",
          "type": "uint8"
        }
      ],
      "name": "execTransactionFromModuleReturnData",
      "outputs": [
        {
          "internalType": "bool",
          "name": "success",
          "type": "bool"
        },
        {
          "internalType": "bytes",
          "name": "returnData",
          "type": "bytes"
        }
      ],
      "stateMutability": "nonpayable",
      "type": "function"
    },
    {
      "inputs": [
        {
          "internalType": "address",
          "name": "start",
          "type": "address"
        },
        {
          "internalType": "uint256",
          "name": "pageSize",
          "type": "uint256"
        }
      ],
      "name": "getAvatarsPaginated",
      "outputs": [
        {
          "internalType": "address[]",
          "name": "array",
          "type": "address[]"
        },
        {
          "internalType": "address",
          "name": "next",
          "type": "address"
        }
      ],
      "stateMutability": "view",
      "type": "function"
    },
    {
      "inputs": [],
      "name": "getGuard",
      "outputs": [
        {
          "internalType": "address",
          "name": "_guard",
          "type": "address"
        }
      ],
      "stateMutability": "view",
      "type": "function"
    },
    {
      "inputs": [
        {
          "internalType": "address",
          "name": "start",
          "type": "address"
        },
        {
          "internalType": "uint256",
          "name": "pageSize",
          "type": "uint256"
        }
      ],
      "name": "getModulesPaginated",
      "outputs": [
        {
          "internalType": "address[]",
          "name": "array",
          "type": "address[]"
        },
        {
          "internalType": "address",
          "name": "next",
          "type": "address"
        }
      ],
      "stateMutability": "view",
      "type": "function"
    },
    {
      "inputs": [],
      "name": "guard",
      "outputs": [
        {
          "internalType": "address",
          "name": "",
          "type": "address"
        }
      ],
      "stateMutability": "view",
      "type": "function"
    },
    {
      "inputs": [
        {
          "internalType": "bytes",
          "name": "initializeParams",
          "type": "bytes"
        }
      ],
      "name": "initialize",
      "outputs": [],
      "stateMutability": "nonpayable",
      "type": "function"
    },
    {
      "inputs": [
        {
          "internalType": "address",
          "name": "avatar",
          "type": "address"
        }
      ],
      "name": "isAvatarEnabled",
      "outputs": [
        {
          "internalType": "bool",
          "name": "",
          "type": "bool"
        }
      ],
      "stateMutability": "view",
      "type": "function"
    },
    {
      "inputs": [
        {
          "internalType": "address",
          "name": "module",
          "type": "address"
        }
      ],
      "name": "isModuleEnabled",
      "outputs": [
        {
          "internalType": "bool",
          "name": "",
          "type": "bool"
        }
      ],
      "stateMutability": "view",
      "type": "function"
    },
    {
      "inputs": [],
      "name": "name",
      "outputs": [
        {
          "internalType": "string",
          "name": "",
          "type": "string"
        }
      ],
      "stateMutability": "view",
      "type": "function"
    },
    {
      "inputs": [],
      "name": "owner",
      "outputs": [
        {
          "internalType": "address",
          "name": "",
          "type": "address"
        }
      ],
      "stateMutability": "view",
      "type": "function"
    },
    {
      "inputs": [],
      "name": "permissionRegistry",
      "outputs": [
        {
          "internalType": "address",
          "name": "",
          "type": "address"
        }
      ],
      "stateMutability": "view",
      "type": "function"
    },
    {
      "inputs": [
        {
          "internalType": "address",
          "name": "owner",
          "type": "address"
        },
        {
          "internalType": "uint256",
          "name": "threshold",
          "type": "uint256"
        }
      ],
      "name": "removeOwner",
      "outputs": [],
      "stateMutability": "nonpayable",
      "type": "function"
    },
    {
      "inputs": [],
      "name": "renounceOwnership",
      "outputs": [],
      "stateMutability": "nonpayable",
      "type": "function"
    },
    {
      "inputs": [],
      "name": "sector",
      "outputs": [
        {
          "internalType": "string",
          "name": "",
          "type": "string"
        }
      ],
      "stateMutability": "view",
      "type": "function"
    },
    {
      "inputs": [
        {
          "internalType": "address",
          "name": "to",
          "type": "address"
        },
        {
          "internalType": "uint256",
          "name": "amount",
          "type": "uint256"
        },
        {
          "internalType": "address",
          "name": "avatar",
          "type": "address"
        }
      ],
      "name": "sendEth",
      "outputs": [],
      "stateMutability": "nonpayable",
      "type": "function"
    },
    {
      "inputs": [
        {
          "internalType": "address",
          "name": "_guard",
          "type": "address"
        }
      ],
      "name": "setGuard",
      "outputs": [],
      "stateMutability": "nonpayable",
      "type": "function"
    },
    {
      "inputs": [
        {
          "internalType": "address",
          "name": "_permissionReg",
          "type": "address"
        }
      ],
      "name": "setPermissionReg",
      "outputs": [],
      "stateMutability": "nonpayable",
      "type": "function"
    },
    {
      "inputs": [
        {
          "internalType": "address",
          "name": "target",
          "type": "address"
        },
        {
          "internalType": "address",
          "name": "avatar",
          "type": "address"
        }
      ],
      "name": "setTarget",
      "outputs": [],
      "stateMutability": "nonpayable",
      "type": "function"
    },
    {
      "inputs": [
        {
          "internalType": "address",
          "name": "newOwner",
          "type": "address"
        }
      ],
      "name": "transferOwnership",
      "outputs": [],
      "stateMutability": "nonpayable",
      "type": "function"
    }
  ],
  "bytecode": "0x60806040523480156200001157600080fd5b506040516200390c3803806200390c833981016040819052620000349162000a21565b6000848484846040516020016200004f949392919062000ae4565b60408051601f1981840301815291905290506200006c8162000077565b505050505062000c8c565b600054610100900460ff1615808015620000985750600054600160ff909116105b80620000c85750620000b5306200022b60201b6200175d1760201c565b158015620000c8575060005460ff166001145b620001315760405162461bcd60e51b815260206004820152602e60248201527f496e697469616c697a61626c653a20636f6e747261637420697320616c72656160448201526d191e481a5b9a5d1a585b1a5e995960921b60648201526084015b60405180910390fd5b6000805460ff19166001179055801562000155576000805461ff0019166101001790555b6000806000808580602001905181019062000171919062000a21565b9350935093509350620001896200023a60201b60201c565b62000193620002a2565b6200019d62000308565b620001a8846200036e565b620001b38462000468565b620001be83620005a5565b606b620001cc838262000bc0565b50606c620001db828262000bc0565b5050505050801562000227576000805461ff0019169055604051600181527f7f26b83ff96e1f2b6a682f133852f6798a09c465da95921460cefb38474024989060200160405180910390a15b5050565b6001600160a01b03163b151590565b600054610100900460ff16620002965760405162461bcd60e51b815260206004820152602b6024820152600080516020620038ac83398151915260448201526a6e697469616c697a696e6760a81b606482015260840162000128565b620002a0620006cf565b565b600054610100900460ff16620002fe5760405162461bcd60e51b815260206004820152602b6024820152600080516020620038ac83398151915260448201526a6e697469616c697a696e6760a81b606482015260840162000128565b620002a062000736565b600054610100900460ff16620003645760405162461bcd60e51b815260206004820152602b6024820152600080516020620038ac83398151915260448201526a6e697469616c697a696e6760a81b606482015260840162000128565b620002a0620007d8565b6001600160a01b038116620003b85760405162461bcd60e51b815260206004820152600f60248201526e496e76616c6964206164647265737360881b604482015260640162000128565b606a546001600160a01b031615620004135760405162461bcd60e51b815260206004820152601760248201527f4d6f64756c6520616c7265616479206861732073616665000000000000000000604482015260640162000128565b606a80546001600160a01b0319166001600160a01b0383169081179091556040519081527f28c5ac8148c93862fe8d3b692cc159e3359b54fae60f1d8ca29f338e4b21e948906020015b60405180910390a150565b6001600160a01b038116158015906200048b57506001600160a01b038116600114155b620004c15760405162461bcd60e51b8152602060048201526005602482015264475331303160d81b604482015260640162000128565b6001600160a01b038181166000908152606760205260409020541615620005135760405162461bcd60e51b815260206004820152600560248201526423a998981960d91b604482015260640162000128565b6067602052600080516020620038ec83398151915280546001600160a01b038381166000818152604081208054939094166001600160a01b03199384161790935560019092528254161790556200056b81806200087a565b6040516001600160a01b03821681527fdc8509131aac11ac4f5b915e0b24114ac71cf7b256433834e067829bf9db3ad4906020016200045d565b6001600160a01b03811615801590620005c857506001600160a01b038116600114155b620005fe5760405162461bcd60e51b8152602060048201526005602482015264475331303160d81b604482015260640162000128565b6001600160a01b038181166000908152606960205260409020541615620006505760405162461bcd60e51b815260206004820152600560248201526423a998981960d91b604482015260640162000128565b60696020908152600080516020620038cc83398151915280546001600160a01b03848116600081815260408082208054949095166001600160a01b0319948516179094556001905283549091168117909255519081527fecdf3a3effea5783a3c4c2140e677577666428d44ed9d474a0b3a4c9943f844091016200045d565b600054610100900460ff166200072b5760405162461bcd60e51b815260206004820152602b6024820152600080516020620038ac83398151915260448201526a6e697469616c697a696e6760a81b606482015260840162000128565b620002a033620008dc565b60016000526069602052600080516020620038cc833981519152546001600160a01b031615620007a95760405162461bcd60e51b815260206004820152601b60248201527f4d6f64756c657320616c726561647920696e697469616c697a65640000000000604482015260640162000128565b600160008190526069602052600080516020620038cc83398151915280546001600160a01b0319169091179055565b60016000526067602052600080516020620038ec833981519152546001600160a01b0316156200084b5760405162461bcd60e51b815260206004820152601b60248201527f6176617461727320616c726561647920696e697469616c697a65640000000000604482015260640162000128565b600160008190526067602052600080516020620038ec83398151915280546001600160a01b0319169091179055565b6001600160a01b0380821660009081526068602052604080822080548685166001600160a01b031982168117909255915191909316929183917f90cc2f570a6eb594b1580ea3e41247d2d73a55281889e86bd4ec2fc29c7e62d69190a3505050565b603380546001600160a01b038381166001600160a01b0319831681179093556040519116919082907f8be0079c531659141344cd1fd0a4f28419497f9722a3daafe3b4186f6b6457e090600090a35050565b6001600160a01b03811681146200094457600080fd5b50565b634e487b7160e01b600052604160045260246000fd5b60005b838110156200097a57818101518382015260200162000960565b838111156200098a576000848401525b50505050565b600082601f830112620009a257600080fd5b81516001600160401b0380821115620009bf57620009bf62000947565b604051601f8301601f19908116603f01168101908282118183101715620009ea57620009ea62000947565b8160405283815286602085880101111562000a0457600080fd5b62000a178460208301602089016200095d565b9695505050505050565b6000806000806080858703121562000a3857600080fd5b845162000a45816200092e565b602086015190945062000a58816200092e565b60408601519093506001600160401b038082111562000a7657600080fd5b62000a848883890162000990565b9350606087015191508082111562000a9b57600080fd5b5062000aaa8782880162000990565b91505092959194509250565b6000815180845262000ad08160208601602086016200095d565b601f01601f19169290920160200192915050565b6001600160a01b0385811682528416602082015260806040820181905260009062000b129083018562000ab6565b828103606084015262000b26818562000ab6565b979650505050505050565b600181811c9082168062000b4657607f821691505b60208210810362000b6757634e487b7160e01b600052602260045260246000fd5b50919050565b601f82111562000bbb57600081815260208120601f850160051c8101602086101562000b965750805b601f850160051c820191505b8181101562000bb75782815560010162000ba2565b5050505b505050565b81516001600160401b0381111562000bdc5762000bdc62000947565b62000bf48162000bed845462000b31565b8462000b6d565b602080601f83116001811462000c2c576000841562000c135750858301515b600019600386901b1c1916600185901b17855562000bb7565b600085815260208120601f198616915b8281101562000c5d5788860151825594840194600190910190840162000c3c565b508582101562000c7c5787850151600019600388901b60f8161c191681555b5050505050600190811b01905550565b612c108062000c9c6000396000f3fe608060405234801561001057600080fd5b50600436106101a35760003560e01c80638da5cb5b116100ee578063c2e042f411610097578063d9c31c7311610071578063d9c31c731461036e578063e009cfde14610381578063e19a9dd914610394578063f2fde38b146103a757600080fd5b8063c2e042f414610337578063c91063891461034a578063cc2f84521461035b57600080fd5b8063b55a5c1c116100c8578063b55a5c1c146102f0578063ba7707b214610303578063bfd2b3a31461032457600080fd5b80638da5cb5b146102b957806392ddaaba146102ca578063b1d49d56146102dd57600080fd5b8063439fab9111610150578063610b59251161012a578063610b592514610273578063715018a6146102865780637ceab3b11461028e57600080fd5b8063439fab911461022c578063468721a71461023f5780635229073f1461025257600080fd5b80632d9ad53d116101815780632d9ad53d146101e35780633cc38f5c146102065780633ecf06bd1461021957600080fd5b806306fdde03146101a8578063113c17de146101c6578063177536ea146101db575b600080fd5b6101b06103ba565b6040516101bd919061243e565b60405180910390f35b6101d96101d436600461246d565b610448565b005b6101b061058d565b6101f66101f136600461246d565b61059a565b60405190151581526020016101bd565b6101d961021436600461248a565b6105d5565b6101d96102273660046124b6565b6108aa565b6101d961023a3660046125b4565b61090c565b6101f661024d3660046125f1565b610a99565b6102656102603660046125f1565b610c30565b6040516101bd929190612661565b6101d961028136600461246d565b610c66565b6101d9610d8a565b6065546102a1906001600160a01b031681565b6040516001600160a01b0390911681526020016101bd565b6033546001600160a01b03166102a1565b6101d96102d836600461267c565b610d9e565b6101d96102eb36600461246d565b610e2e565b6066546102a1906001600160a01b031681565b61031661031136600461248a565b610e3a565b6040516101bd9291906126be565b6101d961033236600461248a565b610f34565b6101d96103453660046124b6565b611329565b6065546001600160a01b03166102a1565b61031661036936600461248a565b611333565b6101f661037c36600461246d565b61141f565b6101d961038f3660046124b6565b611457565b6101d96103a236600461246d565b611582565b6101d96103b536600461246d565b6116d0565b606b80546103c79061271b565b80601f01602080910402602001604051908101604052809291908181526020018280546103f39061271b565b80156104405780601f1061041557610100808354040283529160200191610440565b820191906000526020600020905b81548152906001019060200180831161042357829003601f168201915b505050505081565b6000336001148015906104725750336000908152606960205260409020546001600160a01b031615155b90506000816105025760665460405163b700961360e01b81523360048201523060248201526000356001600160e01b03191660448201526001600160a01b039091169063b700961390606401602060405180830381865afa1580156104db573d6000803e3d6000fd5b505050506040513d601f19601f820116820180604052508101906104ff919061276a565b90505b818061050b5750805b6105685760405162461bcd60e51b8152602060048201526024808201527f4e6f7420617574686f72697a656420746f2063616c6c20746869732066756e636044820152633a34b7b760e11b60648201526084015b60405180910390fd5b606680546001600160a01b0319166001600160a01b038516179055505050565b505050565b606c80546103c79061271b565b600060016001600160a01b038316148015906105cf57506001600160a01b038281166000908152606960205260409020541615155b92915050565b6000336001148015906105ff5750336000908152606960205260409020546001600160a01b031615155b905060008161068f5760665460405163b700961360e01b81523360048201523060248201526000356001600160e01b03191660448201526001600160a01b039091169063b700961390606401602060405180830381865afa158015610668573d6000803e3d6000fd5b505050506040513d601f19601f8201168201806040525081019061068c919061276a565b90505b81806106985750805b6106f05760405162461bcd60e51b8152602060048201526024808201527f4e6f7420617574686f72697a656420746f2063616c6c20746869732066756e636044820152633a34b7b760e11b606482015260840161055f565b606a546001600160a01b0316330361075e5760405162461bcd60e51b815260206004820152602b60248201527f546865207265676973746572656420736166652063616e6e6f742063616c6c2060448201526a1d1a1a5cc81b595d1a1bd960aa1b606482015260840161055f565b6040516001600160a01b03851660248201526044810184905260009060640160408051601f198184030181529181526020820180517bffffffffffffffffffffffffffffffffffffffffffffffffffffffff167f0d582f1300000000000000000000000000000000000000000000000000000000179052606a54905163468721a760e01b81529192506000916001600160a01b039091169063468721a7906108109083908590879082906004016127b9565b6020604051808303816000875af115801561082f573d6000803e3d6000fd5b505050506040513d601f19601f82011682018060405250810190610853919061276a565b9050806108a25760405162461bcd60e51b815260206004820152601760248201527f53616665205472616e73616374696f6e204661696c6564000000000000000000604482015260640161055f565b505050505050565b6001600160a01b0380821660009081526068602052604080822080548685166001600160a01b031982168117909255915191909316929183917f90cc2f570a6eb594b1580ea3e41247d2d73a55281889e86bd4ec2fc29c7e62d69190a3505050565b600054610100900460ff161580801561092c5750600054600160ff909116105b806109465750303b158015610946575060005460ff166001145b6109b85760405162461bcd60e51b815260206004820152602e60248201527f496e697469616c697a61626c653a20636f6e747261637420697320616c72656160448201527f647920696e697469616c697a6564000000000000000000000000000000000000606482015260840161055f565b6000805460ff1916600117905580156109db576000805461ff0019166101001790555b600080600080858060200190518101906109f5919061284b565b9350935093509350610a0561176c565b610a0d6117df565b610a15611852565b610a1e846118c5565b610a27846119c2565b610a3083611b08565b606b610a3c838261291c565b50606c610a49828261291c565b50505050508015610a95576000805461ff0019169055604051600181527f7f26b83ff96e1f2b6a682f133852f6798a09c465da95921460cefb3847402498906020015b60405180910390a15b5050565b60008033600114801590610ac45750336000908152606960205260409020546001600160a01b031615155b9050600081610b545760665460405163b700961360e01b81523360048201523060248201526000356001600160e01b03191660448201526001600160a01b039091169063b700961390606401602060405180830381865afa158015610b2d573d6000803e3d6000fd5b505050506040513d601f19601f82011682018060405250810190610b51919061276a565b90505b8180610b5d5750805b610bb55760405162461bcd60e51b8152602060048201526024808201527f4e6f7420617574686f72697a656420746f2063616c6c20746869732066756e636044820152633a34b7b760e11b606482015260840161055f565b610bc2878787875a611c3d565b92508215610bfa5760405133907f6895c13664aa4f67288b25d7a21d7aaa34916e355fb9b6fae0a139a9085becb890600090a2610c26565b60405133907facd2c8702804128fdb0db2bb49f6d127dd0181c13fd45dbfe16de0930e2bd37590600090a25b5050949350505050565b60006060610c4086868686610a99565b915060405160203d0181016040523d81523d6000602083013e8091505094509492505050565b600033600114801590610c905750336000908152606960205260409020546001600160a01b031615155b9050600081610d205760665460405163b700961360e01b81523360048201523060248201526000356001600160e01b03191660448201526001600160a01b039091169063b700961390606401602060405180830381865afa158015610cf9573d6000803e3d6000fd5b505050506040513d601f19601f82011682018060405250810190610d1d919061276a565b90505b8180610d295750805b610d815760405162461bcd60e51b8152602060048201526024808201527f4e6f7420617574686f72697a656420746f2063616c6c20746869732066756e636044820152633a34b7b760e11b606482015260840161055f565b61058883611b08565b610d92611c84565b610d9c6000611cde565b565b606a546001600160a01b03163314610e1e5760405162461bcd60e51b815260206004820152602d60248201527f4f6e6c7920746865207265676973746572656420736166652063616e2063616c60448201527f6c2074686973206d6574686f6400000000000000000000000000000000000000606482015260840161055f565b60606108a2848483856000611d30565b610e37816119c2565b50565b606060008267ffffffffffffffff811115610e5757610e576124ef565b604051908082528060200260200182016040528015610e80578160200160208202803683370190505b506001600160a01b0380861660009081526067602052604081205492945091165b6001600160a01b03811615801590610ec357506001600160a01b038116600114155b8015610ece57508482105b15610f265780848381518110610ee657610ee66129dc565b6001600160a01b03928316602091820292909201810191909152918116600090815260679092526040909120541681610f1e81612a08565b925050610ea1565b908352919491935090915050565b600033600114801590610f5e5750336000908152606960205260409020546001600160a01b031615155b9050600081610fee5760665460405163b700961360e01b81523360048201523060248201526000356001600160e01b03191660448201526001600160a01b039091169063b700961390606401602060405180830381865afa158015610fc7573d6000803e3d6000fd5b505050506040513d601f19601f82011682018060405250810190610feb919061276a565b90505b8180610ff75750805b61104f5760405162461bcd60e51b8152602060048201526024808201527f4e6f7420617574686f72697a656420746f2063616c6c20746869732066756e636044820152633a34b7b760e11b606482015260840161055f565b606a546001600160a01b031633036110bd5760405162461bcd60e51b815260206004820152602b60248201527f546865207265676973746572656420736166652063616e6e6f742063616c6c2060448201526a1d1a1a5cc81b595d1a1bd960aa1b606482015260840161055f565b606a54604080517fa0e67e2b00000000000000000000000000000000000000000000000000000000815290516000926001600160a01b03169163a0e67e2b91600480830192869291908290030181865afa15801561111f573d6000803e3d6000fd5b505050506040513d6000823e601f3d908101601f191682016040526111479190810190612a21565b90506000805b82518110156111d257866001600160a01b0316838281518110611172576111726129dc565b60200260200101516001600160a01b0316036111c0578060000361119957600191506111c0565b826111a5600183612ad3565b815181106111b5576111b56129dc565b602002602001015191505b806111ca81612a08565b91505061114d565b506040516001600160a01b038083166024830152871660448201526064810186905260009060840160408051601f198184030181529181526020820180517bffffffffffffffffffffffffffffffffffffffffffffffffffffffff167ff8dc5dd900000000000000000000000000000000000000000000000000000000179052606a54905163468721a760e01b81529192506000916001600160a01b039091169063468721a79061128d9083908590879082906004016127b9565b6020604051808303816000875af11580156112ac573d6000803e3d6000fd5b505050506040513d601f19601f820116820180604052508101906112d0919061276a565b90508061131f5760405162461bcd60e51b815260206004820152601760248201527f53616665205472616e73616374696f6e204661696c6564000000000000000000604482015260640161055f565b5050505050505050565b610a958282611fb0565b606060008267ffffffffffffffff811115611350576113506124ef565b604051908082528060200260200182016040528015611379578160200160208202803683370190505b506001600160a01b0380861660009081526069602052604081205492945091165b6001600160a01b038116158015906113bc57506001600160a01b038116600114155b80156113c757508482105b15610f2657808483815181106113df576113df6129dc565b6001600160a01b0392831660209182029290920181019190915291811660009081526069909252604090912054168161141781612a08565b92505061139a565b600060016001600160a01b038316148015906105cf5750506001600160a01b0390811660009081526067602052604090205416151590565b6000336001148015906114815750336000908152606960205260409020546001600160a01b031615155b90506000816115115760665460405163b700961360e01b81523360048201523060248201526000356001600160e01b03191660448201526001600160a01b039091169063b700961390606401602060405180830381865afa1580156114ea573d6000803e3d6000fd5b505050506040513d601f19601f8201168201806040525081019061150e919061276a565b90505b818061151a5750805b6115725760405162461bcd60e51b8152602060048201526024808201527f4e6f7420617574686f72697a656420746f2063616c6c20746869732066756e636044820152633a34b7b760e11b606482015260840161055f565b61157c84846120cf565b50505050565b61158a611c84565b6001600160a01b0381161561167b576040517f01ffc9a70000000000000000000000000000000000000000000000000000000081527fe6d7a83a0000000000000000000000000000000000000000000000000000000060048201526001600160a01b038216906301ffc9a790602401602060405180830381865afa158015611616573d6000803e3d6000fd5b505050506040513d601f19601f8201168201806040525081019061163a919061276a565b61167b576040517fb16ea67e0000000000000000000000000000000000000000000000000000000081526001600160a01b038216600482015260240161055f565b606580546001600160a01b0319166001600160a01b0383169081179091556040519081527f1151116914515bc0891ff9047a6cb32cf902546f83066499bcf8ba33d2353fa2906020015b60405180910390a150565b6116d8611c84565b6001600160a01b0381166117545760405162461bcd60e51b815260206004820152602660248201527f4f776e61626c653a206e6577206f776e657220697320746865207a65726f206160448201527f6464726573730000000000000000000000000000000000000000000000000000606482015260840161055f565b610e3781611cde565b6001600160a01b03163b151590565b600054610100900460ff166117d75760405162461bcd60e51b815260206004820152602b60248201527f496e697469616c697a61626c653a20636f6e7472616374206973206e6f74206960448201526a6e697469616c697a696e6760a81b606482015260840161055f565b610d9c6121ee565b600054610100900460ff1661184a5760405162461bcd60e51b815260206004820152602b60248201527f496e697469616c697a61626c653a20636f6e7472616374206973206e6f74206960448201526a6e697469616c697a696e6760a81b606482015260840161055f565b610d9c612262565b600054610100900460ff166118bd5760405162461bcd60e51b815260206004820152602b60248201527f496e697469616c697a61626c653a20636f6e7472616374206973206e6f74206960448201526a6e697469616c697a696e6760a81b606482015260840161055f565b610d9c612324565b6001600160a01b03811661191b5760405162461bcd60e51b815260206004820152600f60248201527f496e76616c696420616464726573730000000000000000000000000000000000604482015260640161055f565b606a546001600160a01b0316156119745760405162461bcd60e51b815260206004820152601760248201527f4d6f64756c6520616c7265616479206861732073616665000000000000000000604482015260640161055f565b606a80546001600160a01b0319166001600160a01b0383169081179091556040519081527f28c5ac8148c93862fe8d3b692cc159e3359b54fae60f1d8ca29f338e4b21e948906020016116c5565b6001600160a01b038116158015906119e457506001600160a01b038116600114155b611a185760405162461bcd60e51b8152602060048201526005602482015264475331303160d81b604482015260640161055f565b6001600160a01b038181166000908152606760205260409020541615611a685760405162461bcd60e51b815260206004820152600560248201526423a998981960d91b604482015260640161055f565b60676020527f6bee784efeb983674392298ab585b22866bedf00ebb0eea949d1e66f3f50e71d80546001600160a01b038381166000818152604081208054939094166001600160a01b0319938416179093556001909252825416179055611acf81806108aa565b6040516001600160a01b03821681527fdc8509131aac11ac4f5b915e0b24114ac71cf7b256433834e067829bf9db3ad4906020016116c5565b6001600160a01b03811615801590611b2a57506001600160a01b038116600114155b611b5e5760405162461bcd60e51b8152602060048201526005602482015264475331303160d81b604482015260640161055f565b6001600160a01b038181166000908152606960205260409020541615611bae5760405162461bcd60e51b815260206004820152600560248201526423a998981960d91b604482015260640161055f565b606960209081527fc073f36c05b6a60b24c30a48974b549770d8fa354751fb3170c9dfd8ca536add80546001600160a01b03848116600081815260408082208054949095166001600160a01b0319948516179094556001905283549091168117909255519081527fecdf3a3effea5783a3c4c2140e677577666428d44ed9d474a0b3a4c9943f844091016116c5565b60006001836001811115611c5357611c53612785565b03611c6b576000808551602087018986f49050611c7b565b600080855160208701888a87f190505b95945050505050565b6033546001600160a01b03163314610d9c5760405162461bcd60e51b815260206004820181905260248201527f4f776e61626c653a2063616c6c6572206973206e6f7420746865206f776e6572604482015260640161055f565b603380546001600160a01b038381166001600160a01b0319831681179093556040519116919082907f8be0079c531659141344cd1fd0a4f28419497f9722a3daafe3b4186f6b6457e090600090a35050565b60006060611d3d8461141f565b611daf5760405162461bcd60e51b815260206004820152602e60248201527f5472616e73616374696f6e2064657374696e6174696f6e20697320756e72656760448201527f6973746572656420417661746172000000000000000000000000000000000000606482015260840161055f565b6065546001600160a01b031615611e67576065546040805180820182526002815261060f60f31b602082015290517f75f0bb520000000000000000000000000000000000000000000000000000000081526001600160a01b03909216916375f0bb5291611e34918b918b918b918a916000918291829182918291903390600401612aea565b600060405180830381600087803b158015611e4e57600080fd5b505af1158015611e62573d6000803e3d6000fd5b505050505b6001600160a01b03808516600090815260686020526040908190205490517f5229073f000000000000000000000000000000000000000000000000000000008152911690635229073f90611ec5908a908a908a9089906004016127b9565b6000604051808303816000875af1158015611ee4573d6000803e3d6000fd5b505050506040513d6000823e601f3d908101601f19168201604052611f0c9190810190612b78565b60655491935091506001600160a01b031615611fa6576065546040517f9327136800000000000000000000000000000000000000000000000000000000815261060f60f31b600482015283151560248201526001600160a01b0390911690639327136890604401600060405180830381600087803b158015611f8d57600080fd5b505af1158015611fa1573d6000803e3d6000fd5b505050505b9550959350505050565b6001600160a01b03811615801590611fd257506001600160a01b038116600114155b6120065760405162461bcd60e51b8152602060048201526005602482015264475331303160d81b604482015260640161055f565b6001600160a01b0382811660009081526067602052604090205481169082161461205a5760405162461bcd60e51b8152602060048201526005602482015264475331303360d81b604482015260640161055f565b6001600160a01b038181166000818152606760209081526040808320805488871685528285208054919097166001600160a01b03199182161790965592849052825490941690915591519081527ff958f63a03d52fa6114df75e4f1176335f2a3cef00a6f620f1fbc70ae4b2542b9101610a8c565b6001600160a01b038116158015906120f157506001600160a01b038116600114155b6121255760405162461bcd60e51b8152602060048201526005602482015264475331303160d81b604482015260640161055f565b6001600160a01b038281166000908152606960205260409020548116908216146121795760405162461bcd60e51b8152602060048201526005602482015264475331303360d81b604482015260640161055f565b6001600160a01b038181166000818152606960209081526040808320805488871685528285208054919097166001600160a01b03199182161790965592849052825490941690915591519081527faab4fa2b463f581b2b32cb3b7e3b704b9ce37cc209b5fb4d77e593ace40542769101610a8c565b600054610100900460ff166122595760405162461bcd60e51b815260206004820152602b60248201527f496e697469616c697a61626c653a20636f6e7472616374206973206e6f74206960448201526a6e697469616c697a696e6760a81b606482015260840161055f565b610d9c33611cde565b600160005260696020527fc073f36c05b6a60b24c30a48974b549770d8fa354751fb3170c9dfd8ca536add546001600160a01b0316156122e45760405162461bcd60e51b815260206004820152601b60248201527f4d6f64756c657320616c726561647920696e697469616c697a65640000000000604482015260640161055f565b6001600081905260696020527fc073f36c05b6a60b24c30a48974b549770d8fa354751fb3170c9dfd8ca536add80546001600160a01b0319169091179055565b600160005260676020527f6bee784efeb983674392298ab585b22866bedf00ebb0eea949d1e66f3f50e71d546001600160a01b0316156123a65760405162461bcd60e51b815260206004820152601b60248201527f6176617461727320616c726561647920696e697469616c697a65640000000000604482015260640161055f565b6001600081905260676020527f6bee784efeb983674392298ab585b22866bedf00ebb0eea949d1e66f3f50e71d80546001600160a01b0319169091179055565b60005b838110156124015781810151838201526020016123e9565b8381111561157c5750506000910152565b6000815180845261242a8160208601602086016123e6565b601f01601f19169290920160200192915050565b6020815260006124516020830184612412565b9392505050565b6001600160a01b0381168114610e3757600080fd5b60006020828403121561247f57600080fd5b813561245181612458565b6000806040838503121561249d57600080fd5b82356124a881612458565b946020939093013593505050565b600080604083850312156124c957600080fd5b82356124d481612458565b915060208301356124e481612458565b809150509250929050565b634e487b7160e01b600052604160045260246000fd5b604051601f8201601f1916810167ffffffffffffffff8111828210171561252e5761252e6124ef565b604052919050565b600067ffffffffffffffff821115612550576125506124ef565b50601f01601f191660200190565b600082601f83011261256f57600080fd5b813561258261257d82612536565b612505565b81815284602083860101111561259757600080fd5b816020850160208301376000918101602001919091529392505050565b6000602082840312156125c657600080fd5b813567ffffffffffffffff8111156125dd57600080fd5b6125e98482850161255e565b949350505050565b6000806000806080858703121561260757600080fd5b843561261281612458565b935060208501359250604085013567ffffffffffffffff81111561263557600080fd5b6126418782880161255e565b92505060608501356002811061265657600080fd5b939692955090935050565b82151581526040602082015260006125e96040830184612412565b60008060006060848603121561269157600080fd5b833561269c81612458565b92506020840135915060408401356126b381612458565b809150509250925092565b604080825283519082018190526000906020906060840190828701845b828110156127005781516001600160a01b0316845292840192908401906001016126db565b5050506001600160a01b039490941692019190915250919050565b600181811c9082168061272f57607f821691505b60208210810361274f57634e487b7160e01b600052602260045260246000fd5b50919050565b8051801515811461276557600080fd5b919050565b60006020828403121561277c57600080fd5b61245182612755565b634e487b7160e01b600052602160045260246000fd5b60028110610e3757634e487b7160e01b600052602160045260246000fd5b6001600160a01b03851681528360208201526080604082015260006127e16080830185612412565b90506127ec8361279b565b82606083015295945050505050565b600061280961257d84612536565b905082815283838301111561281d57600080fd5b6124518360208301846123e6565b600082601f83011261283c57600080fd5b612451838351602085016127fb565b6000806000806080858703121561286157600080fd5b845161286c81612458565b602086015190945061287d81612458565b604086015190935067ffffffffffffffff8082111561289b57600080fd5b6128a78883890161282b565b935060608701519150808211156128bd57600080fd5b506128ca8782880161282b565b91505092959194509250565b601f82111561058857600081815260208120601f850160051c810160208610156128fd5750805b601f850160051c820191505b818110156108a257828155600101612909565b815167ffffffffffffffff811115612936576129366124ef565b61294a81612944845461271b565b846128d6565b602080601f83116001811461297f57600084156129675750858301515b600019600386901b1c1916600185901b1785556108a2565b600085815260208120601f198616915b828110156129ae5788860151825594840194600190910190840161298f565b50858210156129cc5787850151600019600388901b60f8161c191681555b5050505050600190811b01905550565b634e487b7160e01b600052603260045260246000fd5b634e487b7160e01b600052601160045260246000fd5b600060018201612a1a57612a1a6129f2565b5060010190565b60006020808385031215612a3457600080fd5b825167ffffffffffffffff80821115612a4c57600080fd5b818501915085601f830112612a6057600080fd5b815181811115612a7257612a726124ef565b8060051b9150612a83848301612505565b8181529183018401918481019088841115612a9d57600080fd5b938501935b83851015612ac75784519250612ab783612458565b8282529385019390850190612aa2565b98975050505050505050565b600082821015612ae557612ae56129f2565b500390565b60006101606001600160a01b03808f1684528d6020850152816040850152612b148285018e612412565b9150612b1f8c61279b565b8b60608501528a60808501528960a08501528860c085015280881660e0850152808716610100850152838203610120850152612b5b8287612412565b925080851661014085015250509c9b505050505050505050505050565b60008060408385031215612b8b57600080fd5b612b9483612755565b9150602083015167ffffffffffffffff811115612bb057600080fd5b8301601f81018513612bc157600080fd5b612bd0858251602084016127fb565b915050925092905056fea264697066735822122036e36b81c3d1423ee91e1974526ea33422a0abe724d730252657ae10ebed60f964736f6c634300080f0033496e697469616c697a61626c653a20636f6e7472616374206973206e6f742069c073f36c05b6a60b24c30a48974b549770d8fa354751fb3170c9dfd8ca536add6bee784efeb983674392298ab585b22866bedf00ebb0eea949d1e66f3f50e71d",
  "linkReferences": {},
  "deployedLinkReferences": {}
}