{
  "_format": "hh-sol-artifact-1",
  "contractName": "safeWrapperLogic",
  "sourceName": "contracts/committeeComponent/safeWrapper/safeWrapperLogic.sol",
  "abi": [
    {
      "inputs": [],
      "stateMutability": "nonpayable",
      "type": "constructor"
    },
    {
      "inputs": [
        {
          "internalType": "address",
          "name": "guard_",
          "type": "address"
        }
      ],
      "name": "NotIERC165Compliant",
      "type": "error"
    },
    {
      "anonymous": false,
      "inputs": [
        {
          "indexed": false,
          "internalType": "address",
          "name": "previousAdmin",
          "type": "address"
        },
        {
          "indexed": false,
          "internalType": "address",
          "name": "newAdmin",
          "type": "address"
        }
      ],
      "name": "AdminChanged",
      "type": "event"
    },
    {
      "anonymous": false,
      "inputs": [
        {
          "indexed": true,
          "internalType": "address",
          "name": "beacon",
          "type": "address"
        }
      ],
      "name": "BeaconUpgraded",
      "type": "event"
    },
    {
      "anonymous": false,
      "inputs": [
        {
          "indexed": false,
          "internalType": "address",
          "name": "guard",
          "type": "address"
        }
      ],
      "name": "ChangedGuard",
      "type": "event"
    },
    {
      "anonymous": false,
      "inputs": [
        {
          "indexed": false,
          "internalType": "address",
          "name": "avatar",
          "type": "address"
        }
      ],
      "name": "DisabledAvatar",
      "type": "event"
    },
    {
      "anonymous": false,
      "inputs": [
        {
          "indexed": false,
          "internalType": "address",
          "name": "module",
          "type": "address"
        }
      ],
      "name": "DisabledModule",
      "type": "event"
    },
    {
      "anonymous": false,
      "inputs": [
        {
          "indexed": false,
          "internalType": "address",
          "name": "avatar",
          "type": "address"
        }
      ],
      "name": "EnabledAvatar",
      "type": "event"
    },
    {
      "anonymous": false,
      "inputs": [
        {
          "indexed": false,
          "internalType": "address",
          "name": "module",
          "type": "address"
        }
      ],
      "name": "EnabledModule",
      "type": "event"
    },
    {
      "anonymous": false,
      "inputs": [
        {
          "indexed": true,
          "internalType": "address",
          "name": "module",
          "type": "address"
        }
      ],
      "name": "ExecutionFromModuleFailure",
      "type": "event"
    },
    {
      "anonymous": false,
      "inputs": [
        {
          "indexed": true,
          "internalType": "address",
          "name": "module",
          "type": "address"
        }
      ],
      "name": "ExecutionFromModuleSuccess",
      "type": "event"
    },
    {
      "anonymous": false,
      "inputs": [
        {
          "indexed": false,
          "internalType": "uint8",
          "name": "version",
          "type": "uint8"
        }
      ],
      "name": "Initialized",
      "type": "event"
    },
    {
      "anonymous": false,
      "inputs": [
        {
          "indexed": true,
          "internalType": "address",
          "name": "previousOwner",
          "type": "address"
        },
        {
          "indexed": true,
          "internalType": "address",
          "name": "newOwner",
          "type": "address"
        }
      ],
      "name": "OwnershipTransferred",
      "type": "event"
    },
    {
      "anonymous": false,
      "inputs": [
        {
          "indexed": false,
          "internalType": "address",
          "name": "newSafe",
          "type": "address"
        }
      ],
      "name": "SafeSucessfullyRegistered",
      "type": "event"
    },
    {
      "anonymous": false,
      "inputs": [
        {
          "indexed": true,
          "internalType": "address",
          "name": "previousTarget",
          "type": "address"
        },
        {
          "indexed": true,
          "internalType": "address",
          "name": "newTarget",
          "type": "address"
        }
      ],
      "name": "TargetSet",
      "type": "event"
    },
    {
      "anonymous": false,
      "inputs": [
        {
          "indexed": true,
          "internalType": "address",
          "name": "implementation",
          "type": "address"
        }
      ],
      "name": "Upgraded",
      "type": "event"
    },
    {
      "inputs": [
        {
          "internalType": "address",
          "name": "owner",
          "type": "address"
        },
        {
          "internalType": "uint256",
          "name": "threshold",
          "type": "uint256"
        }
      ],
      "name": "addOwner",
      "outputs": [],
      "stateMutability": "nonpayable",
      "type": "function"
    },
    {
      "inputs": [
        {
          "internalType": "address",
          "name": "preAvatar",
          "type": "address"
        },
        {
          "internalType": "address",
          "name": "avatar",
          "type": "address"
        }
      ],
      "name": "disableAvatar",
      "outputs": [],
      "stateMutability": "nonpayable",
      "type": "function"
    },
    {
      "inputs": [
        {
          "internalType": "address",
          "name": "prevModule",
          "type": "address"
        },
        {
          "internalType": "address",
          "name": "module",
          "type": "address"
        }
      ],
      "name": "disableModule",
      "outputs": [],
      "stateMutability": "nonpayable",
      "type": "function"
    },
    {
      "inputs": [
        {
          "internalType": "address",
          "name": "avatar",
          "type": "address"
        }
      ],
      "name": "enableAvatar",
      "outputs": [],
      "stateMutability": "nonpayable",
      "type": "function"
    },
    {
      "inputs": [
        {
          "internalType": "address",
          "name": "module",
          "type": "address"
        }
      ],
      "name": "enableModule",
      "outputs": [],
      "stateMutability": "nonpayable",
      "type": "function"
    },
    {
      "inputs": [
        {
          "internalType": "address",
          "name": "to",
          "type": "address"
        },
        {
          "internalType": "uint256",
          "name": "value",
          "type": "uint256"
        },
        {
          "internalType": "bytes",
          "name": "data",
          "type": "bytes"
        },
        {
          "internalType": "enum Enum.Operation",
          "name": "operation",
          "type": "uint8"
        }
      ],
      "name": "execTransactionFromModule",
      "outputs": [
        {
          "internalType": "bool",
          "name": "success",
          "type": "bool"
        }
      ],
      "stateMutability": "nonpayable",
      "type": "function"
    },
    {
      "inputs": [
        {
          "internalType": "address",
          "name": "to",
          "type": "address"
        },
        {
          "internalType": "uint256",
          "name": "value",
          "type": "uint256"
        },
        {
          "internalType": "bytes",
          "name": "data",
          "type": "bytes"
        },
        {
          "internalType": "enum Enum.Operation",
          "name": "operation",
          "type": "uint8"
        }
      ],
      "name": "execTransactionFromModuleReturnData",
      "outputs": [
        {
          "internalType": "bool",
          "name": "success",
          "type": "bool"
        },
        {
          "internalType": "bytes",
          "name": "returnData",
          "type": "bytes"
        }
      ],
      "stateMutability": "nonpayable",
      "type": "function"
    },
    {
      "inputs": [
        {
          "internalType": "address",
          "name": "start",
          "type": "address"
        },
        {
          "internalType": "uint256",
          "name": "pageSize",
          "type": "uint256"
        }
      ],
      "name": "getAvatarsPaginated",
      "outputs": [
        {
          "internalType": "address[]",
          "name": "array",
          "type": "address[]"
        },
        {
          "internalType": "address",
          "name": "next",
          "type": "address"
        }
      ],
      "stateMutability": "view",
      "type": "function"
    },
    {
      "inputs": [],
      "name": "getGuard",
      "outputs": [
        {
          "internalType": "address",
          "name": "_guard",
          "type": "address"
        }
      ],
      "stateMutability": "view",
      "type": "function"
    },
    {
      "inputs": [
        {
          "internalType": "address",
          "name": "start",
          "type": "address"
        },
        {
          "internalType": "uint256",
          "name": "pageSize",
          "type": "uint256"
        }
      ],
      "name": "getModulesPaginated",
      "outputs": [
        {
          "internalType": "address[]",
          "name": "array",
          "type": "address[]"
        },
        {
          "internalType": "address",
          "name": "next",
          "type": "address"
        }
      ],
      "stateMutability": "view",
      "type": "function"
    },
    {
      "inputs": [],
      "name": "guard",
      "outputs": [
        {
          "internalType": "address",
          "name": "",
          "type": "address"
        }
      ],
      "stateMutability": "view",
      "type": "function"
    },
    {
      "inputs": [
        {
          "internalType": "bytes",
          "name": "initializeParams",
          "type": "bytes"
        }
      ],
      "name": "initialize",
      "outputs": [],
      "stateMutability": "nonpayable",
      "type": "function"
    },
    {
      "inputs": [
        {
          "internalType": "address",
          "name": "avatar",
          "type": "address"
        }
      ],
      "name": "isAvatarEnabled",
      "outputs": [
        {
          "internalType": "bool",
          "name": "",
          "type": "bool"
        }
      ],
      "stateMutability": "view",
      "type": "function"
    },
    {
      "inputs": [
        {
          "internalType": "address",
          "name": "module",
          "type": "address"
        }
      ],
      "name": "isModuleEnabled",
      "outputs": [
        {
          "internalType": "bool",
          "name": "",
          "type": "bool"
        }
      ],
      "stateMutability": "view",
      "type": "function"
    },
    {
      "inputs": [],
      "name": "name",
      "outputs": [
        {
          "internalType": "string",
          "name": "",
          "type": "string"
        }
      ],
      "stateMutability": "view",
      "type": "function"
    },
    {
      "inputs": [],
      "name": "owner",
      "outputs": [
        {
          "internalType": "address",
          "name": "",
          "type": "address"
        }
      ],
      "stateMutability": "view",
      "type": "function"
    },
    {
      "inputs": [],
      "name": "permissionRegistry",
      "outputs": [
        {
          "internalType": "address",
          "name": "",
          "type": "address"
        }
      ],
      "stateMutability": "view",
      "type": "function"
    },
    {
      "inputs": [],
      "name": "proxiableUUID",
      "outputs": [
        {
          "internalType": "bytes32",
          "name": "",
          "type": "bytes32"
        }
      ],
      "stateMutability": "view",
      "type": "function"
    },
    {
      "inputs": [
        {
          "internalType": "address",
          "name": "owner",
          "type": "address"
        },
        {
          "internalType": "uint256",
          "name": "threshold",
          "type": "uint256"
        }
      ],
      "name": "removeOwner",
      "outputs": [],
      "stateMutability": "nonpayable",
      "type": "function"
    },
    {
      "inputs": [],
      "name": "renounceOwnership",
      "outputs": [],
      "stateMutability": "nonpayable",
      "type": "function"
    },
    {
      "inputs": [],
      "name": "sector",
      "outputs": [
        {
          "internalType": "string",
          "name": "",
          "type": "string"
        }
      ],
      "stateMutability": "view",
      "type": "function"
    },
    {
      "inputs": [
        {
          "internalType": "address",
          "name": "to",
          "type": "address"
        },
        {
          "internalType": "uint256",
          "name": "amount",
          "type": "uint256"
        },
        {
          "internalType": "address",
          "name": "avatar",
          "type": "address"
        }
      ],
      "name": "sendEth",
      "outputs": [],
      "stateMutability": "nonpayable",
      "type": "function"
    },
    {
      "inputs": [
        {
          "internalType": "address",
          "name": "_guard",
          "type": "address"
        }
      ],
      "name": "setGuard",
      "outputs": [],
      "stateMutability": "nonpayable",
      "type": "function"
    },
    {
      "inputs": [
        {
          "internalType": "address",
          "name": "_permissionReg",
          "type": "address"
        }
      ],
      "name": "setPermissionReg",
      "outputs": [],
      "stateMutability": "nonpayable",
      "type": "function"
    },
    {
      "inputs": [
        {
          "internalType": "address",
          "name": "target",
          "type": "address"
        },
        {
          "internalType": "address",
          "name": "avatar",
          "type": "address"
        }
      ],
      "name": "setTarget",
      "outputs": [],
      "stateMutability": "nonpayable",
      "type": "function"
    },
    {
      "inputs": [
        {
          "internalType": "address",
          "name": "newOwner",
          "type": "address"
        }
      ],
      "name": "transferOwnership",
      "outputs": [],
      "stateMutability": "nonpayable",
      "type": "function"
    },
    {
      "inputs": [
        {
          "internalType": "address",
          "name": "newImplementation",
          "type": "address"
        }
      ],
      "name": "upgradeTo",
      "outputs": [],
      "stateMutability": "nonpayable",
      "type": "function"
    },
    {
      "inputs": [
        {
          "internalType": "address",
          "name": "newImplementation",
          "type": "address"
        },
        {
          "internalType": "bytes",
          "name": "data",
          "type": "bytes"
        }
      ],
      "name": "upgradeToAndCall",
      "outputs": [],
      "stateMutability": "payable",
      "type": "function"
    }
  ],
  "bytecode": "0x60a0604052306080523480156200001557600080fd5b506200002062000026565b620000e8565b600054610100900460ff1615620000935760405162461bcd60e51b815260206004820152602760248201527f496e697469616c697a61626c653a20636f6e747261637420697320696e697469604482015266616c697a696e6760c81b606482015260840160405180910390fd5b60005460ff9081161015620000e6576000805460ff191660ff9081179091556040519081527f7f26b83ff96e1f2b6a682f133852f6798a09c465da95921460cefb38474024989060200160405180910390a15b565b6080516135f8620001206000396000818161078e0152818161081301528181610f6401528181610fe9015261110501526135f86000f3fe6080604052600436106101b75760003560e01c80637ceab3b1116100ec578063c2e042f41161008a578063d9c31c7311610064578063d9c31c73146104e9578063e009cfde14610509578063e19a9dd914610529578063f2fde38b1461054957600080fd5b8063c2e042f41461048b578063c9106389146104ab578063cc2f8452146104c957600080fd5b8063b1d49d56116100c6578063b1d49d56146103fd578063b55a5c1c1461041d578063ba7707b21461043d578063bfd2b3a31461046b57600080fd5b80637ceab3b1146103875780638da5cb5b146103bf57806392ddaaba146103dd57600080fd5b8063439fab91116101595780635229073f116101335780635229073f1461030157806352d1902d1461032f578063610b592514610352578063715018a61461037257600080fd5b8063439fab91146102ae578063468721a7146102ce5780634f1ef286146102ee57600080fd5b80632d9ad53d116101955780632d9ad53d1461021e5780633659cfe61461024e5780633cc38f5c1461026e5780633ecf06bd1461028e57600080fd5b806306fdde03146101bc578063113c17de146101e7578063177536ea14610209575b600080fd5b3480156101c857600080fd5b506101d1610569565b6040516101de9190612d8b565b60405180910390f35b3480156101f357600080fd5b50610207610202366004612db3565b6105f7565b005b34801561021557600080fd5b506101d161073c565b34801561022a57600080fd5b5061023e610239366004612db3565b610749565b60405190151581526020016101de565b34801561025a57600080fd5b50610207610269366004612db3565b610784565b34801561027a57600080fd5b50610207610289366004612dd0565b6108ff565b34801561029a57600080fd5b506102076102a9366004612dfc565b610bd4565b3480156102ba57600080fd5b506102076102c9366004612efa565b610c36565b3480156102da57600080fd5b5061023e6102e9366004612f37565b610dc3565b6102076102fc366004612fa7565b610f5a565b34801561030d57600080fd5b5061032161031c366004612f37565b6110c2565b6040516101de929190612ff7565b34801561033b57600080fd5b506103446110f8565b6040519081526020016101de565b34801561035e57600080fd5b5061020761036d366004612db3565b6111bd565b34801561037e57600080fd5b506102076112e1565b34801561039357600080fd5b5060c9546103a7906001600160a01b031681565b6040516001600160a01b0390911681526020016101de565b3480156103cb57600080fd5b506097546001600160a01b03166103a7565b3480156103e957600080fd5b506102076103f8366004613012565b6112f5565b34801561040957600080fd5b50610207610418366004612db3565b611385565b34801561042957600080fd5b5060ca546103a7906001600160a01b031681565b34801561044957600080fd5b5061045d610458366004612dd0565b61138e565b6040516101de929190613054565b34801561047757600080fd5b50610207610486366004612dd0565b611488565b34801561049757600080fd5b506102076104a6366004612dfc565b61187d565b3480156104b757600080fd5b5060c9546001600160a01b03166103a7565b3480156104d557600080fd5b5061045d6104e4366004612dd0565b611887565b3480156104f557600080fd5b5061023e610504366004612db3565b611973565b34801561051557600080fd5b50610207610524366004612dfc565b6119ab565b34801561053557600080fd5b50610207610544366004612db3565b611ad6565b34801561055557600080fd5b50610207610564366004612db3565b611c24565b60cf8054610576906130b1565b80601f01602080910402602001604051908101604052809291908181526020018280546105a2906130b1565b80156105ef5780601f106105c4576101008083540402835291602001916105ef565b820191906000526020600020905b8154815290600101906020018083116105d257829003601f168201915b505050505081565b600033600114801590610621575033600090815260cd60205260409020546001600160a01b031615155b90506000816106b15760ca5460405163b700961360e01b81523360048201523060248201526000356001600160e01b03191660448201526001600160a01b039091169063b700961390606401602060405180830381865afa15801561068a573d6000803e3d6000fd5b505050506040513d601f19601f820116820180604052508101906106ae9190613100565b90505b81806106ba5750805b6107175760405162461bcd60e51b8152602060048201526024808201527f4e6f7420617574686f72697a656420746f2063616c6c20746869732066756e636044820152633a34b7b760e11b60648201526084015b60405180910390fd5b60ca80546001600160a01b0319166001600160a01b038516179055505050565b505050565b60d08054610576906130b1565b600060016001600160a01b0383161480159061077e57506001600160a01b03828116600090815260cd60205260409020541615155b92915050565b6001600160a01b037f00000000000000000000000000000000000000000000000000000000000000001630036108115760405162461bcd60e51b815260206004820152602c60248201527f46756e6374696f6e206d7573742062652063616c6c6564207468726f7567682060448201526b19195b1959d85d1958d85b1b60a21b606482015260840161070e565b7f00000000000000000000000000000000000000000000000000000000000000006001600160a01b031661086c7f360894a13ba1a3210667c828492db98dca3e2076cc3735a920a3ca505d382bbc546001600160a01b031690565b6001600160a01b0316146108d75760405162461bcd60e51b815260206004820152602c60248201527f46756e6374696f6e206d7573742062652063616c6c6564207468726f7567682060448201526b6163746976652070726f787960a01b606482015260840161070e565b6108e081611cb1565b604080516000808252602082019092526108fc91839190611cb9565b50565b600033600114801590610929575033600090815260cd60205260409020546001600160a01b031615155b90506000816109b95760ca5460405163b700961360e01b81523360048201523060248201526000356001600160e01b03191660448201526001600160a01b039091169063b700961390606401602060405180830381865afa158015610992573d6000803e3d6000fd5b505050506040513d601f19601f820116820180604052508101906109b69190613100565b90505b81806109c25750805b610a1a5760405162461bcd60e51b8152602060048201526024808201527f4e6f7420617574686f72697a656420746f2063616c6c20746869732066756e636044820152633a34b7b760e11b606482015260840161070e565b60ce546001600160a01b03163303610a885760405162461bcd60e51b815260206004820152602b60248201527f546865207265676973746572656420736166652063616e6e6f742063616c6c2060448201526a1d1a1a5cc81b595d1a1bd960aa1b606482015260840161070e565b6040516001600160a01b03851660248201526044810184905260009060640160408051601f198184030181529181526020820180517bffffffffffffffffffffffffffffffffffffffffffffffffffffffff167f0d582f130000000000000000000000000000000000000000000000000000000017905260ce54905163468721a760e01b81529192506000916001600160a01b039091169063468721a790610b3a90839085908790829060040161314f565b6020604051808303816000875af1158015610b59573d6000803e3d6000fd5b505050506040513d601f19601f82011682018060405250810190610b7d9190613100565b905080610bcc5760405162461bcd60e51b815260206004820152601760248201527f53616665205472616e73616374696f6e204661696c6564000000000000000000604482015260640161070e565b505050505050565b6001600160a01b03808216600090815260cc602052604080822080548685166001600160a01b031982168117909255915191909316929183917f90cc2f570a6eb594b1580ea3e41247d2d73a55281889e86bd4ec2fc29c7e62d69190a3505050565b600054610100900460ff1615808015610c565750600054600160ff909116105b80610c705750303b158015610c70575060005460ff166001145b610ce25760405162461bcd60e51b815260206004820152602e60248201527f496e697469616c697a61626c653a20636f6e747261637420697320616c72656160448201527f647920696e697469616c697a6564000000000000000000000000000000000000606482015260840161070e565b6000805460ff191660011790558015610d05576000805461ff0019166101001790555b60008060008085806020019051810190610d1f91906131e1565b9350935093509350610d2f611e59565b610d37611ecc565b610d3f611f3f565b610d4884611fb2565b610d51846120af565b610d5a836121f5565b60cf610d6683826132b2565b5060d0610d7382826132b2565b50505050508015610dbf576000805461ff0019169055604051600181527f7f26b83ff96e1f2b6a682f133852f6798a09c465da95921460cefb3847402498906020015b60405180910390a15b5050565b60008033600114801590610dee575033600090815260cd60205260409020546001600160a01b031615155b9050600081610e7e5760ca5460405163b700961360e01b81523360048201523060248201526000356001600160e01b03191660448201526001600160a01b039091169063b700961390606401602060405180830381865afa158015610e57573d6000803e3d6000fd5b505050506040513d601f19601f82011682018060405250810190610e7b9190613100565b90505b8180610e875750805b610edf5760405162461bcd60e51b8152602060048201526024808201527f4e6f7420617574686f72697a656420746f2063616c6c20746869732066756e636044820152633a34b7b760e11b606482015260840161070e565b610eec878787875a61232a565b92508215610f245760405133907f6895c13664aa4f67288b25d7a21d7aaa34916e355fb9b6fae0a139a9085becb890600090a2610f50565b60405133907facd2c8702804128fdb0db2bb49f6d127dd0181c13fd45dbfe16de0930e2bd37590600090a25b5050949350505050565b6001600160a01b037f0000000000000000000000000000000000000000000000000000000000000000163003610fe75760405162461bcd60e51b815260206004820152602c60248201527f46756e6374696f6e206d7573742062652063616c6c6564207468726f7567682060448201526b19195b1959d85d1958d85b1b60a21b606482015260840161070e565b7f00000000000000000000000000000000000000000000000000000000000000006001600160a01b03166110427f360894a13ba1a3210667c828492db98dca3e2076cc3735a920a3ca505d382bbc546001600160a01b031690565b6001600160a01b0316146110ad5760405162461bcd60e51b815260206004820152602c60248201527f46756e6374696f6e206d7573742062652063616c6c6564207468726f7567682060448201526b6163746976652070726f787960a01b606482015260840161070e565b6110b682611cb1565b610dbf82826001611cb9565b600060606110d286868686610dc3565b915060405160203d0181016040523d81523d6000602083013e8091505094509492505050565b6000306001600160a01b037f000000000000000000000000000000000000000000000000000000000000000016146111985760405162461bcd60e51b815260206004820152603860248201527f555550535570677261646561626c653a206d757374206e6f742062652063616c60448201527f6c6564207468726f7567682064656c656761746563616c6c0000000000000000606482015260840161070e565b507f360894a13ba1a3210667c828492db98dca3e2076cc3735a920a3ca505d382bbc90565b6000336001148015906111e7575033600090815260cd60205260409020546001600160a01b031615155b90506000816112775760ca5460405163b700961360e01b81523360048201523060248201526000356001600160e01b03191660448201526001600160a01b039091169063b700961390606401602060405180830381865afa158015611250573d6000803e3d6000fd5b505050506040513d601f19601f820116820180604052508101906112749190613100565b90505b81806112805750805b6112d85760405162461bcd60e51b8152602060048201526024808201527f4e6f7420617574686f72697a656420746f2063616c6c20746869732066756e636044820152633a34b7b760e11b606482015260840161070e565b610737836121f5565b6112e9612371565b6112f360006123cb565b565b60ce546001600160a01b031633146113755760405162461bcd60e51b815260206004820152602d60248201527f4f6e6c7920746865207265676973746572656420736166652063616e2063616c60448201527f6c2074686973206d6574686f6400000000000000000000000000000000000000606482015260840161070e565b6060610bcc84848385600061241d565b6108fc816120af565b606060008267ffffffffffffffff8111156113ab576113ab612e35565b6040519080825280602002602001820160405280156113d4578160200160208202803683370190505b506001600160a01b03808616600090815260cb602052604081205492945091165b6001600160a01b0381161580159061141757506001600160a01b038116600114155b801561142257508482105b1561147a578084838151811061143a5761143a613372565b6001600160a01b03928316602091820292909201810191909152918116600090815260cb90925260409091205416816114728161339e565b9250506113f5565b908352919491935090915050565b6000336001148015906114b2575033600090815260cd60205260409020546001600160a01b031615155b90506000816115425760ca5460405163b700961360e01b81523360048201523060248201526000356001600160e01b03191660448201526001600160a01b039091169063b700961390606401602060405180830381865afa15801561151b573d6000803e3d6000fd5b505050506040513d601f19601f8201168201806040525081019061153f9190613100565b90505b818061154b5750805b6115a35760405162461bcd60e51b8152602060048201526024808201527f4e6f7420617574686f72697a656420746f2063616c6c20746869732066756e636044820152633a34b7b760e11b606482015260840161070e565b60ce546001600160a01b031633036116115760405162461bcd60e51b815260206004820152602b60248201527f546865207265676973746572656420736166652063616e6e6f742063616c6c2060448201526a1d1a1a5cc81b595d1a1bd960aa1b606482015260840161070e565b60ce54604080517fa0e67e2b00000000000000000000000000000000000000000000000000000000815290516000926001600160a01b03169163a0e67e2b91600480830192869291908290030181865afa158015611673573d6000803e3d6000fd5b505050506040513d6000823e601f3d908101601f1916820160405261169b91908101906133b7565b90506000805b825181101561172657866001600160a01b03168382815181106116c6576116c6613372565b60200260200101516001600160a01b03160361171457806000036116ed5760019150611714565b826116f9600183613469565b8151811061170957611709613372565b602002602001015191505b8061171e8161339e565b9150506116a1565b506040516001600160a01b038083166024830152871660448201526064810186905260009060840160408051601f198184030181529181526020820180517bffffffffffffffffffffffffffffffffffffffffffffffffffffffff167ff8dc5dd90000000000000000000000000000000000000000000000000000000017905260ce54905163468721a760e01b81529192506000916001600160a01b039091169063468721a7906117e190839085908790829060040161314f565b6020604051808303816000875af1158015611800573d6000803e3d6000fd5b505050506040513d601f19601f820116820180604052508101906118249190613100565b9050806118735760405162461bcd60e51b815260206004820152601760248201527f53616665205472616e73616374696f6e204661696c6564000000000000000000604482015260640161070e565b5050505050505050565b610dbf828261269d565b606060008267ffffffffffffffff8111156118a4576118a4612e35565b6040519080825280602002602001820160405280156118cd578160200160208202803683370190505b506001600160a01b03808616600090815260cd602052604081205492945091165b6001600160a01b0381161580159061191057506001600160a01b038116600114155b801561191b57508482105b1561147a578084838151811061193357611933613372565b6001600160a01b03928316602091820292909201810191909152918116600090815260cd909252604090912054168161196b8161339e565b9250506118ee565b600060016001600160a01b0383161480159061077e5750506001600160a01b03908116600090815260cb602052604090205416151590565b6000336001148015906119d5575033600090815260cd60205260409020546001600160a01b031615155b9050600081611a655760ca5460405163b700961360e01b81523360048201523060248201526000356001600160e01b03191660448201526001600160a01b039091169063b700961390606401602060405180830381865afa158015611a3e573d6000803e3d6000fd5b505050506040513d601f19601f82011682018060405250810190611a629190613100565b90505b8180611a6e5750805b611ac65760405162461bcd60e51b8152602060048201526024808201527f4e6f7420617574686f72697a656420746f2063616c6c20746869732066756e636044820152633a34b7b760e11b606482015260840161070e565b611ad084846127bc565b50505050565b611ade612371565b6001600160a01b03811615611bcf576040517f01ffc9a70000000000000000000000000000000000000000000000000000000081527fe6d7a83a0000000000000000000000000000000000000000000000000000000060048201526001600160a01b038216906301ffc9a790602401602060405180830381865afa158015611b6a573d6000803e3d6000fd5b505050506040513d601f19601f82011682018060405250810190611b8e9190613100565b611bcf576040517fb16ea67e0000000000000000000000000000000000000000000000000000000081526001600160a01b038216600482015260240161070e565b60c980546001600160a01b0319166001600160a01b0383169081179091556040519081527f1151116914515bc0891ff9047a6cb32cf902546f83066499bcf8ba33d2353fa2906020015b60405180910390a150565b611c2c612371565b6001600160a01b038116611ca85760405162461bcd60e51b815260206004820152602660248201527f4f776e61626c653a206e6577206f776e657220697320746865207a65726f206160448201527f6464726573730000000000000000000000000000000000000000000000000000606482015260840161070e565b6108fc816123cb565b6108fc612371565b7f4910fdfa16fed3260ed0e7147f7cc6da11a60208b5b9406d12a635614ffd91435460ff1615611cec57610737836128db565b826001600160a01b03166352d1902d6040518163ffffffff1660e01b8152600401602060405180830381865afa925050508015611d46575060408051601f3d908101601f19168201909252611d4391810190613480565b60015b611db85760405162461bcd60e51b815260206004820152602e60248201527f45524331393637557067726164653a206e657720696d706c656d656e7461746960448201527f6f6e206973206e6f742055555053000000000000000000000000000000000000606482015260840161070e565b7f360894a13ba1a3210667c828492db98dca3e2076cc3735a920a3ca505d382bbc8114611e4d5760405162461bcd60e51b815260206004820152602960248201527f45524331393637557067726164653a20756e737570706f727465642070726f7860448201527f6961626c65555549440000000000000000000000000000000000000000000000606482015260840161070e565b50610737838383612999565b600054610100900460ff16611ec45760405162461bcd60e51b815260206004820152602b60248201527f496e697469616c697a61626c653a20636f6e7472616374206973206e6f74206960448201526a6e697469616c697a696e6760a81b606482015260840161070e565b6112f36129be565b600054610100900460ff16611f375760405162461bcd60e51b815260206004820152602b60248201527f496e697469616c697a61626c653a20636f6e7472616374206973206e6f74206960448201526a6e697469616c697a696e6760a81b606482015260840161070e565b6112f3612a32565b600054610100900460ff16611faa5760405162461bcd60e51b815260206004820152602b60248201527f496e697469616c697a61626c653a20636f6e7472616374206973206e6f74206960448201526a6e697469616c697a696e6760a81b606482015260840161070e565b6112f3612af4565b6001600160a01b0381166120085760405162461bcd60e51b815260206004820152600f60248201527f496e76616c696420616464726573730000000000000000000000000000000000604482015260640161070e565b60ce546001600160a01b0316156120615760405162461bcd60e51b815260206004820152601760248201527f4d6f64756c6520616c7265616479206861732073616665000000000000000000604482015260640161070e565b60ce80546001600160a01b0319166001600160a01b0383169081179091556040519081527f28c5ac8148c93862fe8d3b692cc159e3359b54fae60f1d8ca29f338e4b21e94890602001611c19565b6001600160a01b038116158015906120d157506001600160a01b038116600114155b6121055760405162461bcd60e51b8152602060048201526005602482015264475331303160d81b604482015260640161070e565b6001600160a01b03818116600090815260cb602052604090205416156121555760405162461bcd60e51b815260206004820152600560248201526423a998981960d91b604482015260640161070e565b60cb6020527fb3c459fcfa972435363277a54960f9947fdf75faf912b521fbcc6cd1c34ddc3380546001600160a01b038381166000818152604081208054939094166001600160a01b03199384161790935560019092528254161790556121bc8180610bd4565b6040516001600160a01b03821681527fdc8509131aac11ac4f5b915e0b24114ac71cf7b256433834e067829bf9db3ad490602001611c19565b6001600160a01b0381161580159061221757506001600160a01b038116600114155b61224b5760405162461bcd60e51b8152602060048201526005602482015264475331303160d81b604482015260640161070e565b6001600160a01b03818116600090815260cd6020526040902054161561229b5760405162461bcd60e51b815260206004820152600560248201526423a998981960d91b604482015260640161070e565b60cd60209081527f64c45f359ea2f8a06c7d9522781502fc36217a93bbdf992266ddda137e19fb1980546001600160a01b03848116600081815260408082208054949095166001600160a01b0319948516179094556001905283549091168117909255519081527fecdf3a3effea5783a3c4c2140e677577666428d44ed9d474a0b3a4c9943f84409101611c19565b600060018360018111156123405761234061311b565b03612358576000808551602087018986f49050612368565b600080855160208701888a87f190505b95945050505050565b6097546001600160a01b031633146112f35760405162461bcd60e51b815260206004820181905260248201527f4f776e61626c653a2063616c6c6572206973206e6f7420746865206f776e6572604482015260640161070e565b609780546001600160a01b038381166001600160a01b0319831681179093556040519116919082907f8be0079c531659141344cd1fd0a4f28419497f9722a3daafe3b4186f6b6457e090600090a35050565b6000606061242a84611973565b61249c5760405162461bcd60e51b815260206004820152602e60248201527f5472616e73616374696f6e2064657374696e6174696f6e20697320756e72656760448201527f6973746572656420417661746172000000000000000000000000000000000000606482015260840161070e565b60c9546001600160a01b0316156125545760c9546040805180820182526002815261060f60f31b602082015290517f75f0bb520000000000000000000000000000000000000000000000000000000081526001600160a01b03909216916375f0bb5291612521918b918b918b918a916000918291829182918291903390600401613499565b600060405180830381600087803b15801561253b57600080fd5b505af115801561254f573d6000803e3d6000fd5b505050505b6001600160a01b03808516600090815260cc6020526040908190205490517f5229073f000000000000000000000000000000000000000000000000000000008152911690635229073f906125b2908a908a908a90899060040161314f565b6000604051808303816000875af11580156125d1573d6000803e3d6000fd5b505050506040513d6000823e601f3d908101601f191682016040526125f99190810190613527565b60c95491935091506001600160a01b0316156126935760c9546040517f9327136800000000000000000000000000000000000000000000000000000000815261060f60f31b600482015283151560248201526001600160a01b0390911690639327136890604401600060405180830381600087803b15801561267a57600080fd5b505af115801561268e573d6000803e3d6000fd5b505050505b9550959350505050565b6001600160a01b038116158015906126bf57506001600160a01b038116600114155b6126f35760405162461bcd60e51b8152602060048201526005602482015264475331303160d81b604482015260640161070e565b6001600160a01b03828116600090815260cb60205260409020548116908216146127475760405162461bcd60e51b8152602060048201526005602482015264475331303360d81b604482015260640161070e565b6001600160a01b03818116600081815260cb60209081526040808320805488871685528285208054919097166001600160a01b03199182161790965592849052825490941690915591519081527ff958f63a03d52fa6114df75e4f1176335f2a3cef00a6f620f1fbc70ae4b2542b9101610db6565b6001600160a01b038116158015906127de57506001600160a01b038116600114155b6128125760405162461bcd60e51b8152602060048201526005602482015264475331303160d81b604482015260640161070e565b6001600160a01b03828116600090815260cd60205260409020548116908216146128665760405162461bcd60e51b8152602060048201526005602482015264475331303360d81b604482015260640161070e565b6001600160a01b03818116600081815260cd60209081526040808320805488871685528285208054919097166001600160a01b03199182161790965592849052825490941690915591519081527faab4fa2b463f581b2b32cb3b7e3b704b9ce37cc209b5fb4d77e593ace40542769101610db6565b6001600160a01b0381163b6129585760405162461bcd60e51b815260206004820152602d60248201527f455243313936373a206e657720696d706c656d656e746174696f6e206973206e60448201527f6f74206120636f6e747261637400000000000000000000000000000000000000606482015260840161070e565b7f360894a13ba1a3210667c828492db98dca3e2076cc3735a920a3ca505d382bbc80546001600160a01b0319166001600160a01b0392909216919091179055565b6129a283612bb6565b6000825111806129af5750805b1561073757611ad08383612bf6565b600054610100900460ff16612a295760405162461bcd60e51b815260206004820152602b60248201527f496e697469616c697a61626c653a20636f6e7472616374206973206e6f74206960448201526a6e697469616c697a696e6760a81b606482015260840161070e565b6112f3336123cb565b600160005260cd6020527f64c45f359ea2f8a06c7d9522781502fc36217a93bbdf992266ddda137e19fb19546001600160a01b031615612ab45760405162461bcd60e51b815260206004820152601b60248201527f4d6f64756c657320616c726561647920696e697469616c697a65640000000000604482015260640161070e565b6001600081905260cd6020527f64c45f359ea2f8a06c7d9522781502fc36217a93bbdf992266ddda137e19fb1980546001600160a01b0319169091179055565b600160005260cb6020527fb3c459fcfa972435363277a54960f9947fdf75faf912b521fbcc6cd1c34ddc33546001600160a01b031615612b765760405162461bcd60e51b815260206004820152601b60248201527f6176617461727320616c726561647920696e697469616c697a65640000000000604482015260640161070e565b6001600081905260cb6020527fb3c459fcfa972435363277a54960f9947fdf75faf912b521fbcc6cd1c34ddc3380546001600160a01b0319169091179055565b612bbf816128db565b6040516001600160a01b038216907fbc7cd75a20ee27fd9adebab32041f755214dbc6bffa90cc0225b39da2e5c2d3b90600090a250565b60606001600160a01b0383163b612c755760405162461bcd60e51b815260206004820152602660248201527f416464726573733a2064656c65676174652063616c6c20746f206e6f6e2d636f60448201527f6e74726163740000000000000000000000000000000000000000000000000000606482015260840161070e565b600080846001600160a01b031684604051612c90919061357f565b600060405180830381855af49150503d8060008114612ccb576040519150601f19603f3d011682016040523d82523d6000602084013e612cd0565b606091505b5091509150612368828260405180606001604052806027815260200161359c6027913960608315612d02575081612d2c565b825115612d125782518084602001fd5b8160405162461bcd60e51b815260040161070e9190612d8b565b9392505050565b60005b83811015612d4e578181015183820152602001612d36565b83811115611ad05750506000910152565b60008151808452612d77816020860160208601612d33565b601f01601f19169290920160200192915050565b602081526000612d2c6020830184612d5f565b6001600160a01b03811681146108fc57600080fd5b600060208284031215612dc557600080fd5b8135612d2c81612d9e565b60008060408385031215612de357600080fd5b8235612dee81612d9e565b946020939093013593505050565b60008060408385031215612e0f57600080fd5b8235612e1a81612d9e565b91506020830135612e2a81612d9e565b809150509250929050565b634e487b7160e01b600052604160045260246000fd5b604051601f8201601f1916810167ffffffffffffffff81118282101715612e7457612e74612e35565b604052919050565b600067ffffffffffffffff821115612e9657612e96612e35565b50601f01601f191660200190565b600082601f830112612eb557600080fd5b8135612ec8612ec382612e7c565b612e4b565b818152846020838601011115612edd57600080fd5b816020850160208301376000918101602001919091529392505050565b600060208284031215612f0c57600080fd5b813567ffffffffffffffff811115612f2357600080fd5b612f2f84828501612ea4565b949350505050565b60008060008060808587031215612f4d57600080fd5b8435612f5881612d9e565b935060208501359250604085013567ffffffffffffffff811115612f7b57600080fd5b612f8787828801612ea4565b925050606085013560028110612f9c57600080fd5b939692955090935050565b60008060408385031215612fba57600080fd5b8235612fc581612d9e565b9150602083013567ffffffffffffffff811115612fe157600080fd5b612fed85828601612ea4565b9150509250929050565b8215158152604060208201526000612f2f6040830184612d5f565b60008060006060848603121561302757600080fd5b833561303281612d9e565b925060208401359150604084013561304981612d9e565b809150509250925092565b604080825283519082018190526000906020906060840190828701845b828110156130965781516001600160a01b031684529284019290840190600101613071565b5050506001600160a01b039490941692019190915250919050565b600181811c908216806130c557607f821691505b6020821081036130e557634e487b7160e01b600052602260045260246000fd5b50919050565b805180151581146130fb57600080fd5b919050565b60006020828403121561311257600080fd5b612d2c826130eb565b634e487b7160e01b600052602160045260246000fd5b600281106108fc57634e487b7160e01b600052602160045260246000fd5b6001600160a01b03851681528360208201526080604082015260006131776080830185612d5f565b905061318283613131565b82606083015295945050505050565b600061319f612ec384612e7c565b90508281528383830111156131b357600080fd5b612d2c836020830184612d33565b600082601f8301126131d257600080fd5b612d2c83835160208501613191565b600080600080608085870312156131f757600080fd5b845161320281612d9e565b602086015190945061321381612d9e565b604086015190935067ffffffffffffffff8082111561323157600080fd5b61323d888389016131c1565b9350606087015191508082111561325357600080fd5b50613260878288016131c1565b91505092959194509250565b601f82111561073757600081815260208120601f850160051c810160208610156132935750805b601f850160051c820191505b81811015610bcc5782815560010161329f565b815167ffffffffffffffff8111156132cc576132cc612e35565b6132e0816132da84546130b1565b8461326c565b602080601f83116001811461331557600084156132fd5750858301515b600019600386901b1c1916600185901b178555610bcc565b600085815260208120601f198616915b8281101561334457888601518255948401946001909101908401613325565b50858210156133625787850151600019600388901b60f8161c191681555b5050505050600190811b01905550565b634e487b7160e01b600052603260045260246000fd5b634e487b7160e01b600052601160045260246000fd5b6000600182016133b0576133b0613388565b5060010190565b600060208083850312156133ca57600080fd5b825167ffffffffffffffff808211156133e257600080fd5b818501915085601f8301126133f657600080fd5b81518181111561340857613408612e35565b8060051b9150613419848301612e4b565b818152918301840191848101908884111561343357600080fd5b938501935b8385101561345d578451925061344d83612d9e565b8282529385019390850190613438565b98975050505050505050565b60008282101561347b5761347b613388565b500390565b60006020828403121561349257600080fd5b5051919050565b60006101606001600160a01b03808f1684528d60208501528160408501526134c38285018e612d5f565b91506134ce8c613131565b8b60608501528a60808501528960a08501528860c085015280881660e085015280871661010085015283820361012085015261350a8287612d5f565b925080851661014085015250509c9b505050505050505050505050565b6000806040838503121561353a57600080fd5b613543836130eb565b9150602083015167ffffffffffffffff81111561355f57600080fd5b8301601f8101851361357057600080fd5b612fed85825160208401613191565b60008251613591818460208701612d33565b919091019291505056fe416464726573733a206c6f772d6c6576656c2064656c65676174652063616c6c206661696c6564a2646970667358221220e689a722f26250778dc4b0140e8dc0792e8d4e4cff8a0fa4677424e66296f06a64736f6c634300080f0033",
  "linkReferences": {},
  "deployedLinkReferences": {}
}