{
  "_format": "hh-sol-artifact-1",
  "contractName": "bridgeProxyLogic",
  "sourceName": "contracts/bridgeComponent/bridgeProxyLogic.sol",
  "abi": [
    {
      "inputs": [
        {
          "internalType": "address",
          "name": "guard_",
          "type": "address"
        }
      ],
      "name": "NotIERC165Compliant",
      "type": "error"
    },
    {
      "anonymous": false,
      "inputs": [
        {
          "indexed": false,
          "internalType": "address",
          "name": "previousAdmin",
          "type": "address"
        },
        {
          "indexed": false,
          "internalType": "address",
          "name": "newAdmin",
          "type": "address"
        }
      ],
      "name": "AdminChanged",
      "type": "event"
    },
    {
      "anonymous": false,
      "inputs": [
        {
          "indexed": true,
          "internalType": "address",
          "name": "beacon",
          "type": "address"
        }
      ],
      "name": "BeaconUpgraded",
      "type": "event"
    },
    {
      "anonymous": false,
      "inputs": [
        {
          "indexed": false,
          "internalType": "address",
          "name": "guard",
          "type": "address"
        }
      ],
      "name": "ChangedGuard",
      "type": "event"
    },
    {
      "anonymous": false,
      "inputs": [
        {
          "indexed": false,
          "internalType": "address",
          "name": "avatar",
          "type": "address"
        }
      ],
      "name": "DisabledAvatar",
      "type": "event"
    },
    {
      "anonymous": false,
      "inputs": [
        {
          "indexed": false,
          "internalType": "address",
          "name": "module",
          "type": "address"
        }
      ],
      "name": "DisabledModule",
      "type": "event"
    },
    {
      "anonymous": false,
      "inputs": [
        {
          "indexed": false,
          "internalType": "address",
          "name": "avatar",
          "type": "address"
        }
      ],
      "name": "EnabledAvatar",
      "type": "event"
    },
    {
      "anonymous": false,
      "inputs": [
        {
          "indexed": false,
          "internalType": "address",
          "name": "module",
          "type": "address"
        }
      ],
      "name": "EnabledModule",
      "type": "event"
    },
    {
      "anonymous": false,
      "inputs": [
        {
          "indexed": true,
          "internalType": "address",
          "name": "module",
          "type": "address"
        }
      ],
      "name": "ExecutionFromModuleFailure",
      "type": "event"
    },
    {
      "anonymous": false,
      "inputs": [
        {
          "indexed": true,
          "internalType": "address",
          "name": "module",
          "type": "address"
        }
      ],
      "name": "ExecutionFromModuleSuccess",
      "type": "event"
    },
    {
      "anonymous": false,
      "inputs": [
        {
          "indexed": false,
          "internalType": "uint8",
          "name": "version",
          "type": "uint8"
        }
      ],
      "name": "Initialized",
      "type": "event"
    },
    {
      "anonymous": false,
      "inputs": [
        {
          "indexed": true,
          "internalType": "address",
          "name": "previousOwner",
          "type": "address"
        },
        {
          "indexed": true,
          "internalType": "address",
          "name": "newOwner",
          "type": "address"
        }
      ],
      "name": "OwnershipTransferred",
      "type": "event"
    },
    {
      "anonymous": false,
      "inputs": [
        {
          "indexed": true,
          "internalType": "address",
          "name": "previousTarget",
          "type": "address"
        },
        {
          "indexed": true,
          "internalType": "address",
          "name": "newTarget",
          "type": "address"
        }
      ],
      "name": "TargetSet",
      "type": "event"
    },
    {
      "anonymous": false,
      "inputs": [
        {
          "indexed": true,
          "internalType": "address",
          "name": "implementation",
          "type": "address"
        }
      ],
      "name": "Upgraded",
      "type": "event"
    },
    {
      "stateMutability": "payable",
      "type": "fallback"
    },
    {
      "inputs": [],
      "name": "bridgeContract",
      "outputs": [
        {
          "internalType": "contract IAMB",
          "name": "",
          "type": "address"
        }
      ],
      "stateMutability": "view",
      "type": "function"
    },
    {
      "inputs": [
        {
          "internalType": "address",
          "name": "preAvatar",
          "type": "address"
        },
        {
          "internalType": "address",
          "name": "avatar",
          "type": "address"
        }
      ],
      "name": "disableAvatar",
      "outputs": [],
      "stateMutability": "nonpayable",
      "type": "function"
    },
    {
      "inputs": [
        {
          "internalType": "address",
          "name": "prevModule",
          "type": "address"
        },
        {
          "internalType": "address",
          "name": "module",
          "type": "address"
        }
      ],
      "name": "disableModule",
      "outputs": [],
      "stateMutability": "nonpayable",
      "type": "function"
    },
    {
      "inputs": [
        {
          "internalType": "address",
          "name": "avatar",
          "type": "address"
        }
      ],
      "name": "enableAvatar",
      "outputs": [],
      "stateMutability": "nonpayable",
      "type": "function"
    },
    {
      "inputs": [
        {
          "internalType": "address",
          "name": "module",
          "type": "address"
        }
      ],
      "name": "enableModule",
      "outputs": [],
      "stateMutability": "nonpayable",
      "type": "function"
    },
    {
      "inputs": [
        {
          "internalType": "address",
          "name": "to",
          "type": "address"
        },
        {
          "internalType": "uint256",
          "name": "value",
          "type": "uint256"
        },
        {
          "internalType": "bytes",
          "name": "data",
          "type": "bytes"
        },
        {
          "internalType": "enum Enum.Operation",
          "name": "operation",
          "type": "uint8"
        }
      ],
      "name": "execTransactionFromModule",
      "outputs": [
        {
          "internalType": "bool",
          "name": "success",
          "type": "bool"
        }
      ],
      "stateMutability": "nonpayable",
      "type": "function"
    },
    {
      "inputs": [
        {
          "internalType": "address",
          "name": "to",
          "type": "address"
        },
        {
          "internalType": "uint256",
          "name": "value",
          "type": "uint256"
        },
        {
          "internalType": "bytes",
          "name": "data",
          "type": "bytes"
        },
        {
          "internalType": "enum Enum.Operation",
          "name": "operation",
          "type": "uint8"
        }
      ],
      "name": "execTransactionFromModuleReturnData",
      "outputs": [
        {
          "internalType": "bool",
          "name": "success",
          "type": "bool"
        },
        {
          "internalType": "bytes",
          "name": "returnData",
          "type": "bytes"
        }
      ],
      "stateMutability": "nonpayable",
      "type": "function"
    },
    {
      "inputs": [
        {
          "internalType": "address",
          "name": "to",
          "type": "address"
        },
        {
          "internalType": "bytes",
          "name": "data",
          "type": "bytes"
        }
      ],
      "name": "executeGenericTransactionFromAMB",
      "outputs": [],
      "stateMutability": "nonpayable",
      "type": "function"
    },
    {
      "inputs": [
        {
          "internalType": "address",
          "name": "to",
          "type": "address"
        },
        {
          "internalType": "uint256",
          "name": "value",
          "type": "uint256"
        },
        {
          "internalType": "bytes",
          "name": "data",
          "type": "bytes"
        },
        {
          "internalType": "address",
          "name": "avatar",
          "type": "address"
        },
        {
          "internalType": "enum Enum.Operation",
          "name": "operation",
          "type": "uint8"
        }
      ],
      "name": "executeTransactionFromAMB",
      "outputs": [],
      "stateMutability": "nonpayable",
      "type": "function"
    },
    {
      "inputs": [
        {
          "internalType": "address",
          "name": "start",
          "type": "address"
        },
        {
          "internalType": "uint256",
          "name": "pageSize",
          "type": "uint256"
        }
      ],
      "name": "getAvatarsPaginated",
      "outputs": [
        {
          "internalType": "address[]",
          "name": "array",
          "type": "address[]"
        },
        {
          "internalType": "address",
          "name": "next",
          "type": "address"
        }
      ],
      "stateMutability": "view",
      "type": "function"
    },
    {
      "inputs": [],
      "name": "getGuard",
      "outputs": [
        {
          "internalType": "address",
          "name": "_guard",
          "type": "address"
        }
      ],
      "stateMutability": "view",
      "type": "function"
    },
    {
      "inputs": [
        {
          "internalType": "address",
          "name": "start",
          "type": "address"
        },
        {
          "internalType": "uint256",
          "name": "pageSize",
          "type": "uint256"
        }
      ],
      "name": "getModulesPaginated",
      "outputs": [
        {
          "internalType": "address[]",
          "name": "array",
          "type": "address[]"
        },
        {
          "internalType": "address",
          "name": "next",
          "type": "address"
        }
      ],
      "stateMutability": "view",
      "type": "function"
    },
    {
      "inputs": [],
      "name": "guard",
      "outputs": [
        {
          "internalType": "address",
          "name": "",
          "type": "address"
        }
      ],
      "stateMutability": "view",
      "type": "function"
    },
    {
      "inputs": [
        {
          "internalType": "bytes",
          "name": "initializeParams",
          "type": "bytes"
        }
      ],
      "name": "initialize",
      "outputs": [],
      "stateMutability": "nonpayable",
      "type": "function"
    },
    {
      "inputs": [
        {
          "internalType": "address",
          "name": "avatar",
          "type": "address"
        }
      ],
      "name": "isAvatarEnabled",
      "outputs": [
        {
          "internalType": "bool",
          "name": "",
          "type": "bool"
        }
      ],
      "stateMutability": "view",
      "type": "function"
    },
    {
      "inputs": [
        {
          "internalType": "address",
          "name": "module",
          "type": "address"
        }
      ],
      "name": "isModuleEnabled",
      "outputs": [
        {
          "internalType": "bool",
          "name": "",
          "type": "bool"
        }
      ],
      "stateMutability": "view",
      "type": "function"
    },
    {
      "inputs": [],
      "name": "mediatorContractOnOtherSide",
      "outputs": [
        {
          "internalType": "address",
          "name": "",
          "type": "address"
        }
      ],
      "stateMutability": "view",
      "type": "function"
    },
    {
      "inputs": [],
      "name": "owner",
      "outputs": [
        {
          "internalType": "address",
          "name": "",
          "type": "address"
        }
      ],
      "stateMutability": "view",
      "type": "function"
    },
    {
      "inputs": [],
      "name": "permissionRegistry",
      "outputs": [
        {
          "internalType": "address",
          "name": "",
          "type": "address"
        }
      ],
      "stateMutability": "view",
      "type": "function"
    },
    {
      "inputs": [],
      "name": "proxiableUUID",
      "outputs": [
        {
          "internalType": "bytes32",
          "name": "",
          "type": "bytes32"
        }
      ],
      "stateMutability": "view",
      "type": "function"
    },
    {
      "inputs": [],
      "name": "renounceOwnership",
      "outputs": [],
      "stateMutability": "nonpayable",
      "type": "function"
    },
    {
      "inputs": [],
      "name": "requestGasLimit",
      "outputs": [
        {
          "internalType": "uint256",
          "name": "",
          "type": "uint256"
        }
      ],
      "stateMutability": "view",
      "type": "function"
    },
    {
      "inputs": [
        {
          "internalType": "address",
          "name": "_bridgeContract",
          "type": "address"
        }
      ],
      "name": "setBridgeContract",
      "outputs": [],
      "stateMutability": "nonpayable",
      "type": "function"
    },
    {
      "inputs": [
        {
          "internalType": "address",
          "name": "_guard",
          "type": "address"
        }
      ],
      "name": "setGuard",
      "outputs": [],
      "stateMutability": "nonpayable",
      "type": "function"
    },
    {
      "inputs": [
        {
          "internalType": "address",
          "name": "_mediatorContract",
          "type": "address"
        }
      ],
      "name": "setMediatorContractOnOtherSide",
      "outputs": [],
      "stateMutability": "nonpayable",
      "type": "function"
    },
    {
      "inputs": [
        {
          "internalType": "address",
          "name": "_permissionReg",
          "type": "address"
        }
      ],
      "name": "setPermissionReg",
      "outputs": [],
      "stateMutability": "nonpayable",
      "type": "function"
    },
    {
      "inputs": [
        {
          "internalType": "uint256",
          "name": "_requestGasLimit",
          "type": "uint256"
        }
      ],
      "name": "setRequestGasLimit",
      "outputs": [],
      "stateMutability": "nonpayable",
      "type": "function"
    },
    {
      "inputs": [
        {
          "internalType": "address",
          "name": "target",
          "type": "address"
        },
        {
          "internalType": "address",
          "name": "avatar",
          "type": "address"
        }
      ],
      "name": "setTarget",
      "outputs": [],
      "stateMutability": "nonpayable",
      "type": "function"
    },
    {
      "inputs": [
        {
          "internalType": "address",
          "name": "",
          "type": "address"
        }
      ],
      "name": "settingsModules",
      "outputs": [
        {
          "internalType": "bool",
          "name": "",
          "type": "bool"
        }
      ],
      "stateMutability": "view",
      "type": "function"
    },
    {
      "inputs": [
        {
          "internalType": "address",
          "name": "newOwner",
          "type": "address"
        }
      ],
      "name": "transferOwnership",
      "outputs": [],
      "stateMutability": "nonpayable",
      "type": "function"
    },
    {
      "inputs": [
        {
          "internalType": "address",
          "name": "newImplementation",
          "type": "address"
        }
      ],
      "name": "upgradeTo",
      "outputs": [],
      "stateMutability": "nonpayable",
      "type": "function"
    },
    {
      "inputs": [
        {
          "internalType": "address",
          "name": "newImplementation",
          "type": "address"
        },
        {
          "internalType": "bytes",
          "name": "data",
          "type": "bytes"
        }
      ],
      "name": "upgradeToAndCall",
      "outputs": [],
      "stateMutability": "payable",
      "type": "function"
    }
  ],
  "bytecode": "0x60a06040523060805234801561001457600080fd5b506080516131e061004c60003960008181610bc401528181610c490152818161109f01528181611124015261124001526131e06000f3fe6080604052600436106101e35760003560e01c8063871c076011610102578063cc2f845211610095578063e19a9dd911610064578063e19a9dd91461075f578063e5e3ae741461077f578063f2fde38b146107af578063f3b83791146107cf576101e3565b8063cc2f845214610699578063cd596583146106b9578063d9c31c731461071f578063e009cfde1461073f576101e3565b8063ba7707b2116100d1578063ba7707b2146105d0578063be3b625b146105fe578063c2e042f41461065b578063c91063891461067b576101e3565b8063871c07601461050c5780638da5cb5b14610572578063b1d49d5614610590578063b55a5c1c146105b0576101e3565b80634f1ef2861161017a5780636e5d6bea116101495780636e5d6bea1461041e5780636f021f521461049f578063715018a6146104bf5780637ceab3b1146104d4576101e3565b80634f1ef2861461039a5780635229073f146103ad57806352d1902d146103db578063610b5925146103fe576101e3565b80633659cfe6116101b65780633659cfe61461031a5780633ecf06bd1461033a578063439fab911461035a578063468721a71461037a576101e3565b80630b26cf6614610285578063113c17de146102a557806320acf137146102c55780632d9ad53d146102e5575b6001600090815260676020527f6bee784efeb983674392298ab585b22866bedf00ebb0eea949d1e66f3f50e71d5460405130916320acf13791610236916001600160a01b03169085903690602401612b1c565b604051602081830303815290604052915060e01b6020820180517bffffffffffffffffffffffffffffffffffffffffffffffffffffffff83818316178352505050509050610283816107ef565b005b34801561029157600080fd5b506102836102a0366004612b70565b6109c1565b3480156102b157600080fd5b506102836102c0366004612b70565b6109cd565b3480156102d157600080fd5b506102836102e0366004612c30565b610b20565b3480156102f157600080fd5b50610305610300366004612b70565b610b7f565b60405190151581526020015b60405180910390f35b34801561032657600080fd5b50610283610335366004612b70565b610bba565b34801561034657600080fd5b50610283610355366004612c80565b610d32565b34801561036657600080fd5b50610283610375366004612cb9565b610d94565b34801561038657600080fd5b50610305610395366004612d0a565b610f69565b6102836103a8366004612c30565b611095565b3480156103b957600080fd5b506103cd6103c8366004612d0a565b6111fd565b604051610311929190612dcc565b3480156103e757600080fd5b506103f0611233565b604051908152602001610311565b34801561040a57600080fd5b50610283610419366004612b70565b6112f8565b34801561042a57600080fd5b50610283610439366004612b70565b7f98aa806e31e94a687a31c65769cb99670064dd7f5a87526da075c5fb4eab9880600052606d6020527fbc14974440af2c0ef442b67e2bf513e4492da711bc0bcd34f2f3d31a2c0cc4ae80546001600160a01b0319166001600160a01b03831617905550565b3480156104ab57600080fd5b506102836104ba366004612de7565b611434565b3480156104cb57600080fd5b50610283611494565b3480156104e057600080fd5b506065546104f4906001600160a01b031681565b6040516001600160a01b039091168152602001610311565b34801561051857600080fd5b507f98aa806e31e94a687a31c65769cb99670064dd7f5a87526da075c5fb4eab9880600052606d6020527fbc14974440af2c0ef442b67e2bf513e4492da711bc0bcd34f2f3d31a2c0cc4ae546001600160a01b03166104f4565b34801561057e57600080fd5b506033546001600160a01b03166104f4565b34801561059c57600080fd5b506102836105ab366004612b70565b6114a8565b3480156105bc57600080fd5b506066546104f4906001600160a01b031681565b3480156105dc57600080fd5b506105f06105eb366004612e64565b6114b1565b604051610311929190612e90565b34801561060a57600080fd5b507f2dfd6c9f781bb6bbb5369c114e949b69ebb440ef3d4dd6b2836225eb1dc3a2be600052606b6020527f4446190a8df25fec572ed14f359c02a24fa87cc90e9eeec1e83b293546856c1e546103f0565b34801561066757600080fd5b50610283610676366004612c80565b6115ab565b34801561068757600080fd5b506065546001600160a01b03166104f4565b3480156106a557600080fd5b506105f06106b4366004612e64565b6115b5565b3480156106c557600080fd5b507f811bbb11e8899da471f0e69a3ed55090fc90215227fc5fb1cb0d6e962ea7b74f600052606d6020527febaa353f057bf599106c41b8efa19c3e5ac9e4ee2abd9e2992d32e50df332a3c546001600160a01b03166104f4565b34801561072b57600080fd5b5061030561073a366004612b70565b6116a1565b34801561074b57600080fd5b5061028361075a366004612c80565b6116d9565b34801561076b57600080fd5b5061028361077a366004612b70565b61181c565b34801561078b57600080fd5b5061030561079a366004612b70565b606a6020526000908152604090205460ff1681565b3480156107bb57600080fd5b506102836107ca366004612b70565b61196a565b3480156107db57600080fd5b506102836107ea366004612eed565b6119f7565b60008151116108455760405162461bcd60e51b815260206004820152601360248201527f646174612063616e6e6f74206265206e756c6c0000000000000000000000000060448201526064015b60405180910390fd5b60006108a17f811bbb11e8899da471f0e69a3ed55090fc90215227fc5fb1cb0d6e962ea7b74f600052606d6020527febaa353f057bf599106c41b8efa19c3e5ac9e4ee2abd9e2992d32e50df332a3c546001600160a01b031690565b6001600160a01b031663dc8601b36109097f98aa806e31e94a687a31c65769cb99670064dd7f5a87526da075c5fb4eab9880600052606d6020527fbc14974440af2c0ef442b67e2bf513e4492da711bc0bcd34f2f3d31a2c0cc4ae546001600160a01b031690565b8461095b7f2dfd6c9f781bb6bbb5369c114e949b69ebb440ef3d4dd6b2836225eb1dc3a2be600052606b6020527f4446190a8df25fec572ed14f359c02a24fa87cc90e9eeec1e83b293546856c1e5490565b6040518463ffffffff1660e01b815260040161097993929190612f06565b6020604051808303816000875af1158015610998573d6000803e3d6000fd5b505050506040513d601f19601f820116820180604052508101906109bc9190612f38565b505050565b6109ca81611a00565b50565b6000336001148015906109f75750336000908152606960205260409020546001600160a01b031615155b9050600081610a9f5760665460405163b700961360e01b81523360048201523060248201526000357fffffffff000000000000000000000000000000000000000000000000000000001660448201526001600160a01b039091169063b700961390606401602060405180830381865afa158015610a78573d6000803e3d6000fd5b505050506040513d601f19601f82011682018060405250810190610a9c9190612f51565b90505b8180610aa85750805b610b005760405162461bcd60e51b8152602060048201526024808201527f4e6f7420617574686f72697a656420746f2063616c6c20746869732066756e636044820152633a34b7b760e11b606482015260840161083c565b606680546001600160a01b0319166001600160a01b038516179055505050565b610b2f8260008360005a611a7e565b610b7b5760405162461bcd60e51b815260206004820152601960248201527f4d6f64756c65207472616e73616374696f6e206661696c656400000000000000604482015260640161083c565b5050565b600060016001600160a01b03831614801590610bb457506001600160a01b038281166000908152606960205260409020541615155b92915050565b6001600160a01b037f0000000000000000000000000000000000000000000000000000000000000000163003610c475760405162461bcd60e51b815260206004820152602c60248201527f46756e6374696f6e206d7573742062652063616c6c6564207468726f7567682060448201526b19195b1959d85d1958d85b1b60a21b606482015260840161083c565b7f00000000000000000000000000000000000000000000000000000000000000006001600160a01b0316610ca27f360894a13ba1a3210667c828492db98dca3e2076cc3735a920a3ca505d382bbc546001600160a01b031690565b6001600160a01b031614610d0d5760405162461bcd60e51b815260206004820152602c60248201527f46756e6374696f6e206d7573742062652063616c6c6564207468726f7567682060448201526b6163746976652070726f787960a01b606482015260840161083c565b610d1681611ac5565b604080516000808252602082019092526109ca91839190611acd565b6001600160a01b0380821660009081526068602052604080822080548685166001600160a01b031982168117909255915191909316929183917f90cc2f570a6eb594b1580ea3e41247d2d73a55281889e86bd4ec2fc29c7e62d69190a3505050565b600054610100900460ff1615808015610db45750600054600160ff909116105b80610dce5750303b158015610dce575060005460ff166001145b610e405760405162461bcd60e51b815260206004820152602e60248201527f496e697469616c697a61626c653a20636f6e747261637420697320616c72656160448201527f647920696e697469616c697a6564000000000000000000000000000000000000606482015260840161083c565b6000805460ff191660011790558015610e63576000805461ff0019166101001790555b60008060008085806020019051810190610e7d9190612f73565b9350935093509350610e8d611c6d565b610e95611ce0565b610e9d611d53565b610ea682611dc6565b610eaf81611f0c565b610eb884611a00565b7f98aa806e31e94a687a31c65769cb99670064dd7f5a87526da075c5fb4eab9880600052606d6020527fbc14974440af2c0ef442b67e2bf513e4492da711bc0bcd34f2f3d31a2c0cc4ae80546001600160a01b0319166001600160a01b038516179055505050508015610b7b576000805461ff0019169055604051600181527f7f26b83ff96e1f2b6a682f133852f6798a09c465da95921460cefb3847402498906020015b60405180910390a15050565b600033600114801590610f935750336000908152606960205260409020546001600160a01b031615155b610fdf5760405162461bcd60e51b815260206004820152600560248201527f4753313034000000000000000000000000000000000000000000000000000000604482015260640161083c565b6001600090815260676020527f6bee784efeb983674392298ab585b22866bedf00ebb0eea949d1e66f3f50e71d546040516001600160a01b0390911691903090636f021f529061103b908a908a908a9088908b9060240161300a565b604051602081830303815290604052915060e01b6020820180517bffffffffffffffffffffffffffffffffffffffffffffffffffffffff83818316178352505050509050611088816107ef565b5060019695505050505050565b6001600160a01b037f00000000000000000000000000000000000000000000000000000000000000001630036111225760405162461bcd60e51b815260206004820152602c60248201527f46756e6374696f6e206d7573742062652063616c6c6564207468726f7567682060448201526b19195b1959d85d1958d85b1b60a21b606482015260840161083c565b7f00000000000000000000000000000000000000000000000000000000000000006001600160a01b031661117d7f360894a13ba1a3210667c828492db98dca3e2076cc3735a920a3ca505d382bbc546001600160a01b031690565b6001600160a01b0316146111e85760405162461bcd60e51b815260206004820152602c60248201527f46756e6374696f6e206d7573742062652063616c6c6564207468726f7567682060448201526b6163746976652070726f787960a01b606482015260840161083c565b6111f182611ac5565b610b7b82826001611acd565b6000606061120d86868686610f69565b915060405160203d0181016040523d81523d6000602083013e8091505094509492505050565b6000306001600160a01b037f000000000000000000000000000000000000000000000000000000000000000016146112d35760405162461bcd60e51b815260206004820152603860248201527f555550535570677261646561626c653a206d757374206e6f742062652063616c60448201527f6c6564207468726f7567682064656c656761746563616c6c0000000000000000606482015260840161083c565b507f360894a13ba1a3210667c828492db98dca3e2076cc3735a920a3ca505d382bbc90565b6000336001148015906113225750336000908152606960205260409020546001600160a01b031615155b90506000816113ca5760665460405163b700961360e01b81523360048201523060248201526000357fffffffff000000000000000000000000000000000000000000000000000000001660448201526001600160a01b039091169063b700961390606401602060405180830381865afa1580156113a3573d6000803e3d6000fd5b505050506040513d601f19601f820116820180604052508101906113c79190612f51565b90505b81806113d35750805b61142b5760405162461bcd60e51b8152602060048201526024808201527f4e6f7420617574686f72697a656420746f2063616c6c20746869732066756e636044820152633a34b7b760e11b606482015260840161083c565b6109bc83611f0c565b6114418585858585612041565b61148d5760405162461bcd60e51b815260206004820152601960248201527f4d6f64756c65207472616e73616374696f6e206661696c656400000000000000604482015260640161083c565b5050505050565b61149c6122b7565b6114a66000612311565b565b6109ca81611dc6565b606060008267ffffffffffffffff8111156114ce576114ce612b8d565b6040519080825280602002602001820160405280156114f7578160200160208202803683370190505b506001600160a01b0380861660009081526067602052604081205492945091165b6001600160a01b0381161580159061153a57506001600160a01b038116600114155b801561154557508482105b1561159d578084838151811061155d5761155d613054565b6001600160a01b039283166020918202929092018101919091529181166000908152606790925260409091205416816115958161306a565b925050611518565b908352919491935090915050565b610b7b8282612363565b606060008267ffffffffffffffff8111156115d2576115d2612b8d565b6040519080825280602002602001820160405280156115fb578160200160208202803683370190505b506001600160a01b0380861660009081526069602052604081205492945091165b6001600160a01b0381161580159061163e57506001600160a01b038116600114155b801561164957508482105b1561159d578084838151811061166157611661613054565b6001600160a01b039283166020918202929092018101919091529181166000908152606990925260409091205416816116998161306a565b92505061161c565b600060016001600160a01b03831614801590610bb45750506001600160a01b0390811660009081526067602052604090205416151590565b6000336001148015906117035750336000908152606960205260409020546001600160a01b031615155b90506000816117ab5760665460405163b700961360e01b81523360048201523060248201526000357fffffffff000000000000000000000000000000000000000000000000000000001660448201526001600160a01b039091169063b700961390606401602060405180830381865afa158015611784573d6000803e3d6000fd5b505050506040513d601f19601f820116820180604052508101906117a89190612f51565b90505b81806117b45750805b61180c5760405162461bcd60e51b8152602060048201526024808201527f4e6f7420617574686f72697a656420746f2063616c6c20746869732066756e636044820152633a34b7b760e11b606482015260840161083c565b6118168484612482565b50505050565b6118246122b7565b6001600160a01b03811615611915576040517f01ffc9a70000000000000000000000000000000000000000000000000000000081527fe6d7a83a0000000000000000000000000000000000000000000000000000000060048201526001600160a01b038216906301ffc9a790602401602060405180830381865afa1580156118b0573d6000803e3d6000fd5b505050506040513d601f19601f820116820180604052508101906118d49190612f51565b611915576040517fb16ea67e0000000000000000000000000000000000000000000000000000000081526001600160a01b038216600482015260240161083c565b606580546001600160a01b0319166001600160a01b0383169081179091556040519081527f1151116914515bc0891ff9047a6cb32cf902546f83066499bcf8ba33d2353fa2906020015b60405180910390a150565b6119726122b7565b6001600160a01b0381166119ee5760405162461bcd60e51b815260206004820152602660248201527f4f776e61626c653a206e6577206f776e657220697320746865207a65726f206160448201527f6464726573730000000000000000000000000000000000000000000000000000606482015260840161083c565b6109ca81612311565b6109ca816125a1565b6001600160a01b0381163b611a1457600080fd5b7f811bbb11e8899da471f0e69a3ed55090fc90215227fc5fb1cb0d6e962ea7b74f600052606d6020527febaa353f057bf599106c41b8efa19c3e5ac9e4ee2abd9e2992d32e50df332a3c80546001600160a01b0319166001600160a01b0392909216919091179055565b60006001836001811115611a9457611a94612fd2565b03611aac576000808551602087018986f49050611abc565b600080855160208701888a87f190505b95945050505050565b6109ca6122b7565b7f4910fdfa16fed3260ed0e7147f7cc6da11a60208b5b9406d12a635614ffd91435460ff1615611b00576109bc83612602565b826001600160a01b03166352d1902d6040518163ffffffff1660e01b8152600401602060405180830381865afa925050508015611b5a575060408051601f3d908101601f19168201909252611b5791810190612f38565b60015b611bcc5760405162461bcd60e51b815260206004820152602e60248201527f45524331393637557067726164653a206e657720696d706c656d656e7461746960448201527f6f6e206973206e6f742055555053000000000000000000000000000000000000606482015260840161083c565b7f360894a13ba1a3210667c828492db98dca3e2076cc3735a920a3ca505d382bbc8114611c615760405162461bcd60e51b815260206004820152602960248201527f45524331393637557067726164653a20756e737570706f727465642070726f7860448201527f6961626c65555549440000000000000000000000000000000000000000000000606482015260840161083c565b506109bc8383836126c0565b600054610100900460ff16611cd85760405162461bcd60e51b815260206004820152602b60248201527f496e697469616c697a61626c653a20636f6e7472616374206973206e6f74206960448201526a6e697469616c697a696e6760a81b606482015260840161083c565b6114a66126e5565b600054610100900460ff16611d4b5760405162461bcd60e51b815260206004820152602b60248201527f496e697469616c697a61626c653a20636f6e7472616374206973206e6f74206960448201526a6e697469616c697a696e6760a81b606482015260840161083c565b6114a6612759565b600054610100900460ff16611dbe5760405162461bcd60e51b815260206004820152602b60248201527f496e697469616c697a61626c653a20636f6e7472616374206973206e6f74206960448201526a6e697469616c697a696e6760a81b606482015260840161083c565b6114a661281b565b6001600160a01b03811615801590611de857506001600160a01b038116600114155b611e1c5760405162461bcd60e51b8152602060048201526005602482015264475331303160d81b604482015260640161083c565b6001600160a01b038181166000908152606760205260409020541615611e6c5760405162461bcd60e51b815260206004820152600560248201526423a998981960d91b604482015260640161083c565b60676020527f6bee784efeb983674392298ab585b22866bedf00ebb0eea949d1e66f3f50e71d80546001600160a01b038381166000818152604081208054939094166001600160a01b0319938416179093556001909252825416179055611ed38180610d32565b6040516001600160a01b03821681527fdc8509131aac11ac4f5b915e0b24114ac71cf7b256433834e067829bf9db3ad49060200161195f565b6001600160a01b03811615801590611f2e57506001600160a01b038116600114155b611f625760405162461bcd60e51b8152602060048201526005602482015264475331303160d81b604482015260640161083c565b6001600160a01b038181166000908152606960205260409020541615611fb25760405162461bcd60e51b815260206004820152600560248201526423a998981960d91b604482015260640161083c565b606960209081527fc073f36c05b6a60b24c30a48974b549770d8fa354751fb3170c9dfd8ca536add80546001600160a01b03848116600081815260408082208054949095166001600160a01b0319948516179094556001905283549091168117909255519081527fecdf3a3effea5783a3c4c2140e677577666428d44ed9d474a0b3a4c9943f8440910161195f565b600061204c836116a1565b6120be5760405162461bcd60e51b815260206004820152602e60248201527f5472616e73616374696f6e2064657374696e6174696f6e20697320756e72656760448201527f6973746572656420417661746172000000000000000000000000000000000000606482015260840161083c565b6065546001600160a01b031615612176576065546040805180820182526002815261060f60f31b602082015290517f75f0bb520000000000000000000000000000000000000000000000000000000081526001600160a01b03909216916375f0bb5291612143918a918a918a9189916000918291829182918291903390600401613091565b600060405180830381600087803b15801561215d57600080fd5b505af1158015612171573d6000803e3d6000fd5b505050505b6001600160a01b03808416600090815260686020526040908190205490517f468721a700000000000000000000000000000000000000000000000000000000815291169063468721a7906121d490899089908990889060040161311d565b6020604051808303816000875af11580156121f3573d6000803e3d6000fd5b505050506040513d601f19601f820116820180604052508101906122179190612f51565b6065549091506001600160a01b031615611abc576065546040517f9327136800000000000000000000000000000000000000000000000000000000815261060f60f31b600482015282151560248201526001600160a01b0390911690639327136890604401600060405180830381600087803b15801561229657600080fd5b505af11580156122aa573d6000803e3d6000fd5b5050505095945050505050565b6033546001600160a01b031633146114a65760405162461bcd60e51b815260206004820181905260248201527f4f776e61626c653a2063616c6c6572206973206e6f7420746865206f776e6572604482015260640161083c565b603380546001600160a01b038381166001600160a01b0319831681179093556040519116919082907f8be0079c531659141344cd1fd0a4f28419497f9722a3daafe3b4186f6b6457e090600090a35050565b6001600160a01b0381161580159061238557506001600160a01b038116600114155b6123b95760405162461bcd60e51b8152602060048201526005602482015264475331303160d81b604482015260640161083c565b6001600160a01b0382811660009081526067602052604090205481169082161461240d5760405162461bcd60e51b8152602060048201526005602482015264475331303360d81b604482015260640161083c565b6001600160a01b038181166000818152606760209081526040808320805488871685528285208054919097166001600160a01b03199182161790965592849052825490941690915591519081527ff958f63a03d52fa6114df75e4f1176335f2a3cef00a6f620f1fbc70ae4b2542b9101610f5d565b6001600160a01b038116158015906124a457506001600160a01b038116600114155b6124d85760405162461bcd60e51b8152602060048201526005602482015264475331303160d81b604482015260640161083c565b6001600160a01b0382811660009081526069602052604090205481169082161461252c5760405162461bcd60e51b8152602060048201526005602482015264475331303360d81b604482015260640161083c565b6001600160a01b038181166000818152606960209081526040808320805488871685528285208054919097166001600160a01b03199182161790965592849052825490941690915591519081527faab4fa2b463f581b2b32cb3b7e3b704b9ce37cc209b5fb4d77e593ace40542769101610f5d565b6125a96128dd565b8111156125b557600080fd5b7f2dfd6c9f781bb6bbb5369c114e949b69ebb440ef3d4dd6b2836225eb1dc3a2be600052606b6020527f4446190a8df25fec572ed14f359c02a24fa87cc90e9eeec1e83b293546856c1e55565b6001600160a01b0381163b61267f5760405162461bcd60e51b815260206004820152602d60248201527f455243313936373a206e657720696d706c656d656e746174696f6e206973206e60448201527f6f74206120636f6e747261637400000000000000000000000000000000000000606482015260840161083c565b7f360894a13ba1a3210667c828492db98dca3e2076cc3735a920a3ca505d382bbc80546001600160a01b0319166001600160a01b0392909216919091179055565b6126c98361299f565b6000825111806126d65750805b156109bc5761181683836129df565b600054610100900460ff166127505760405162461bcd60e51b815260206004820152602b60248201527f496e697469616c697a61626c653a20636f6e7472616374206973206e6f74206960448201526a6e697469616c697a696e6760a81b606482015260840161083c565b6114a633612311565b600160005260696020527fc073f36c05b6a60b24c30a48974b549770d8fa354751fb3170c9dfd8ca536add546001600160a01b0316156127db5760405162461bcd60e51b815260206004820152601b60248201527f4d6f64756c657320616c726561647920696e697469616c697a65640000000000604482015260640161083c565b6001600081905260696020527fc073f36c05b6a60b24c30a48974b549770d8fa354751fb3170c9dfd8ca536add80546001600160a01b0319169091179055565b600160005260676020527f6bee784efeb983674392298ab585b22866bedf00ebb0eea949d1e66f3f50e71d546001600160a01b03161561289d5760405162461bcd60e51b815260206004820152601b60248201527f6176617461727320616c726561647920696e697469616c697a65640000000000604482015260640161083c565b6001600081905260676020527f6bee784efeb983674392298ab585b22866bedf00ebb0eea949d1e66f3f50e71d80546001600160a01b0319169091179055565b60006129397f811bbb11e8899da471f0e69a3ed55090fc90215227fc5fb1cb0d6e962ea7b74f600052606d6020527febaa353f057bf599106c41b8efa19c3e5ac9e4ee2abd9e2992d32e50df332a3c546001600160a01b031690565b6001600160a01b031663e5789d036040518163ffffffff1660e01b8152600401602060405180830381865afa158015612976573d6000803e3d6000fd5b505050506040513d601f19601f8201168201806040525081019061299a9190612f38565b905090565b6129a881612602565b6040516001600160a01b038216907fbc7cd75a20ee27fd9adebab32041f755214dbc6bffa90cc0225b39da2e5c2d3b90600090a250565b60606001600160a01b0383163b612a5e5760405162461bcd60e51b815260206004820152602660248201527f416464726573733a2064656c65676174652063616c6c20746f206e6f6e2d636f60448201527f6e74726163740000000000000000000000000000000000000000000000000000606482015260840161083c565b600080846001600160a01b031684604051612a799190613154565b600060405180830381855af49150503d8060008114612ab4576040519150601f19603f3d011682016040523d82523d6000602084013e612ab9565b606091505b5091509150611abc82826040518060600160405280602781526020016131846027913960608315612aeb575081612b15565b825115612afb5782518084602001fd5b8160405162461bcd60e51b815260040161083c9190613170565b9392505050565b6001600160a01b038416815260406020820152816040820152818360608301376000818301606090810191909152601f909201601f1916010192915050565b6001600160a01b03811681146109ca57600080fd5b600060208284031215612b8257600080fd5b8135612b1581612b5b565b634e487b7160e01b600052604160045260246000fd5b600082601f830112612bb457600080fd5b813567ffffffffffffffff80821115612bcf57612bcf612b8d565b604051601f8301601f19908116603f01168101908282118183101715612bf757612bf7612b8d565b81604052838152866020858801011115612c1057600080fd5b836020870160208301376000602085830101528094505050505092915050565b60008060408385031215612c4357600080fd5b8235612c4e81612b5b565b9150602083013567ffffffffffffffff811115612c6a57600080fd5b612c7685828601612ba3565b9150509250929050565b60008060408385031215612c9357600080fd5b8235612c9e81612b5b565b91506020830135612cae81612b5b565b809150509250929050565b600060208284031215612ccb57600080fd5b813567ffffffffffffffff811115612ce257600080fd5b612cee84828501612ba3565b949350505050565b803560028110612d0557600080fd5b919050565b60008060008060808587031215612d2057600080fd5b8435612d2b81612b5b565b935060208501359250604085013567ffffffffffffffff811115612d4e57600080fd5b612d5a87828801612ba3565b925050612d6960608601612cf6565b905092959194509250565b60005b83811015612d8f578181015183820152602001612d77565b838111156118165750506000910152565b60008151808452612db8816020860160208601612d74565b601f01601f19169290920160200192915050565b8215158152604060208201526000612cee6040830184612da0565b600080600080600060a08688031215612dff57600080fd5b8535612e0a81612b5b565b945060208601359350604086013567ffffffffffffffff811115612e2d57600080fd5b612e3988828901612ba3565b9350506060860135612e4a81612b5b565b9150612e5860808701612cf6565b90509295509295909350565b60008060408385031215612e7757600080fd5b8235612e8281612b5b565b946020939093013593505050565b604080825283519082018190526000906020906060840190828701845b82811015612ed25781516001600160a01b031684529284019290840190600101612ead565b5050506001600160a01b039490941692019190915250919050565b600060208284031215612eff57600080fd5b5035919050565b6001600160a01b0384168152606060208201526000612f286060830185612da0565b9050826040830152949350505050565b600060208284031215612f4a57600080fd5b5051919050565b600060208284031215612f6357600080fd5b81518015158114612b1557600080fd5b60008060008060808587031215612f8957600080fd5b8451612f9481612b5b565b6020860151909450612fa581612b5b565b6040860151909350612fb681612b5b565b6060860151909250612fc781612b5b565b939692955090935050565b634e487b7160e01b600052602160045260246000fd5b6002811061300657634e487b7160e01b600052602160045260246000fd5b9052565b60006001600160a01b03808816835286602084015260a0604084015261303360a0840187612da0565b9085166060840152905061304a6080830184612fe8565b9695505050505050565b634e487b7160e01b600052603260045260246000fd5b60006001820161308a57634e487b7160e01b600052601160045260246000fd5b5060010190565b60006101606001600160a01b03808f1684528d60208501528160408501526130bb8285018e612da0565b91506130ca606085018d612fe8565b8a60808501528960a08501528860c085015280881660e08501528087166101008501528382036101208501526131008287612da0565b925080851661014085015250509c9b505050505050505050505050565b6001600160a01b03851681528360208201526080604082015260006131456080830185612da0565b9050611abc6060830184612fe8565b60008251613166818460208701612d74565b9190910192915050565b602081526000612b156020830184612da056fe416464726573733a206c6f772d6c6576656c2064656c65676174652063616c6c206661696c6564a2646970667358221220395f4f7e06e375e07dfd5c9de1e4303498176e921fe4552c146829f94117dff464736f6c634300080f0033",
  "linkReferences": {},
  "deployedLinkReferences": {}
}