{
  "_format": "hh-sol-artifact-1",
  "contractName": "wrapperFactoryLogic",
  "sourceName": "contracts/committeeComponent/wrapperFactory/wrapperFactoryLogic.sol",
  "abi": [
    {
      "inputs": [],
      "stateMutability": "nonpayable",
      "type": "constructor"
    },
    {
      "anonymous": false,
      "inputs": [
        {
          "indexed": false,
          "internalType": "address",
          "name": "previousAdmin",
          "type": "address"
        },
        {
          "indexed": false,
          "internalType": "address",
          "name": "newAdmin",
          "type": "address"
        }
      ],
      "name": "AdminChanged",
      "type": "event"
    },
    {
      "anonymous": false,
      "inputs": [
        {
          "indexed": true,
          "internalType": "address",
          "name": "beacon",
          "type": "address"
        }
      ],
      "name": "BeaconUpgraded",
      "type": "event"
    },
    {
      "anonymous": false,
      "inputs": [
        {
          "indexed": false,
          "internalType": "address",
          "name": "module",
          "type": "address"
        }
      ],
      "name": "DisabledModule",
      "type": "event"
    },
    {
      "anonymous": false,
      "inputs": [
        {
          "indexed": false,
          "internalType": "address",
          "name": "module",
          "type": "address"
        }
      ],
      "name": "EnabledModule",
      "type": "event"
    },
    {
      "anonymous": false,
      "inputs": [
        {
          "indexed": true,
          "internalType": "address",
          "name": "module",
          "type": "address"
        }
      ],
      "name": "ExecutionFromModuleFailure",
      "type": "event"
    },
    {
      "anonymous": false,
      "inputs": [
        {
          "indexed": true,
          "internalType": "address",
          "name": "module",
          "type": "address"
        }
      ],
      "name": "ExecutionFromModuleSuccess",
      "type": "event"
    },
    {
      "anonymous": false,
      "inputs": [
        {
          "indexed": false,
          "internalType": "uint8",
          "name": "version",
          "type": "uint8"
        }
      ],
      "name": "Initialized",
      "type": "event"
    },
    {
      "anonymous": false,
      "inputs": [
        {
          "indexed": true,
          "internalType": "address",
          "name": "previousOwner",
          "type": "address"
        },
        {
          "indexed": true,
          "internalType": "address",
          "name": "newOwner",
          "type": "address"
        }
      ],
      "name": "OwnershipTransferred",
      "type": "event"
    },
    {
      "anonymous": false,
      "inputs": [
        {
          "indexed": false,
          "internalType": "contract springProxy",
          "name": "proxy",
          "type": "address"
        },
        {
          "indexed": false,
          "internalType": "address",
          "name": "singleton",
          "type": "address"
        }
      ],
      "name": "ProxyCreation",
      "type": "event"
    },
    {
      "anonymous": false,
      "inputs": [
        {
          "indexed": true,
          "internalType": "address",
          "name": "implementation",
          "type": "address"
        }
      ],
      "name": "Upgraded",
      "type": "event"
    },
    {
      "anonymous": false,
      "inputs": [
        {
          "indexed": false,
          "internalType": "address",
          "name": "safeWrapper",
          "type": "address"
        },
        {
          "indexed": false,
          "internalType": "address",
          "name": "safe",
          "type": "address"
        }
      ],
      "name": "createdSafeWrapper",
      "type": "event"
    },
    {
      "inputs": [
        {
          "internalType": "address",
          "name": "module",
          "type": "address"
        },
        {
          "internalType": "address",
          "name": "avatar",
          "type": "address"
        },
        {
          "internalType": "uint256",
          "name": "budget",
          "type": "uint256"
        },
        {
          "internalType": "uint256",
          "name": "interval",
          "type": "uint256"
        },
        {
          "internalType": "address",
          "name": "mod",
          "type": "address"
        },
        {
          "internalType": "uint256",
          "name": "saltNonce",
          "type": "uint256"
        },
        {
          "internalType": "address[]",
          "name": "owners",
          "type": "address[]"
        },
        {
          "internalType": "uint8",
          "name": "threshold",
          "type": "uint8"
        },
        {
          "internalType": "string",
          "name": "name",
          "type": "string"
        },
        {
          "internalType": "string",
          "name": "sector",
          "type": "string"
        }
      ],
      "name": "createSafeWrapperWithBudget",
      "outputs": [],
      "stateMutability": "nonpayable",
      "type": "function"
    },
    {
      "inputs": [
        {
          "internalType": "address",
          "name": "_context",
          "type": "address"
        }
      ],
      "name": "delegateSetup",
      "outputs": [],
      "stateMutability": "nonpayable",
      "type": "function"
    },
    {
      "inputs": [
        {
          "internalType": "address",
          "name": "prevModule",
          "type": "address"
        },
        {
          "internalType": "address",
          "name": "module",
          "type": "address"
        }
      ],
      "name": "disableModule",
      "outputs": [],
      "stateMutability": "nonpayable",
      "type": "function"
    },
    {
      "inputs": [
        {
          "internalType": "address",
          "name": "module",
          "type": "address"
        }
      ],
      "name": "enableModule",
      "outputs": [],
      "stateMutability": "nonpayable",
      "type": "function"
    },
    {
      "inputs": [
        {
          "internalType": "address",
          "name": "to",
          "type": "address"
        },
        {
          "internalType": "uint256",
          "name": "value",
          "type": "uint256"
        },
        {
          "internalType": "bytes",
          "name": "data",
          "type": "bytes"
        },
        {
          "internalType": "enum Enum.Operation",
          "name": "operation",
          "type": "uint8"
        }
      ],
      "name": "execTransactionFromModule",
      "outputs": [
        {
          "internalType": "bool",
          "name": "success",
          "type": "bool"
        }
      ],
      "stateMutability": "nonpayable",
      "type": "function"
    },
    {
      "inputs": [
        {
          "internalType": "address",
          "name": "to",
          "type": "address"
        },
        {
          "internalType": "uint256",
          "name": "value",
          "type": "uint256"
        },
        {
          "internalType": "bytes",
          "name": "data",
          "type": "bytes"
        },
        {
          "internalType": "enum Enum.Operation",
          "name": "operation",
          "type": "uint8"
        }
      ],
      "name": "execTransactionFromModuleReturnData",
      "outputs": [
        {
          "internalType": "bool",
          "name": "success",
          "type": "bool"
        },
        {
          "internalType": "bytes",
          "name": "returnData",
          "type": "bytes"
        }
      ],
      "stateMutability": "nonpayable",
      "type": "function"
    },
    {
      "inputs": [
        {
          "internalType": "address",
          "name": "start",
          "type": "address"
        },
        {
          "internalType": "uint256",
          "name": "pageSize",
          "type": "uint256"
        }
      ],
      "name": "getModulesPaginated",
      "outputs": [
        {
          "internalType": "address[]",
          "name": "array",
          "type": "address[]"
        },
        {
          "internalType": "address",
          "name": "next",
          "type": "address"
        }
      ],
      "stateMutability": "view",
      "type": "function"
    },
    {
      "inputs": [
        {
          "internalType": "bytes",
          "name": "initializeParams",
          "type": "bytes"
        }
      ],
      "name": "initialize",
      "outputs": [],
      "stateMutability": "nonpayable",
      "type": "function"
    },
    {
      "inputs": [
        {
          "internalType": "address",
          "name": "module",
          "type": "address"
        }
      ],
      "name": "isModuleEnabled",
      "outputs": [
        {
          "internalType": "bool",
          "name": "",
          "type": "bool"
        }
      ],
      "stateMutability": "view",
      "type": "function"
    },
    {
      "inputs": [],
      "name": "owner",
      "outputs": [
        {
          "internalType": "address",
          "name": "",
          "type": "address"
        }
      ],
      "stateMutability": "view",
      "type": "function"
    },
    {
      "inputs": [],
      "name": "permissionRegistry",
      "outputs": [
        {
          "internalType": "address",
          "name": "",
          "type": "address"
        }
      ],
      "stateMutability": "view",
      "type": "function"
    },
    {
      "inputs": [],
      "name": "proxiableUUID",
      "outputs": [
        {
          "internalType": "bytes32",
          "name": "",
          "type": "bytes32"
        }
      ],
      "stateMutability": "view",
      "type": "function"
    },
    {
      "inputs": [],
      "name": "proxyCreationCode",
      "outputs": [
        {
          "internalType": "bytes",
          "name": "",
          "type": "bytes"
        }
      ],
      "stateMutability": "pure",
      "type": "function"
    },
    {
      "inputs": [],
      "name": "proxyRuntimeCode",
      "outputs": [
        {
          "internalType": "bytes",
          "name": "",
          "type": "bytes"
        }
      ],
      "stateMutability": "pure",
      "type": "function"
    },
    {
      "inputs": [],
      "name": "renounceOwnership",
      "outputs": [],
      "stateMutability": "nonpayable",
      "type": "function"
    },
    {
      "inputs": [
        {
          "internalType": "address",
          "name": "_permissionReg",
          "type": "address"
        }
      ],
      "name": "setPermissionReg",
      "outputs": [],
      "stateMutability": "nonpayable",
      "type": "function"
    },
    {
      "inputs": [
        {
          "internalType": "address",
          "name": "newOwner",
          "type": "address"
        }
      ],
      "name": "transferOwnership",
      "outputs": [],
      "stateMutability": "nonpayable",
      "type": "function"
    },
    {
      "inputs": [
        {
          "internalType": "address",
          "name": "newImplementation",
          "type": "address"
        }
      ],
      "name": "upgradeTo",
      "outputs": [],
      "stateMutability": "nonpayable",
      "type": "function"
    },
    {
      "inputs": [
        {
          "internalType": "address",
          "name": "newImplementation",
          "type": "address"
        },
        {
          "internalType": "bytes",
          "name": "data",
          "type": "bytes"
        }
      ],
      "name": "upgradeToAndCall",
      "outputs": [],
      "stateMutability": "payable",
      "type": "function"
    }
  ],
  "bytecode": "0x3060805260e0604052600260a090815261060f60f31b60c05260cc90620000279082620001ad565b503480156200003557600080fd5b506200004062000046565b62000279565b600054610100900460ff1615620000b35760405162461bcd60e51b815260206004820152602760248201527f496e697469616c697a61626c653a20636f6e747261637420697320696e697469604482015266616c697a696e6760c81b606482015260840160405180910390fd5b60005460ff908116101562000106576000805460ff191660ff9081179091556040519081527f7f26b83ff96e1f2b6a682f133852f6798a09c465da95921460cefb38474024989060200160405180910390a15b565b634e487b7160e01b600052604160045260246000fd5b600181811c908216806200013357607f821691505b6020821081036200015457634e487b7160e01b600052602260045260246000fd5b50919050565b601f821115620001a857600081815260208120601f850160051c81016020861015620001835750805b601f850160051c820191505b81811015620001a4578281556001016200018f565b5050505b505050565b81516001600160401b03811115620001c957620001c962000108565b620001e181620001da84546200011e565b846200015a565b602080601f831160018114620002195760008415620002005750858301515b600019600386901b1c1916600185901b178555620001a4565b600085815260208120601f198616915b828110156200024a5788860151825594840194600190910190840162000229565b5085821015620002695787850151600019600388901b60f8161c191681555b5050505050600190811b01905550565b6080516135b6620002b16000396000818161071a015281816107a101528181610bd901528181610c600152610d8501526135b66000f3fe6080604052600436106200015e5760003560e01c806353e5d93511620000cf578063addacc0f116200007d578063cc2f84521162000060578063cc2f845214620003c2578063e009cfde14620003f7578063f2fde38b146200041c57600080fd5b8063addacc0f1462000388578063b55a5c1c14620003a057600080fd5b8063715018a611620000b2578063715018a6146200031757806374d4f6d0146200032f5780638da5cb5b146200035457600080fd5b806353e5d93514620002cb578063610b592514620002f257600080fd5b8063439fab91116200012d5780634f1ef28611620001105780634f1ef28614620002585780635229073f146200026f57806352d1902d14620002a457600080fd5b8063439fab91146200020e578063468721a7146200023357600080fd5b8063113c17de14620001635780631a6e8601146200018a5780632d9ad53d14620001af5780633659cfe614620001e9575b600080fd5b3480156200017057600080fd5b506200018862000182366004620024fe565b62000441565b005b3480156200019757600080fd5b5062000188620001a93660046200262a565b6200058d565b348015620001bc57600080fd5b50620001d4620001ce366004620024fe565b620006d4565b60405190151581526020015b60405180910390f35b348015620001f657600080fd5b506200018862000208366004620024fe565b62000710565b3480156200021b57600080fd5b50620001886200022d36600462002732565b62000894565b3480156200024057600080fd5b50620001d46200025236600462002773565b62000a2c565b6200018862000269366004620027ea565b62000bcf565b3480156200027c57600080fd5b50620002946200028e36600462002773565b62000d40565b604051620001e09291906200289d565b348015620002b157600080fd5b50620002bc62000d78565b604051908152602001620001e0565b348015620002d857600080fd5b50620002e362000e3f565b604051620001e09190620028ba565b348015620002ff57600080fd5b506200018862000311366004620024fe565b62000e6b565b3480156200032457600080fd5b506200018862000f99565b3480156200033c57600080fd5b50620001886200034e366004620024fe565b62000fb1565b3480156200036157600080fd5b506097546001600160a01b03165b6040516001600160a01b039091168152602001620001e0565b3480156200039557600080fd5b50620002e36200100f565b348015620003ad57600080fd5b5060c9546200036f906001600160a01b031681565b348015620003cf57600080fd5b50620003e7620003e1366004620028cf565b62001023565b604051620001e0929190620028fe565b3480156200040457600080fd5b5062000188620004163660046200295d565b6200112a565b3480156200042957600080fd5b50620001886200043b366004620024fe565b6200125f565b6000336001148015906200046c575033600090815260ca60205260409020546001600160a01b031615155b9050600081620005005760c95460405163b700961360e01b81523360048201523060248201526000356001600160e01b03191660448201526001600160a01b039091169063b700961390606401602060405180830381865afa158015620004d7573d6000803e3d6000fd5b505050506040513d601f19601f82011682018060405250810190620004fd91906200299b565b90505b81806200050a5750805b620005685760405162461bcd60e51b8152602060048201526024808201527f4e6f7420617574686f72697a656420746f2063616c6c20746869732066756e636044820152633a34b7b760e11b60648201526084015b60405180910390fd5b60c980546001600160a01b0319166001600160a01b038516179055505050565b505050565b600033600114801590620005b8575033600090815260ca60205260409020546001600160a01b031615155b90506000816200064c5760c95460405163b700961360e01b81523360048201523060248201526000356001600160e01b03191660448201526001600160a01b039091169063b700961390606401602060405180830381865afa15801562000623573d6000803e3d6000fd5b505050506040513d601f19601f820116820180604052508101906200064991906200299b565b90505b8180620006565750805b620006b05760405162461bcd60e51b8152602060048201526024808201527f4e6f7420617574686f72697a656420746f2063616c6c20746869732066756e636044820152633a34b7b760e11b60648201526084016200055f565b620006c58d8d8d8d8d8d8d8d8d8d8d620012f2565b50505050505050505050505050565b600060016001600160a01b038316148015906200070a57506001600160a01b03828116600090815260ca60205260409020541615155b92915050565b6001600160a01b037f00000000000000000000000000000000000000000000000000000000000000001630036200079f5760405162461bcd60e51b815260206004820152602c60248201527f46756e6374696f6e206d7573742062652063616c6c6564207468726f7567682060448201526b19195b1959d85d1958d85b1b60a21b60648201526084016200055f565b7f00000000000000000000000000000000000000000000000000000000000000006001600160a01b0316620007fb7f360894a13ba1a3210667c828492db98dca3e2076cc3735a920a3ca505d382bbc546001600160a01b031690565b6001600160a01b031614620008685760405162461bcd60e51b815260206004820152602c60248201527f46756e6374696f6e206d7573742062652063616c6c6564207468726f7567682060448201526b6163746976652070726f787960a01b60648201526084016200055f565b620008738162001435565b6040805160008082526020820190925262000891918391906200143f565b50565b600054610100900460ff1615808015620008b55750600054600160ff909116105b80620008d15750303b158015620008d1575060005460ff166001145b620009455760405162461bcd60e51b815260206004820152602e60248201527f496e697469616c697a61626c653a20636f6e747261637420697320616c72656160448201527f647920696e697469616c697a656400000000000000000000000000000000000060648201526084016200055f565b6000805460ff19166001179055801562000969576000805461ff0019166101001790555b60008060008085806020019051810190620009859190620029bf565b935093509350935062000997620015eb565b620009a28162001674565b5060cd80546001600160a01b039485166001600160a01b03199182161790915560ce80549385169382169390931790925560cf8054919093169116179055801562000a28576000805461ff0019169055604051600181527f7f26b83ff96e1f2b6a682f133852f6798a09c465da95921460cefb3847402498906020015b60405180910390a15b5050565b6000803360011480159062000a58575033600090815260ca60205260409020546001600160a01b031615155b905060008162000aec5760c95460405163b700961360e01b81523360048201523060248201526000356001600160e01b03191660448201526001600160a01b039091169063b700961390606401602060405180830381865afa15801562000ac3573d6000803e3d6000fd5b505050506040513d601f19601f8201168201806040525081019062000ae991906200299b565b90505b818062000af65750805b62000b505760405162461bcd60e51b8152602060048201526024808201527f4e6f7420617574686f72697a656420746f2063616c6c20746869732066756e636044820152633a34b7b760e11b60648201526084016200055f565b62000b5f878787875a620017cc565b9250821562000b995760405133907f6895c13664aa4f67288b25d7a21d7aaa34916e355fb9b6fae0a139a9085becb890600090a262000bc5565b60405133907facd2c8702804128fdb0db2bb49f6d127dd0181c13fd45dbfe16de0930e2bd37590600090a25b5050949350505050565b6001600160a01b037f000000000000000000000000000000000000000000000000000000000000000016300362000c5e5760405162461bcd60e51b815260206004820152602c60248201527f46756e6374696f6e206d7573742062652063616c6c6564207468726f7567682060448201526b19195b1959d85d1958d85b1b60a21b60648201526084016200055f565b7f00000000000000000000000000000000000000000000000000000000000000006001600160a01b031662000cba7f360894a13ba1a3210667c828492db98dca3e2076cc3735a920a3ca505d382bbc546001600160a01b031690565b6001600160a01b03161462000d275760405162461bcd60e51b815260206004820152602c60248201527f46756e6374696f6e206d7573742062652063616c6c6564207468726f7567682060448201526b6163746976652070726f787960a01b60648201526084016200055f565b62000d328262001435565b62000a28828260016200143f565b6000606062000d528686868662000a2c565b915060405160203d0181016040523d81523d6000602083013e8091505094509492505050565b6000306001600160a01b037f0000000000000000000000000000000000000000000000000000000000000000161462000e1a5760405162461bcd60e51b815260206004820152603860248201527f555550535570677261646561626c653a206d757374206e6f742062652063616c60448201527f6c6564207468726f7567682064656c656761746563616c6c000000000000000060648201526084016200055f565b507f360894a13ba1a3210667c828492db98dca3e2076cc3735a920a3ca505d382bbc90565b60606040518060200162000e5390620024ba565b601f1982820381018352601f90910116604052919050565b60003360011480159062000e96575033600090815260ca60205260409020546001600160a01b031615155b905060008162000f2a5760c95460405163b700961360e01b81523360048201523060248201526000356001600160e01b03191660448201526001600160a01b039091169063b700961390606401602060405180830381865afa15801562000f01573d6000803e3d6000fd5b505050506040513d601f19601f8201168201806040525081019062000f2791906200299b565b90505b818062000f345750805b62000f8e5760405162461bcd60e51b8152602060048201526024808201527f4e6f7420617574686f72697a656420746f2063616c6c20746869732066756e636044820152633a34b7b760e11b60648201526084016200055f565b620005888362001674565b62000fa362001818565b62000faf600062001874565b565b60405163610b592560e01b81526001600160a01b0382166004820152309063610b592590602401600060405180830381600087803b15801562000ff357600080fd5b505af115801562001008573d6000803e3d6000fd5b5050505050565b60606040518060200162000e5390620024c8565b606060008267ffffffffffffffff8111156200104357620010436200257f565b6040519080825280602002602001820160405280156200106d578160200160208202803683370190505b506001600160a01b03808616600090815260ca602052604081205492945091165b6001600160a01b03811615801590620010b157506001600160a01b038116600114155b8015620010bd57508482105b156200111c5780848381518110620010d957620010d962002a1c565b6001600160a01b03928316602091820292909201810191909152918116600090815260ca9092526040909120541681620011138162002a32565b9250506200108e565b908352919491935090915050565b60003360011480159062001155575033600090815260ca60205260409020546001600160a01b031615155b9050600081620011e95760c95460405163b700961360e01b81523360048201523060248201526000356001600160e01b03191660448201526001600160a01b039091169063b700961390606401602060405180830381865afa158015620011c0573d6000803e3d6000fd5b505050506040513d601f19601f82011682018060405250810190620011e691906200299b565b90505b8180620011f35750805b6200124d5760405162461bcd60e51b8152602060048201526024808201527f4e6f7420617574686f72697a656420746f2063616c6c20746869732066756e636044820152633a34b7b760e11b60648201526084016200055f565b620012598484620018c6565b50505050565b6200126962001818565b6001600160a01b038116620012e75760405162461bcd60e51b815260206004820152602660248201527f4f776e61626c653a206e6577206f776e657220697320746865207a65726f206160448201527f646472657373000000000000000000000000000000000000000000000000000060648201526084016200055f565b620008918162001874565b6000620013058787878760ff1662001a03565b9050600080828e868660405160200162001323949392919062002a5a565b604051602081830303815290604052905060007f439fab91f8ccf5be59586b9cf7bb7786c67a661a95ce1cfc146c1ed62922ae26826040516024016200136a9190620028ba565b60408051601f198184030181529190526020810180516001600160e01b03166001600160e01b03199093169290921790915260cd54909150620013b7906001600160a01b03168262001b80565b92505050620013ca89828e8e8e62001c74565b620013d7818a8e62001d7d565b620013e3818362001e76565b604080516001600160a01b038084168252841660208201527f5681e4c78660d55bb53914589851145ee27800664310b24d132344dc164c0359910160405180910390a150505050505050505050505050565b6200089162001818565b7f4910fdfa16fed3260ed0e7147f7cc6da11a60208b5b9406d12a635614ffd91435460ff161562001475576200058883620020f6565b826001600160a01b03166352d1902d6040518163ffffffff1660e01b8152600401602060405180830381865afa925050508015620014d2575060408051601f3d908101601f19168201909252620014cf9181019062002a9c565b60015b620015465760405162461bcd60e51b815260206004820152602e60248201527f45524331393637557067726164653a206e657720696d706c656d656e7461746960448201527f6f6e206973206e6f74205555505300000000000000000000000000000000000060648201526084016200055f565b7f360894a13ba1a3210667c828492db98dca3e2076cc3735a920a3ca505d382bbc8114620015dd5760405162461bcd60e51b815260206004820152602960248201527f45524331393637557067726164653a20756e737570706f727465642070726f7860448201527f6961626c6555554944000000000000000000000000000000000000000000000060648201526084016200055f565b5062000588838383620021b6565b600054610100900460ff166200166a5760405162461bcd60e51b815260206004820152602b60248201527f496e697469616c697a61626c653a20636f6e7472616374206973206e6f74206960448201527f6e697469616c697a696e6700000000000000000000000000000000000000000060648201526084016200055f565b62000faf620021e1565b6001600160a01b038116158015906200169757506001600160a01b038116600114155b620016cd5760405162461bcd60e51b8152602060048201526005602482015264475331303160d81b60448201526064016200055f565b6001600160a01b03818116600090815260ca60205260409020541615620017375760405162461bcd60e51b815260206004820152600560248201527f475331303200000000000000000000000000000000000000000000000000000060448201526064016200055f565b60ca60209081527fffdc4fad4cae5b6def485eb2915a8a59a963e8bdfb9e32cab695f7ae652f88b480546001600160a01b03848116600081815260408082208054949095166001600160a01b0319948516179094556001905283549091168117909255519081527fecdf3a3effea5783a3c4c2140e677577666428d44ed9d474a0b3a4c9943f8440910160405180910390a150565b60006001836001811115620017e557620017e562002ab6565b03620017ff576000808551602087018986f490506200180f565b600080855160208701888a87f190505b95945050505050565b6097546001600160a01b0316331462000faf5760405162461bcd60e51b815260206004820181905260248201527f4f776e61626c653a2063616c6c6572206973206e6f7420746865206f776e657260448201526064016200055f565b609780546001600160a01b038381166001600160a01b0319831681179093556040519116919082907f8be0079c531659141344cd1fd0a4f28419497f9722a3daafe3b4186f6b6457e090600090a35050565b6001600160a01b03811615801590620018e957506001600160a01b038116600114155b6200191f5760405162461bcd60e51b8152602060048201526005602482015264475331303160d81b60448201526064016200055f565b6001600160a01b03828116600090815260ca60205260409020548116908216146200198d5760405162461bcd60e51b815260206004820152600560248201527f475331303300000000000000000000000000000000000000000000000000000060448201526064016200055f565b6001600160a01b03818116600081815260ca60209081526040808320805488871685528285208054919097166001600160a01b03199182161790965592849052825490941690915591519081527faab4fa2b463f581b2b32cb3b7e3b704b9ce37cc209b5fb4d77e593ace4054276910162000a1f565b60408051306024808301829052835180840382018152604490930184526020830180516001600160e01b03167f74d4f6d00000000000000000000000000000000000000000000000000000000017905260cb5493516000946060937fb63e800d34f56a9238e5b86a8547a23865164bec371bede606e899182da118bf9362001aa6938b938b938b9390928a926001600160a01b03169182918d9183910162002acc565b60408051601f198184030181529181526020820180516001600160e01b03166001600160e01b03199094169390931790925260ce5460cf5492517f1688f0b90000000000000000000000000000000000000000000000000000000081529193506001600160a01b0390811692631688f0b99262001b2f92919091169085908c9060040162002b96565b6020604051808303816000875af115801562001b4f573d6000803e3d6000fd5b505050506040513d601f19601f8201168201806040525081019062001b75919062002bca565b979650505050505050565b60008260405162001b9190620024ba565b6001600160a01b039091168152602001604051809103906000f08015801562001bbe573d6000803e3d6000fd5b509050600081905062001c076040518060400160405280600f81526020017f50726f787920416464726573733a20000000000000000000000000000000000081525082620022a5565b82511562001c2a5760008060008551602087016000875af10362001c2a57600080fd5b604080516001600160a01b038085168252861660208201527f4f51faf6c4561ff95f067657e43439f0f856d97c04d9ec9070a6199ad418e235910160405180910390a15092915050565b6040517fdd16a0080000000000000000000000000000000000000000000000000000000081526001600160a01b038581166004830152848116602483015286169063dd16a00890604401600060405180830381600087803b15801562001cd957600080fd5b505af115801562001cee573d6000803e3d6000fd5b50506040517f2de7ae930000000000000000000000000000000000000000000000000000000081526001600160a01b038781166004830152602482018690526044820185905288169250632de7ae939150606401600060405180830381600087803b15801562001d5d57600080fd5b505af115801562001d72573d6000803e3d6000fd5b505050505050505050565b6040517fb1d49d560000000000000000000000000000000000000000000000000000000081526001600160a01b03828116600483015284169063b1d49d5690602401600060405180830381600087803b15801562001dda57600080fd5b505af115801562001def573d6000803e3d6000fd5b50506040517f3ecf06bd0000000000000000000000000000000000000000000000000000000081526001600160a01b038581166004830152848116602483015286169250633ecf06bd9150604401600060405180830381600087803b15801562001e5857600080fd5b505af115801562001e6d573d6000803e3d6000fd5b50505050505050565b6040516001600160a01b038316602482015260009060440160408051601f198184030181529181526020820180516001600160e01b031663610b592560e01b1790525163468721a760e01b81529091506000906001600160a01b0384169063468721a79062001ef090869085908790829060040162002bea565b6020604051808303816000875af115801562001f10573d6000803e3d6000fd5b505050506040513d601f19601f8201168201806040525081019062001f3691906200299b565b90508062001fad5760405162461bcd60e51b815260206004820152602860248201527f4d6f64756c6520636f756c64206e6f74206265207375636365737366756c6c7960448201527f20656e61626c656400000000000000000000000000000000000000000000000060648201526084016200055f565b505060405130602482015260009060440160408051601f198184030181529181526020820180516001600160e01b03167fa95f5246000000000000000000000000000000000000000000000000000000001790525163468721a760e01b81529091506000906001600160a01b0384169063468721a7906200203990869085908790829060040162002bea565b6020604051808303816000875af115801562002059573d6000803e3d6000fd5b505050506040513d601f19601f820116820180604052508101906200207f91906200299b565b905080620012595760405162461bcd60e51b815260206004820152603460248201527f466163746f727920636f756c64206e6f74206265207375636365737366756c6c60448201527f792064697361626c6564206173206d6f64756c6500000000000000000000000060648201526084016200055f565b6001600160a01b0381163b620021755760405162461bcd60e51b815260206004820152602d60248201527f455243313936373a206e657720696d706c656d656e746174696f6e206973206e60448201527f6f74206120636f6e74726163740000000000000000000000000000000000000060648201526084016200055f565b7f360894a13ba1a3210667c828492db98dca3e2076cc3735a920a3ca505d382bbc80546001600160a01b0319166001600160a01b0392909216919091179055565b620021c18362002307565b600082511180620021cf5750805b15620005885762001259838362002349565b600160005260ca6020527fffdc4fad4cae5b6def485eb2915a8a59a963e8bdfb9e32cab695f7ae652f88b4546001600160a01b031615620022655760405162461bcd60e51b815260206004820152601b60248201527f4d6f64756c657320616c726561647920696e697469616c697a6564000000000060448201526064016200055f565b6001600081905260ca6020527fffdc4fad4cae5b6def485eb2915a8a59a963e8bdfb9e32cab695f7ae652f88b480546001600160a01b0319169091179055565b62000a288282604051602401620022be92919062002c44565b60408051601f198184030181529190526020810180516001600160e01b03167f319af3330000000000000000000000000000000000000000000000000000000017905262002454565b6200231281620020f6565b6040516001600160a01b038216907fbc7cd75a20ee27fd9adebab32041f755214dbc6bffa90cc0225b39da2e5c2d3b90600090a250565b60606001600160a01b0383163b620023ca5760405162461bcd60e51b815260206004820152602660248201527f416464726573733a2064656c65676174652063616c6c20746f206e6f6e2d636f60448201527f6e7472616374000000000000000000000000000000000000000000000000000060648201526084016200055f565b600080846001600160a01b031684604051620023e7919062002c71565b600060405180830381855af49150503d806000811462002424576040519150601f19603f3d011682016040523d82523d6000602084013e62002429565b606091505b50915091506200180f82826040518060600160405280602781526020016200355a6027913962002475565b80516a636f6e736f6c652e6c6f67602083016000808483855afa5050505050565b6060831562002486575081620024b3565b825115620024975782518084602001fd5b8160405162461bcd60e51b81526004016200055f9190620028ba565b9392505050565b6106018062002c9083390190565b6102c9806200329183390190565b6001600160a01b03811681146200089157600080fd5b8035620024f981620024d6565b919050565b6000602082840312156200251157600080fd5b8135620024b381620024d6565b60008083601f8401126200253157600080fd5b50813567ffffffffffffffff8111156200254a57600080fd5b6020830191508360208260051b85010111156200256657600080fd5b9250929050565b803560ff81168114620024f957600080fd5b634e487b7160e01b600052604160045260246000fd5b600082601f830112620025a757600080fd5b813567ffffffffffffffff80821115620025c557620025c56200257f565b604051601f8301601f19908116603f01168101908282118183101715620025f057620025f06200257f565b816040528381528660208588010111156200260a57600080fd5b836020870160208301376000602085830101528094505050505092915050565b60008060008060008060008060008060006101408c8e0312156200264d57600080fd5b620026588c620024ec565b9a506200266860208d01620024ec565b995060408c0135985060608c013597506200268660808d01620024ec565b965060a08c0135955067ffffffffffffffff8060c08e01351115620026aa57600080fd5b620026bc8e60c08f01358f016200251e565b9096509450620026cf60e08e016200256d565b9350806101008e01351115620026e457600080fd5b620026f78e6101008f01358f0162002595565b9250806101208e013511156200270c57600080fd5b50620027208d6101208e01358e0162002595565b90509295989b509295989b9093969950565b6000602082840312156200274557600080fd5b813567ffffffffffffffff8111156200275d57600080fd5b6200276b8482850162002595565b949350505050565b600080600080608085870312156200278a57600080fd5b84356200279781620024d6565b935060208501359250604085013567ffffffffffffffff811115620027bb57600080fd5b620027c98782880162002595565b925050606085013560028110620027df57600080fd5b939692955090935050565b60008060408385031215620027fe57600080fd5b82356200280b81620024d6565b9150602083013567ffffffffffffffff8111156200282857600080fd5b620028368582860162002595565b9150509250929050565b60005b838110156200285d57818101518382015260200162002843565b83811115620012595750506000910152565b600081518084526200288981602086016020860162002840565b601f01601f19169290920160200192915050565b82151581526040602082015260006200276b60408301846200286f565b602081526000620024b360208301846200286f565b60008060408385031215620028e357600080fd5b8235620028f081620024d6565b946020939093013593505050565b604080825283519082018190526000906020906060840190828701845b82811015620029425781516001600160a01b0316845292840192908401906001016200291b565b5050506001600160a01b039490941692019190915250919050565b600080604083850312156200297157600080fd5b82356200297e81620024d6565b915060208301356200299081620024d6565b809150509250929050565b600060208284031215620029ae57600080fd5b81518015158114620024b357600080fd5b60008060008060808587031215620029d657600080fd5b8451620029e381620024d6565b6020860151909450620029f681620024d6565b604086015190935062002a0981620024d6565b6060860151909250620027df81620024d6565b634e487b7160e01b600052603260045260246000fd5b60006001820162002a5357634e487b7160e01b600052601160045260246000fd5b5060010190565b60006001600160a01b0380871683528086166020840152506080604083015262002a8860808301856200286f565b828103606084015262001b7581856200286f565b60006020828403121562002aaf57600080fd5b5051919050565b634e487b7160e01b600052602160045260246000fd5b6101008082528101899052600061012082018b825b8c81101562002b1657813562002af781620024d6565b6001600160a01b03168352602092830192919091019060010162002ae1565b505089602084015262002b34604084018a6001600160a01b03169052565b828103606084015262002b4881896200286f565b91505062002b6160808301876001600160a01b03169052565b6001600160a01b03851660a083015260ff841660c08301526001600160a01b03831660e08301529a9950505050505050505050565b6001600160a01b038416815260606020820152600062002bba60608301856200286f565b9050826040830152949350505050565b60006020828403121562002bdd57600080fd5b8151620024b381620024d6565b6001600160a01b038516815283602082015260806040820152600062002c1460808301856200286f565b90506002831062002c3557634e487b7160e01b600052602160045260246000fd5b82606083015295945050505050565b60408152600062002c5960408301856200286f565b90506001600160a01b03831660208301529392505050565b6000825162002c8581846020870162002840565b919091019291505056fe608060405234801561001057600080fd5b5060405161060138038061060183398101604081905261002f9161024d565b6100786040518060400160405280601981526020017f696d706c656d656e746174696f6e20696e2070726f78793a20000000000000008152508261008760201b6100291760201c565b610081816100d4565b50610307565b6100d0828260405160240161009d9291906102ca565b60408051601f198184030181529190526020810180516001600160e01b0390811663319af33360e01b179091526101d016565b5050565b6100ff6040518060600160405280602281526020016105df602291396101f160201b6100a01760201c565b6101128161023b60201b6101141760201c565b6101785760405162461bcd60e51b815260206004820152602d60248201527f455243313936373a206e657720696d706c656d656e746174696f6e206973206e60448201526c1bdd08184818dbdb9d1c9858dd609a1b606482015260840160405180910390fd5b806101af7f360894a13ba1a3210667c828492db98dca3e2076cc3735a920a3ca505d382bbc60001b61024a60201b6101301760201c565b80546001600160a01b0319166001600160a01b039290921691909117905550565b80516a636f6e736f6c652e6c6f67602083016000808483855afa5050505050565b6102388160405160240161020591906102f4565b60408051601f198184030181529190526020810180516001600160e01b0390811663104c13eb60e21b179091526101d016565b50565b6001600160a01b03163b151590565b90565b60006020828403121561025f57600080fd5b81516001600160a01b038116811461027657600080fd5b9392505050565b6000815180845260005b818110156102a357602081850181015186830182015201610287565b818111156102b5576000602083870101525b50601f01601f19169290920160200192915050565b6040815260006102dd604083018561027d565b905060018060a01b03831660208301529392505050565b602081526000610276602083018461027d565b6102c9806103166000396000f3fe60806040523661001357610011610017565b005b6100115b610027610022610133565b6101af565b565b61009c828260405160240161003f929190610241565b60408051601f198184030181529190526020810180517bffffffffffffffffffffffffffffffffffffffffffffffffffffffff167f319af333000000000000000000000000000000000000000000000000000000001790526101d3565b5050565b610111816040516024016100b49190610279565b60408051601f198184030181529190526020810180517bffffffffffffffffffffffffffffffffffffffffffffffffffffffff167f41304fac000000000000000000000000000000000000000000000000000000001790526101d3565b50565b73ffffffffffffffffffffffffffffffffffffffff163b151590565b90565b60006101736040518060400160405280601e81526020017f63616c6c656420696d706c656d656e746174696f6e20696e2070726f787900008152506100a0565b507f360894a13ba1a3210667c828492db98dca3e2076cc3735a920a3ca505d382bbc5473ffffffffffffffffffffffffffffffffffffffff1690565b3660008037600080366000845af43d6000803e8080156101ce573d6000f35b3d6000fd5b80516a636f6e736f6c652e6c6f67602083016000808483855afa5050505050565b6000815180845260005b8181101561021a576020818501810151868301820152016101fe565b8181111561022c576000602083870101525b50601f01601f19169290920160200192915050565b60408152600061025460408301856101f4565b905073ffffffffffffffffffffffffffffffffffffffff831660208301529392505050565b60208152600061028c60208301846101f4565b939250505056fea26469706673582212204cc1b94af8de64dac1f78f46f04d60ceb7c42407218918ef16d1db227284bb6e64736f6c634300080f003363616c6c65642073657420696d706c656d656e746174696f6e20696e2070726f787960806040523661001357610011610017565b005b6100115b610027610022610133565b6101af565b565b61009c828260405160240161003f929190610241565b60408051601f198184030181529190526020810180517bffffffffffffffffffffffffffffffffffffffffffffffffffffffff167f319af333000000000000000000000000000000000000000000000000000000001790526101d3565b5050565b610111816040516024016100b49190610279565b60408051601f198184030181529190526020810180517bffffffffffffffffffffffffffffffffffffffffffffffffffffffff167f41304fac000000000000000000000000000000000000000000000000000000001790526101d3565b50565b73ffffffffffffffffffffffffffffffffffffffff163b151590565b90565b60006101736040518060400160405280601e81526020017f63616c6c656420696d706c656d656e746174696f6e20696e2070726f787900008152506100a0565b507f360894a13ba1a3210667c828492db98dca3e2076cc3735a920a3ca505d382bbc5473ffffffffffffffffffffffffffffffffffffffff1690565b3660008037600080366000845af43d6000803e8080156101ce573d6000f35b3d6000fd5b80516a636f6e736f6c652e6c6f67602083016000808483855afa5050505050565b6000815180845260005b8181101561021a576020818501810151868301820152016101fe565b8181111561022c576000602083870101525b50601f01601f19169290920160200192915050565b60408152600061025460408301856101f4565b905073ffffffffffffffffffffffffffffffffffffffff831660208301529392505050565b60208152600061028c60208301846101f4565b939250505056fea26469706673582212204cc1b94af8de64dac1f78f46f04d60ceb7c42407218918ef16d1db227284bb6e64736f6c634300080f0033416464726573733a206c6f772d6c6576656c2064656c65676174652063616c6c206661696c6564a2646970667358221220b3de261b78a758e8798377edda73cfcc6640b1e9bc1fa63d545f7821ece2ca5164736f6c634300080f0033",
  "linkReferences": {},
  "deployedLinkReferences": {}
}