{
  "_format": "hh-sol-artifact-1",
  "contractName": "dummyAvatar",
  "sourceName": "contracts/mockContracts/dummyAvatar.sol",
  "abi": [
    {
      "inputs": [
        {
          "internalType": "address",
          "name": "to",
          "type": "address"
        },
        {
          "internalType": "uint256",
          "name": "value",
          "type": "uint256"
        },
        {
          "internalType": "bytes",
          "name": "data",
          "type": "bytes"
        },
        {
          "internalType": "enum Enum.Operation",
          "name": "operation",
          "type": "uint8"
        }
      ],
      "name": "execTransactionFromModule",
      "outputs": [
        {
          "internalType": "bool",
          "name": "success",
          "type": "bool"
        }
      ],
      "stateMutability": "nonpayable",
      "type": "function"
    },
    {
      "inputs": [
        {
          "internalType": "address",
          "name": "to",
          "type": "address"
        },
        {
          "internalType": "uint256",
          "name": "value",
          "type": "uint256"
        },
        {
          "internalType": "bytes",
          "name": "data",
          "type": "bytes"
        },
        {
          "internalType": "enum Enum.Operation",
          "name": "operation",
          "type": "uint8"
        }
      ],
      "name": "execTransactionFromModuleReturnData",
      "outputs": [
        {
          "internalType": "bool",
          "name": "success",
          "type": "bool"
        },
        {
          "internalType": "bytes",
          "name": "returnData",
          "type": "bytes"
        }
      ],
      "stateMutability": "nonpayable",
      "type": "function"
    },
    {
      "inputs": [],
      "name": "getSuccess",
      "outputs": [
        {
          "internalType": "bool",
          "name": "",
          "type": "bool"
        }
      ],
      "stateMutability": "view",
      "type": "function"
    },
    {
      "inputs": [
        {
          "internalType": "bool",
          "name": "_success",
          "type": "bool"
        }
      ],
      "name": "setSuccess",
      "outputs": [],
      "stateMutability": "nonpayable",
      "type": "function"
    }
  ],
  "bytecode": "0x60806040526000805460ff1916905534801561001a57600080fd5b506103508061002a6000396000f3fe608060405234801561001057600080fd5b506004361061004c5760003560e01c8063468721a7146100515780635229073f1461007957806369cacdaf1461009a5780637bcc7f81146100a5575b600080fd5b61006461005f366004610185565b6100c8565b60405190151581526020015b60405180910390f35b61008c610087366004610185565b6100e0565b60405161007092919061027c565b60005460ff16610064565b6100c66100b33660046102db565b6000805460ff1916911515919091179055565b005b60006100d7858585855a610116565b95945050505050565b600060606100f0868686866100c8565b915060405160203d0181016040523d81523d6000602083013e8091505094509492505050565b6000600183600181111561012c5761012c610304565b03610144576000808551602087018986f490506100d7565b600080855160208701888a87f19695505050505050565b634e487b7160e01b600052604160045260246000fd5b80356002811061018057600080fd5b919050565b6000806000806080858703121561019b57600080fd5b843573ffffffffffffffffffffffffffffffffffffffff811681146101bf57600080fd5b935060208501359250604085013567ffffffffffffffff808211156101e357600080fd5b818701915087601f8301126101f757600080fd5b8135818111156102095761020961015b565b604051601f8201601f19908116603f011681019083821181831017156102315761023161015b565b816040528281528a602084870101111561024a57600080fd5b82602086016020830137600060208483010152809650505050505061027160608601610171565b905092959194509250565b821515815260006020604081840152835180604085015260005b818110156102b257858101830151858201606001528201610296565b818111156102c4576000606083870101525b50601f01601f191692909201606001949350505050565b6000602082840312156102ed57600080fd5b813580151581146102fd57600080fd5b9392505050565b634e487b7160e01b600052602160045260246000fdfea2646970667358221220296f938c507b575361e12344e1aaafd2c926650f543112e59c3c8426c2f6b04364736f6c634300080f0033",
  "linkReferences": {},
  "deployedLinkReferences": {}
}