{
  "_format": "hh-sol-artifact-1",
  "contractName": "safeWrapperBase",
  "sourceName": "contracts/committeeComponent/safeWrapper/safeWrapperBase.sol",
  "abi": [
    {
      "inputs": [
        {
          "internalType": "address",
          "name": "guard_",
          "type": "address"
        }
      ],
      "name": "NotIERC165Compliant",
      "type": "error"
    },
    {
      "anonymous": false,
      "inputs": [
        {
          "indexed": false,
          "internalType": "address",
          "name": "guard",
          "type": "address"
        }
      ],
      "name": "ChangedGuard",
      "type": "event"
    },
    {
      "anonymous": false,
      "inputs": [
        {
          "indexed": false,
          "internalType": "address",
          "name": "avatar",
          "type": "address"
        }
      ],
      "name": "DisabledAvatar",
      "type": "event"
    },
    {
      "anonymous": false,
      "inputs": [
        {
          "indexed": false,
          "internalType": "address",
          "name": "module",
          "type": "address"
        }
      ],
      "name": "DisabledModule",
      "type": "event"
    },
    {
      "anonymous": false,
      "inputs": [
        {
          "indexed": false,
          "internalType": "address",
          "name": "avatar",
          "type": "address"
        }
      ],
      "name": "EnabledAvatar",
      "type": "event"
    },
    {
      "anonymous": false,
      "inputs": [
        {
          "indexed": false,
          "internalType": "address",
          "name": "module",
          "type": "address"
        }
      ],
      "name": "EnabledModule",
      "type": "event"
    },
    {
      "anonymous": false,
      "inputs": [
        {
          "indexed": true,
          "internalType": "address",
          "name": "module",
          "type": "address"
        }
      ],
      "name": "ExecutionFromModuleFailure",
      "type": "event"
    },
    {
      "anonymous": false,
      "inputs": [
        {
          "indexed": true,
          "internalType": "address",
          "name": "module",
          "type": "address"
        }
      ],
      "name": "ExecutionFromModuleSuccess",
      "type": "event"
    },
    {
      "anonymous": false,
      "inputs": [
        {
          "indexed": false,
          "internalType": "uint8",
          "name": "version",
          "type": "uint8"
        }
      ],
      "name": "Initialized",
      "type": "event"
    },
    {
      "anonymous": false,
      "inputs": [
        {
          "indexed": true,
          "internalType": "address",
          "name": "previousOwner",
          "type": "address"
        },
        {
          "indexed": true,
          "internalType": "address",
          "name": "newOwner",
          "type": "address"
        }
      ],
      "name": "OwnershipTransferred",
      "type": "event"
    },
    {
      "anonymous": false,
      "inputs": [
        {
          "indexed": false,
          "internalType": "address",
          "name": "newSafe",
          "type": "address"
        }
      ],
      "name": "SafeSucessfullyRegistered",
      "type": "event"
    },
    {
      "anonymous": false,
      "inputs": [
        {
          "indexed": true,
          "internalType": "address",
          "name": "previousTarget",
          "type": "address"
        },
        {
          "indexed": true,
          "internalType": "address",
          "name": "newTarget",
          "type": "address"
        }
      ],
      "name": "TargetSet",
      "type": "event"
    },
    {
      "inputs": [
        {
          "internalType": "address",
          "name": "owner",
          "type": "address"
        },
        {
          "internalType": "uint256",
          "name": "threshold",
          "type": "uint256"
        }
      ],
      "name": "addOwner",
      "outputs": [],
      "stateMutability": "nonpayable",
      "type": "function"
    },
    {
      "inputs": [
        {
          "internalType": "address",
          "name": "preAvatar",
          "type": "address"
        },
        {
          "internalType": "address",
          "name": "avatar",
          "type": "address"
        }
      ],
      "name": "disableAvatar",
      "outputs": [],
      "stateMutability": "nonpayable",
      "type": "function"
    },
    {
      "inputs": [
        {
          "internalType": "address",
          "name": "prevModule",
          "type": "address"
        },
        {
          "internalType": "address",
          "name": "module",
          "type": "address"
        }
      ],
      "name": "disableModule",
      "outputs": [],
      "stateMutability": "nonpayable",
      "type": "function"
    },
    {
      "inputs": [
        {
          "internalType": "address",
          "name": "avatar",
          "type": "address"
        }
      ],
      "name": "enableAvatar",
      "outputs": [],
      "stateMutability": "nonpayable",
      "type": "function"
    },
    {
      "inputs": [
        {
          "internalType": "address",
          "name": "module",
          "type": "address"
        }
      ],
      "name": "enableModule",
      "outputs": [],
      "stateMutability": "nonpayable",
      "type": "function"
    },
    {
      "inputs": [
        {
          "internalType": "address",
          "name": "to",
          "type": "address"
        },
        {
          "internalType": "uint256",
          "name": "value",
          "type": "uint256"
        },
        {
          "internalType": "bytes",
          "name": "data",
          "type": "bytes"
        },
        {
          "internalType": "enum Enum.Operation",
          "name": "operation",
          "type": "uint8"
        }
      ],
      "name": "execTransactionFromModule",
      "outputs": [
        {
          "internalType": "bool",
          "name": "success",
          "type": "bool"
        }
      ],
      "stateMutability": "nonpayable",
      "type": "function"
    },
    {
      "inputs": [
        {
          "internalType": "address",
          "name": "to",
          "type": "address"
        },
        {
          "internalType": "uint256",
          "name": "value",
          "type": "uint256"
        },
        {
          "internalType": "bytes",
          "name": "data",
          "type": "bytes"
        },
        {
          "internalType": "enum Enum.Operation",
          "name": "operation",
          "type": "uint8"
        }
      ],
      "name": "execTransactionFromModuleReturnData",
      "outputs": [
        {
          "internalType": "bool",
          "name": "success",
          "type": "bool"
        },
        {
          "internalType": "bytes",
          "name": "returnData",
          "type": "bytes"
        }
      ],
      "stateMutability": "nonpayable",
      "type": "function"
    },
    {
      "inputs": [
        {
          "internalType": "address",
          "name": "start",
          "type": "address"
        },
        {
          "internalType": "uint256",
          "name": "pageSize",
          "type": "uint256"
        }
      ],
      "name": "getAvatarsPaginated",
      "outputs": [
        {
          "internalType": "address[]",
          "name": "array",
          "type": "address[]"
        },
        {
          "internalType": "address",
          "name": "next",
          "type": "address"
        }
      ],
      "stateMutability": "view",
      "type": "function"
    },
    {
      "inputs": [],
      "name": "getGuard",
      "outputs": [
        {
          "internalType": "address",
          "name": "_guard",
          "type": "address"
        }
      ],
      "stateMutability": "view",
      "type": "function"
    },
    {
      "inputs": [
        {
          "internalType": "address",
          "name": "start",
          "type": "address"
        },
        {
          "internalType": "uint256",
          "name": "pageSize",
          "type": "uint256"
        }
      ],
      "name": "getModulesPaginated",
      "outputs": [
        {
          "internalType": "address[]",
          "name": "array",
          "type": "address[]"
        },
        {
          "internalType": "address",
          "name": "next",
          "type": "address"
        }
      ],
      "stateMutability": "view",
      "type": "function"
    },
    {
      "inputs": [],
      "name": "guard",
      "outputs": [
        {
          "internalType": "address",
          "name": "",
          "type": "address"
        }
      ],
      "stateMutability": "view",
      "type": "function"
    },
    {
      "inputs": [
        {
          "internalType": "bytes",
          "name": "initializeParams",
          "type": "bytes"
        }
      ],
      "name": "initialize",
      "outputs": [],
      "stateMutability": "nonpayable",
      "type": "function"
    },
    {
      "inputs": [
        {
          "internalType": "address",
          "name": "avatar",
          "type": "address"
        }
      ],
      "name": "isAvatarEnabled",
      "outputs": [
        {
          "internalType": "bool",
          "name": "",
          "type": "bool"
        }
      ],
      "stateMutability": "view",
      "type": "function"
    },
    {
      "inputs": [
        {
          "internalType": "address",
          "name": "module",
          "type": "address"
        }
      ],
      "name": "isModuleEnabled",
      "outputs": [
        {
          "internalType": "bool",
          "name": "",
          "type": "bool"
        }
      ],
      "stateMutability": "view",
      "type": "function"
    },
    {
      "inputs": [],
      "name": "name",
      "outputs": [
        {
          "internalType": "string",
          "name": "",
          "type": "string"
        }
      ],
      "stateMutability": "view",
      "type": "function"
    },
    {
      "inputs": [],
      "name": "owner",
      "outputs": [
        {
          "internalType": "address",
          "name": "",
          "type": "address"
        }
      ],
      "stateMutability": "view",
      "type": "function"
    },
    {
      "inputs": [],
      "name": "permissionRegistry",
      "outputs": [
        {
          "internalType": "address",
          "name": "",
          "type": "address"
        }
      ],
      "stateMutability": "view",
      "type": "function"
    },
    {
      "inputs": [
        {
          "internalType": "address",
          "name": "owner",
          "type": "address"
        },
        {
          "internalType": "uint256",
          "name": "threshold",
          "type": "uint256"
        }
      ],
      "name": "removeOwner",
      "outputs": [],
      "stateMutability": "nonpayable",
      "type": "function"
    },
    {
      "inputs": [],
      "name": "renounceOwnership",
      "outputs": [],
      "stateMutability": "nonpayable",
      "type": "function"
    },
    {
      "inputs": [],
      "name": "sector",
      "outputs": [
        {
          "internalType": "string",
          "name": "",
          "type": "string"
        }
      ],
      "stateMutability": "view",
      "type": "function"
    },
    {
      "inputs": [
        {
          "internalType": "address",
          "name": "to",
          "type": "address"
        },
        {
          "internalType": "uint256",
          "name": "amount",
          "type": "uint256"
        },
        {
          "internalType": "address",
          "name": "avatar",
          "type": "address"
        }
      ],
      "name": "sendEth",
      "outputs": [],
      "stateMutability": "nonpayable",
      "type": "function"
    },
    {
      "inputs": [
        {
          "internalType": "address",
          "name": "_guard",
          "type": "address"
        }
      ],
      "name": "setGuard",
      "outputs": [],
      "stateMutability": "nonpayable",
      "type": "function"
    },
    {
      "inputs": [
        {
          "internalType": "address",
          "name": "_permissionReg",
          "type": "address"
        }
      ],
      "name": "setPermissionReg",
      "outputs": [],
      "stateMutability": "nonpayable",
      "type": "function"
    },
    {
      "inputs": [
        {
          "internalType": "address",
          "name": "target",
          "type": "address"
        },
        {
          "internalType": "address",
          "name": "avatar",
          "type": "address"
        }
      ],
      "name": "setTarget",
      "outputs": [],
      "stateMutability": "nonpayable",
      "type": "function"
    },
    {
      "inputs": [
        {
          "internalType": "address",
          "name": "newOwner",
          "type": "address"
        }
      ],
      "name": "transferOwnership",
      "outputs": [],
      "stateMutability": "nonpayable",
      "type": "function"
    }
  ],
  "bytecode": "0x608060405234801561001057600080fd5b50612c01806100206000396000f3fe608060405234801561001057600080fd5b50600436106101a35760003560e01c80638da5cb5b116100ee578063c2e042f411610097578063d9c31c7311610071578063d9c31c731461036e578063e009cfde14610381578063e19a9dd914610394578063f2fde38b146103a757600080fd5b8063c2e042f414610337578063c91063891461034a578063cc2f84521461035b57600080fd5b8063b55a5c1c116100c8578063b55a5c1c146102f0578063ba7707b214610303578063bfd2b3a31461032457600080fd5b80638da5cb5b146102b957806392ddaaba146102ca578063b1d49d56146102dd57600080fd5b8063439fab9111610150578063610b59251161012a578063610b592514610273578063715018a6146102865780637ceab3b11461028e57600080fd5b8063439fab911461022c578063468721a71461023f5780635229073f1461025257600080fd5b80632d9ad53d116101815780632d9ad53d146101e35780633cc38f5c146102065780633ecf06bd1461021957600080fd5b806306fdde03146101a8578063113c17de146101c6578063177536ea146101db575b600080fd5b6101b06103ba565b6040516101bd919061242f565b60405180910390f35b6101d96101d436600461245e565b610448565b005b6101b061058d565b6101f66101f136600461245e565b61059a565b60405190151581526020016101bd565b6101d961021436600461247b565b6105d5565b6101d96102273660046124a7565b6108aa565b6101d961023a3660046125a5565b61090c565b6101f661024d3660046125e2565b610a99565b6102656102603660046125e2565b610c30565b6040516101bd929190612652565b6101d961028136600461245e565b610c66565b6101d9610d8a565b6065546102a1906001600160a01b031681565b6040516001600160a01b0390911681526020016101bd565b6033546001600160a01b03166102a1565b6101d96102d836600461266d565b610d9e565b6101d96102eb36600461245e565b610e2e565b6066546102a1906001600160a01b031681565b61031661031136600461247b565b610e3a565b6040516101bd9291906126af565b6101d961033236600461247b565b610f34565b6101d96103453660046124a7565b611329565b6065546001600160a01b03166102a1565b61031661036936600461247b565b611333565b6101f661037c36600461245e565b61141f565b6101d961038f3660046124a7565b611457565b6101d96103a236600461245e565b611582565b6101d96103b536600461245e565b6116d0565b606b80546103c79061270c565b80601f01602080910402602001604051908101604052809291908181526020018280546103f39061270c565b80156104405780601f1061041557610100808354040283529160200191610440565b820191906000526020600020905b81548152906001019060200180831161042357829003601f168201915b505050505081565b6000336001148015906104725750336000908152606960205260409020546001600160a01b031615155b90506000816105025760665460405163b700961360e01b81523360048201523060248201526000356001600160e01b03191660448201526001600160a01b039091169063b700961390606401602060405180830381865afa1580156104db573d6000803e3d6000fd5b505050506040513d601f19601f820116820180604052508101906104ff919061275b565b90505b818061050b5750805b6105685760405162461bcd60e51b8152602060048201526024808201527f4e6f7420617574686f72697a656420746f2063616c6c20746869732066756e636044820152633a34b7b760e11b60648201526084015b60405180910390fd5b606680546001600160a01b0319166001600160a01b038516179055505050565b505050565b606c80546103c79061270c565b600060016001600160a01b038316148015906105cf57506001600160a01b038281166000908152606960205260409020541615155b92915050565b6000336001148015906105ff5750336000908152606960205260409020546001600160a01b031615155b905060008161068f5760665460405163b700961360e01b81523360048201523060248201526000356001600160e01b03191660448201526001600160a01b039091169063b700961390606401602060405180830381865afa158015610668573d6000803e3d6000fd5b505050506040513d601f19601f8201168201806040525081019061068c919061275b565b90505b81806106985750805b6106f05760405162461bcd60e51b8152602060048201526024808201527f4e6f7420617574686f72697a656420746f2063616c6c20746869732066756e636044820152633a34b7b760e11b606482015260840161055f565b606a546001600160a01b0316330361075e5760405162461bcd60e51b815260206004820152602b60248201527f546865207265676973746572656420736166652063616e6e6f742063616c6c2060448201526a1d1a1a5cc81b595d1a1bd960aa1b606482015260840161055f565b6040516001600160a01b03851660248201526044810184905260009060640160408051601f198184030181529181526020820180517bffffffffffffffffffffffffffffffffffffffffffffffffffffffff167f0d582f1300000000000000000000000000000000000000000000000000000000179052606a54905163468721a760e01b81529192506000916001600160a01b039091169063468721a7906108109083908590879082906004016127aa565b6020604051808303816000875af115801561082f573d6000803e3d6000fd5b505050506040513d601f19601f82011682018060405250810190610853919061275b565b9050806108a25760405162461bcd60e51b815260206004820152601760248201527f53616665205472616e73616374696f6e204661696c6564000000000000000000604482015260640161055f565b505050505050565b6001600160a01b0380821660009081526068602052604080822080548685166001600160a01b031982168117909255915191909316929183917f90cc2f570a6eb594b1580ea3e41247d2d73a55281889e86bd4ec2fc29c7e62d69190a3505050565b600054610100900460ff161580801561092c5750600054600160ff909116105b806109465750303b158015610946575060005460ff166001145b6109b85760405162461bcd60e51b815260206004820152602e60248201527f496e697469616c697a61626c653a20636f6e747261637420697320616c72656160448201527f647920696e697469616c697a6564000000000000000000000000000000000000606482015260840161055f565b6000805460ff1916600117905580156109db576000805461ff0019166101001790555b600080600080858060200190518101906109f5919061283c565b9350935093509350610a0561175d565b610a0d6117d0565b610a15611843565b610a1e846118b6565b610a27846119b3565b610a3083611af9565b606b610a3c838261290d565b50606c610a49828261290d565b50505050508015610a95576000805461ff0019169055604051600181527f7f26b83ff96e1f2b6a682f133852f6798a09c465da95921460cefb3847402498906020015b60405180910390a15b5050565b60008033600114801590610ac45750336000908152606960205260409020546001600160a01b031615155b9050600081610b545760665460405163b700961360e01b81523360048201523060248201526000356001600160e01b03191660448201526001600160a01b039091169063b700961390606401602060405180830381865afa158015610b2d573d6000803e3d6000fd5b505050506040513d601f19601f82011682018060405250810190610b51919061275b565b90505b8180610b5d5750805b610bb55760405162461bcd60e51b8152602060048201526024808201527f4e6f7420617574686f72697a656420746f2063616c6c20746869732066756e636044820152633a34b7b760e11b606482015260840161055f565b610bc2878787875a611c2e565b92508215610bfa5760405133907f6895c13664aa4f67288b25d7a21d7aaa34916e355fb9b6fae0a139a9085becb890600090a2610c26565b60405133907facd2c8702804128fdb0db2bb49f6d127dd0181c13fd45dbfe16de0930e2bd37590600090a25b5050949350505050565b60006060610c4086868686610a99565b915060405160203d0181016040523d81523d6000602083013e8091505094509492505050565b600033600114801590610c905750336000908152606960205260409020546001600160a01b031615155b9050600081610d205760665460405163b700961360e01b81523360048201523060248201526000356001600160e01b03191660448201526001600160a01b039091169063b700961390606401602060405180830381865afa158015610cf9573d6000803e3d6000fd5b505050506040513d601f19601f82011682018060405250810190610d1d919061275b565b90505b8180610d295750805b610d815760405162461bcd60e51b8152602060048201526024808201527f4e6f7420617574686f72697a656420746f2063616c6c20746869732066756e636044820152633a34b7b760e11b606482015260840161055f565b61058883611af9565b610d92611c75565b610d9c6000611ccf565b565b606a546001600160a01b03163314610e1e5760405162461bcd60e51b815260206004820152602d60248201527f4f6e6c7920746865207265676973746572656420736166652063616e2063616c60448201527f6c2074686973206d6574686f6400000000000000000000000000000000000000606482015260840161055f565b60606108a2848483856000611d21565b610e37816119b3565b50565b606060008267ffffffffffffffff811115610e5757610e576124e0565b604051908082528060200260200182016040528015610e80578160200160208202803683370190505b506001600160a01b0380861660009081526067602052604081205492945091165b6001600160a01b03811615801590610ec357506001600160a01b038116600114155b8015610ece57508482105b15610f265780848381518110610ee657610ee66129cd565b6001600160a01b03928316602091820292909201810191909152918116600090815260679092526040909120541681610f1e816129f9565b925050610ea1565b908352919491935090915050565b600033600114801590610f5e5750336000908152606960205260409020546001600160a01b031615155b9050600081610fee5760665460405163b700961360e01b81523360048201523060248201526000356001600160e01b03191660448201526001600160a01b039091169063b700961390606401602060405180830381865afa158015610fc7573d6000803e3d6000fd5b505050506040513d601f19601f82011682018060405250810190610feb919061275b565b90505b8180610ff75750805b61104f5760405162461bcd60e51b8152602060048201526024808201527f4e6f7420617574686f72697a656420746f2063616c6c20746869732066756e636044820152633a34b7b760e11b606482015260840161055f565b606a546001600160a01b031633036110bd5760405162461bcd60e51b815260206004820152602b60248201527f546865207265676973746572656420736166652063616e6e6f742063616c6c2060448201526a1d1a1a5cc81b595d1a1bd960aa1b606482015260840161055f565b606a54604080517fa0e67e2b00000000000000000000000000000000000000000000000000000000815290516000926001600160a01b03169163a0e67e2b91600480830192869291908290030181865afa15801561111f573d6000803e3d6000fd5b505050506040513d6000823e601f3d908101601f191682016040526111479190810190612a12565b90506000805b82518110156111d257866001600160a01b0316838281518110611172576111726129cd565b60200260200101516001600160a01b0316036111c0578060000361119957600191506111c0565b826111a5600183612ac4565b815181106111b5576111b56129cd565b602002602001015191505b806111ca816129f9565b91505061114d565b506040516001600160a01b038083166024830152871660448201526064810186905260009060840160408051601f198184030181529181526020820180517bffffffffffffffffffffffffffffffffffffffffffffffffffffffff167ff8dc5dd900000000000000000000000000000000000000000000000000000000179052606a54905163468721a760e01b81529192506000916001600160a01b039091169063468721a79061128d9083908590879082906004016127aa565b6020604051808303816000875af11580156112ac573d6000803e3d6000fd5b505050506040513d601f19601f820116820180604052508101906112d0919061275b565b90508061131f5760405162461bcd60e51b815260206004820152601760248201527f53616665205472616e73616374696f6e204661696c6564000000000000000000604482015260640161055f565b5050505050505050565b610a958282611fa1565b606060008267ffffffffffffffff811115611350576113506124e0565b604051908082528060200260200182016040528015611379578160200160208202803683370190505b506001600160a01b0380861660009081526069602052604081205492945091165b6001600160a01b038116158015906113bc57506001600160a01b038116600114155b80156113c757508482105b15610f2657808483815181106113df576113df6129cd565b6001600160a01b03928316602091820292909201810191909152918116600090815260699092526040909120541681611417816129f9565b92505061139a565b600060016001600160a01b038316148015906105cf5750506001600160a01b0390811660009081526067602052604090205416151590565b6000336001148015906114815750336000908152606960205260409020546001600160a01b031615155b90506000816115115760665460405163b700961360e01b81523360048201523060248201526000356001600160e01b03191660448201526001600160a01b039091169063b700961390606401602060405180830381865afa1580156114ea573d6000803e3d6000fd5b505050506040513d601f19601f8201168201806040525081019061150e919061275b565b90505b818061151a5750805b6115725760405162461bcd60e51b8152602060048201526024808201527f4e6f7420617574686f72697a656420746f2063616c6c20746869732066756e636044820152633a34b7b760e11b606482015260840161055f565b61157c84846120c0565b50505050565b61158a611c75565b6001600160a01b0381161561167b576040517f01ffc9a70000000000000000000000000000000000000000000000000000000081527fe6d7a83a0000000000000000000000000000000000000000000000000000000060048201526001600160a01b038216906301ffc9a790602401602060405180830381865afa158015611616573d6000803e3d6000fd5b505050506040513d601f19601f8201168201806040525081019061163a919061275b565b61167b576040517fb16ea67e0000000000000000000000000000000000000000000000000000000081526001600160a01b038216600482015260240161055f565b606580546001600160a01b0319166001600160a01b0383169081179091556040519081527f1151116914515bc0891ff9047a6cb32cf902546f83066499bcf8ba33d2353fa2906020015b60405180910390a150565b6116d8611c75565b6001600160a01b0381166117545760405162461bcd60e51b815260206004820152602660248201527f4f776e61626c653a206e6577206f776e657220697320746865207a65726f206160448201527f6464726573730000000000000000000000000000000000000000000000000000606482015260840161055f565b610e3781611ccf565b600054610100900460ff166117c85760405162461bcd60e51b815260206004820152602b60248201527f496e697469616c697a61626c653a20636f6e7472616374206973206e6f74206960448201526a6e697469616c697a696e6760a81b606482015260840161055f565b610d9c6121df565b600054610100900460ff1661183b5760405162461bcd60e51b815260206004820152602b60248201527f496e697469616c697a61626c653a20636f6e7472616374206973206e6f74206960448201526a6e697469616c697a696e6760a81b606482015260840161055f565b610d9c612253565b600054610100900460ff166118ae5760405162461bcd60e51b815260206004820152602b60248201527f496e697469616c697a61626c653a20636f6e7472616374206973206e6f74206960448201526a6e697469616c697a696e6760a81b606482015260840161055f565b610d9c612315565b6001600160a01b03811661190c5760405162461bcd60e51b815260206004820152600f60248201527f496e76616c696420616464726573730000000000000000000000000000000000604482015260640161055f565b606a546001600160a01b0316156119655760405162461bcd60e51b815260206004820152601760248201527f4d6f64756c6520616c7265616479206861732073616665000000000000000000604482015260640161055f565b606a80546001600160a01b0319166001600160a01b0383169081179091556040519081527f28c5ac8148c93862fe8d3b692cc159e3359b54fae60f1d8ca29f338e4b21e948906020016116c5565b6001600160a01b038116158015906119d557506001600160a01b038116600114155b611a095760405162461bcd60e51b8152602060048201526005602482015264475331303160d81b604482015260640161055f565b6001600160a01b038181166000908152606760205260409020541615611a595760405162461bcd60e51b815260206004820152600560248201526423a998981960d91b604482015260640161055f565b60676020527f6bee784efeb983674392298ab585b22866bedf00ebb0eea949d1e66f3f50e71d80546001600160a01b038381166000818152604081208054939094166001600160a01b0319938416179093556001909252825416179055611ac081806108aa565b6040516001600160a01b03821681527fdc8509131aac11ac4f5b915e0b24114ac71cf7b256433834e067829bf9db3ad4906020016116c5565b6001600160a01b03811615801590611b1b57506001600160a01b038116600114155b611b4f5760405162461bcd60e51b8152602060048201526005602482015264475331303160d81b604482015260640161055f565b6001600160a01b038181166000908152606960205260409020541615611b9f5760405162461bcd60e51b815260206004820152600560248201526423a998981960d91b604482015260640161055f565b606960209081527fc073f36c05b6a60b24c30a48974b549770d8fa354751fb3170c9dfd8ca536add80546001600160a01b03848116600081815260408082208054949095166001600160a01b0319948516179094556001905283549091168117909255519081527fecdf3a3effea5783a3c4c2140e677577666428d44ed9d474a0b3a4c9943f844091016116c5565b60006001836001811115611c4457611c44612776565b03611c5c576000808551602087018986f49050611c6c565b600080855160208701888a87f190505b95945050505050565b6033546001600160a01b03163314610d9c5760405162461bcd60e51b815260206004820181905260248201527f4f776e61626c653a2063616c6c6572206973206e6f7420746865206f776e6572604482015260640161055f565b603380546001600160a01b038381166001600160a01b0319831681179093556040519116919082907f8be0079c531659141344cd1fd0a4f28419497f9722a3daafe3b4186f6b6457e090600090a35050565b60006060611d2e8461141f565b611da05760405162461bcd60e51b815260206004820152602e60248201527f5472616e73616374696f6e2064657374696e6174696f6e20697320756e72656760448201527f6973746572656420417661746172000000000000000000000000000000000000606482015260840161055f565b6065546001600160a01b031615611e58576065546040805180820182526002815261060f60f31b602082015290517f75f0bb520000000000000000000000000000000000000000000000000000000081526001600160a01b03909216916375f0bb5291611e25918b918b918b918a916000918291829182918291903390600401612adb565b600060405180830381600087803b158015611e3f57600080fd5b505af1158015611e53573d6000803e3d6000fd5b505050505b6001600160a01b03808516600090815260686020526040908190205490517f5229073f000000000000000000000000000000000000000000000000000000008152911690635229073f90611eb6908a908a908a9089906004016127aa565b6000604051808303816000875af1158015611ed5573d6000803e3d6000fd5b505050506040513d6000823e601f3d908101601f19168201604052611efd9190810190612b69565b60655491935091506001600160a01b031615611f97576065546040517f9327136800000000000000000000000000000000000000000000000000000000815261060f60f31b600482015283151560248201526001600160a01b0390911690639327136890604401600060405180830381600087803b158015611f7e57600080fd5b505af1158015611f92573d6000803e3d6000fd5b505050505b9550959350505050565b6001600160a01b03811615801590611fc357506001600160a01b038116600114155b611ff75760405162461bcd60e51b8152602060048201526005602482015264475331303160d81b604482015260640161055f565b6001600160a01b0382811660009081526067602052604090205481169082161461204b5760405162461bcd60e51b8152602060048201526005602482015264475331303360d81b604482015260640161055f565b6001600160a01b038181166000818152606760209081526040808320805488871685528285208054919097166001600160a01b03199182161790965592849052825490941690915591519081527ff958f63a03d52fa6114df75e4f1176335f2a3cef00a6f620f1fbc70ae4b2542b9101610a8c565b6001600160a01b038116158015906120e257506001600160a01b038116600114155b6121165760405162461bcd60e51b8152602060048201526005602482015264475331303160d81b604482015260640161055f565b6001600160a01b0382811660009081526069602052604090205481169082161461216a5760405162461bcd60e51b8152602060048201526005602482015264475331303360d81b604482015260640161055f565b6001600160a01b038181166000818152606960209081526040808320805488871685528285208054919097166001600160a01b03199182161790965592849052825490941690915591519081527faab4fa2b463f581b2b32cb3b7e3b704b9ce37cc209b5fb4d77e593ace40542769101610a8c565b600054610100900460ff1661224a5760405162461bcd60e51b815260206004820152602b60248201527f496e697469616c697a61626c653a20636f6e7472616374206973206e6f74206960448201526a6e697469616c697a696e6760a81b606482015260840161055f565b610d9c33611ccf565b600160005260696020527fc073f36c05b6a60b24c30a48974b549770d8fa354751fb3170c9dfd8ca536add546001600160a01b0316156122d55760405162461bcd60e51b815260206004820152601b60248201527f4d6f64756c657320616c726561647920696e697469616c697a65640000000000604482015260640161055f565b6001600081905260696020527fc073f36c05b6a60b24c30a48974b549770d8fa354751fb3170c9dfd8ca536add80546001600160a01b0319169091179055565b600160005260676020527f6bee784efeb983674392298ab585b22866bedf00ebb0eea949d1e66f3f50e71d546001600160a01b0316156123975760405162461bcd60e51b815260206004820152601b60248201527f6176617461727320616c726561647920696e697469616c697a65640000000000604482015260640161055f565b6001600081905260676020527f6bee784efeb983674392298ab585b22866bedf00ebb0eea949d1e66f3f50e71d80546001600160a01b0319169091179055565b60005b838110156123f25781810151838201526020016123da565b8381111561157c5750506000910152565b6000815180845261241b8160208601602086016123d7565b601f01601f19169290920160200192915050565b6020815260006124426020830184612403565b9392505050565b6001600160a01b0381168114610e3757600080fd5b60006020828403121561247057600080fd5b813561244281612449565b6000806040838503121561248e57600080fd5b823561249981612449565b946020939093013593505050565b600080604083850312156124ba57600080fd5b82356124c581612449565b915060208301356124d581612449565b809150509250929050565b634e487b7160e01b600052604160045260246000fd5b604051601f8201601f1916810167ffffffffffffffff8111828210171561251f5761251f6124e0565b604052919050565b600067ffffffffffffffff821115612541576125416124e0565b50601f01601f191660200190565b600082601f83011261256057600080fd5b813561257361256e82612527565b6124f6565b81815284602083860101111561258857600080fd5b816020850160208301376000918101602001919091529392505050565b6000602082840312156125b757600080fd5b813567ffffffffffffffff8111156125ce57600080fd5b6125da8482850161254f565b949350505050565b600080600080608085870312156125f857600080fd5b843561260381612449565b935060208501359250604085013567ffffffffffffffff81111561262657600080fd5b6126328782880161254f565b92505060608501356002811061264757600080fd5b939692955090935050565b82151581526040602082015260006125da6040830184612403565b60008060006060848603121561268257600080fd5b833561268d81612449565b92506020840135915060408401356126a481612449565b809150509250925092565b604080825283519082018190526000906020906060840190828701845b828110156126f15781516001600160a01b0316845292840192908401906001016126cc565b5050506001600160a01b039490941692019190915250919050565b600181811c9082168061272057607f821691505b60208210810361274057634e487b7160e01b600052602260045260246000fd5b50919050565b8051801515811461275657600080fd5b919050565b60006020828403121561276d57600080fd5b61244282612746565b634e487b7160e01b600052602160045260246000fd5b60028110610e3757634e487b7160e01b600052602160045260246000fd5b6001600160a01b03851681528360208201526080604082015260006127d26080830185612403565b90506127dd8361278c565b82606083015295945050505050565b60006127fa61256e84612527565b905082815283838301111561280e57600080fd5b6124428360208301846123d7565b600082601f83011261282d57600080fd5b612442838351602085016127ec565b6000806000806080858703121561285257600080fd5b845161285d81612449565b602086015190945061286e81612449565b604086015190935067ffffffffffffffff8082111561288c57600080fd5b6128988883890161281c565b935060608701519150808211156128ae57600080fd5b506128bb8782880161281c565b91505092959194509250565b601f82111561058857600081815260208120601f850160051c810160208610156128ee5750805b601f850160051c820191505b818110156108a2578281556001016128fa565b815167ffffffffffffffff811115612927576129276124e0565b61293b81612935845461270c565b846128c7565b602080601f83116001811461297057600084156129585750858301515b600019600386901b1c1916600185901b1785556108a2565b600085815260208120601f198616915b8281101561299f57888601518255948401946001909101908401612980565b50858210156129bd5787850151600019600388901b60f8161c191681555b5050505050600190811b01905550565b634e487b7160e01b600052603260045260246000fd5b634e487b7160e01b600052601160045260246000fd5b600060018201612a0b57612a0b6129e3565b5060010190565b60006020808385031215612a2557600080fd5b825167ffffffffffffffff80821115612a3d57600080fd5b818501915085601f830112612a5157600080fd5b815181811115612a6357612a636124e0565b8060051b9150612a748483016124f6565b8181529183018401918481019088841115612a8e57600080fd5b938501935b83851015612ab85784519250612aa883612449565b8282529385019390850190612a93565b98975050505050505050565b600082821015612ad657612ad66129e3565b500390565b60006101606001600160a01b03808f1684528d6020850152816040850152612b058285018e612403565b9150612b108c61278c565b8b60608501528a60808501528960a08501528860c085015280881660e0850152808716610100850152838203610120850152612b4c8287612403565b925080851661014085015250509c9b505050505050505050505050565b60008060408385031215612b7c57600080fd5b612b8583612746565b9150602083015167ffffffffffffffff811115612ba157600080fd5b8301601f81018513612bb257600080fd5b612bc1858251602084016127ec565b915050925092905056fea2646970667358221220de072a2936ed3e85efca89799ff8c128d3fdcafb14b2d24dd9e3c33cd13e420464736f6c634300080f0033",
  "linkReferences": {},
  "deployedLinkReferences": {}
}