{
  "_format": "hh-sol-artifact-1",
  "contractName": "StorageAccessible",
  "sourceName": "@gnosis.pm/safe-contracts/contracts/common/StorageAccessible.sol",
  "abi": [
    {
      "inputs": [
        {
          "internalType": "uint256",
          "name": "offset",
          "type": "uint256"
        },
        {
          "internalType": "uint256",
          "name": "length",
          "type": "uint256"
        }
      ],
      "name": "getStorageAt",
      "outputs": [
        {
          "internalType": "bytes",
          "name": "",
          "type": "bytes"
        }
      ],
      "stateMutability": "view",
      "type": "function"
    },
    {
      "inputs": [
        {
          "internalType": "address",
          "name": "targetContract",
          "type": "address"
        },
        {
          "internalType": "bytes",
          "name": "calldataPayload",
          "type": "bytes"
        }
      ],
      "name": "simulateAndRevert",
      "outputs": [],
      "stateMutability": "nonpayable",
      "type": "function"
    }
  ],
  "bytecode": "0x608060405234801561001057600080fd5b50610310806100206000396000f3fe608060405234801561001057600080fd5b50600436106100365760003560e01c80635624b25b1461003b578063b4faba0914610064575b600080fd5b61004e610049366004610122565b610079565b60405161005b9190610144565b60405180910390f35b6100776100723660046101af565b6100ff565b005b606060006100888360206102a2565b67ffffffffffffffff8111156100a0576100a0610199565b6040519080825280601f01601f1916602001820160405280156100ca576020820181803683370190505b50905060005b838110156100f75784810154602080830284010152806100ef816102c1565b9150506100d0565b509392505050565b600080825160208401855af480600052503d6020523d600060403e60403d016000fd5b6000806040838503121561013557600080fd5b50508035926020909101359150565b600060208083528351808285015260005b8181101561017157858101830151858201604001528201610155565b81811115610183576000604083870101525b50601f01601f1916929092016040019392505050565b634e487b7160e01b600052604160045260246000fd5b600080604083850312156101c257600080fd5b823573ffffffffffffffffffffffffffffffffffffffff811681146101e657600080fd5b9150602083013567ffffffffffffffff8082111561020357600080fd5b818501915085601f83011261021757600080fd5b81358181111561022957610229610199565b604051601f8201601f19908116603f0116810190838211818310171561025157610251610199565b8160405282815288602084870101111561026a57600080fd5b8260208601602083013760006020848301015280955050505050509250929050565b634e487b7160e01b600052601160045260246000fd5b60008160001904831182151516156102bc576102bc61028c565b500290565b6000600182016102d3576102d361028c565b506001019056fea26469706673582212202b82f6135c38d5543434b424841d415edf3bd9da7a7a4a9a272753b60320bf8064736f6c634300080f0033",
  "linkReferences": {},
  "deployedLinkReferences": {}
}