{
  "_format": "hh-sol-artifact-1",
  "contractName": "Guardable",
  "sourceName": "@gnosis.pm/zodiac/contracts/guard/Guardable.sol",
  "abi": [
    {
      "inputs": [
        {
          "internalType": "address",
          "name": "guard_",
          "type": "address"
        }
      ],
      "name": "NotIERC165Compliant",
      "type": "error"
    },
    {
      "anonymous": false,
      "inputs": [
        {
          "indexed": false,
          "internalType": "address",
          "name": "guard",
          "type": "address"
        }
      ],
      "name": "ChangedGuard",
      "type": "event"
    },
    {
      "anonymous": false,
      "inputs": [
        {
          "indexed": false,
          "internalType": "uint8",
          "name": "version",
          "type": "uint8"
        }
      ],
      "name": "Initialized",
      "type": "event"
    },
    {
      "anonymous": false,
      "inputs": [
        {
          "indexed": true,
          "internalType": "address",
          "name": "previousOwner",
          "type": "address"
        },
        {
          "indexed": true,
          "internalType": "address",
          "name": "newOwner",
          "type": "address"
        }
      ],
      "name": "OwnershipTransferred",
      "type": "event"
    },
    {
      "inputs": [],
      "name": "getGuard",
      "outputs": [
        {
          "internalType": "address",
          "name": "_guard",
          "type": "address"
        }
      ],
      "stateMutability": "view",
      "type": "function"
    },
    {
      "inputs": [],
      "name": "guard",
      "outputs": [
        {
          "internalType": "address",
          "name": "",
          "type": "address"
        }
      ],
      "stateMutability": "view",
      "type": "function"
    },
    {
      "inputs": [],
      "name": "owner",
      "outputs": [
        {
          "internalType": "address",
          "name": "",
          "type": "address"
        }
      ],
      "stateMutability": "view",
      "type": "function"
    },
    {
      "inputs": [],
      "name": "renounceOwnership",
      "outputs": [],
      "stateMutability": "nonpayable",
      "type": "function"
    },
    {
      "inputs": [
        {
          "internalType": "address",
          "name": "_guard",
          "type": "address"
        }
      ],
      "name": "setGuard",
      "outputs": [],
      "stateMutability": "nonpayable",
      "type": "function"
    },
    {
      "inputs": [
        {
          "internalType": "address",
          "name": "newOwner",
          "type": "address"
        }
      ],
      "name": "transferOwnership",
      "outputs": [],
      "stateMutability": "nonpayable",
      "type": "function"
    }
  ],
  "bytecode": "0x608060405234801561001057600080fd5b5061043c806100206000396000f3fe608060405234801561001057600080fd5b50600436106100725760003560e01c8063c910638911610050578063c9106389146100c1578063e19a9dd9146100d2578063f2fde38b146100e557600080fd5b8063715018a6146100775780637ceab3b1146100815780638da5cb5b146100b0575b600080fd5b61007f6100f8565b005b606554610094906001600160a01b031681565b6040516001600160a01b03909116815260200160405180910390f35b6033546001600160a01b0316610094565b6065546001600160a01b0316610094565b61007f6100e03660046103b4565b61010c565b61007f6100f33660046103b4565b61026b565b6101006102fb565b61010a6000610355565b565b6101146102fb565b6001600160a01b0381161561020a576040517f01ffc9a70000000000000000000000000000000000000000000000000000000081527fe6d7a83a0000000000000000000000000000000000000000000000000000000060048201526001600160a01b038216906301ffc9a790602401602060405180830381865afa1580156101a0573d6000803e3d6000fd5b505050506040513d601f19601f820116820180604052508101906101c491906103e4565b61020a576040517fb16ea67e0000000000000000000000000000000000000000000000000000000081526001600160a01b03821660048201526024015b60405180910390fd5b6065805473ffffffffffffffffffffffffffffffffffffffff19166001600160a01b0383169081179091556040519081527f1151116914515bc0891ff9047a6cb32cf902546f83066499bcf8ba33d2353fa29060200160405180910390a150565b6102736102fb565b6001600160a01b0381166102ef5760405162461bcd60e51b815260206004820152602660248201527f4f776e61626c653a206e6577206f776e657220697320746865207a65726f206160448201527f64647265737300000000000000000000000000000000000000000000000000006064820152608401610201565b6102f881610355565b50565b6033546001600160a01b0316331461010a5760405162461bcd60e51b815260206004820181905260248201527f4f776e61626c653a2063616c6c6572206973206e6f7420746865206f776e65726044820152606401610201565b603380546001600160a01b0383811673ffffffffffffffffffffffffffffffffffffffff19831681179093556040519116919082907f8be0079c531659141344cd1fd0a4f28419497f9722a3daafe3b4186f6b6457e090600090a35050565b6000602082840312156103c657600080fd5b81356001600160a01b03811681146103dd57600080fd5b9392505050565b6000602082840312156103f657600080fd5b815180151581146103dd57600080fdfea2646970667358221220b679ab9c54407132173468ab19e6c1a344554b6b28d684e46a99bd39517287ce64736f6c634300080f0033",
  "linkReferences": {},
  "deployedLinkReferences": {}
}